{"contracts/Add_Swap_Contract.sol":{"Add_Swap_Contract":{"abi":[{"inputs":[{"internalType":"address","name":"_swapRouter","type":"address"},{"internalType":"address","name":"_positionManager","type":"address"},{"internalType":"address","name":"_token0","type":"address"},{"internalType":"address","name":"_token1","type":"address"}],"stateMutability":"nonpayable","type":"constructor"},{"anonymous":false,"inputs":[{"indexed":true,"internalType":"uint256","name":"id","type":"uint256"},{"indexed":true,"internalType":"enum Add_Swap_Contract.TransactionType","name":"transactionType","type":"uint8"},{"indexed":false,"internalType":"bytes32","name":"txHash","type":"bytes32"},{"indexed":true,"internalType":"address","name":"user","type":"address"}],"name":"TransactionAdded","type":"event"},{"inputs":[{"internalType":"uint256","name":"amount0Desired","type":"uint256"},{"internalType":"uint256","name":"amount1Desired","type":"uint256"}],"name":"addLiquidity","outputs":[{"internalType":"uint256","name":"tokenId","type":"uint256"}],"stateMutability":"nonpayable","type":"function"},{"inputs":[{"internalType":"enum Add_Swap_Contract.TransactionType","name":"transactionType","type":"uint8"},{"internalType":"string","name":"fromToken","type":"string"},{"internalType":"string","name":"toToken","type":"string"},{"internalType":"uint256","name":"fromAmount","type":"uint256"},{"internalType":"uint256","name":"toAmount","type":"uint256"},{"internalType":"bytes32","name":"txHash","type":"bytes32"}],"name":"addTransactionToHistory","outputs":[],"stateMutability":"nonpayable","type":"function"},{"inputs":[{"internalType":"uint256","name":"","type":"uint256"}],"name":"allTransactions","outputs":[{"internalType":"uint256","name":"id","type":"uint256"},{"internalType":"enum Add_Swap_Contract.TransactionType","name":"transactionType","type":"uint8"},{"internalType":"string","name":"fromToken","type":"string"},{"internalType":"string","name":"toToken","type":"string"},{"internalType":"uint256","name":"fromAmount","type":"uint256"},{"internalType":"uint256","name":"toAmount","type":"uint256"},{"internalType":"uint256","name":"timestamp","type":"uint256"},{"internalType":"bytes32","name":"hash","type":"bytes32"},{"internalType":"string","name":"status","type":"string"}],"stateMutability":"view","type":"function"},{"inputs":[],"name":"fee","outputs":[{"internalType":"uint24","name":"","type":"uint24"}],"stateMutability":"view","type":"function"},{"inputs":[],"name":"getAllTransactionHistory","outputs":[{"components":[{"internalType":"uint256","name":"id","type":"uint256"},{"internalType":"enum Add_Swap_Contract.TransactionType","name":"transactionType","type":"uint8"},{"internalType":"string","name":"fromToken","type":"string"},{"internalType":"string","name":"toToken","type":"string"},{"internalType":"uint256","name":"fromAmount","type":"uint256"},{"internalType":"uint256","name":"toAmount","type":"uint256"},{"internalType":"uint256","name":"timestamp","type":"uint256"},{"internalType":"bytes32","name":"hash","type":"bytes32"},{"internalType":"string","name":"status","type":"string"}],"internalType":"struct Add_Swap_Contract.Transaction[]","name":"","type":"tuple[]"}],"stateMutability":"view","type":"function"},{"inputs":[{"internalType":"address","name":"pool","type":"address"}],"name":"getPoolBalances","outputs":[{"internalType":"uint256","name":"bal0","type":"uint256"},{"internalType":"uint256","name":"bal1","type":"uint256"}],"stateMutability":"view","type":"function"},{"inputs":[{"internalType":"address","name":"pool","type":"address"}],"name":"getPoolInfo","outputs":[{"internalType":"uint160","name":"sqrtPriceX96","type":"uint160"},{"internalType":"int24","name":"tick","type":"int24"},{"internalType":"uint128","name":"liquidity","type":"uint128"}],"stateMutability":"view","type":"function"},{"inputs":[{"internalType":"uint256","name":"tokenId","type":"uint256"}],"name":"getPosition","outputs":[{"internalType":"uint128","name":"liquidity","type":"uint128"}],"stateMutability":"view","type":"function"},{"inputs":[{"internalType":"address","name":"pool","type":"address"}],"name":"getTokenPrice","outputs":[{"internalType":"uint256","name":"price","type":"uint256"}],"stateMutability":"view","type":"function"},{"inputs":[],"name":"getUserTransactionHistory","outputs":[{"components":[{"internalType":"uint256","name":"id","type":"uint256"},{"internalType":"enum Add_Swap_Contract.TransactionType","name":"transactionType","type":"uint8"},{"internalType":"string","name":"fromToken","type":"string"},{"internalType":"string","name":"toToken","type":"string"},{"internalType":"uint256","name":"fromAmount","type":"uint256"},{"internalType":"uint256","name":"toAmount","type":"uint256"},{"internalType":"uint256","name":"timestamp","type":"uint256"},{"internalType":"bytes32","name":"hash","type":"bytes32"},{"internalType":"string","name":"status","type":"string"}],"internalType":"struct Add_Swap_Contract.Transaction[]","name":"","type":"tuple[]"}],"stateMutability":"view","type":"function"},{"inputs":[],"name":"positionManager","outputs":[{"internalType":"contract INonfungiblePositionManager","name":"","type":"address"}],"stateMutability":"view","type":"function"},{"inputs":[{"internalType":"address","name":"inputToken","type":"address"},{"internalType":"address","name":"outputToken","type":"address"},{"internalType":"uint256","name":"amountIn","type":"uint256"}],"name":"swapExactInputSingle","outputs":[{"internalType":"uint256","name":"amountOut","type":"uint256"}],"stateMutability":"nonpayable","type":"function"},{"inputs":[],"name":"swapRouter","outputs":[{"internalType":"contract ISwapRouter","name":"","type":"address"}],"stateMutability":"view","type":"function"},{"inputs":[],"name":"token0","outputs":[{"internalType":"address","name":"","type":"address"}],"stateMutability":"view","type":"function"},{"inputs":[],"name":"token1","outputs":[{"internalType":"address","name":"","type":"address"}],"stateMutability":"view","type":"function"}],"evm":{"bytecode":{"linkReferences":{},"object":"60c0604052346200007057620000226200001862000141565b9291909162000248565b604051611ea4620002a682396080518181816106cb01528181611a510152611b33015260a0518181816105fa0152818161165b015281816116d8015281816118160152611ddd0152611ea490f35b600080fd5b634e487b7160e01b600052604160045260246000fd5b90601f01601f191681019081106001600160401b03821117620000ad57604052565b62000075565b90620000ca620000c260405190565b92836200008b565b565b6001600160a01b031690565b90565b6001600160a01b038116036200007057565b90505190620000ca82620000db565b6080818303126200007057620001138282620000ed565b92620000d8620001278460208501620000ed565b93620001378160408601620000ed565b93606001620000ed565b620001646200214a803803806200015881620000b3565b928339810190620000fc565b90919293565b9062ffffff60a01b9060a01b5b9181191691161790565b62000191620000d8620000d89290565b62ffffff1690565b90620001ad620000d8620001b59262000181565b82546200016a565b9055565b620000d890620000cc906001600160a01b031682565b620000d890620001b9565b620000d890620001cf565b906001600160a01b039062000177565b9062000209620000d8620001b592620001da565b8254620001e5565b620000d8620000d8620000d89290565b906000199062000177565b9062000240620000d8620001b59262000211565b825462000221565b916200027a6200028592620002716200028d96956200026b6101f4600162000199565b620001da565b608052620001da565b60a0526000620001f5565b6001620001f5565b620000ca6200029d600162000211565b60036200022c56fe6080604052600436101561001257600080fd5b60003560e01c806306bfa938146101025780630dfe1681146100fd5780634abf5dc1146100f8578063784394bc146100f3578063791b98bc146100ee5780637b50f8c5146100e95780639cd441da146100e4578063c31c9c07146100df578063c979affb146100da578063ceb92012146100d5578063d02641a0146100d0578063d21220a7146100cb578063d7ff0714146100c6578063ddca3f43146100c15763eb02c3010361012857610a8a565b610a59565b6109fa565b61077d565b610756565b61073a565b6106ef565b6106b6565b61068a565b610639565b6105e5565b61057d565b6103a0565b6101f9565b610196565b6001600160a01b031690565b90565b6001600160a01b0381165b0361012857565b600080fd5b9050359061013a82610116565b565b90602082820312610128576101139161012d565b9052565b6001600160a01b03909116815260608101939261013a92909160409161017e9060020b6020830152565b01906fffffffffffffffffffffffffffffffff169052565b34610128576101c06101b16101ac36600461013c565b610be8565b60405191939193849384610154565b0390f35b600091031261012857565b610113916008021c6001600160a01b031690565b9061011391546101cf565b6101136000806101e3565b34610128576102093660046101c4565b6101c06102146101ee565b604051918291826001600160a01b03909116815260200190565b6002111561012857565b9050359061013a8261022e565b634e487b7160e01b600052604160045260246000fd5b90601f01601f1916810190811067ffffffffffffffff82111761027d57604052565b610245565b9061013a61028f60405190565b928361025b565b67ffffffffffffffff811161027d57602090601f01601f19160190565b0190565b90826000939282370152565b909291926102d86102d382610296565b610282565b938185526020850190828401116101285761013a926102b7565b9080601f8301121561012857816020610113933591016102c3565b80610121565b9050359061013a8261030d565b909160c082840312610128576103368383610238565b92602083013567ffffffffffffffff811161012857816103579185016102f2565b92604081013567ffffffffffffffff811161012857826103789183016102f2565b926101136103898460608501610313565b936103978160808601610313565b9360a001610313565b34610128576103bf6103b3366004610320565b9493909392919261109a565b604051005b634e487b7160e01b600052602160045260246000fd5b600211156103e457565b6103c4565b9061013a826103da565b610113906103e9565b610150906103f3565b60005b8381106104185750506000910152565b8181015183820152602001610408565b6104496104526020936102b39361043d815190565b80835293849260200190565b95869101610405565b601f01601f191690565b80518252610113916101006104a86104966101208401610484602087015160208701906103fc565b60408601518582036040870152610428565b60608501518482036060860152610428565b926104b860808201516080850152565b6104c760a082015160a0850152565b6104d660c082015160c0850152565b6104e560e082015160e0850152565b015190610100818403910152610428565b906101139161045c565b9061051661050c835190565b8083529160200190565b90816105286020830284019460200190565b926000915b83831061053c57505050505090565b9091929394602061055f610558838560019503875289516104f6565b9760200190565b930193019193929061052d565b602080825261011392910190610500565b346101285761058d3660046101c4565b6101c06105986112e5565b6040519182918261056c565b610107610113610113926001600160a01b031690565b610113906105a4565b610113906105ba565b610150906105c3565b60208101929161013a91906105cc565b34610128576105f53660046101c4565b6101c07f00000000000000000000000000000000000000000000000000000000000000005b604051918291826105d5565b90815260408101929161013a9160200152565b346101285761065161064c36600461013c565b611323565b906101c061065e60405190565b92839283610626565b919060408382031261012857610113906106818185610313565b93602001610313565b34610128576101c06106a66106a0366004610667565b90611599565b6040519182918290815260200190565b34610128576106c63660046101c4565b6101c07f000000000000000000000000000000000000000000000000000000000000000061061a565b34610128576106ff3660046101c4565b6101c061059861192e565b909160608284031261012857610113610723848461012d565b93610731816020860161012d565b93604001610313565b34610128576101c06106a661075036600461070a565b916119f3565b34610128576101c06106a661076c36600461013c565b611c23565b610113600060016101e3565b346101285761078d3660046101c4565b6101c0610214610771565b906020828203126101285761011391610313565b634e487b7160e01b600052603260045260246000fd5b80548210156107e5576107dc600991600052602060002090565b91020190600090565b6107ac565b6101139081565b61011390546107ea565b634e487b7160e01b600052602260045260246000fd5b9060016002830492168015610831575b602083101461082c57565b6107fb565b91607f1691610821565b8054600093929161085861084e83610811565b8085529360200190565b91600181169081156108aa575060011461087157505050565b6108849192939450600052602060002090565b916000925b8184106108965750500190565b805484840152602090930192600101610889565b92949550505060ff1916825215156020020190565b906101139161083b565b9061013a6108e3926108da60405190565b938480926108bf565b038361025b565b6004906108f5825490565b81101561012857610905916107c2565b5061090f816107f1565b9161091e600183015460ff1690565b9161092b600282016108c9565b91610938600383016108c9565b91610945600482016107f1565b91610952600583016107f1565b9161095f600682016107f1565b916101136008610971600785016107f1565b93016108c9565b956109d76109cf6109ec979a966109c16109de956109e5986101139f9d986109b49060208f6109ad6101208201966000830152565b01906103fc565b8c820360408e0152610428565b908a820360608c0152610428565b996080890152565b60a0870152565b60c0850152565b60e0830152565b610100818403910152610428565b34610128576101c0610a15610a10366004610798565b6108ea565b95610a2899979995919594929460405190565b998a998a610978565b610113916008021c5b62ffffff1690565b906101139154610a31565b61011360146001610a42565b3461012857610a693660046101c4565b6101c0610a74610a4d565b6040519182918262ffffff909116815260200190565b34610128576101c0610aa5610aa0366004610798565b611dc8565b604051918291826fffffffffffffffffffffffffffffffff909116815260200190565b6001600160a01b038116610121565b9050519061013a82610ac8565b6101218160020b90565b9050519061013a82610ae4565b61ffff8116610121565b9050519061013a82610afb565b60ff8116610121565b9050519061013a82610b12565b801515610121565b9050519061013a82610b28565b60e08183031261012857610b518282610ad7565b92610b5f8360208401610aee565b92610b6d8160408501610b05565b92610b7b8260608301610b05565b92610113610b8c8460808501610b05565b93610b9a8160a08601610b1b565b9360c001610b30565b6040513d6000823e3d90fd5b6fffffffffffffffffffffffffffffffff8116610121565b9050519061013a82610baf565b906020828203126101285761011391610bc7565b90610c189060e0610c00610bfb856105c3565b6105c3565b633850c7bd90610c0f60405190565b94859260e01b90565b825260049082905afa918215610ca257600080919093610ca7575b506020610c47610bfb610c5f9395966105c3565b631a68650290610c5660405190565b93849260e01b90565b825260049082905afa908115610ca257600091610c7a575090565b610113915060203d8111610c9b575b610c93818361025b565b810190610bd4565b503d610c89565b610ba3565b610bfb9350610c5f9150610c47610cd660209260e03d8111610ce5575b610cce818361025b565b810190610b3d565b50505050509350945050610c33565b503d610cc4565b610113610120610282565b90610150906103e9565b90610d0e6102d383610296565b918252565b610d1d6009610d01565b7f636f6e6669726d65640000000000000000000000000000000000000000000000602082015290565b610113610d13565b634e487b7160e01b600052600060045260246000fd5b90600019905b9181191691161790565b6101136101136101139290565b90610d91610113610d9892610d74565b8254610d64565b9055565b61011390516103e9565b9060ff90610d6a565b90610dbf610113610d98926103f3565b8254610da6565b91906008610d6a910291610ddb600019841b90565b921b90565b9190610df1610113610d9893610d74565b908354610dc6565b61013a91600091610de0565b818110610e10575050565b80610e1e6000600193610df9565b01610e05565b9190601f8111610e3357505050565b610e4561013a93600052602060002090565b906020601f840181900483019310610e67575b6020601f909101040190610e05565b9091508190610e58565b90610e7a815190565b9067ffffffffffffffff821161027d57610e9e82610e988554610811565b85610e24565b602090601f8311600114610ed957610d98929160009183610ece575b5050600019600883021c1916906002021790565b015190503880610eba565b601f19831691610eee85600052602060002090565b9260005b818110610f2c57509160029391856001969410610f13575b50505002019055565b01516000196008601f8516021c19169055388080610f0a565b91936020600181928787015181550195019201610ef2565b9061013a91610e71565b90610d91610113610d989290565b61013a9190610fa99061010090600890610f7e81610f78875190565b90610d81565b610f9760018201610f9160208801610d9c565b90610daf565b610faf60028201610fa9604088015190565b90610f44565b610fc160038201610fa9606088015190565b610fd360048201610f78608088015190565b610fe560058201610f7860a088015190565b610ff760068201610f7860c088015190565b61100f6007820161100960e088015190565b90610f4e565b0192015190565b91906110255761013a91610f5c565b610d4e565b908154916801000000000000000083101561027d578261105291600161013a950181556107c2565b90611016565b90611062906105c3565b600052602052604060002090565b634e487b7160e01b600052601160045260246000fd5b60001981146110955760010190565b611070565b93929190916110a960036107f1565b938693429391929190876110bb610cec565b9788526110cb9060208901610cf7565b60408701526060860152608085015260a084015260c083015260e08201526110f1610d46565b61010082015261110281600461102a565b61110d336002611058565b816111179161102a565b61112160036107f1565b61112a90611086565b611135906003610d81565b519033917f19c7fb851f92c8d4f19411743a614909b5753cf16d0ef77d269c04e51eaa7f0e9061116490610d74565b9161116e906103f3565b92611178906105c3565b9361118260405190565b908152602090a4565b67ffffffffffffffff811161027d5760208091020190565b90610d0e6102d38361118b565b9061013a61127660086111c1610cec565b946111d26111ce826107f1565b8752565b6111ec6111e3600183015460ff1690565b60208801610cf7565b6112026111fb600283016108c9565b6040880152565b611218611211600383016108c9565b6060880152565b61122e611227600483016107f1565b6080880152565b61124461123d600583016107f1565b60a0880152565b61125a611253600683016107f1565b60c0880152565b611270611269600783016107f1565b60e0880152565b016108c9565b610100840152565b610113906111b0565b90611290825490565b611299816111a3565b926112ad6020850191600052602060002090565b6000915b8383106112be5750505050565b600960206001926112ce8561127e565b8152019201920191906112b1565b61011390611287565b61011360046112dc565b61011390610107565b61011390546112ef565b9050519061013a8261030d565b906020828203126101285761011391611302565b906113716020611339610bfb610bfb60006112f8565b6370a082319061135a869261134d60405190565b9586948593849360e01b90565b83526001600160a01b031660048301526024820190565b03915afa908115610ca2576113ae916020916000916113ec575b509361139d610bfb610bfb60016112f8565b61135a6370a0823161134d60405190565b03915afa908115610ca2576000916113c4575090565b610113915060203d81116113e5575b6113dd818361025b565b81019061130f565b503d6113d3565b6114039150823d81116113e5576113dd818361025b565b3861138b565b906020828203126101285761011391610b30565b6001600160a01b0391821681529116602082015260608101929161013a9160400152565b6001600160a01b03909116815260408101929161013a9160200152565b6101139060a01c610a3a565b610113905461145e565b9190820180921161109557565b610113610160610282565b6114996101136101139290565b60020b90565b608081830312610128576114b38282611302565b926101136114c48460208501610bc7565b936114d28160408601611302565b93606001611302565b80516001600160a01b0316825261013a91906101409081906020818101516001600160a01b03169085015260408181015162ffffff169085015260608181015160020b9085015260808181015160020b9085015261153e60a082015160a0860152565b61154d60c082015160c0860152565b61155c60e082015160e0860152565b61156d610100820151610100860152565b610120818101516001600160a01b0316908501520151910152565b6101608101929161013a91906114db565b906115aa610bfb610bfb60006112f8565b60206323b872dd9133906115dd60006115c2306105c3565b956115e8896115d060405190565b9889978896879560e01b90565b85526004850161141d565b03925af18015610ca257611912575b50611608610bfb610bfb60016112f8565b60206323b872dd9133906115dd6000611620306105c3565b9561162e886115d060405190565b03925af18015610ca2576118f6575b5061164e610bfb610bfb60006112f8565b602063095ea7b39161167f7f00000000000000000000000000000000000000000000000000000000000000006105c3565b906116a0600087956116ab61169360405190565b9788968795869460e01b90565b845260048401611441565b03925af18015610ca2576118da575b506116cb610bfb610bfb60016112f8565b602063095ea7b3916116fc7f00000000000000000000000000000000000000000000000000000000000000006105c3565b906116a06000869561171061169360405190565b03925af18015610ca2576118ae575b5061172a60006112f8565b9161173560016112f8565b91611740600161146a565b917ffffffffffffffffffffffffffffffffffffffffffffffffffffffffffff2764c91620d89b491600092600094339642607861177c90610d74565b61178591611474565b9861178e611481565b6001600160a01b03909b168b526001600160a01b031660208b015262ffffff1660408a01526117bc9061148c565b60020b60608901526117cd9061148c565b60020b608088015260a087015260c08601526117e890610d74565b60e08501526117f690610d74565b6101008401526001600160a01b031661012083015261014082015261183a7f00000000000000000000000000000000000000000000000000000000000000006105c3565b638831645661184860405190565b8093611855829360e01b90565b82526118649060048301611588565b03815a608094600091f1908115610ca257600091611880575090565b6118a1915060803d81116118a7575b611899818361025b565b81019061149f565b50505090565b503d61188f565b6118ce9060203d81116118d3575b6118c6818361025b565b810190611409565b61171f565b503d6118bc565b6118f19060203d81116118d3576118c6818361025b565b6116ba565b61190d9060203d81116118d3576118c6818361025b565b61163d565b6119299060203d81116118d3576118c6818361025b565b6115f7565b61011361193c336002611058565b6112dc565b610113610100610282565b6101076101136101139290565b80516001600160a01b0316825261013a919060e09081906020818101516001600160a01b03169085015260408181015162ffffff16908501526060808201516001600160a01b0316908501526119b460808201516080860152565b6119c360a082015160a0860152565b6119d260c082015160c0860152565b01516001600160a01b0316910152565b6101008101929161013a9190611959565b909190611a02610bfb826105c3565b60206323b872dd9133906115dd6000611a1a306105c3565b95611a28896115d060405190565b03925af18015610ca257611bb9575b50611a44610bfb826105c3565b602063095ea7b391611a757f00000000000000000000000000000000000000000000000000000000000000006105c3565b906116a060008795611a8961169360405190565b03925af18015610ca257611b9d575b509190611aa5600161146a565b90339042611ab3603c610d74565b611abc91611474565b9091600093600095611acc611941565b6001600160a01b0390981688526001600160a01b0316602088015262ffffff1660408701526001600160a01b03166060860152608085015260a0840152611b1290610d74565b60c0830152611b209061194c565b6001600160a01b031660e0820152611b577f00000000000000000000000000000000000000000000000000000000000000006105c3565b63414bf389611b6560405190565b8093611b72829360e01b90565b8252611b8190600483016119e2565b03815a602094600091f1908115610ca2576000916113c4575090565b611bb49060203d81116118d3576118c6818361025b565b611a98565b611bd09060203d81116118d3576118c6818361025b565b611a37565b610113610113610113926001600160a01b031690565b8181029291811591840414171561109557565b634e487b7160e01b600052601260045260246000fd5b8115611c1e570490565b611bfe565b60e0611c3d610bfb611c4c93611c37600090565b506105c3565b633850c7bd90610c5660405190565b825260049082905afa908115610ca25761011391611c8591600091611cad575b50611c7f611c7982611bd5565b91611bd5565b90611beb565b611ca77801000000000000000000000000000000000000000000000000610d74565b90611c14565b611cc5915060e03d8111610ce557610cce818361025b565b5050505050611c6c565b6bffffffffffffffffffffffff8116610121565b9050519061013a82611ccf565b9050519061013a82610116565b62ffffff8116610121565b9050519061013a82611cfd565b90916101808284031261012857611d2c8383611ce3565b92611d3a8160208501611cf0565b92611d488260408301611cf0565b92611d568360608401611cf0565b92611d648160808501611d08565b92611d728260a08301610aee565b92611d808360c08401610aee565b92611d8e8160e08501610bc7565b92611d9d826101008301611302565b92610113611daf846101208501611302565b93611dbe816101408601610bc7565b9361016001610bc7565b610180611e2091611dd7600090565b50611e017f00000000000000000000000000000000000000000000000000000000000000006105c3565b611e126399fbab8861134d60405190565b835260048301526024820190565b03915afa908115610ca257600091611e36575090565b611e5891506101803d8111611e67575b611e50818361025b565b810190611d15565b50505050965050505050505090565b503d611e4656fea2646970667358221220109bcc33c1208bc498ed2e4efc6e06a6319788ca5ab7ff1a575362828b0318bf64736f6c63430008180033","opcodes":"PUSH1 0xC0 PUSH1 0x40 MSTORE CALLVALUE PUSH3 0x70 JUMPI PUSH3 0x22 PUSH3 0x18 PUSH3 0x141 JUMP JUMPDEST SWAP3 SWAP2 SWAP1 SWAP2 PUSH3 0x248 JUMP JUMPDEST PUSH1 0x40 MLOAD PUSH2 0x1EA4 PUSH3 0x2A6 DUP3 CODECOPY PUSH1 0x80 MLOAD DUP2 DUP2 DUP2 PUSH2 0x6CB ADD MSTORE DUP2 DUP2 PUSH2 0x1A51 ADD MSTORE PUSH2 0x1B33 ADD MSTORE PUSH1 0xA0 MLOAD DUP2 DUP2 DUP2 PUSH2 0x5FA ADD MSTORE DUP2 DUP2 PUSH2 0x165B ADD MSTORE DUP2 DUP2 PUSH2 0x16D8 ADD MSTORE DUP2 DUP2 PUSH2 0x1816 ADD MSTORE PUSH2 0x1DDD ADD MSTORE PUSH2 0x1EA4 SWAP1 RETURN JUMPDEST PUSH1 0x0 DUP1 REVERT JUMPDEST PUSH4 0x4E487B71 PUSH1 0xE0 SHL PUSH1 0x0 MSTORE PUSH1 0x41 PUSH1 0x4 MSTORE PUSH1 0x24 PUSH1 0x0 REVERT JUMPDEST SWAP1 PUSH1 0x1F ADD PUSH1 0x1F NOT AND DUP2 ADD SWAP1 DUP2 LT PUSH1 0x1 PUSH1 0x1 PUSH1 0x40 SHL SUB DUP3 GT OR PUSH3 0xAD JUMPI PUSH1 0x40 MSTORE JUMP JUMPDEST PUSH3 0x75 JUMP JUMPDEST SWAP1 PUSH3 0xCA PUSH3 0xC2 PUSH1 0x40 MLOAD SWAP1 JUMP JUMPDEST SWAP3 DUP4 PUSH3 0x8B JUMP JUMPDEST JUMP JUMPDEST PUSH1 0x1 PUSH1 0x1 PUSH1 0xA0 SHL SUB AND SWAP1 JUMP JUMPDEST SWAP1 JUMP JUMPDEST PUSH1 0x1 PUSH1 0x1 PUSH1 0xA0 SHL SUB DUP2 AND SUB PUSH3 0x70 JUMPI JUMP JUMPDEST SWAP1 POP MLOAD SWAP1 PUSH3 0xCA DUP3 PUSH3 0xDB JUMP JUMPDEST PUSH1 0x80 DUP2 DUP4 SUB SLT PUSH3 0x70 JUMPI PUSH3 0x113 DUP3 DUP3 PUSH3 0xED JUMP JUMPDEST SWAP3 PUSH3 0xD8 PUSH3 0x127 DUP5 PUSH1 0x20 DUP6 ADD PUSH3 0xED JUMP JUMPDEST SWAP4 PUSH3 0x137 DUP2 PUSH1 0x40 DUP7 ADD PUSH3 0xED JUMP JUMPDEST SWAP4 PUSH1 0x60 ADD PUSH3 0xED JUMP JUMPDEST PUSH3 0x164 PUSH3 0x214A DUP1 CODESIZE SUB DUP1 PUSH3 0x158 DUP2 PUSH3 0xB3 JUMP JUMPDEST SWAP3 DUP4 CODECOPY DUP2 ADD SWAP1 PUSH3 0xFC JUMP JUMPDEST SWAP1 SWAP2 SWAP3 SWAP4 JUMP JUMPDEST SWAP1 PUSH3 0xFFFFFF PUSH1 0xA0 SHL SWAP1 PUSH1 0xA0 SHL JUMPDEST SWAP2 DUP2 NOT AND SWAP2 AND OR SWAP1 JUMP JUMPDEST PUSH3 0x191 PUSH3 0xD8 PUSH3 0xD8 SWAP3 SWAP1 JUMP JUMPDEST PUSH3 0xFFFFFF AND SWAP1 JUMP JUMPDEST SWAP1 PUSH3 0x1AD PUSH3 0xD8 PUSH3 0x1B5 SWAP3 PUSH3 0x181 JUMP JUMPDEST DUP3 SLOAD PUSH3 0x16A JUMP JUMPDEST SWAP1 SSTORE JUMP JUMPDEST PUSH3 0xD8 SWAP1 PUSH3 0xCC SWAP1 PUSH1 0x1 PUSH1 0x1 PUSH1 0xA0 SHL SUB AND DUP3 JUMP JUMPDEST PUSH3 0xD8 SWAP1 PUSH3 0x1B9 JUMP JUMPDEST PUSH3 0xD8 SWAP1 PUSH3 0x1CF JUMP JUMPDEST SWAP1 PUSH1 0x1 PUSH1 0x1 PUSH1 0xA0 SHL SUB SWAP1 PUSH3 0x177 JUMP JUMPDEST SWAP1 PUSH3 0x209 PUSH3 0xD8 PUSH3 0x1B5 SWAP3 PUSH3 0x1DA JUMP JUMPDEST DUP3 SLOAD PUSH3 0x1E5 JUMP JUMPDEST PUSH3 0xD8 PUSH3 0xD8 PUSH3 0xD8 SWAP3 SWAP1 JUMP JUMPDEST SWAP1 PUSH1 0x0 NOT SWAP1 PUSH3 0x177 JUMP JUMPDEST SWAP1 PUSH3 0x240 PUSH3 0xD8 PUSH3 0x1B5 SWAP3 PUSH3 0x211 JUMP JUMPDEST DUP3 SLOAD PUSH3 0x221 JUMP JUMPDEST SWAP2 PUSH3 0x27A PUSH3 0x285 SWAP3 PUSH3 0x271 PUSH3 0x28D SWAP7 SWAP6 PUSH3 0x26B PUSH2 0x1F4 PUSH1 0x1 PUSH3 0x199 JUMP JUMPDEST PUSH3 0x1DA JUMP JUMPDEST PUSH1 0x80 MSTORE PUSH3 0x1DA JUMP JUMPDEST PUSH1 0xA0 MSTORE PUSH1 0x0 PUSH3 0x1F5 JUMP JUMPDEST PUSH1 0x1 PUSH3 0x1F5 JUMP JUMPDEST PUSH3 0xCA PUSH3 0x29D PUSH1 0x1 PUSH3 0x211 JUMP JUMPDEST PUSH1 0x3 PUSH3 0x22C JUMP INVALID PUSH1 0x80 PUSH1 0x40 MSTORE PUSH1 0x4 CALLDATASIZE LT ISZERO PUSH2 0x12 JUMPI PUSH1 0x0 DUP1 REVERT JUMPDEST PUSH1 0x0 CALLDATALOAD PUSH1 0xE0 SHR DUP1 PUSH4 0x6BFA938 EQ PUSH2 0x102 JUMPI DUP1 PUSH4 0xDFE1681 EQ PUSH2 0xFD JUMPI DUP1 PUSH4 0x4ABF5DC1 EQ PUSH2 0xF8 JUMPI DUP1 PUSH4 0x784394BC EQ PUSH2 0xF3 JUMPI DUP1 PUSH4 0x791B98BC EQ PUSH2 0xEE JUMPI DUP1 PUSH4 0x7B50F8C5 EQ PUSH2 0xE9 JUMPI DUP1 PUSH4 0x9CD441DA EQ PUSH2 0xE4 JUMPI DUP1 PUSH4 0xC31C9C07 EQ PUSH2 0xDF JUMPI DUP1 PUSH4 0xC979AFFB EQ PUSH2 0xDA JUMPI DUP1 PUSH4 0xCEB92012 EQ PUSH2 0xD5 JUMPI DUP1 PUSH4 0xD02641A0 EQ PUSH2 0xD0 JUMPI DUP1 PUSH4 0xD21220A7 EQ PUSH2 0xCB JUMPI DUP1 PUSH4 0xD7FF0714 EQ PUSH2 0xC6 JUMPI DUP1 PUSH4 0xDDCA3F43 EQ PUSH2 0xC1 JUMPI PUSH4 0xEB02C301 SUB PUSH2 0x128 JUMPI PUSH2 0xA8A JUMP JUMPDEST PUSH2 0xA59 JUMP JUMPDEST PUSH2 0x9FA JUMP JUMPDEST PUSH2 0x77D JUMP JUMPDEST PUSH2 0x756 JUMP JUMPDEST PUSH2 0x73A JUMP JUMPDEST PUSH2 0x6EF JUMP JUMPDEST PUSH2 0x6B6 JUMP JUMPDEST PUSH2 0x68A JUMP JUMPDEST PUSH2 0x639 JUMP JUMPDEST PUSH2 0x5E5 JUMP JUMPDEST PUSH2 0x57D JUMP JUMPDEST PUSH2 0x3A0 JUMP JUMPDEST PUSH2 0x1F9 JUMP JUMPDEST PUSH2 0x196 JUMP JUMPDEST PUSH1 0x1 PUSH1 0x1 PUSH1 0xA0 SHL SUB AND SWAP1 JUMP JUMPDEST SWAP1 JUMP JUMPDEST PUSH1 0x1 PUSH1 0x1 PUSH1 0xA0 SHL SUB DUP2 AND JUMPDEST SUB PUSH2 0x128 JUMPI JUMP JUMPDEST PUSH1 0x0 DUP1 REVERT JUMPDEST SWAP1 POP CALLDATALOAD SWAP1 PUSH2 0x13A DUP3 PUSH2 0x116 JUMP JUMPDEST JUMP JUMPDEST SWAP1 PUSH1 0x20 DUP3 DUP3 SUB SLT PUSH2 0x128 JUMPI PUSH2 0x113 SWAP2 PUSH2 0x12D JUMP JUMPDEST SWAP1 MSTORE JUMP JUMPDEST PUSH1 0x1 PUSH1 0x1 PUSH1 0xA0 SHL SUB SWAP1 SWAP2 AND DUP2 MSTORE PUSH1 0x60 DUP2 ADD SWAP4 SWAP3 PUSH2 0x13A SWAP3 SWAP1 SWAP2 PUSH1 0x40 SWAP2 PUSH2 0x17E SWAP1 PUSH1 0x2 SIGNEXTEND PUSH1 0x20 DUP4 ADD MSTORE JUMP JUMPDEST ADD SWAP1 PUSH16 0xFFFFFFFFFFFFFFFFFFFFFFFFFFFFFFFF AND SWAP1 MSTORE JUMP JUMPDEST CALLVALUE PUSH2 0x128 JUMPI PUSH2 0x1C0 PUSH2 0x1B1 PUSH2 0x1AC CALLDATASIZE PUSH1 0x4 PUSH2 0x13C JUMP JUMPDEST PUSH2 0xBE8 JUMP JUMPDEST PUSH1 0x40 MLOAD SWAP2 SWAP4 SWAP2 SWAP4 DUP5 SWAP4 DUP5 PUSH2 0x154 JUMP JUMPDEST SUB SWAP1 RETURN JUMPDEST PUSH1 0x0 SWAP2 SUB SLT PUSH2 0x128 JUMPI JUMP JUMPDEST PUSH2 0x113 SWAP2 PUSH1 0x8 MUL SHR PUSH1 0x1 PUSH1 0x1 PUSH1 0xA0 SHL SUB AND SWAP1 JUMP JUMPDEST SWAP1 PUSH2 0x113 SWAP2 SLOAD PUSH2 0x1CF JUMP JUMPDEST PUSH2 0x113 PUSH1 0x0 DUP1 PUSH2 0x1E3 JUMP JUMPDEST CALLVALUE PUSH2 0x128 JUMPI PUSH2 0x209 CALLDATASIZE PUSH1 0x4 PUSH2 0x1C4 JUMP JUMPDEST PUSH2 0x1C0 PUSH2 0x214 PUSH2 0x1EE JUMP JUMPDEST PUSH1 0x40 MLOAD SWAP2 DUP3 SWAP2 DUP3 PUSH1 0x1 PUSH1 0x1 PUSH1 0xA0 SHL SUB SWAP1 SWAP2 AND DUP2 MSTORE PUSH1 0x20 ADD SWAP1 JUMP JUMPDEST PUSH1 0x2 GT ISZERO PUSH2 0x128 JUMPI JUMP JUMPDEST SWAP1 POP CALLDATALOAD SWAP1 PUSH2 0x13A DUP3 PUSH2 0x22E JUMP JUMPDEST PUSH4 0x4E487B71 PUSH1 0xE0 SHL PUSH1 0x0 MSTORE PUSH1 0x41 PUSH1 0x4 MSTORE PUSH1 0x24 PUSH1 0x0 REVERT JUMPDEST SWAP1 PUSH1 0x1F ADD PUSH1 0x1F NOT AND DUP2 ADD SWAP1 DUP2 LT PUSH8 0xFFFFFFFFFFFFFFFF DUP3 GT OR PUSH2 0x27D JUMPI PUSH1 0x40 MSTORE JUMP JUMPDEST PUSH2 0x245 JUMP JUMPDEST SWAP1 PUSH2 0x13A PUSH2 0x28F PUSH1 0x40 MLOAD SWAP1 JUMP JUMPDEST SWAP3 DUP4 PUSH2 0x25B JUMP JUMPDEST PUSH8 0xFFFFFFFFFFFFFFFF DUP2 GT PUSH2 0x27D JUMPI PUSH1 0x20 SWAP1 PUSH1 0x1F ADD PUSH1 0x1F NOT AND ADD SWAP1 JUMP JUMPDEST ADD SWAP1 JUMP JUMPDEST SWAP1 DUP3 PUSH1 0x0 SWAP4 SWAP3 DUP3 CALLDATACOPY ADD MSTORE JUMP JUMPDEST SWAP1 SWAP3 SWAP2 SWAP3 PUSH2 0x2D8 PUSH2 0x2D3 DUP3 PUSH2 0x296 JUMP JUMPDEST PUSH2 0x282 JUMP JUMPDEST SWAP4 DUP2 DUP6 MSTORE PUSH1 0x20 DUP6 ADD SWAP1 DUP3 DUP5 ADD GT PUSH2 0x128 JUMPI PUSH2 0x13A SWAP3 PUSH2 0x2B7 JUMP JUMPDEST SWAP1 DUP1 PUSH1 0x1F DUP4 ADD SLT ISZERO PUSH2 0x128 JUMPI DUP2 PUSH1 0x20 PUSH2 0x113 SWAP4 CALLDATALOAD SWAP2 ADD PUSH2 0x2C3 JUMP JUMPDEST DUP1 PUSH2 0x121 JUMP JUMPDEST SWAP1 POP CALLDATALOAD SWAP1 PUSH2 0x13A DUP3 PUSH2 0x30D JUMP JUMPDEST SWAP1 SWAP2 PUSH1 0xC0 DUP3 DUP5 SUB SLT PUSH2 0x128 JUMPI PUSH2 0x336 DUP4 DUP4 PUSH2 0x238 JUMP JUMPDEST SWAP3 PUSH1 0x20 DUP4 ADD CALLDATALOAD PUSH8 0xFFFFFFFFFFFFFFFF DUP2 GT PUSH2 0x128 JUMPI DUP2 PUSH2 0x357 SWAP2 DUP6 ADD PUSH2 0x2F2 JUMP JUMPDEST SWAP3 PUSH1 0x40 DUP2 ADD CALLDATALOAD PUSH8 0xFFFFFFFFFFFFFFFF DUP2 GT PUSH2 0x128 JUMPI DUP3 PUSH2 0x378 SWAP2 DUP4 ADD PUSH2 0x2F2 JUMP JUMPDEST SWAP3 PUSH2 0x113 PUSH2 0x389 DUP5 PUSH1 0x60 DUP6 ADD PUSH2 0x313 JUMP JUMPDEST SWAP4 PUSH2 0x397 DUP2 PUSH1 0x80 DUP7 ADD PUSH2 0x313 JUMP JUMPDEST SWAP4 PUSH1 0xA0 ADD PUSH2 0x313 JUMP JUMPDEST CALLVALUE PUSH2 0x128 JUMPI PUSH2 0x3BF PUSH2 0x3B3 CALLDATASIZE PUSH1 0x4 PUSH2 0x320 JUMP JUMPDEST SWAP5 SWAP4 SWAP1 SWAP4 SWAP3 SWAP2 SWAP3 PUSH2 0x109A JUMP JUMPDEST PUSH1 0x40 MLOAD STOP JUMPDEST PUSH4 0x4E487B71 PUSH1 0xE0 SHL PUSH1 0x0 MSTORE PUSH1 0x21 PUSH1 0x4 MSTORE PUSH1 0x24 PUSH1 0x0 REVERT JUMPDEST PUSH1 0x2 GT ISZERO PUSH2 0x3E4 JUMPI JUMP JUMPDEST PUSH2 0x3C4 JUMP JUMPDEST SWAP1 PUSH2 0x13A DUP3 PUSH2 0x3DA JUMP JUMPDEST PUSH2 0x113 SWAP1 PUSH2 0x3E9 JUMP JUMPDEST PUSH2 0x150 SWAP1 PUSH2 0x3F3 JUMP JUMPDEST PUSH1 0x0 JUMPDEST DUP4 DUP2 LT PUSH2 0x418 JUMPI POP POP PUSH1 0x0 SWAP2 ADD MSTORE JUMP JUMPDEST DUP2 DUP2 ADD MLOAD DUP4 DUP3 ADD MSTORE PUSH1 0x20 ADD PUSH2 0x408 JUMP JUMPDEST PUSH2 0x449 PUSH2 0x452 PUSH1 0x20 SWAP4 PUSH2 0x2B3 SWAP4 PUSH2 0x43D DUP2 MLOAD SWAP1 JUMP JUMPDEST DUP1 DUP4 MSTORE SWAP4 DUP5 SWAP3 PUSH1 0x20 ADD SWAP1 JUMP JUMPDEST SWAP6 DUP7 SWAP2 ADD PUSH2 0x405 JUMP JUMPDEST PUSH1 0x1F ADD PUSH1 0x1F NOT AND SWAP1 JUMP JUMPDEST DUP1 MLOAD DUP3 MSTORE PUSH2 0x113 SWAP2 PUSH2 0x100 PUSH2 0x4A8 PUSH2 0x496 PUSH2 0x120 DUP5 ADD PUSH2 0x484 PUSH1 0x20 DUP8 ADD MLOAD PUSH1 0x20 DUP8 ADD SWAP1 PUSH2 0x3FC JUMP JUMPDEST PUSH1 0x40 DUP7 ADD MLOAD DUP6 DUP3 SUB PUSH1 0x40 DUP8 ADD MSTORE PUSH2 0x428 JUMP JUMPDEST PUSH1 0x60 DUP6 ADD MLOAD DUP5 DUP3 SUB PUSH1 0x60 DUP7 ADD MSTORE PUSH2 0x428 JUMP JUMPDEST SWAP3 PUSH2 0x4B8 PUSH1 0x80 DUP3 ADD MLOAD PUSH1 0x80 DUP6 ADD MSTORE JUMP JUMPDEST PUSH2 0x4C7 PUSH1 0xA0 DUP3 ADD MLOAD PUSH1 0xA0 DUP6 ADD MSTORE JUMP JUMPDEST PUSH2 0x4D6 PUSH1 0xC0 DUP3 ADD MLOAD PUSH1 0xC0 DUP6 ADD MSTORE JUMP JUMPDEST PUSH2 0x4E5 PUSH1 0xE0 DUP3 ADD MLOAD PUSH1 0xE0 DUP6 ADD MSTORE JUMP JUMPDEST ADD MLOAD SWAP1 PUSH2 0x100 DUP2 DUP5 SUB SWAP2 ADD MSTORE PUSH2 0x428 JUMP JUMPDEST SWAP1 PUSH2 0x113 SWAP2 PUSH2 0x45C JUMP JUMPDEST SWAP1 PUSH2 0x516 PUSH2 0x50C DUP4 MLOAD SWAP1 JUMP JUMPDEST DUP1 DUP4 MSTORE SWAP2 PUSH1 0x20 ADD SWAP1 JUMP JUMPDEST SWAP1 DUP2 PUSH2 0x528 PUSH1 0x20 DUP4 MUL DUP5 ADD SWAP5 PUSH1 0x20 ADD SWAP1 JUMP JUMPDEST SWAP3 PUSH1 0x0 SWAP2 JUMPDEST DUP4 DUP4 LT PUSH2 0x53C JUMPI POP POP POP POP POP SWAP1 JUMP JUMPDEST SWAP1 SWAP2 SWAP3 SWAP4 SWAP5 PUSH1 0x20 PUSH2 0x55F PUSH2 0x558 DUP4 DUP6 PUSH1 0x1 SWAP6 SUB DUP8 MSTORE DUP10 MLOAD PUSH2 0x4F6 JUMP JUMPDEST SWAP8 PUSH1 0x20 ADD SWAP1 JUMP JUMPDEST SWAP4 ADD SWAP4 ADD SWAP2 SWAP4 SWAP3 SWAP1 PUSH2 0x52D JUMP JUMPDEST PUSH1 0x20 DUP1 DUP3 MSTORE PUSH2 0x113 SWAP3 SWAP2 ADD SWAP1 PUSH2 0x500 JUMP JUMPDEST CALLVALUE PUSH2 0x128 JUMPI PUSH2 0x58D CALLDATASIZE PUSH1 0x4 PUSH2 0x1C4 JUMP JUMPDEST PUSH2 0x1C0 PUSH2 0x598 PUSH2 0x12E5 JUMP JUMPDEST PUSH1 0x40 MLOAD SWAP2 DUP3 SWAP2 DUP3 PUSH2 0x56C JUMP JUMPDEST PUSH2 0x107 PUSH2 0x113 PUSH2 0x113 SWAP3 PUSH1 0x1 PUSH1 0x1 PUSH1 0xA0 SHL SUB AND SWAP1 JUMP JUMPDEST PUSH2 0x113 SWAP1 PUSH2 0x5A4 JUMP JUMPDEST PUSH2 0x113 SWAP1 PUSH2 0x5BA JUMP JUMPDEST PUSH2 0x150 SWAP1 PUSH2 0x5C3 JUMP JUMPDEST PUSH1 0x20 DUP2 ADD SWAP3 SWAP2 PUSH2 0x13A SWAP2 SWAP1 PUSH2 0x5CC JUMP JUMPDEST CALLVALUE PUSH2 0x128 JUMPI PUSH2 0x5F5 CALLDATASIZE PUSH1 0x4 PUSH2 0x1C4 JUMP JUMPDEST PUSH2 0x1C0 PUSH32 0x0 JUMPDEST PUSH1 0x40 MLOAD SWAP2 DUP3 SWAP2 DUP3 PUSH2 0x5D5 JUMP JUMPDEST SWAP1 DUP2 MSTORE PUSH1 0x40 DUP2 ADD SWAP3 SWAP2 PUSH2 0x13A SWAP2 PUSH1 0x20 ADD MSTORE JUMP JUMPDEST CALLVALUE PUSH2 0x128 JUMPI PUSH2 0x651 PUSH2 0x64C CALLDATASIZE PUSH1 0x4 PUSH2 0x13C JUMP JUMPDEST PUSH2 0x1323 JUMP JUMPDEST SWAP1 PUSH2 0x1C0 PUSH2 0x65E PUSH1 0x40 MLOAD SWAP1 JUMP JUMPDEST SWAP3 DUP4 SWAP3 DUP4 PUSH2 0x626 JUMP JUMPDEST SWAP2 SWAP1 PUSH1 0x40 DUP4 DUP3 SUB SLT PUSH2 0x128 JUMPI PUSH2 0x113 SWAP1 PUSH2 0x681 DUP2 DUP6 PUSH2 0x313 JUMP JUMPDEST SWAP4 PUSH1 0x20 ADD PUSH2 0x313 JUMP JUMPDEST CALLVALUE PUSH2 0x128 JUMPI PUSH2 0x1C0 PUSH2 0x6A6 PUSH2 0x6A0 CALLDATASIZE PUSH1 0x4 PUSH2 0x667 JUMP JUMPDEST SWAP1 PUSH2 0x1599 JUMP JUMPDEST PUSH1 0x40 MLOAD SWAP2 DUP3 SWAP2 DUP3 SWAP1 DUP2 MSTORE PUSH1 0x20 ADD SWAP1 JUMP JUMPDEST CALLVALUE PUSH2 0x128 JUMPI PUSH2 0x6C6 CALLDATASIZE PUSH1 0x4 PUSH2 0x1C4 JUMP JUMPDEST PUSH2 0x1C0 PUSH32 0x0 PUSH2 0x61A JUMP JUMPDEST CALLVALUE PUSH2 0x128 JUMPI PUSH2 0x6FF CALLDATASIZE PUSH1 0x4 PUSH2 0x1C4 JUMP JUMPDEST PUSH2 0x1C0 PUSH2 0x598 PUSH2 0x192E JUMP JUMPDEST SWAP1 SWAP2 PUSH1 0x60 DUP3 DUP5 SUB SLT PUSH2 0x128 JUMPI PUSH2 0x113 PUSH2 0x723 DUP5 DUP5 PUSH2 0x12D JUMP JUMPDEST SWAP4 PUSH2 0x731 DUP2 PUSH1 0x20 DUP7 ADD PUSH2 0x12D JUMP JUMPDEST SWAP4 PUSH1 0x40 ADD PUSH2 0x313 JUMP JUMPDEST CALLVALUE PUSH2 0x128 JUMPI PUSH2 0x1C0 PUSH2 0x6A6 PUSH2 0x750 CALLDATASIZE PUSH1 0x4 PUSH2 0x70A JUMP JUMPDEST SWAP2 PUSH2 0x19F3 JUMP JUMPDEST CALLVALUE PUSH2 0x128 JUMPI PUSH2 0x1C0 PUSH2 0x6A6 PUSH2 0x76C CALLDATASIZE PUSH1 0x4 PUSH2 0x13C JUMP JUMPDEST PUSH2 0x1C23 JUMP JUMPDEST PUSH2 0x113 PUSH1 0x0 PUSH1 0x1 PUSH2 0x1E3 JUMP JUMPDEST CALLVALUE PUSH2 0x128 JUMPI PUSH2 0x78D CALLDATASIZE PUSH1 0x4 PUSH2 0x1C4 JUMP JUMPDEST PUSH2 0x1C0 PUSH2 0x214 PUSH2 0x771 JUMP JUMPDEST SWAP1 PUSH1 0x20 DUP3 DUP3 SUB SLT PUSH2 0x128 JUMPI PUSH2 0x113 SWAP2 PUSH2 0x313 JUMP JUMPDEST PUSH4 0x4E487B71 PUSH1 0xE0 SHL PUSH1 0x0 MSTORE PUSH1 0x32 PUSH1 0x4 MSTORE PUSH1 0x24 PUSH1 0x0 REVERT JUMPDEST DUP1 SLOAD DUP3 LT ISZERO PUSH2 0x7E5 JUMPI PUSH2 0x7DC PUSH1 0x9 SWAP2 PUSH1 0x0 MSTORE PUSH1 0x20 PUSH1 0x0 KECCAK256 SWAP1 JUMP JUMPDEST SWAP2 MUL ADD SWAP1 PUSH1 0x0 SWAP1 JUMP JUMPDEST PUSH2 0x7AC JUMP JUMPDEST PUSH2 0x113 SWAP1 DUP2 JUMP JUMPDEST PUSH2 0x113 SWAP1 SLOAD PUSH2 0x7EA JUMP JUMPDEST PUSH4 0x4E487B71 PUSH1 0xE0 SHL PUSH1 0x0 MSTORE PUSH1 0x22 PUSH1 0x4 MSTORE PUSH1 0x24 PUSH1 0x0 REVERT JUMPDEST SWAP1 PUSH1 0x1 PUSH1 0x2 DUP4 DIV SWAP3 AND DUP1 ISZERO PUSH2 0x831 JUMPI JUMPDEST PUSH1 0x20 DUP4 LT EQ PUSH2 0x82C JUMPI JUMP JUMPDEST PUSH2 0x7FB JUMP JUMPDEST SWAP2 PUSH1 0x7F AND SWAP2 PUSH2 0x821 JUMP JUMPDEST DUP1 SLOAD PUSH1 0x0 SWAP4 SWAP3 SWAP2 PUSH2 0x858 PUSH2 0x84E DUP4 PUSH2 0x811 JUMP JUMPDEST DUP1 DUP6 MSTORE SWAP4 PUSH1 0x20 ADD SWAP1 JUMP JUMPDEST SWAP2 PUSH1 0x1 DUP2 AND SWAP1 DUP2 ISZERO PUSH2 0x8AA JUMPI POP PUSH1 0x1 EQ PUSH2 0x871 JUMPI POP POP POP JUMP JUMPDEST PUSH2 0x884 SWAP2 SWAP3 SWAP4 SWAP5 POP PUSH1 0x0 MSTORE PUSH1 0x20 PUSH1 0x0 KECCAK256 SWAP1 JUMP JUMPDEST SWAP2 PUSH1 0x0 SWAP3 JUMPDEST DUP2 DUP5 LT PUSH2 0x896 JUMPI POP POP ADD SWAP1 JUMP JUMPDEST DUP1 SLOAD DUP5 DUP5 ADD MSTORE PUSH1 0x20 SWAP1 SWAP4 ADD SWAP3 PUSH1 0x1 ADD PUSH2 0x889 JUMP JUMPDEST SWAP3 SWAP5 SWAP6 POP POP POP PUSH1 0xFF NOT AND DUP3 MSTORE ISZERO ISZERO PUSH1 0x20 MUL ADD SWAP1 JUMP JUMPDEST SWAP1 PUSH2 0x113 SWAP2 PUSH2 0x83B JUMP JUMPDEST SWAP1 PUSH2 0x13A PUSH2 0x8E3 SWAP3 PUSH2 0x8DA PUSH1 0x40 MLOAD SWAP1 JUMP JUMPDEST SWAP4 DUP5 DUP1 SWAP3 PUSH2 0x8BF JUMP JUMPDEST SUB DUP4 PUSH2 0x25B JUMP JUMPDEST PUSH1 0x4 SWAP1 PUSH2 0x8F5 DUP3 SLOAD SWAP1 JUMP JUMPDEST DUP2 LT ISZERO PUSH2 0x128 JUMPI PUSH2 0x905 SWAP2 PUSH2 0x7C2 JUMP JUMPDEST POP PUSH2 0x90F DUP2 PUSH2 0x7F1 JUMP JUMPDEST SWAP2 PUSH2 0x91E PUSH1 0x1 DUP4 ADD SLOAD PUSH1 0xFF AND SWAP1 JUMP JUMPDEST SWAP2 PUSH2 0x92B PUSH1 0x2 DUP3 ADD PUSH2 0x8C9 JUMP JUMPDEST SWAP2 PUSH2 0x938 PUSH1 0x3 DUP4 ADD PUSH2 0x8C9 JUMP JUMPDEST SWAP2 PUSH2 0x945 PUSH1 0x4 DUP3 ADD PUSH2 0x7F1 JUMP JUMPDEST SWAP2 PUSH2 0x952 PUSH1 0x5 DUP4 ADD PUSH2 0x7F1 JUMP JUMPDEST SWAP2 PUSH2 0x95F PUSH1 0x6 DUP3 ADD PUSH2 0x7F1 JUMP JUMPDEST SWAP2 PUSH2 0x113 PUSH1 0x8 PUSH2 0x971 PUSH1 0x7 DUP6 ADD PUSH2 0x7F1 JUMP JUMPDEST SWAP4 ADD PUSH2 0x8C9 JUMP JUMPDEST SWAP6 PUSH2 0x9D7 PUSH2 0x9CF PUSH2 0x9EC SWAP8 SWAP11 SWAP7 PUSH2 0x9C1 PUSH2 0x9DE SWAP6 PUSH2 0x9E5 SWAP9 PUSH2 0x113 SWAP16 SWAP14 SWAP9 PUSH2 0x9B4 SWAP1 PUSH1 0x20 DUP16 PUSH2 0x9AD PUSH2 0x120 DUP3 ADD SWAP7 PUSH1 0x0 DUP4 ADD MSTORE JUMP JUMPDEST ADD SWAP1 PUSH2 0x3FC JUMP JUMPDEST DUP13 DUP3 SUB PUSH1 0x40 DUP15 ADD MSTORE PUSH2 0x428 JUMP JUMPDEST SWAP1 DUP11 DUP3 SUB PUSH1 0x60 DUP13 ADD MSTORE PUSH2 0x428 JUMP JUMPDEST SWAP10 PUSH1 0x80 DUP10 ADD MSTORE JUMP JUMPDEST PUSH1 0xA0 DUP8 ADD MSTORE JUMP JUMPDEST PUSH1 0xC0 DUP6 ADD MSTORE JUMP JUMPDEST PUSH1 0xE0 DUP4 ADD MSTORE JUMP JUMPDEST PUSH2 0x100 DUP2 DUP5 SUB SWAP2 ADD MSTORE PUSH2 0x428 JUMP JUMPDEST CALLVALUE PUSH2 0x128 JUMPI PUSH2 0x1C0 PUSH2 0xA15 PUSH2 0xA10 CALLDATASIZE PUSH1 0x4 PUSH2 0x798 JUMP JUMPDEST PUSH2 0x8EA JUMP JUMPDEST SWAP6 PUSH2 0xA28 SWAP10 SWAP8 SWAP10 SWAP6 SWAP2 SWAP6 SWAP5 SWAP3 SWAP5 PUSH1 0x40 MLOAD SWAP1 JUMP JUMPDEST SWAP10 DUP11 SWAP10 DUP11 PUSH2 0x978 JUMP JUMPDEST PUSH2 0x113 SWAP2 PUSH1 0x8 MUL SHR JUMPDEST PUSH3 0xFFFFFF AND SWAP1 JUMP JUMPDEST SWAP1 PUSH2 0x113 SWAP2 SLOAD PUSH2 0xA31 JUMP JUMPDEST PUSH2 0x113 PUSH1 0x14 PUSH1 0x1 PUSH2 0xA42 JUMP JUMPDEST CALLVALUE PUSH2 0x128 JUMPI PUSH2 0xA69 CALLDATASIZE PUSH1 0x4 PUSH2 0x1C4 JUMP JUMPDEST PUSH2 0x1C0 PUSH2 0xA74 PUSH2 0xA4D JUMP JUMPDEST PUSH1 0x40 MLOAD SWAP2 DUP3 SWAP2 DUP3 PUSH3 0xFFFFFF SWAP1 SWAP2 AND DUP2 MSTORE PUSH1 0x20 ADD SWAP1 JUMP JUMPDEST CALLVALUE PUSH2 0x128 JUMPI PUSH2 0x1C0 PUSH2 0xAA5 PUSH2 0xAA0 CALLDATASIZE PUSH1 0x4 PUSH2 0x798 JUMP JUMPDEST PUSH2 0x1DC8 JUMP JUMPDEST PUSH1 0x40 MLOAD SWAP2 DUP3 SWAP2 DUP3 PUSH16 0xFFFFFFFFFFFFFFFFFFFFFFFFFFFFFFFF SWAP1 SWAP2 AND DUP2 MSTORE PUSH1 0x20 ADD SWAP1 JUMP JUMPDEST PUSH1 0x1 PUSH1 0x1 PUSH1 0xA0 SHL SUB DUP2 AND PUSH2 0x121 JUMP JUMPDEST SWAP1 POP MLOAD SWAP1 PUSH2 0x13A DUP3 PUSH2 0xAC8 JUMP JUMPDEST PUSH2 0x121 DUP2 PUSH1 0x2 SIGNEXTEND SWAP1 JUMP JUMPDEST SWAP1 POP MLOAD SWAP1 PUSH2 0x13A DUP3 PUSH2 0xAE4 JUMP JUMPDEST PUSH2 0xFFFF DUP2 AND PUSH2 0x121 JUMP JUMPDEST SWAP1 POP MLOAD SWAP1 PUSH2 0x13A DUP3 PUSH2 0xAFB JUMP JUMPDEST PUSH1 0xFF DUP2 AND PUSH2 0x121 JUMP JUMPDEST SWAP1 POP MLOAD SWAP1 PUSH2 0x13A DUP3 PUSH2 0xB12 JUMP JUMPDEST DUP1 ISZERO ISZERO PUSH2 0x121 JUMP JUMPDEST SWAP1 POP MLOAD SWAP1 PUSH2 0x13A DUP3 PUSH2 0xB28 JUMP JUMPDEST PUSH1 0xE0 DUP2 DUP4 SUB SLT PUSH2 0x128 JUMPI PUSH2 0xB51 DUP3 DUP3 PUSH2 0xAD7 JUMP JUMPDEST SWAP3 PUSH2 0xB5F DUP4 PUSH1 0x20 DUP5 ADD PUSH2 0xAEE JUMP JUMPDEST SWAP3 PUSH2 0xB6D DUP2 PUSH1 0x40 DUP6 ADD PUSH2 0xB05 JUMP JUMPDEST SWAP3 PUSH2 0xB7B DUP3 PUSH1 0x60 DUP4 ADD PUSH2 0xB05 JUMP JUMPDEST SWAP3 PUSH2 0x113 PUSH2 0xB8C DUP5 PUSH1 0x80 DUP6 ADD PUSH2 0xB05 JUMP JUMPDEST SWAP4 PUSH2 0xB9A DUP2 PUSH1 0xA0 DUP7 ADD PUSH2 0xB1B JUMP JUMPDEST SWAP4 PUSH1 0xC0 ADD PUSH2 0xB30 JUMP JUMPDEST PUSH1 0x40 MLOAD RETURNDATASIZE PUSH1 0x0 DUP3 RETURNDATACOPY RETURNDATASIZE SWAP1 REVERT JUMPDEST PUSH16 0xFFFFFFFFFFFFFFFFFFFFFFFFFFFFFFFF DUP2 AND PUSH2 0x121 JUMP JUMPDEST SWAP1 POP MLOAD SWAP1 PUSH2 0x13A DUP3 PUSH2 0xBAF JUMP JUMPDEST SWAP1 PUSH1 0x20 DUP3 DUP3 SUB SLT PUSH2 0x128 JUMPI PUSH2 0x113 SWAP2 PUSH2 0xBC7 JUMP JUMPDEST SWAP1 PUSH2 0xC18 SWAP1 PUSH1 0xE0 PUSH2 0xC00 PUSH2 0xBFB DUP6 PUSH2 0x5C3 JUMP JUMPDEST PUSH2 0x5C3 JUMP JUMPDEST PUSH4 0x3850C7BD SWAP1 PUSH2 0xC0F PUSH1 0x40 MLOAD SWAP1 JUMP JUMPDEST SWAP5 DUP6 SWAP3 PUSH1 0xE0 SHL SWAP1 JUMP JUMPDEST DUP3 MSTORE PUSH1 0x4 SWAP1 DUP3 SWAP1 GAS STATICCALL SWAP2 DUP3 ISZERO PUSH2 0xCA2 JUMPI PUSH1 0x0 DUP1 SWAP2 SWAP1 SWAP4 PUSH2 0xCA7 JUMPI JUMPDEST POP PUSH1 0x20 PUSH2 0xC47 PUSH2 0xBFB PUSH2 0xC5F SWAP4 SWAP6 SWAP7 PUSH2 0x5C3 JUMP JUMPDEST PUSH4 0x1A686502 SWAP1 PUSH2 0xC56 PUSH1 0x40 MLOAD SWAP1 JUMP JUMPDEST SWAP4 DUP5 SWAP3 PUSH1 0xE0 SHL SWAP1 JUMP JUMPDEST DUP3 MSTORE PUSH1 0x4 SWAP1 DUP3 SWAP1 GAS STATICCALL SWAP1 DUP2 ISZERO PUSH2 0xCA2 JUMPI PUSH1 0x0 SWAP2 PUSH2 0xC7A JUMPI POP SWAP1 JUMP JUMPDEST PUSH2 0x113 SWAP2 POP PUSH1 0x20 RETURNDATASIZE DUP2 GT PUSH2 0xC9B JUMPI JUMPDEST PUSH2 0xC93 DUP2 DUP4 PUSH2 0x25B JUMP JUMPDEST DUP2 ADD SWAP1 PUSH2 0xBD4 JUMP JUMPDEST POP RETURNDATASIZE PUSH2 0xC89 JUMP JUMPDEST PUSH2 0xBA3 JUMP JUMPDEST PUSH2 0xBFB SWAP4 POP PUSH2 0xC5F SWAP2 POP PUSH2 0xC47 PUSH2 0xCD6 PUSH1 0x20 SWAP3 PUSH1 0xE0 RETURNDATASIZE DUP2 GT PUSH2 0xCE5 JUMPI JUMPDEST PUSH2 0xCCE DUP2 DUP4 PUSH2 0x25B JUMP JUMPDEST DUP2 ADD SWAP1 PUSH2 0xB3D JUMP JUMPDEST POP POP POP POP POP SWAP4 POP SWAP5 POP POP PUSH2 0xC33 JUMP JUMPDEST POP RETURNDATASIZE PUSH2 0xCC4 JUMP JUMPDEST PUSH2 0x113 PUSH2 0x120 PUSH2 0x282 JUMP JUMPDEST SWAP1 PUSH2 0x150 SWAP1 PUSH2 0x3E9 JUMP JUMPDEST SWAP1 PUSH2 0xD0E PUSH2 0x2D3 DUP4 PUSH2 0x296 JUMP JUMPDEST SWAP2 DUP3 MSTORE JUMP JUMPDEST PUSH2 0xD1D PUSH1 0x9 PUSH2 0xD01 JUMP JUMPDEST PUSH32 0x636F6E6669726D65640000000000000000000000000000000000000000000000 PUSH1 0x20 DUP3 ADD MSTORE SWAP1 JUMP JUMPDEST PUSH2 0x113 PUSH2 0xD13 JUMP JUMPDEST PUSH4 0x4E487B71 PUSH1 0xE0 SHL PUSH1 0x0 MSTORE PUSH1 0x0 PUSH1 0x4 MSTORE PUSH1 0x24 PUSH1 0x0 REVERT JUMPDEST SWAP1 PUSH1 0x0 NOT SWAP1 JUMPDEST SWAP2 DUP2 NOT AND SWAP2 AND OR SWAP1 JUMP JUMPDEST PUSH2 0x113 PUSH2 0x113 PUSH2 0x113 SWAP3 SWAP1 JUMP JUMPDEST SWAP1 PUSH2 0xD91 PUSH2 0x113 PUSH2 0xD98 SWAP3 PUSH2 0xD74 JUMP JUMPDEST DUP3 SLOAD PUSH2 0xD64 JUMP JUMPDEST SWAP1 SSTORE JUMP JUMPDEST PUSH2 0x113 SWAP1 MLOAD PUSH2 0x3E9 JUMP JUMPDEST SWAP1 PUSH1 0xFF SWAP1 PUSH2 0xD6A JUMP JUMPDEST SWAP1 PUSH2 0xDBF PUSH2 0x113 PUSH2 0xD98 SWAP3 PUSH2 0x3F3 JUMP JUMPDEST DUP3 SLOAD PUSH2 0xDA6 JUMP JUMPDEST SWAP2 SWAP1 PUSH1 0x8 PUSH2 0xD6A SWAP2 MUL SWAP2 PUSH2 0xDDB PUSH1 0x0 NOT DUP5 SHL SWAP1 JUMP JUMPDEST SWAP3 SHL SWAP1 JUMP JUMPDEST SWAP2 SWAP1 PUSH2 0xDF1 PUSH2 0x113 PUSH2 0xD98 SWAP4 PUSH2 0xD74 JUMP JUMPDEST SWAP1 DUP4 SLOAD PUSH2 0xDC6 JUMP JUMPDEST PUSH2 0x13A SWAP2 PUSH1 0x0 SWAP2 PUSH2 0xDE0 JUMP JUMPDEST DUP2 DUP2 LT PUSH2 0xE10 JUMPI POP POP JUMP JUMPDEST DUP1 PUSH2 0xE1E PUSH1 0x0 PUSH1 0x1 SWAP4 PUSH2 0xDF9 JUMP JUMPDEST ADD PUSH2 0xE05 JUMP JUMPDEST SWAP2 SWAP1 PUSH1 0x1F DUP2 GT PUSH2 0xE33 JUMPI POP POP POP JUMP JUMPDEST PUSH2 0xE45 PUSH2 0x13A SWAP4 PUSH1 0x0 MSTORE PUSH1 0x20 PUSH1 0x0 KECCAK256 SWAP1 JUMP JUMPDEST SWAP1 PUSH1 0x20 PUSH1 0x1F DUP5 ADD DUP2 SWAP1 DIV DUP4 ADD SWAP4 LT PUSH2 0xE67 JUMPI JUMPDEST PUSH1 0x20 PUSH1 0x1F SWAP1 SWAP2 ADD DIV ADD SWAP1 PUSH2 0xE05 JUMP JUMPDEST SWAP1 SWAP2 POP DUP2 SWAP1 PUSH2 0xE58 JUMP JUMPDEST SWAP1 PUSH2 0xE7A DUP2 MLOAD SWAP1 JUMP JUMPDEST SWAP1 PUSH8 0xFFFFFFFFFFFFFFFF DUP3 GT PUSH2 0x27D JUMPI PUSH2 0xE9E DUP3 PUSH2 0xE98 DUP6 SLOAD PUSH2 0x811 JUMP JUMPDEST DUP6 PUSH2 0xE24 JUMP JUMPDEST PUSH1 0x20 SWAP1 PUSH1 0x1F DUP4 GT PUSH1 0x1 EQ PUSH2 0xED9 JUMPI PUSH2 0xD98 SWAP3 SWAP2 PUSH1 0x0 SWAP2 DUP4 PUSH2 0xECE JUMPI JUMPDEST POP POP PUSH1 0x0 NOT PUSH1 0x8 DUP4 MUL SHR NOT AND SWAP1 PUSH1 0x2 MUL OR SWAP1 JUMP JUMPDEST ADD MLOAD SWAP1 POP CODESIZE DUP1 PUSH2 0xEBA JUMP JUMPDEST PUSH1 0x1F NOT DUP4 AND SWAP2 PUSH2 0xEEE DUP6 PUSH1 0x0 MSTORE PUSH1 0x20 PUSH1 0x0 KECCAK256 SWAP1 JUMP JUMPDEST SWAP3 PUSH1 0x0 JUMPDEST DUP2 DUP2 LT PUSH2 0xF2C JUMPI POP SWAP2 PUSH1 0x2 SWAP4 SWAP2 DUP6 PUSH1 0x1 SWAP7 SWAP5 LT PUSH2 0xF13 JUMPI JUMPDEST POP POP POP MUL ADD SWAP1 SSTORE JUMP JUMPDEST ADD MLOAD PUSH1 0x0 NOT PUSH1 0x8 PUSH1 0x1F DUP6 AND MUL SHR NOT AND SWAP1 SSTORE CODESIZE DUP1 DUP1 PUSH2 0xF0A JUMP JUMPDEST SWAP2 SWAP4 PUSH1 0x20 PUSH1 0x1 DUP2 SWAP3 DUP8 DUP8 ADD MLOAD DUP2 SSTORE ADD SWAP6 ADD SWAP3 ADD PUSH2 0xEF2 JUMP JUMPDEST SWAP1 PUSH2 0x13A SWAP2 PUSH2 0xE71 JUMP JUMPDEST SWAP1 PUSH2 0xD91 PUSH2 0x113 PUSH2 0xD98 SWAP3 SWAP1 JUMP JUMPDEST PUSH2 0x13A SWAP2 SWAP1 PUSH2 0xFA9 SWAP1 PUSH2 0x100 SWAP1 PUSH1 0x8 SWAP1 PUSH2 0xF7E DUP2 PUSH2 0xF78 DUP8 MLOAD SWAP1 JUMP JUMPDEST SWAP1 PUSH2 0xD81 JUMP JUMPDEST PUSH2 0xF97 PUSH1 0x1 DUP3 ADD PUSH2 0xF91 PUSH1 0x20 DUP9 ADD PUSH2 0xD9C JUMP JUMPDEST SWAP1 PUSH2 0xDAF JUMP JUMPDEST PUSH2 0xFAF PUSH1 0x2 DUP3 ADD PUSH2 0xFA9 PUSH1 0x40 DUP9 ADD MLOAD SWAP1 JUMP JUMPDEST SWAP1 PUSH2 0xF44 JUMP JUMPDEST PUSH2 0xFC1 PUSH1 0x3 DUP3 ADD PUSH2 0xFA9 PUSH1 0x60 DUP9 ADD MLOAD SWAP1 JUMP JUMPDEST PUSH2 0xFD3 PUSH1 0x4 DUP3 ADD PUSH2 0xF78 PUSH1 0x80 DUP9 ADD MLOAD SWAP1 JUMP JUMPDEST PUSH2 0xFE5 PUSH1 0x5 DUP3 ADD PUSH2 0xF78 PUSH1 0xA0 DUP9 ADD MLOAD SWAP1 JUMP JUMPDEST PUSH2 0xFF7 PUSH1 0x6 DUP3 ADD PUSH2 0xF78 PUSH1 0xC0 DUP9 ADD MLOAD SWAP1 JUMP JUMPDEST PUSH2 0x100F PUSH1 0x7 DUP3 ADD PUSH2 0x1009 PUSH1 0xE0 DUP9 ADD MLOAD SWAP1 JUMP JUMPDEST SWAP1 PUSH2 0xF4E JUMP JUMPDEST ADD SWAP3 ADD MLOAD SWAP1 JUMP JUMPDEST SWAP2 SWAP1 PUSH2 0x1025 JUMPI PUSH2 0x13A SWAP2 PUSH2 0xF5C JUMP JUMPDEST PUSH2 0xD4E JUMP JUMPDEST SWAP1 DUP2 SLOAD SWAP2 PUSH9 0x10000000000000000 DUP4 LT ISZERO PUSH2 0x27D JUMPI DUP3 PUSH2 0x1052 SWAP2 PUSH1 0x1 PUSH2 0x13A SWAP6 ADD DUP2 SSTORE PUSH2 0x7C2 JUMP JUMPDEST SWAP1 PUSH2 0x1016 JUMP JUMPDEST SWAP1 PUSH2 0x1062 SWAP1 PUSH2 0x5C3 JUMP JUMPDEST PUSH1 0x0 MSTORE PUSH1 0x20 MSTORE PUSH1 0x40 PUSH1 0x0 KECCAK256 SWAP1 JUMP JUMPDEST PUSH4 0x4E487B71 PUSH1 0xE0 SHL PUSH1 0x0 MSTORE PUSH1 0x11 PUSH1 0x4 MSTORE PUSH1 0x24 PUSH1 0x0 REVERT JUMPDEST PUSH1 0x0 NOT DUP2 EQ PUSH2 0x1095 JUMPI PUSH1 0x1 ADD SWAP1 JUMP JUMPDEST PUSH2 0x1070 JUMP JUMPDEST SWAP4 SWAP3 SWAP2 SWAP1 SWAP2 PUSH2 0x10A9 PUSH1 0x3 PUSH2 0x7F1 JUMP JUMPDEST SWAP4 DUP7 SWAP4 TIMESTAMP SWAP4 SWAP2 SWAP3 SWAP2 SWAP1 DUP8 PUSH2 0x10BB PUSH2 0xCEC JUMP JUMPDEST SWAP8 DUP9 MSTORE PUSH2 0x10CB SWAP1 PUSH1 0x20 DUP10 ADD PUSH2 0xCF7 JUMP JUMPDEST PUSH1 0x40 DUP8 ADD MSTORE PUSH1 0x60 DUP7 ADD MSTORE PUSH1 0x80 DUP6 ADD MSTORE PUSH1 0xA0 DUP5 ADD MSTORE PUSH1 0xC0 DUP4 ADD MSTORE PUSH1 0xE0 DUP3 ADD MSTORE PUSH2 0x10F1 PUSH2 0xD46 JUMP JUMPDEST PUSH2 0x100 DUP3 ADD MSTORE PUSH2 0x1102 DUP2 PUSH1 0x4 PUSH2 0x102A JUMP JUMPDEST PUSH2 0x110D CALLER PUSH1 0x2 PUSH2 0x1058 JUMP JUMPDEST DUP2 PUSH2 0x1117 SWAP2 PUSH2 0x102A JUMP JUMPDEST PUSH2 0x1121 PUSH1 0x3 PUSH2 0x7F1 JUMP JUMPDEST PUSH2 0x112A SWAP1 PUSH2 0x1086 JUMP JUMPDEST PUSH2 0x1135 SWAP1 PUSH1 0x3 PUSH2 0xD81 JUMP JUMPDEST MLOAD SWAP1 CALLER SWAP2 PUSH32 0x19C7FB851F92C8D4F19411743A614909B5753CF16D0EF77D269C04E51EAA7F0E SWAP1 PUSH2 0x1164 SWAP1 PUSH2 0xD74 JUMP JUMPDEST SWAP2 PUSH2 0x116E SWAP1 PUSH2 0x3F3 JUMP JUMPDEST SWAP3 PUSH2 0x1178 SWAP1 PUSH2 0x5C3 JUMP JUMPDEST SWAP4 PUSH2 0x1182 PUSH1 0x40 MLOAD SWAP1 JUMP JUMPDEST SWAP1 DUP2 MSTORE PUSH1 0x20 SWAP1 LOG4 JUMP JUMPDEST PUSH8 0xFFFFFFFFFFFFFFFF DUP2 GT PUSH2 0x27D JUMPI PUSH1 0x20 DUP1 SWAP2 MUL ADD SWAP1 JUMP JUMPDEST SWAP1 PUSH2 0xD0E PUSH2 0x2D3 DUP4 PUSH2 0x118B JUMP JUMPDEST SWAP1 PUSH2 0x13A PUSH2 0x1276 PUSH1 0x8 PUSH2 0x11C1 PUSH2 0xCEC JUMP JUMPDEST SWAP5 PUSH2 0x11D2 PUSH2 0x11CE DUP3 PUSH2 0x7F1 JUMP JUMPDEST DUP8 MSTORE JUMP JUMPDEST PUSH2 0x11EC PUSH2 0x11E3 PUSH1 0x1 DUP4 ADD SLOAD PUSH1 0xFF AND SWAP1 JUMP JUMPDEST PUSH1 0x20 DUP9 ADD PUSH2 0xCF7 JUMP JUMPDEST PUSH2 0x1202 PUSH2 0x11FB PUSH1 0x2 DUP4 ADD PUSH2 0x8C9 JUMP JUMPDEST PUSH1 0x40 DUP9 ADD MSTORE JUMP JUMPDEST PUSH2 0x1218 PUSH2 0x1211 PUSH1 0x3 DUP4 ADD PUSH2 0x8C9 JUMP JUMPDEST PUSH1 0x60 DUP9 ADD MSTORE JUMP JUMPDEST PUSH2 0x122E PUSH2 0x1227 PUSH1 0x4 DUP4 ADD PUSH2 0x7F1 JUMP JUMPDEST PUSH1 0x80 DUP9 ADD MSTORE JUMP JUMPDEST PUSH2 0x1244 PUSH2 0x123D PUSH1 0x5 DUP4 ADD PUSH2 0x7F1 JUMP JUMPDEST PUSH1 0xA0 DUP9 ADD MSTORE JUMP JUMPDEST PUSH2 0x125A PUSH2 0x1253 PUSH1 0x6 DUP4 ADD PUSH2 0x7F1 JUMP JUMPDEST PUSH1 0xC0 DUP9 ADD MSTORE JUMP JUMPDEST PUSH2 0x1270 PUSH2 0x1269 PUSH1 0x7 DUP4 ADD PUSH2 0x7F1 JUMP JUMPDEST PUSH1 0xE0 DUP9 ADD MSTORE JUMP JUMPDEST ADD PUSH2 0x8C9 JUMP JUMPDEST PUSH2 0x100 DUP5 ADD MSTORE JUMP JUMPDEST PUSH2 0x113 SWAP1 PUSH2 0x11B0 JUMP JUMPDEST SWAP1 PUSH2 0x1290 DUP3 SLOAD SWAP1 JUMP JUMPDEST PUSH2 0x1299 DUP2 PUSH2 0x11A3 JUMP JUMPDEST SWAP3 PUSH2 0x12AD PUSH1 0x20 DUP6 ADD SWAP2 PUSH1 0x0 MSTORE PUSH1 0x20 PUSH1 0x0 KECCAK256 SWAP1 JUMP JUMPDEST PUSH1 0x0 SWAP2 JUMPDEST DUP4 DUP4 LT PUSH2 0x12BE JUMPI POP POP POP POP JUMP JUMPDEST PUSH1 0x9 PUSH1 0x20 PUSH1 0x1 SWAP3 PUSH2 0x12CE DUP6 PUSH2 0x127E JUMP JUMPDEST DUP2 MSTORE ADD SWAP3 ADD SWAP3 ADD SWAP2 SWAP1 PUSH2 0x12B1 JUMP JUMPDEST PUSH2 0x113 SWAP1 PUSH2 0x1287 JUMP JUMPDEST PUSH2 0x113 PUSH1 0x4 PUSH2 0x12DC JUMP JUMPDEST PUSH2 0x113 SWAP1 PUSH2 0x107 JUMP JUMPDEST PUSH2 0x113 SWAP1 SLOAD PUSH2 0x12EF JUMP JUMPDEST SWAP1 POP MLOAD SWAP1 PUSH2 0x13A DUP3 PUSH2 0x30D JUMP JUMPDEST SWAP1 PUSH1 0x20 DUP3 DUP3 SUB SLT PUSH2 0x128 JUMPI PUSH2 0x113 SWAP2 PUSH2 0x1302 JUMP JUMPDEST SWAP1 PUSH2 0x1371 PUSH1 0x20 PUSH2 0x1339 PUSH2 0xBFB PUSH2 0xBFB PUSH1 0x0 PUSH2 0x12F8 JUMP JUMPDEST PUSH4 0x70A08231 SWAP1 PUSH2 0x135A DUP7 SWAP3 PUSH2 0x134D PUSH1 0x40 MLOAD SWAP1 JUMP JUMPDEST SWAP6 DUP7 SWAP5 DUP6 SWAP4 DUP5 SWAP4 PUSH1 0xE0 SHL SWAP1 JUMP JUMPDEST DUP4 MSTORE PUSH1 0x1 PUSH1 0x1 PUSH1 0xA0 SHL SUB AND PUSH1 0x4 DUP4 ADD MSTORE PUSH1 0x24 DUP3 ADD SWAP1 JUMP JUMPDEST SUB SWAP2 GAS STATICCALL SWAP1 DUP2 ISZERO PUSH2 0xCA2 JUMPI PUSH2 0x13AE SWAP2 PUSH1 0x20 SWAP2 PUSH1 0x0 SWAP2 PUSH2 0x13EC JUMPI JUMPDEST POP SWAP4 PUSH2 0x139D PUSH2 0xBFB PUSH2 0xBFB PUSH1 0x1 PUSH2 0x12F8 JUMP JUMPDEST PUSH2 0x135A PUSH4 0x70A08231 PUSH2 0x134D PUSH1 0x40 MLOAD SWAP1 JUMP JUMPDEST SUB SWAP2 GAS STATICCALL SWAP1 DUP2 ISZERO PUSH2 0xCA2 JUMPI PUSH1 0x0 SWAP2 PUSH2 0x13C4 JUMPI POP SWAP1 JUMP JUMPDEST PUSH2 0x113 SWAP2 POP PUSH1 0x20 RETURNDATASIZE DUP2 GT PUSH2 0x13E5 JUMPI JUMPDEST PUSH2 0x13DD DUP2 DUP4 PUSH2 0x25B JUMP JUMPDEST DUP2 ADD SWAP1 PUSH2 0x130F JUMP JUMPDEST POP RETURNDATASIZE PUSH2 0x13D3 JUMP JUMPDEST PUSH2 0x1403 SWAP2 POP DUP3 RETURNDATASIZE DUP2 GT PUSH2 0x13E5 JUMPI PUSH2 0x13DD DUP2 DUP4 PUSH2 0x25B JUMP JUMPDEST CODESIZE PUSH2 0x138B JUMP JUMPDEST SWAP1 PUSH1 0x20 DUP3 DUP3 SUB SLT PUSH2 0x128 JUMPI PUSH2 0x113 SWAP2 PUSH2 0xB30 JUMP JUMPDEST PUSH1 0x1 PUSH1 0x1 PUSH1 0xA0 SHL SUB SWAP2 DUP3 AND DUP2 MSTORE SWAP2 AND PUSH1 0x20 DUP3 ADD MSTORE PUSH1 0x60 DUP2 ADD SWAP3 SWAP2 PUSH2 0x13A SWAP2 PUSH1 0x40 ADD MSTORE JUMP JUMPDEST PUSH1 0x1 PUSH1 0x1 PUSH1 0xA0 SHL SUB SWAP1 SWAP2 AND DUP2 MSTORE PUSH1 0x40 DUP2 ADD SWAP3 SWAP2 PUSH2 0x13A SWAP2 PUSH1 0x20 ADD MSTORE JUMP JUMPDEST PUSH2 0x113 SWAP1 PUSH1 0xA0 SHR PUSH2 0xA3A JUMP JUMPDEST PUSH2 0x113 SWAP1 SLOAD PUSH2 0x145E JUMP JUMPDEST SWAP2 SWAP1 DUP3 ADD DUP1 SWAP3 GT PUSH2 0x1095 JUMPI JUMP JUMPDEST PUSH2 0x113 PUSH2 0x160 PUSH2 0x282 JUMP JUMPDEST PUSH2 0x1499 PUSH2 0x113 PUSH2 0x113 SWAP3 SWAP1 JUMP JUMPDEST PUSH1 0x2 SIGNEXTEND SWAP1 JUMP JUMPDEST PUSH1 0x80 DUP2 DUP4 SUB SLT PUSH2 0x128 JUMPI PUSH2 0x14B3 DUP3 DUP3 PUSH2 0x1302 JUMP JUMPDEST SWAP3 PUSH2 0x113 PUSH2 0x14C4 DUP5 PUSH1 0x20 DUP6 ADD PUSH2 0xBC7 JUMP JUMPDEST SWAP4 PUSH2 0x14D2 DUP2 PUSH1 0x40 DUP7 ADD PUSH2 0x1302 JUMP JUMPDEST SWAP4 PUSH1 0x60 ADD PUSH2 0x1302 JUMP JUMPDEST DUP1 MLOAD PUSH1 0x1 PUSH1 0x1 PUSH1 0xA0 SHL SUB AND DUP3 MSTORE PUSH2 0x13A SWAP2 SWAP1 PUSH2 0x140 SWAP1 DUP2 SWAP1 PUSH1 0x20 DUP2 DUP2 ADD MLOAD PUSH1 0x1 PUSH1 0x1 PUSH1 0xA0 SHL SUB AND SWAP1 DUP6 ADD MSTORE PUSH1 0x40 DUP2 DUP2 ADD MLOAD PUSH3 0xFFFFFF AND SWAP1 DUP6 ADD MSTORE PUSH1 0x60 DUP2 DUP2 ADD MLOAD PUSH1 0x2 SIGNEXTEND SWAP1 DUP6 ADD MSTORE PUSH1 0x80 DUP2 DUP2 ADD MLOAD PUSH1 0x2 SIGNEXTEND SWAP1 DUP6 ADD MSTORE PUSH2 0x153E PUSH1 0xA0 DUP3 ADD MLOAD PUSH1 0xA0 DUP7 ADD MSTORE JUMP JUMPDEST PUSH2 0x154D PUSH1 0xC0 DUP3 ADD MLOAD PUSH1 0xC0 DUP7 ADD MSTORE JUMP JUMPDEST PUSH2 0x155C PUSH1 0xE0 DUP3 ADD MLOAD PUSH1 0xE0 DUP7 ADD MSTORE JUMP JUMPDEST PUSH2 0x156D PUSH2 0x100 DUP3 ADD MLOAD PUSH2 0x100 DUP7 ADD MSTORE JUMP JUMPDEST PUSH2 0x120 DUP2 DUP2 ADD MLOAD PUSH1 0x1 PUSH1 0x1 PUSH1 0xA0 SHL SUB AND SWAP1 DUP6 ADD MSTORE ADD MLOAD SWAP2 ADD MSTORE JUMP JUMPDEST PUSH2 0x160 DUP2 ADD SWAP3 SWAP2 PUSH2 0x13A SWAP2 SWAP1 PUSH2 0x14DB JUMP JUMPDEST SWAP1 PUSH2 0x15AA PUSH2 0xBFB PUSH2 0xBFB PUSH1 0x0 PUSH2 0x12F8 JUMP JUMPDEST PUSH1 0x20 PUSH4 0x23B872DD SWAP2 CALLER SWAP1 PUSH2 0x15DD PUSH1 0x0 PUSH2 0x15C2 ADDRESS PUSH2 0x5C3 JUMP JUMPDEST SWAP6 PUSH2 0x15E8 DUP10 PUSH2 0x15D0 PUSH1 0x40 MLOAD SWAP1 JUMP JUMPDEST SWAP9 DUP10 SWAP8 DUP9 SWAP7 DUP8 SWAP6 PUSH1 0xE0 SHL SWAP1 JUMP JUMPDEST DUP6 MSTORE PUSH1 0x4 DUP6 ADD PUSH2 0x141D JUMP JUMPDEST SUB SWAP3 GAS CALL DUP1 ISZERO PUSH2 0xCA2 JUMPI PUSH2 0x1912 JUMPI JUMPDEST POP PUSH2 0x1608 PUSH2 0xBFB PUSH2 0xBFB PUSH1 0x1 PUSH2 0x12F8 JUMP JUMPDEST PUSH1 0x20 PUSH4 0x23B872DD SWAP2 CALLER SWAP1 PUSH2 0x15DD PUSH1 0x0 PUSH2 0x1620 ADDRESS PUSH2 0x5C3 JUMP JUMPDEST SWAP6 PUSH2 0x162E DUP9 PUSH2 0x15D0 PUSH1 0x40 MLOAD SWAP1 JUMP JUMPDEST SUB SWAP3 GAS CALL DUP1 ISZERO PUSH2 0xCA2 JUMPI PUSH2 0x18F6 JUMPI JUMPDEST POP PUSH2 0x164E PUSH2 0xBFB PUSH2 0xBFB PUSH1 0x0 PUSH2 0x12F8 JUMP JUMPDEST PUSH1 0x20 PUSH4 0x95EA7B3 SWAP2 PUSH2 0x167F PUSH32 0x0 PUSH2 0x5C3 JUMP JUMPDEST SWAP1 PUSH2 0x16A0 PUSH1 0x0 DUP8 SWAP6 PUSH2 0x16AB PUSH2 0x1693 PUSH1 0x40 MLOAD SWAP1 JUMP JUMPDEST SWAP8 DUP9 SWAP7 DUP8 SWAP6 DUP7 SWAP5 PUSH1 0xE0 SHL SWAP1 JUMP JUMPDEST DUP5 MSTORE PUSH1 0x4 DUP5 ADD PUSH2 0x1441 JUMP JUMPDEST SUB SWAP3 GAS CALL DUP1 ISZERO PUSH2 0xCA2 JUMPI PUSH2 0x18DA JUMPI JUMPDEST POP PUSH2 0x16CB PUSH2 0xBFB PUSH2 0xBFB PUSH1 0x1 PUSH2 0x12F8 JUMP JUMPDEST PUSH1 0x20 PUSH4 0x95EA7B3 SWAP2 PUSH2 0x16FC PUSH32 0x0 PUSH2 0x5C3 JUMP JUMPDEST SWAP1 PUSH2 0x16A0 PUSH1 0x0 DUP7 SWAP6 PUSH2 0x1710 PUSH2 0x1693 PUSH1 0x40 MLOAD SWAP1 JUMP JUMPDEST SUB SWAP3 GAS CALL DUP1 ISZERO PUSH2 0xCA2 JUMPI PUSH2 0x18AE JUMPI JUMPDEST POP PUSH2 0x172A PUSH1 0x0 PUSH2 0x12F8 JUMP JUMPDEST SWAP2 PUSH2 0x1735 PUSH1 0x1 PUSH2 0x12F8 JUMP JUMPDEST SWAP2 PUSH2 0x1740 PUSH1 0x1 PUSH2 0x146A JUMP JUMPDEST SWAP2 PUSH32 0xFFFFFFFFFFFFFFFFFFFFFFFFFFFFFFFFFFFFFFFFFFFFFFFFFFFFFFFFFFF2764C SWAP2 PUSH3 0xD89B4 SWAP2 PUSH1 0x0 SWAP3 PUSH1 0x0 SWAP5 CALLER SWAP7 TIMESTAMP PUSH1 0x78 PUSH2 0x177C SWAP1 PUSH2 0xD74 JUMP JUMPDEST PUSH2 0x1785 SWAP2 PUSH2 0x1474 JUMP JUMPDEST SWAP9 PUSH2 0x178E PUSH2 0x1481 JUMP JUMPDEST PUSH1 0x1 PUSH1 0x1 PUSH1 0xA0 SHL SUB SWAP1 SWAP12 AND DUP12 MSTORE PUSH1 0x1 PUSH1 0x1 PUSH1 0xA0 SHL SUB AND PUSH1 0x20 DUP12 ADD MSTORE PUSH3 0xFFFFFF AND PUSH1 0x40 DUP11 ADD MSTORE PUSH2 0x17BC SWAP1 PUSH2 0x148C JUMP JUMPDEST PUSH1 0x2 SIGNEXTEND PUSH1 0x60 DUP10 ADD MSTORE PUSH2 0x17CD SWAP1 PUSH2 0x148C JUMP JUMPDEST PUSH1 0x2 SIGNEXTEND PUSH1 0x80 DUP9 ADD MSTORE PUSH1 0xA0 DUP8 ADD MSTORE PUSH1 0xC0 DUP7 ADD MSTORE PUSH2 0x17E8 SWAP1 PUSH2 0xD74 JUMP JUMPDEST PUSH1 0xE0 DUP6 ADD MSTORE PUSH2 0x17F6 SWAP1 PUSH2 0xD74 JUMP JUMPDEST PUSH2 0x100 DUP5 ADD MSTORE PUSH1 0x1 PUSH1 0x1 PUSH1 0xA0 SHL SUB AND PUSH2 0x120 DUP4 ADD MSTORE PUSH2 0x140 DUP3 ADD MSTORE PUSH2 0x183A PUSH32 0x0 PUSH2 0x5C3 JUMP JUMPDEST PUSH4 0x88316456 PUSH2 0x1848 PUSH1 0x40 MLOAD SWAP1 JUMP JUMPDEST DUP1 SWAP4 PUSH2 0x1855 DUP3 SWAP4 PUSH1 0xE0 SHL SWAP1 JUMP JUMPDEST DUP3 MSTORE PUSH2 0x1864 SWAP1 PUSH1 0x4 DUP4 ADD PUSH2 0x1588 JUMP JUMPDEST SUB DUP2 GAS PUSH1 0x80 SWAP5 PUSH1 0x0 SWAP2 CALL SWAP1 DUP2 ISZERO PUSH2 0xCA2 JUMPI PUSH1 0x0 SWAP2 PUSH2 0x1880 JUMPI POP SWAP1 JUMP JUMPDEST PUSH2 0x18A1 SWAP2 POP PUSH1 0x80 RETURNDATASIZE DUP2 GT PUSH2 0x18A7 JUMPI JUMPDEST PUSH2 0x1899 DUP2 DUP4 PUSH2 0x25B JUMP JUMPDEST DUP2 ADD SWAP1 PUSH2 0x149F JUMP JUMPDEST POP POP POP SWAP1 JUMP JUMPDEST POP RETURNDATASIZE PUSH2 0x188F JUMP JUMPDEST PUSH2 0x18CE SWAP1 PUSH1 0x20 RETURNDATASIZE DUP2 GT PUSH2 0x18D3 JUMPI JUMPDEST PUSH2 0x18C6 DUP2 DUP4 PUSH2 0x25B JUMP JUMPDEST DUP2 ADD SWAP1 PUSH2 0x1409 JUMP JUMPDEST PUSH2 0x171F JUMP JUMPDEST POP RETURNDATASIZE PUSH2 0x18BC JUMP JUMPDEST PUSH2 0x18F1 SWAP1 PUSH1 0x20 RETURNDATASIZE DUP2 GT PUSH2 0x18D3 JUMPI PUSH2 0x18C6 DUP2 DUP4 PUSH2 0x25B JUMP JUMPDEST PUSH2 0x16BA JUMP JUMPDEST PUSH2 0x190D SWAP1 PUSH1 0x20 RETURNDATASIZE DUP2 GT PUSH2 0x18D3 JUMPI PUSH2 0x18C6 DUP2 DUP4 PUSH2 0x25B JUMP JUMPDEST PUSH2 0x163D JUMP JUMPDEST PUSH2 0x1929 SWAP1 PUSH1 0x20 RETURNDATASIZE DUP2 GT PUSH2 0x18D3 JUMPI PUSH2 0x18C6 DUP2 DUP4 PUSH2 0x25B JUMP JUMPDEST PUSH2 0x15F7 JUMP JUMPDEST PUSH2 0x113 PUSH2 0x193C CALLER PUSH1 0x2 PUSH2 0x1058 JUMP JUMPDEST PUSH2 0x12DC JUMP JUMPDEST PUSH2 0x113 PUSH2 0x100 PUSH2 0x282 JUMP JUMPDEST PUSH2 0x107 PUSH2 0x113 PUSH2 0x113 SWAP3 SWAP1 JUMP JUMPDEST DUP1 MLOAD PUSH1 0x1 PUSH1 0x1 PUSH1 0xA0 SHL SUB AND DUP3 MSTORE PUSH2 0x13A SWAP2 SWAP1 PUSH1 0xE0 SWAP1 DUP2 SWAP1 PUSH1 0x20 DUP2 DUP2 ADD MLOAD PUSH1 0x1 PUSH1 0x1 PUSH1 0xA0 SHL SUB AND SWAP1 DUP6 ADD MSTORE PUSH1 0x40 DUP2 DUP2 ADD MLOAD PUSH3 0xFFFFFF AND SWAP1 DUP6 ADD MSTORE PUSH1 0x60 DUP1 DUP3 ADD MLOAD PUSH1 0x1 PUSH1 0x1 PUSH1 0xA0 SHL SUB AND SWAP1 DUP6 ADD MSTORE PUSH2 0x19B4 PUSH1 0x80 DUP3 ADD MLOAD PUSH1 0x80 DUP7 ADD MSTORE JUMP JUMPDEST PUSH2 0x19C3 PUSH1 0xA0 DUP3 ADD MLOAD PUSH1 0xA0 DUP7 ADD MSTORE JUMP JUMPDEST PUSH2 0x19D2 PUSH1 0xC0 DUP3 ADD MLOAD PUSH1 0xC0 DUP7 ADD MSTORE JUMP JUMPDEST ADD MLOAD PUSH1 0x1 PUSH1 0x1 PUSH1 0xA0 SHL SUB AND SWAP2 ADD MSTORE JUMP JUMPDEST PUSH2 0x100 DUP2 ADD SWAP3 SWAP2 PUSH2 0x13A SWAP2 SWAP1 PUSH2 0x1959 JUMP JUMPDEST SWAP1 SWAP2 SWAP1 PUSH2 0x1A02 PUSH2 0xBFB DUP3 PUSH2 0x5C3 JUMP JUMPDEST PUSH1 0x20 PUSH4 0x23B872DD SWAP2 CALLER SWAP1 PUSH2 0x15DD PUSH1 0x0 PUSH2 0x1A1A ADDRESS PUSH2 0x5C3 JUMP JUMPDEST SWAP6 PUSH2 0x1A28 DUP10 PUSH2 0x15D0 PUSH1 0x40 MLOAD SWAP1 JUMP JUMPDEST SUB SWAP3 GAS CALL DUP1 ISZERO PUSH2 0xCA2 JUMPI PUSH2 0x1BB9 JUMPI JUMPDEST POP PUSH2 0x1A44 PUSH2 0xBFB DUP3 PUSH2 0x5C3 JUMP JUMPDEST PUSH1 0x20 PUSH4 0x95EA7B3 SWAP2 PUSH2 0x1A75 PUSH32 0x0 PUSH2 0x5C3 JUMP JUMPDEST SWAP1 PUSH2 0x16A0 PUSH1 0x0 DUP8 SWAP6 PUSH2 0x1A89 PUSH2 0x1693 PUSH1 0x40 MLOAD SWAP1 JUMP JUMPDEST SUB SWAP3 GAS CALL DUP1 ISZERO PUSH2 0xCA2 JUMPI PUSH2 0x1B9D JUMPI JUMPDEST POP SWAP2 SWAP1 PUSH2 0x1AA5 PUSH1 0x1 PUSH2 0x146A JUMP JUMPDEST SWAP1 CALLER SWAP1 TIMESTAMP PUSH2 0x1AB3 PUSH1 0x3C PUSH2 0xD74 JUMP JUMPDEST PUSH2 0x1ABC SWAP2 PUSH2 0x1474 JUMP JUMPDEST SWAP1 SWAP2 PUSH1 0x0 SWAP4 PUSH1 0x0 SWAP6 PUSH2 0x1ACC PUSH2 0x1941 JUMP JUMPDEST PUSH1 0x1 PUSH1 0x1 PUSH1 0xA0 SHL SUB SWAP1 SWAP9 AND DUP9 MSTORE PUSH1 0x1 PUSH1 0x1 PUSH1 0xA0 SHL SUB AND PUSH1 0x20 DUP9 ADD MSTORE PUSH3 0xFFFFFF AND PUSH1 0x40 DUP8 ADD MSTORE PUSH1 0x1 PUSH1 0x1 PUSH1 0xA0 SHL SUB AND PUSH1 0x60 DUP7 ADD MSTORE PUSH1 0x80 DUP6 ADD MSTORE PUSH1 0xA0 DUP5 ADD MSTORE PUSH2 0x1B12 SWAP1 PUSH2 0xD74 JUMP JUMPDEST PUSH1 0xC0 DUP4 ADD MSTORE PUSH2 0x1B20 SWAP1 PUSH2 0x194C JUMP JUMPDEST PUSH1 0x1 PUSH1 0x1 PUSH1 0xA0 SHL SUB AND PUSH1 0xE0 DUP3 ADD MSTORE PUSH2 0x1B57 PUSH32 0x0 PUSH2 0x5C3 JUMP JUMPDEST PUSH4 0x414BF389 PUSH2 0x1B65 PUSH1 0x40 MLOAD SWAP1 JUMP JUMPDEST DUP1 SWAP4 PUSH2 0x1B72 DUP3 SWAP4 PUSH1 0xE0 SHL SWAP1 JUMP JUMPDEST DUP3 MSTORE PUSH2 0x1B81 SWAP1 PUSH1 0x4 DUP4 ADD PUSH2 0x19E2 JUMP JUMPDEST SUB DUP2 GAS PUSH1 0x20 SWAP5 PUSH1 0x0 SWAP2 CALL SWAP1 DUP2 ISZERO PUSH2 0xCA2 JUMPI PUSH1 0x0 SWAP2 PUSH2 0x13C4 JUMPI POP SWAP1 JUMP JUMPDEST PUSH2 0x1BB4 SWAP1 PUSH1 0x20 RETURNDATASIZE DUP2 GT PUSH2 0x18D3 JUMPI PUSH2 0x18C6 DUP2 DUP4 PUSH2 0x25B JUMP JUMPDEST PUSH2 0x1A98 JUMP JUMPDEST PUSH2 0x1BD0 SWAP1 PUSH1 0x20 RETURNDATASIZE DUP2 GT PUSH2 0x18D3 JUMPI PUSH2 0x18C6 DUP2 DUP4 PUSH2 0x25B JUMP JUMPDEST PUSH2 0x1A37 JUMP JUMPDEST PUSH2 0x113 PUSH2 0x113 PUSH2 0x113 SWAP3 PUSH1 0x1 PUSH1 0x1 PUSH1 0xA0 SHL SUB AND SWAP1 JUMP JUMPDEST DUP2 DUP2 MUL SWAP3 SWAP2 DUP2 ISZERO SWAP2 DUP5 DIV EQ OR ISZERO PUSH2 0x1095 JUMPI JUMP JUMPDEST PUSH4 0x4E487B71 PUSH1 0xE0 SHL PUSH1 0x0 MSTORE PUSH1 0x12 PUSH1 0x4 MSTORE PUSH1 0x24 PUSH1 0x0 REVERT JUMPDEST DUP2 ISZERO PUSH2 0x1C1E JUMPI DIV SWAP1 JUMP JUMPDEST PUSH2 0x1BFE JUMP JUMPDEST PUSH1 0xE0 PUSH2 0x1C3D PUSH2 0xBFB PUSH2 0x1C4C SWAP4 PUSH2 0x1C37 PUSH1 0x0 SWAP1 JUMP JUMPDEST POP PUSH2 0x5C3 JUMP JUMPDEST PUSH4 0x3850C7BD SWAP1 PUSH2 0xC56 PUSH1 0x40 MLOAD SWAP1 JUMP JUMPDEST DUP3 MSTORE PUSH1 0x4 SWAP1 DUP3 SWAP1 GAS STATICCALL SWAP1 DUP2 ISZERO PUSH2 0xCA2 JUMPI PUSH2 0x113 SWAP2 PUSH2 0x1C85 SWAP2 PUSH1 0x0 SWAP2 PUSH2 0x1CAD JUMPI JUMPDEST POP PUSH2 0x1C7F PUSH2 0x1C79 DUP3 PUSH2 0x1BD5 JUMP JUMPDEST SWAP2 PUSH2 0x1BD5 JUMP JUMPDEST SWAP1 PUSH2 0x1BEB JUMP JUMPDEST PUSH2 0x1CA7 PUSH25 0x1000000000000000000000000000000000000000000000000 PUSH2 0xD74 JUMP JUMPDEST SWAP1 PUSH2 0x1C14 JUMP JUMPDEST PUSH2 0x1CC5 SWAP2 POP PUSH1 0xE0 RETURNDATASIZE DUP2 GT PUSH2 0xCE5 JUMPI PUSH2 0xCCE DUP2 DUP4 PUSH2 0x25B JUMP JUMPDEST POP POP POP POP POP PUSH2 0x1C6C JUMP JUMPDEST PUSH12 0xFFFFFFFFFFFFFFFFFFFFFFFF DUP2 AND PUSH2 0x121 JUMP JUMPDEST SWAP1 POP MLOAD SWAP1 PUSH2 0x13A DUP3 PUSH2 0x1CCF JUMP JUMPDEST SWAP1 POP MLOAD SWAP1 PUSH2 0x13A DUP3 PUSH2 0x116 JUMP JUMPDEST PUSH3 0xFFFFFF DUP2 AND PUSH2 0x121 JUMP JUMPDEST SWAP1 POP MLOAD SWAP1 PUSH2 0x13A DUP3 PUSH2 0x1CFD JUMP JUMPDEST SWAP1 SWAP2 PUSH2 0x180 DUP3 DUP5 SUB SLT PUSH2 0x128 JUMPI PUSH2 0x1D2C DUP4 DUP4 PUSH2 0x1CE3 JUMP JUMPDEST SWAP3 PUSH2 0x1D3A DUP2 PUSH1 0x20 DUP6 ADD PUSH2 0x1CF0 JUMP JUMPDEST SWAP3 PUSH2 0x1D48 DUP3 PUSH1 0x40 DUP4 ADD PUSH2 0x1CF0 JUMP JUMPDEST SWAP3 PUSH2 0x1D56 DUP4 PUSH1 0x60 DUP5 ADD PUSH2 0x1CF0 JUMP JUMPDEST SWAP3 PUSH2 0x1D64 DUP2 PUSH1 0x80 DUP6 ADD PUSH2 0x1D08 JUMP JUMPDEST SWAP3 PUSH2 0x1D72 DUP3 PUSH1 0xA0 DUP4 ADD PUSH2 0xAEE JUMP JUMPDEST SWAP3 PUSH2 0x1D80 DUP4 PUSH1 0xC0 DUP5 ADD PUSH2 0xAEE JUMP JUMPDEST SWAP3 PUSH2 0x1D8E DUP2 PUSH1 0xE0 DUP6 ADD PUSH2 0xBC7 JUMP JUMPDEST SWAP3 PUSH2 0x1D9D DUP3 PUSH2 0x100 DUP4 ADD PUSH2 0x1302 JUMP JUMPDEST SWAP3 PUSH2 0x113 PUSH2 0x1DAF DUP5 PUSH2 0x120 DUP6 ADD PUSH2 0x1302 JUMP JUMPDEST SWAP4 PUSH2 0x1DBE DUP2 PUSH2 0x140 DUP7 ADD PUSH2 0xBC7 JUMP JUMPDEST SWAP4 PUSH2 0x160 ADD PUSH2 0xBC7 JUMP JUMPDEST PUSH2 0x180 PUSH2 0x1E20 SWAP2 PUSH2 0x1DD7 PUSH1 0x0 SWAP1 JUMP JUMPDEST POP PUSH2 0x1E01 PUSH32 0x0 PUSH2 0x5C3 JUMP JUMPDEST PUSH2 0x1E12 PUSH4 0x99FBAB88 PUSH2 0x134D PUSH1 0x40 MLOAD SWAP1 JUMP JUMPDEST DUP4 MSTORE PUSH1 0x4 DUP4 ADD MSTORE PUSH1 0x24 DUP3 ADD SWAP1 JUMP JUMPDEST SUB SWAP2 GAS STATICCALL SWAP1 DUP2 ISZERO PUSH2 0xCA2 JUMPI PUSH1 0x0 SWAP2 PUSH2 0x1E36 JUMPI POP SWAP1 JUMP JUMPDEST PUSH2 0x1E58 SWAP2 POP PUSH2 0x180 RETURNDATASIZE DUP2 GT PUSH2 0x1E67 JUMPI JUMPDEST PUSH2 0x1E50 DUP2 DUP4 PUSH2 0x25B JUMP JUMPDEST DUP2 ADD SWAP1 PUSH2 0x1D15 JUMP JUMPDEST POP POP POP POP SWAP7 POP POP POP POP POP POP POP SWAP1 JUMP JUMPDEST POP RETURNDATASIZE PUSH2 0x1E46 JUMP INVALID LOG2 PUSH5 0x6970667358 0x22 SLT KECCAK256 LT SWAP12 0xCC CALLER 0xC1 KECCAK256 DUP12 0xC4 SWAP9 0xED 0x2E 0x4E 0xFC PUSH15 0x6A6319788CA5AB7FF1A575362828B SUB XOR 0xBF PUSH5 0x736F6C6343 STOP ADDMOD XOR STOP CALLER "},"methodIdentifiers":{"addLiquidity(uint256,uint256)":"9cd441da","addTransactionToHistory(uint8,string,string,uint256,uint256,bytes32)":"4abf5dc1","allTransactions(uint256)":"d7ff0714","fee()":"ddca3f43","getAllTransactionHistory()":"784394bc","getPoolBalances(address)":"7b50f8c5","getPoolInfo(address)":"06bfa938","getPosition(uint256)":"eb02c301","getTokenPrice(address)":"d02641a0","getUserTransactionHistory()":"c979affb","positionManager()":"791b98bc","swapExactInputSingle(address,address,uint256)":"ceb92012","swapRouter()":"c31c9c07","token0()":"0dfe1681","token1()":"d21220a7"}}}}}