{"contracts/Add_Swap_Contract.sol":{"Add_Swap_Contract":{"abi":[{"inputs":[{"internalType":"address","name":"_swapRouter","type":"address"},{"internalType":"address","name":"_positionManager","type":"address"},{"internalType":"address","name":"_token0","type":"address"},{"internalType":"address","name":"_token1","type":"address"}],"stateMutability":"nonpayable","type":"constructor"},{"inputs":[{"internalType":"uint256","name":"amount0Desired","type":"uint256"},{"internalType":"uint256","name":"amount1Desired","type":"uint256"}],"name":"addLiquidity","outputs":[{"internalType":"uint256","name":"tokenId","type":"uint256"}],"stateMutability":"nonpayable","type":"function"},{"inputs":[],"name":"fee","outputs":[{"internalType":"uint24","name":"","type":"uint24"}],"stateMutability":"view","type":"function"},{"inputs":[{"internalType":"address","name":"pool","type":"address"}],"name":"getPoolBalances","outputs":[{"internalType":"uint256","name":"bal0","type":"uint256"},{"internalType":"uint256","name":"bal1","type":"uint256"}],"stateMutability":"view","type":"function"},{"inputs":[{"internalType":"address","name":"pool","type":"address"}],"name":"getPoolInfo","outputs":[{"internalType":"uint160","name":"sqrtPriceX96","type":"uint160"},{"internalType":"int24","name":"tick","type":"int24"},{"internalType":"uint128","name":"liquidity","type":"uint128"}],"stateMutability":"view","type":"function"},{"inputs":[{"internalType":"uint256","name":"tokenId","type":"uint256"}],"name":"getPosition","outputs":[{"internalType":"uint128","name":"liquidity","type":"uint128"}],"stateMutability":"view","type":"function"},{"inputs":[{"internalType":"address","name":"pool","type":"address"}],"name":"getTokenPrice","outputs":[{"internalType":"uint256","name":"price","type":"uint256"}],"stateMutability":"view","type":"function"},{"inputs":[],"name":"positionManager","outputs":[{"internalType":"contract INonfungiblePositionManager","name":"","type":"address"}],"stateMutability":"view","type":"function"},{"inputs":[{"internalType":"address","name":"inputToken","type":"address"},{"internalType":"address","name":"outputToken","type":"address"},{"internalType":"uint256","name":"amountIn","type":"uint256"}],"name":"swapExactInputSingle","outputs":[{"internalType":"uint256","name":"amountOut","type":"uint256"}],"stateMutability":"nonpayable","type":"function"},{"inputs":[],"name":"swapRouter","outputs":[{"internalType":"contract ISwapRouter","name":"","type":"address"}],"stateMutability":"view","type":"function"},{"inputs":[],"name":"token0","outputs":[{"internalType":"address","name":"","type":"address"}],"stateMutability":"view","type":"function"},{"inputs":[],"name":"token1","outputs":[{"internalType":"address","name":"","type":"address"}],"stateMutability":"view","type":"function"}],"evm":{"bytecode":{"linkReferences":{},"object":"60c0604052346200007057620000226200001862000141565b9291909162000211565b60405161132d62000257823960805181818161032801528181610ec10152610fa3015260a05181818161024401528181610ade01528181610b5b01528181610c990152611266015261132d90f35b600080fd5b634e487b7160e01b600052604160045260246000fd5b90601f01601f191681019081106001600160401b03821117620000ad57604052565b62000075565b90620000ca620000c260405190565b92836200008b565b565b6001600160a01b031690565b90565b6001600160a01b038116036200007057565b90505190620000ca82620000db565b6080818303126200007057620001138282620000ed565b92620000d8620001278460208501620000ed565b93620001378160408601620000ed565b93606001620000ed565b6200016462001584803803806200015881620000b3565b928339810190620000fc565b90919293565b9062ffffff60a01b9060a01b5b9181191691161790565b62000191620000d8620000d89290565b62ffffff1690565b90620001ad620000d8620001b59262000181565b82546200016a565b9055565b620000d890620000cc906001600160a01b031682565b620000d890620001b9565b620000d890620001cf565b906001600160a01b039062000177565b9062000209620000d8620001b592620001da565b8254620001e5565b91620002436200024e926200023a620000ca9695620002346101f4600162000199565b620001da565b608052620001da565b60a0526000620001f5565b6001620001f556fe6080604052600436101561001257600080fd5b60003560e01c806306bfa938146100c25780630dfe1681146100bd578063791b98bc146100b85780637b50f8c5146100b35780639cd441da146100ae578063c31c9c07146100a9578063ceb92012146100a4578063d02641a01461009f578063d21220a71461009a578063ddca3f43146100955763eb02c301036100e857610447565b610402565b6103bf565b610398565b61037c565b610313565b6102e7565b610283565b61022f565b6101b9565b610156565b6001600160a01b031690565b90565b6001600160a01b0381165b036100e857565b600080fd5b905035906100fa826100d6565b565b906020828203126100e8576100d3916100ed565b9052565b6001600160a01b0390911681526060810193926100fa92909160409161013e9060020b6020830152565b01906fffffffffffffffffffffffffffffffff169052565b346100e85761018061017161016c3660046100fc565b610619565b60405191939193849384610114565b0390f35b60009103126100e857565b6100d3916008021c6001600160a01b031690565b906100d3915461018f565b6100d36000806101a3565b346100e8576101c9366004610184565b6101806101d46101ae565b604051918291826001600160a01b03909116815260200190565b6100c76100d36100d3926001600160a01b031690565b6100d3906101ee565b6100d390610204565b6101109061020d565b6020810192916100fa9190610216565b346100e85761023f366004610184565b6101807f00000000000000000000000000000000000000000000000000000000000000005b6040519182918261021f565b9081526040810192916100fa9160200152565b346100e85761029b6102963660046100fc565b610751565b906101806102a860405190565b92839283610270565b806100e1565b905035906100fa826102b1565b91906040838203126100e8576100d3906102de81856102b7565b936020016102b7565b346100e8576101806103036102fd3660046102c4565b90610a1c565b6040519182918290815260200190565b346100e857610323366004610184565b6101807f0000000000000000000000000000000000000000000000000000000000000000610264565b90916060828403126100e8576100d361036584846100ed565b9361037381602086016100ed565b936040016102b7565b346100e85761018061030361039236600461034c565b91610e63565b346100e8576101806103036103ae3660046100fc565b6110ac565b6100d3600060016101a3565b346100e8576103cf366004610184565b6101806101d46103b3565b6100d3916008021c5b62ffffff1690565b906100d391546103da565b6100d3601460016103eb565b346100e857610412366004610184565b61018061041d6103f6565b6040519182918262ffffff909116815260200190565b906020828203126100e8576100d3916102b7565b346100e85761018061046261045d366004610433565b611251565b604051918291826fffffffffffffffffffffffffffffffff909116815260200190565b7f4e487b7100000000000000000000000000000000000000000000000000000000600052604160045260246000fd5b90601f017fffffffffffffffffffffffffffffffffffffffffffffffffffffffffffffffe016810190811067ffffffffffffffff8211176104f457604052565b610485565b6001600160a01b0381166100e1565b905051906100fa826104f9565b6100e18160020b90565b905051906100fa82610515565b61ffff81166100e1565b905051906100fa8261052c565b60ff81166100e1565b905051906100fa82610543565b8015156100e1565b905051906100fa82610559565b60e0818303126100e8576105828282610508565b92610590836020840161051f565b9261059e8160408501610536565b926105ac8260608301610536565b926100d36105bd8460808501610536565b936105cb8160a0860161054c565b9360c001610561565b6040513d6000823e3d90fd5b6fffffffffffffffffffffffffffffffff81166100e1565b905051906100fa826105e0565b906020828203126100e8576100d3916105f8565b906106499060e061063161062c8561020d565b61020d565b633850c7bd9061064060405190565b94859260e01b90565b825260049082905afa9182156106d3576000809190936106d8575b50602061067861062c61069093959661020d565b631a6865029061068760405190565b93849260e01b90565b825260049082905afa9081156106d3576000916106ab575090565b6100d3915060203d81116106cc575b6106c481836104b4565b810190610605565b503d6106ba565b6105d4565b61062c9350610690915061067861070760209260e03d8111610716575b6106ff81836104b4565b81019061056e565b50505050509350945050610664565b503d6106f5565b6100d3906100c7565b6100d3905461071d565b905051906100fa826102b1565b906020828203126100e8576100d391610730565b9061079f602061076761062c61062c6000610726565b6370a0823190610788869261077b60405190565b9586948593849360e01b90565b83526001600160a01b031660048301526024820190565b03915afa9081156106d3576107dc9160209160009161081a575b50936107cb61062c61062c6001610726565b6107886370a0823161077b60405190565b03915afa9081156106d3576000916107f2575090565b6100d3915060203d8111610813575b61080b81836104b4565b81019061073d565b503d610801565b6108319150823d81116108135761080b81836104b4565b386107b9565b906020828203126100e8576100d391610561565b6001600160a01b039182168152911660208201526060810192916100fa9160400152565b6001600160a01b0390911681526040810192916100fa9160200152565b6100d39060a01c6103e3565b6100d3905461088c565b6100d36100d36100d39290565b7f4e487b7100000000000000000000000000000000000000000000000000000000600052601160045260246000fd5b919082018092116108eb57565b6108af565b906100fa6108fd60405190565b92836104b4565b6100d36101606108f0565b61091c6100d36100d39290565b60020b90565b6080818303126100e8576109368282610730565b926100d361094784602085016105f8565b936109558160408601610730565b93606001610730565b80516001600160a01b031682526100fa91906101409081906020818101516001600160a01b03169085015260408181015162ffffff169085015260608181015160020b9085015260808181015160020b908501526109c160a082015160a0860152565b6109d060c082015160c0860152565b6109df60e082015160e0860152565b6109f0610100820151610100860152565b610120818101516001600160a01b0316908501520151910152565b610160810192916100fa919061095e565b90610a2d61062c61062c6000610726565b60206323b872dd913390610a606000610a453061020d565b95610a6b89610a5360405190565b9889978896879560e01b90565b85526004850161084b565b03925af180156106d357610d95575b50610a8b61062c61062c6001610726565b60206323b872dd913390610a606000610aa33061020d565b95610ab188610a5360405190565b03925af180156106d357610d79575b50610ad161062c61062c6000610726565b602063095ea7b391610b027f000000000000000000000000000000000000000000000000000000000000000061020d565b90610b2360008795610b2e610b1660405190565b9788968795869460e01b90565b84526004840161086f565b03925af180156106d357610d5d575b50610b4e61062c61062c6001610726565b602063095ea7b391610b7f7f000000000000000000000000000000000000000000000000000000000000000061020d565b90610b2360008695610b93610b1660405190565b03925af180156106d357610d31575b50610bad6000610726565b91610bb86001610726565b91610bc36001610898565b917ffffffffffffffffffffffffffffffffffffffffffffffffffffffffffff2764c91620d89b4916000926000943396426078610bff906108a2565b610c08916108de565b98610c11610904565b6001600160a01b03909b168b526001600160a01b031660208b015262ffffff1660408a0152610c3f9061090f565b60020b6060890152610c509061090f565b60020b608088015260a087015260c0860152610c6b906108a2565b60e0850152610c79906108a2565b6101008401526001600160a01b0316610120830152610140820152610cbd7f000000000000000000000000000000000000000000000000000000000000000061020d565b6388316456610ccb60405190565b8093610cd8829360e01b90565b8252610ce79060048301610a0b565b03815a608094600091f19081156106d357600091610d03575090565b610d24915060803d8111610d2a575b610d1c81836104b4565b810190610922565b50505090565b503d610d12565b610d519060203d8111610d56575b610d4981836104b4565b810190610837565b610ba2565b503d610d3f565b610d749060203d8111610d5657610d4981836104b4565b610b3d565b610d909060203d8111610d5657610d4981836104b4565b610ac0565b610dac9060203d8111610d5657610d4981836104b4565b610a7a565b6100d36101006108f0565b6100c76100d36100d39290565b80516001600160a01b031682526100fa919060e09081906020818101516001600160a01b03169085015260408181015162ffffff16908501526060808201516001600160a01b031690850152610e2460808201516080860152565b610e3360a082015160a0860152565b610e4260c082015160c0860152565b01516001600160a01b0316910152565b610100810192916100fa9190610dc9565b909190610e7261062c8261020d565b60206323b872dd913390610a606000610e8a3061020d565b95610e9889610a5360405190565b03925af180156106d357611029575b50610eb461062c8261020d565b602063095ea7b391610ee57f000000000000000000000000000000000000000000000000000000000000000061020d565b90610b2360008795610ef9610b1660405190565b03925af180156106d35761100d575b509190610f156001610898565b90339042610f23603c6108a2565b610f2c916108de565b9091600093600095610f3c610db1565b6001600160a01b0390981688526001600160a01b0316602088015262ffffff1660408701526001600160a01b03166060860152608085015260a0840152610f82906108a2565b60c0830152610f9090610dbc565b6001600160a01b031660e0820152610fc77f000000000000000000000000000000000000000000000000000000000000000061020d565b63414bf389610fd560405190565b8093610fe2829360e01b90565b8252610ff19060048301610e52565b03815a602094600091f19081156106d3576000916107f2575090565b6110249060203d8111610d5657610d4981836104b4565b610f08565b6110409060203d8111610d5657610d4981836104b4565b610ea7565b6100d36100d36100d3926001600160a01b031690565b818102929181159184041417156108eb57565b7f4e487b7100000000000000000000000000000000000000000000000000000000600052601260045260246000fd5b81156110a7570490565b61106e565b60e06110c661062c6110d5936110c0600090565b5061020d565b633850c7bd9061068760405190565b825260049082905afa9081156106d3576100d39161110e91600091611136575b5061110861110282611045565b91611045565b9061105b565b61113078010000000000000000000000000000000000000000000000006108a2565b9061109d565b61114e915060e03d8111610716576106ff81836104b4565b50505050506110f5565b6bffffffffffffffffffffffff81166100e1565b905051906100fa82611158565b905051906100fa826100d6565b62ffffff81166100e1565b905051906100fa82611186565b9091610180828403126100e8576111b5838361116c565b926111c38160208501611179565b926111d18260408301611179565b926111df8360608401611179565b926111ed8160808501611191565b926111fb8260a0830161051f565b926112098360c0840161051f565b926112178160e085016105f8565b92611226826101008301610730565b926100d3611238846101208501610730565b936112478161014086016105f8565b93610160016105f8565b6101806112a991611260600090565b5061128a7f000000000000000000000000000000000000000000000000000000000000000061020d565b61129b6399fbab8861077b60405190565b835260048301526024820190565b03915afa9081156106d3576000916112bf575090565b6112e191506101803d81116112f0575b6112d981836104b4565b81019061119e565b50505050965050505050505090565b503d6112cf56fea2646970667358221220f17a6f396bc7623a886bb9d821f01c3461265ec2fd885f0d24e5af770ae9d77264736f6c63430008180033","opcodes":"PUSH1 0xC0 PUSH1 0x40 MSTORE CALLVALUE PUSH3 0x70 JUMPI PUSH3 0x22 PUSH3 0x18 PUSH3 0x141 JUMP JUMPDEST SWAP3 SWAP2 SWAP1 SWAP2 PUSH3 0x211 JUMP JUMPDEST PUSH1 0x40 MLOAD PUSH2 0x132D PUSH3 0x257 DUP3 CODECOPY PUSH1 0x80 MLOAD DUP2 DUP2 DUP2 PUSH2 0x328 ADD MSTORE DUP2 DUP2 PUSH2 0xEC1 ADD MSTORE PUSH2 0xFA3 ADD MSTORE PUSH1 0xA0 MLOAD DUP2 DUP2 DUP2 PUSH2 0x244 ADD MSTORE DUP2 DUP2 PUSH2 0xADE ADD MSTORE DUP2 DUP2 PUSH2 0xB5B ADD MSTORE DUP2 DUP2 PUSH2 0xC99 ADD MSTORE PUSH2 0x1266 ADD MSTORE PUSH2 0x132D SWAP1 RETURN JUMPDEST PUSH1 0x0 DUP1 REVERT JUMPDEST PUSH4 0x4E487B71 PUSH1 0xE0 SHL PUSH1 0x0 MSTORE PUSH1 0x41 PUSH1 0x4 MSTORE PUSH1 0x24 PUSH1 0x0 REVERT JUMPDEST SWAP1 PUSH1 0x1F ADD PUSH1 0x1F NOT AND DUP2 ADD SWAP1 DUP2 LT PUSH1 0x1 PUSH1 0x1 PUSH1 0x40 SHL SUB DUP3 GT OR PUSH3 0xAD JUMPI PUSH1 0x40 MSTORE JUMP JUMPDEST PUSH3 0x75 JUMP JUMPDEST SWAP1 PUSH3 0xCA PUSH3 0xC2 PUSH1 0x40 MLOAD SWAP1 JUMP JUMPDEST SWAP3 DUP4 PUSH3 0x8B JUMP JUMPDEST JUMP JUMPDEST PUSH1 0x1 PUSH1 0x1 PUSH1 0xA0 SHL SUB AND SWAP1 JUMP JUMPDEST SWAP1 JUMP JUMPDEST PUSH1 0x1 PUSH1 0x1 PUSH1 0xA0 SHL SUB DUP2 AND SUB PUSH3 0x70 JUMPI JUMP JUMPDEST SWAP1 POP MLOAD SWAP1 PUSH3 0xCA DUP3 PUSH3 0xDB JUMP JUMPDEST PUSH1 0x80 DUP2 DUP4 SUB SLT PUSH3 0x70 JUMPI PUSH3 0x113 DUP3 DUP3 PUSH3 0xED JUMP JUMPDEST SWAP3 PUSH3 0xD8 PUSH3 0x127 DUP5 PUSH1 0x20 DUP6 ADD PUSH3 0xED JUMP JUMPDEST SWAP4 PUSH3 0x137 DUP2 PUSH1 0x40 DUP7 ADD PUSH3 0xED JUMP JUMPDEST SWAP4 PUSH1 0x60 ADD PUSH3 0xED JUMP JUMPDEST PUSH3 0x164 PUSH3 0x1584 DUP1 CODESIZE SUB DUP1 PUSH3 0x158 DUP2 PUSH3 0xB3 JUMP JUMPDEST SWAP3 DUP4 CODECOPY DUP2 ADD SWAP1 PUSH3 0xFC JUMP JUMPDEST SWAP1 SWAP2 SWAP3 SWAP4 JUMP JUMPDEST SWAP1 PUSH3 0xFFFFFF PUSH1 0xA0 SHL SWAP1 PUSH1 0xA0 SHL JUMPDEST SWAP2 DUP2 NOT AND SWAP2 AND OR SWAP1 JUMP JUMPDEST PUSH3 0x191 PUSH3 0xD8 PUSH3 0xD8 SWAP3 SWAP1 JUMP JUMPDEST PUSH3 0xFFFFFF AND SWAP1 JUMP JUMPDEST SWAP1 PUSH3 0x1AD PUSH3 0xD8 PUSH3 0x1B5 SWAP3 PUSH3 0x181 JUMP JUMPDEST DUP3 SLOAD PUSH3 0x16A JUMP JUMPDEST SWAP1 SSTORE JUMP JUMPDEST PUSH3 0xD8 SWAP1 PUSH3 0xCC SWAP1 PUSH1 0x1 PUSH1 0x1 PUSH1 0xA0 SHL SUB AND DUP3 JUMP JUMPDEST PUSH3 0xD8 SWAP1 PUSH3 0x1B9 JUMP JUMPDEST PUSH3 0xD8 SWAP1 PUSH3 0x1CF JUMP JUMPDEST SWAP1 PUSH1 0x1 PUSH1 0x1 PUSH1 0xA0 SHL SUB SWAP1 PUSH3 0x177 JUMP JUMPDEST SWAP1 PUSH3 0x209 PUSH3 0xD8 PUSH3 0x1B5 SWAP3 PUSH3 0x1DA JUMP JUMPDEST DUP3 SLOAD PUSH3 0x1E5 JUMP JUMPDEST SWAP2 PUSH3 0x243 PUSH3 0x24E SWAP3 PUSH3 0x23A PUSH3 0xCA SWAP7 SWAP6 PUSH3 0x234 PUSH2 0x1F4 PUSH1 0x1 PUSH3 0x199 JUMP JUMPDEST PUSH3 0x1DA JUMP JUMPDEST PUSH1 0x80 MSTORE PUSH3 0x1DA JUMP JUMPDEST PUSH1 0xA0 MSTORE PUSH1 0x0 PUSH3 0x1F5 JUMP JUMPDEST PUSH1 0x1 PUSH3 0x1F5 JUMP INVALID PUSH1 0x80 PUSH1 0x40 MSTORE PUSH1 0x4 CALLDATASIZE LT ISZERO PUSH2 0x12 JUMPI PUSH1 0x0 DUP1 REVERT JUMPDEST PUSH1 0x0 CALLDATALOAD PUSH1 0xE0 SHR DUP1 PUSH4 0x6BFA938 EQ PUSH2 0xC2 JUMPI DUP1 PUSH4 0xDFE1681 EQ PUSH2 0xBD JUMPI DUP1 PUSH4 0x791B98BC EQ PUSH2 0xB8 JUMPI DUP1 PUSH4 0x7B50F8C5 EQ PUSH2 0xB3 JUMPI DUP1 PUSH4 0x9CD441DA EQ PUSH2 0xAE JUMPI DUP1 PUSH4 0xC31C9C07 EQ PUSH2 0xA9 JUMPI DUP1 PUSH4 0xCEB92012 EQ PUSH2 0xA4 JUMPI DUP1 PUSH4 0xD02641A0 EQ PUSH2 0x9F JUMPI DUP1 PUSH4 0xD21220A7 EQ PUSH2 0x9A JUMPI DUP1 PUSH4 0xDDCA3F43 EQ PUSH2 0x95 JUMPI PUSH4 0xEB02C301 SUB PUSH2 0xE8 JUMPI PUSH2 0x447 JUMP JUMPDEST PUSH2 0x402 JUMP JUMPDEST PUSH2 0x3BF JUMP JUMPDEST PUSH2 0x398 JUMP JUMPDEST PUSH2 0x37C JUMP JUMPDEST PUSH2 0x313 JUMP JUMPDEST PUSH2 0x2E7 JUMP JUMPDEST PUSH2 0x283 JUMP JUMPDEST PUSH2 0x22F JUMP JUMPDEST PUSH2 0x1B9 JUMP JUMPDEST PUSH2 0x156 JUMP JUMPDEST PUSH1 0x1 PUSH1 0x1 PUSH1 0xA0 SHL SUB AND SWAP1 JUMP JUMPDEST SWAP1 JUMP JUMPDEST PUSH1 0x1 PUSH1 0x1 PUSH1 0xA0 SHL SUB DUP2 AND JUMPDEST SUB PUSH2 0xE8 JUMPI JUMP JUMPDEST PUSH1 0x0 DUP1 REVERT JUMPDEST SWAP1 POP CALLDATALOAD SWAP1 PUSH2 0xFA DUP3 PUSH2 0xD6 JUMP JUMPDEST JUMP JUMPDEST SWAP1 PUSH1 0x20 DUP3 DUP3 SUB SLT PUSH2 0xE8 JUMPI PUSH2 0xD3 SWAP2 PUSH2 0xED JUMP JUMPDEST SWAP1 MSTORE JUMP JUMPDEST PUSH1 0x1 PUSH1 0x1 PUSH1 0xA0 SHL SUB SWAP1 SWAP2 AND DUP2 MSTORE PUSH1 0x60 DUP2 ADD SWAP4 SWAP3 PUSH2 0xFA SWAP3 SWAP1 SWAP2 PUSH1 0x40 SWAP2 PUSH2 0x13E SWAP1 PUSH1 0x2 SIGNEXTEND PUSH1 0x20 DUP4 ADD MSTORE JUMP JUMPDEST ADD SWAP1 PUSH16 0xFFFFFFFFFFFFFFFFFFFFFFFFFFFFFFFF AND SWAP1 MSTORE JUMP JUMPDEST CALLVALUE PUSH2 0xE8 JUMPI PUSH2 0x180 PUSH2 0x171 PUSH2 0x16C CALLDATASIZE PUSH1 0x4 PUSH2 0xFC JUMP JUMPDEST PUSH2 0x619 JUMP JUMPDEST PUSH1 0x40 MLOAD SWAP2 SWAP4 SWAP2 SWAP4 DUP5 SWAP4 DUP5 PUSH2 0x114 JUMP JUMPDEST SUB SWAP1 RETURN JUMPDEST PUSH1 0x0 SWAP2 SUB SLT PUSH2 0xE8 JUMPI JUMP JUMPDEST PUSH2 0xD3 SWAP2 PUSH1 0x8 MUL SHR PUSH1 0x1 PUSH1 0x1 PUSH1 0xA0 SHL SUB AND SWAP1 JUMP JUMPDEST SWAP1 PUSH2 0xD3 SWAP2 SLOAD PUSH2 0x18F JUMP JUMPDEST PUSH2 0xD3 PUSH1 0x0 DUP1 PUSH2 0x1A3 JUMP JUMPDEST CALLVALUE PUSH2 0xE8 JUMPI PUSH2 0x1C9 CALLDATASIZE PUSH1 0x4 PUSH2 0x184 JUMP JUMPDEST PUSH2 0x180 PUSH2 0x1D4 PUSH2 0x1AE JUMP JUMPDEST PUSH1 0x40 MLOAD SWAP2 DUP3 SWAP2 DUP3 PUSH1 0x1 PUSH1 0x1 PUSH1 0xA0 SHL SUB SWAP1 SWAP2 AND DUP2 MSTORE PUSH1 0x20 ADD SWAP1 JUMP JUMPDEST PUSH2 0xC7 PUSH2 0xD3 PUSH2 0xD3 SWAP3 PUSH1 0x1 PUSH1 0x1 PUSH1 0xA0 SHL SUB AND SWAP1 JUMP JUMPDEST PUSH2 0xD3 SWAP1 PUSH2 0x1EE JUMP JUMPDEST PUSH2 0xD3 SWAP1 PUSH2 0x204 JUMP JUMPDEST PUSH2 0x110 SWAP1 PUSH2 0x20D JUMP JUMPDEST PUSH1 0x20 DUP2 ADD SWAP3 SWAP2 PUSH2 0xFA SWAP2 SWAP1 PUSH2 0x216 JUMP JUMPDEST CALLVALUE PUSH2 0xE8 JUMPI PUSH2 0x23F CALLDATASIZE PUSH1 0x4 PUSH2 0x184 JUMP JUMPDEST PUSH2 0x180 PUSH32 0x0 JUMPDEST PUSH1 0x40 MLOAD SWAP2 DUP3 SWAP2 DUP3 PUSH2 0x21F JUMP JUMPDEST SWAP1 DUP2 MSTORE PUSH1 0x40 DUP2 ADD SWAP3 SWAP2 PUSH2 0xFA SWAP2 PUSH1 0x20 ADD MSTORE JUMP JUMPDEST CALLVALUE PUSH2 0xE8 JUMPI PUSH2 0x29B PUSH2 0x296 CALLDATASIZE PUSH1 0x4 PUSH2 0xFC JUMP JUMPDEST PUSH2 0x751 JUMP JUMPDEST SWAP1 PUSH2 0x180 PUSH2 0x2A8 PUSH1 0x40 MLOAD SWAP1 JUMP JUMPDEST SWAP3 DUP4 SWAP3 DUP4 PUSH2 0x270 JUMP JUMPDEST DUP1 PUSH2 0xE1 JUMP JUMPDEST SWAP1 POP CALLDATALOAD SWAP1 PUSH2 0xFA DUP3 PUSH2 0x2B1 JUMP JUMPDEST SWAP2 SWAP1 PUSH1 0x40 DUP4 DUP3 SUB SLT PUSH2 0xE8 JUMPI PUSH2 0xD3 SWAP1 PUSH2 0x2DE DUP2 DUP6 PUSH2 0x2B7 JUMP JUMPDEST SWAP4 PUSH1 0x20 ADD PUSH2 0x2B7 JUMP JUMPDEST CALLVALUE PUSH2 0xE8 JUMPI PUSH2 0x180 PUSH2 0x303 PUSH2 0x2FD CALLDATASIZE PUSH1 0x4 PUSH2 0x2C4 JUMP JUMPDEST SWAP1 PUSH2 0xA1C JUMP JUMPDEST PUSH1 0x40 MLOAD SWAP2 DUP3 SWAP2 DUP3 SWAP1 DUP2 MSTORE PUSH1 0x20 ADD SWAP1 JUMP JUMPDEST CALLVALUE PUSH2 0xE8 JUMPI PUSH2 0x323 CALLDATASIZE PUSH1 0x4 PUSH2 0x184 JUMP JUMPDEST PUSH2 0x180 PUSH32 0x0 PUSH2 0x264 JUMP JUMPDEST SWAP1 SWAP2 PUSH1 0x60 DUP3 DUP5 SUB SLT PUSH2 0xE8 JUMPI PUSH2 0xD3 PUSH2 0x365 DUP5 DUP5 PUSH2 0xED JUMP JUMPDEST SWAP4 PUSH2 0x373 DUP2 PUSH1 0x20 DUP7 ADD PUSH2 0xED JUMP JUMPDEST SWAP4 PUSH1 0x40 ADD PUSH2 0x2B7 JUMP JUMPDEST CALLVALUE PUSH2 0xE8 JUMPI PUSH2 0x180 PUSH2 0x303 PUSH2 0x392 CALLDATASIZE PUSH1 0x4 PUSH2 0x34C JUMP JUMPDEST SWAP2 PUSH2 0xE63 JUMP JUMPDEST CALLVALUE PUSH2 0xE8 JUMPI PUSH2 0x180 PUSH2 0x303 PUSH2 0x3AE CALLDATASIZE PUSH1 0x4 PUSH2 0xFC JUMP JUMPDEST PUSH2 0x10AC JUMP JUMPDEST PUSH2 0xD3 PUSH1 0x0 PUSH1 0x1 PUSH2 0x1A3 JUMP JUMPDEST CALLVALUE PUSH2 0xE8 JUMPI PUSH2 0x3CF CALLDATASIZE PUSH1 0x4 PUSH2 0x184 JUMP JUMPDEST PUSH2 0x180 PUSH2 0x1D4 PUSH2 0x3B3 JUMP JUMPDEST PUSH2 0xD3 SWAP2 PUSH1 0x8 MUL SHR JUMPDEST PUSH3 0xFFFFFF AND SWAP1 JUMP JUMPDEST SWAP1 PUSH2 0xD3 SWAP2 SLOAD PUSH2 0x3DA JUMP JUMPDEST PUSH2 0xD3 PUSH1 0x14 PUSH1 0x1 PUSH2 0x3EB JUMP JUMPDEST CALLVALUE PUSH2 0xE8 JUMPI PUSH2 0x412 CALLDATASIZE PUSH1 0x4 PUSH2 0x184 JUMP JUMPDEST PUSH2 0x180 PUSH2 0x41D PUSH2 0x3F6 JUMP JUMPDEST PUSH1 0x40 MLOAD SWAP2 DUP3 SWAP2 DUP3 PUSH3 0xFFFFFF SWAP1 SWAP2 AND DUP2 MSTORE PUSH1 0x20 ADD SWAP1 JUMP JUMPDEST SWAP1 PUSH1 0x20 DUP3 DUP3 SUB SLT PUSH2 0xE8 JUMPI PUSH2 0xD3 SWAP2 PUSH2 0x2B7 JUMP JUMPDEST CALLVALUE PUSH2 0xE8 JUMPI PUSH2 0x180 PUSH2 0x462 PUSH2 0x45D CALLDATASIZE PUSH1 0x4 PUSH2 0x433 JUMP JUMPDEST PUSH2 0x1251 JUMP JUMPDEST PUSH1 0x40 MLOAD SWAP2 DUP3 SWAP2 DUP3 PUSH16 0xFFFFFFFFFFFFFFFFFFFFFFFFFFFFFFFF SWAP1 SWAP2 AND DUP2 MSTORE PUSH1 0x20 ADD SWAP1 JUMP JUMPDEST PUSH32 0x4E487B7100000000000000000000000000000000000000000000000000000000 PUSH1 0x0 MSTORE PUSH1 0x41 PUSH1 0x4 MSTORE PUSH1 0x24 PUSH1 0x0 REVERT JUMPDEST SWAP1 PUSH1 0x1F ADD PUSH32 0xFFFFFFFFFFFFFFFFFFFFFFFFFFFFFFFFFFFFFFFFFFFFFFFFFFFFFFFFFFFFFFE0 AND DUP2 ADD SWAP1 DUP2 LT PUSH8 0xFFFFFFFFFFFFFFFF DUP3 GT OR PUSH2 0x4F4 JUMPI PUSH1 0x40 MSTORE JUMP JUMPDEST PUSH2 0x485 JUMP JUMPDEST PUSH1 0x1 PUSH1 0x1 PUSH1 0xA0 SHL SUB DUP2 AND PUSH2 0xE1 JUMP JUMPDEST SWAP1 POP MLOAD SWAP1 PUSH2 0xFA DUP3 PUSH2 0x4F9 JUMP JUMPDEST PUSH2 0xE1 DUP2 PUSH1 0x2 SIGNEXTEND SWAP1 JUMP JUMPDEST SWAP1 POP MLOAD SWAP1 PUSH2 0xFA DUP3 PUSH2 0x515 JUMP JUMPDEST PUSH2 0xFFFF DUP2 AND PUSH2 0xE1 JUMP JUMPDEST SWAP1 POP MLOAD SWAP1 PUSH2 0xFA DUP3 PUSH2 0x52C JUMP JUMPDEST PUSH1 0xFF DUP2 AND PUSH2 0xE1 JUMP JUMPDEST SWAP1 POP MLOAD SWAP1 PUSH2 0xFA DUP3 PUSH2 0x543 JUMP JUMPDEST DUP1 ISZERO ISZERO PUSH2 0xE1 JUMP JUMPDEST SWAP1 POP MLOAD SWAP1 PUSH2 0xFA DUP3 PUSH2 0x559 JUMP JUMPDEST PUSH1 0xE0 DUP2 DUP4 SUB SLT PUSH2 0xE8 JUMPI PUSH2 0x582 DUP3 DUP3 PUSH2 0x508 JUMP JUMPDEST SWAP3 PUSH2 0x590 DUP4 PUSH1 0x20 DUP5 ADD PUSH2 0x51F JUMP JUMPDEST SWAP3 PUSH2 0x59E DUP2 PUSH1 0x40 DUP6 ADD PUSH2 0x536 JUMP JUMPDEST SWAP3 PUSH2 0x5AC DUP3 PUSH1 0x60 DUP4 ADD PUSH2 0x536 JUMP JUMPDEST SWAP3 PUSH2 0xD3 PUSH2 0x5BD DUP5 PUSH1 0x80 DUP6 ADD PUSH2 0x536 JUMP JUMPDEST SWAP4 PUSH2 0x5CB DUP2 PUSH1 0xA0 DUP7 ADD PUSH2 0x54C JUMP JUMPDEST SWAP4 PUSH1 0xC0 ADD PUSH2 0x561 JUMP JUMPDEST PUSH1 0x40 MLOAD RETURNDATASIZE PUSH1 0x0 DUP3 RETURNDATACOPY RETURNDATASIZE SWAP1 REVERT JUMPDEST PUSH16 0xFFFFFFFFFFFFFFFFFFFFFFFFFFFFFFFF DUP2 AND PUSH2 0xE1 JUMP JUMPDEST SWAP1 POP MLOAD SWAP1 PUSH2 0xFA DUP3 PUSH2 0x5E0 JUMP JUMPDEST SWAP1 PUSH1 0x20 DUP3 DUP3 SUB SLT PUSH2 0xE8 JUMPI PUSH2 0xD3 SWAP2 PUSH2 0x5F8 JUMP JUMPDEST SWAP1 PUSH2 0x649 SWAP1 PUSH1 0xE0 PUSH2 0x631 PUSH2 0x62C DUP6 PUSH2 0x20D JUMP JUMPDEST PUSH2 0x20D JUMP JUMPDEST PUSH4 0x3850C7BD SWAP1 PUSH2 0x640 PUSH1 0x40 MLOAD SWAP1 JUMP JUMPDEST SWAP5 DUP6 SWAP3 PUSH1 0xE0 SHL SWAP1 JUMP JUMPDEST DUP3 MSTORE PUSH1 0x4 SWAP1 DUP3 SWAP1 GAS STATICCALL SWAP2 DUP3 ISZERO PUSH2 0x6D3 JUMPI PUSH1 0x0 DUP1 SWAP2 SWAP1 SWAP4 PUSH2 0x6D8 JUMPI JUMPDEST POP PUSH1 0x20 PUSH2 0x678 PUSH2 0x62C PUSH2 0x690 SWAP4 SWAP6 SWAP7 PUSH2 0x20D JUMP JUMPDEST PUSH4 0x1A686502 SWAP1 PUSH2 0x687 PUSH1 0x40 MLOAD SWAP1 JUMP JUMPDEST SWAP4 DUP5 SWAP3 PUSH1 0xE0 SHL SWAP1 JUMP JUMPDEST DUP3 MSTORE PUSH1 0x4 SWAP1 DUP3 SWAP1 GAS STATICCALL SWAP1 DUP2 ISZERO PUSH2 0x6D3 JUMPI PUSH1 0x0 SWAP2 PUSH2 0x6AB JUMPI POP SWAP1 JUMP JUMPDEST PUSH2 0xD3 SWAP2 POP PUSH1 0x20 RETURNDATASIZE DUP2 GT PUSH2 0x6CC JUMPI JUMPDEST PUSH2 0x6C4 DUP2 DUP4 PUSH2 0x4B4 JUMP JUMPDEST DUP2 ADD SWAP1 PUSH2 0x605 JUMP JUMPDEST POP RETURNDATASIZE PUSH2 0x6BA JUMP JUMPDEST PUSH2 0x5D4 JUMP JUMPDEST PUSH2 0x62C SWAP4 POP PUSH2 0x690 SWAP2 POP PUSH2 0x678 PUSH2 0x707 PUSH1 0x20 SWAP3 PUSH1 0xE0 RETURNDATASIZE DUP2 GT PUSH2 0x716 JUMPI JUMPDEST PUSH2 0x6FF DUP2 DUP4 PUSH2 0x4B4 JUMP JUMPDEST DUP2 ADD SWAP1 PUSH2 0x56E JUMP JUMPDEST POP POP POP POP POP SWAP4 POP SWAP5 POP POP PUSH2 0x664 JUMP JUMPDEST POP RETURNDATASIZE PUSH2 0x6F5 JUMP JUMPDEST PUSH2 0xD3 SWAP1 PUSH2 0xC7 JUMP JUMPDEST PUSH2 0xD3 SWAP1 SLOAD PUSH2 0x71D JUMP JUMPDEST SWAP1 POP MLOAD SWAP1 PUSH2 0xFA DUP3 PUSH2 0x2B1 JUMP JUMPDEST SWAP1 PUSH1 0x20 DUP3 DUP3 SUB SLT PUSH2 0xE8 JUMPI PUSH2 0xD3 SWAP2 PUSH2 0x730 JUMP JUMPDEST SWAP1 PUSH2 0x79F PUSH1 0x20 PUSH2 0x767 PUSH2 0x62C PUSH2 0x62C PUSH1 0x0 PUSH2 0x726 JUMP JUMPDEST PUSH4 0x70A08231 SWAP1 PUSH2 0x788 DUP7 SWAP3 PUSH2 0x77B PUSH1 0x40 MLOAD SWAP1 JUMP JUMPDEST SWAP6 DUP7 SWAP5 DUP6 SWAP4 DUP5 SWAP4 PUSH1 0xE0 SHL SWAP1 JUMP JUMPDEST DUP4 MSTORE PUSH1 0x1 PUSH1 0x1 PUSH1 0xA0 SHL SUB AND PUSH1 0x4 DUP4 ADD MSTORE PUSH1 0x24 DUP3 ADD SWAP1 JUMP JUMPDEST SUB SWAP2 GAS STATICCALL SWAP1 DUP2 ISZERO PUSH2 0x6D3 JUMPI PUSH2 0x7DC SWAP2 PUSH1 0x20 SWAP2 PUSH1 0x0 SWAP2 PUSH2 0x81A JUMPI JUMPDEST POP SWAP4 PUSH2 0x7CB PUSH2 0x62C PUSH2 0x62C PUSH1 0x1 PUSH2 0x726 JUMP JUMPDEST PUSH2 0x788 PUSH4 0x70A08231 PUSH2 0x77B PUSH1 0x40 MLOAD SWAP1 JUMP JUMPDEST SUB SWAP2 GAS STATICCALL SWAP1 DUP2 ISZERO PUSH2 0x6D3 JUMPI PUSH1 0x0 SWAP2 PUSH2 0x7F2 JUMPI POP SWAP1 JUMP JUMPDEST PUSH2 0xD3 SWAP2 POP PUSH1 0x20 RETURNDATASIZE DUP2 GT PUSH2 0x813 JUMPI JUMPDEST PUSH2 0x80B DUP2 DUP4 PUSH2 0x4B4 JUMP JUMPDEST DUP2 ADD SWAP1 PUSH2 0x73D JUMP JUMPDEST POP RETURNDATASIZE PUSH2 0x801 JUMP JUMPDEST PUSH2 0x831 SWAP2 POP DUP3 RETURNDATASIZE DUP2 GT PUSH2 0x813 JUMPI PUSH2 0x80B DUP2 DUP4 PUSH2 0x4B4 JUMP JUMPDEST CODESIZE PUSH2 0x7B9 JUMP JUMPDEST SWAP1 PUSH1 0x20 DUP3 DUP3 SUB SLT PUSH2 0xE8 JUMPI PUSH2 0xD3 SWAP2 PUSH2 0x561 JUMP JUMPDEST PUSH1 0x1 PUSH1 0x1 PUSH1 0xA0 SHL SUB SWAP2 DUP3 AND DUP2 MSTORE SWAP2 AND PUSH1 0x20 DUP3 ADD MSTORE PUSH1 0x60 DUP2 ADD SWAP3 SWAP2 PUSH2 0xFA SWAP2 PUSH1 0x40 ADD MSTORE JUMP JUMPDEST PUSH1 0x1 PUSH1 0x1 PUSH1 0xA0 SHL SUB SWAP1 SWAP2 AND DUP2 MSTORE PUSH1 0x40 DUP2 ADD SWAP3 SWAP2 PUSH2 0xFA SWAP2 PUSH1 0x20 ADD MSTORE JUMP JUMPDEST PUSH2 0xD3 SWAP1 PUSH1 0xA0 SHR PUSH2 0x3E3 JUMP JUMPDEST PUSH2 0xD3 SWAP1 SLOAD PUSH2 0x88C JUMP JUMPDEST PUSH2 0xD3 PUSH2 0xD3 PUSH2 0xD3 SWAP3 SWAP1 JUMP JUMPDEST PUSH32 0x4E487B7100000000000000000000000000000000000000000000000000000000 PUSH1 0x0 MSTORE PUSH1 0x11 PUSH1 0x4 MSTORE PUSH1 0x24 PUSH1 0x0 REVERT JUMPDEST SWAP2 SWAP1 DUP3 ADD DUP1 SWAP3 GT PUSH2 0x8EB JUMPI JUMP JUMPDEST PUSH2 0x8AF JUMP JUMPDEST SWAP1 PUSH2 0xFA PUSH2 0x8FD PUSH1 0x40 MLOAD SWAP1 JUMP JUMPDEST SWAP3 DUP4 PUSH2 0x4B4 JUMP JUMPDEST PUSH2 0xD3 PUSH2 0x160 PUSH2 0x8F0 JUMP JUMPDEST PUSH2 0x91C PUSH2 0xD3 PUSH2 0xD3 SWAP3 SWAP1 JUMP JUMPDEST PUSH1 0x2 SIGNEXTEND SWAP1 JUMP JUMPDEST PUSH1 0x80 DUP2 DUP4 SUB SLT PUSH2 0xE8 JUMPI PUSH2 0x936 DUP3 DUP3 PUSH2 0x730 JUMP JUMPDEST SWAP3 PUSH2 0xD3 PUSH2 0x947 DUP5 PUSH1 0x20 DUP6 ADD PUSH2 0x5F8 JUMP JUMPDEST SWAP4 PUSH2 0x955 DUP2 PUSH1 0x40 DUP7 ADD PUSH2 0x730 JUMP JUMPDEST SWAP4 PUSH1 0x60 ADD PUSH2 0x730 JUMP JUMPDEST DUP1 MLOAD PUSH1 0x1 PUSH1 0x1 PUSH1 0xA0 SHL SUB AND DUP3 MSTORE PUSH2 0xFA SWAP2 SWAP1 PUSH2 0x140 SWAP1 DUP2 SWAP1 PUSH1 0x20 DUP2 DUP2 ADD MLOAD PUSH1 0x1 PUSH1 0x1 PUSH1 0xA0 SHL SUB AND SWAP1 DUP6 ADD MSTORE PUSH1 0x40 DUP2 DUP2 ADD MLOAD PUSH3 0xFFFFFF AND SWAP1 DUP6 ADD MSTORE PUSH1 0x60 DUP2 DUP2 ADD MLOAD PUSH1 0x2 SIGNEXTEND SWAP1 DUP6 ADD MSTORE PUSH1 0x80 DUP2 DUP2 ADD MLOAD PUSH1 0x2 SIGNEXTEND SWAP1 DUP6 ADD MSTORE PUSH2 0x9C1 PUSH1 0xA0 DUP3 ADD MLOAD PUSH1 0xA0 DUP7 ADD MSTORE JUMP JUMPDEST PUSH2 0x9D0 PUSH1 0xC0 DUP3 ADD MLOAD PUSH1 0xC0 DUP7 ADD MSTORE JUMP JUMPDEST PUSH2 0x9DF PUSH1 0xE0 DUP3 ADD MLOAD PUSH1 0xE0 DUP7 ADD MSTORE JUMP JUMPDEST PUSH2 0x9F0 PUSH2 0x100 DUP3 ADD MLOAD PUSH2 0x100 DUP7 ADD MSTORE JUMP JUMPDEST PUSH2 0x120 DUP2 DUP2 ADD MLOAD PUSH1 0x1 PUSH1 0x1 PUSH1 0xA0 SHL SUB AND SWAP1 DUP6 ADD MSTORE ADD MLOAD SWAP2 ADD MSTORE JUMP JUMPDEST PUSH2 0x160 DUP2 ADD SWAP3 SWAP2 PUSH2 0xFA SWAP2 SWAP1 PUSH2 0x95E JUMP JUMPDEST SWAP1 PUSH2 0xA2D PUSH2 0x62C PUSH2 0x62C PUSH1 0x0 PUSH2 0x726 JUMP JUMPDEST PUSH1 0x20 PUSH4 0x23B872DD SWAP2 CALLER SWAP1 PUSH2 0xA60 PUSH1 0x0 PUSH2 0xA45 ADDRESS PUSH2 0x20D JUMP JUMPDEST SWAP6 PUSH2 0xA6B DUP10 PUSH2 0xA53 PUSH1 0x40 MLOAD SWAP1 JUMP JUMPDEST SWAP9 DUP10 SWAP8 DUP9 SWAP7 DUP8 SWAP6 PUSH1 0xE0 SHL SWAP1 JUMP JUMPDEST DUP6 MSTORE PUSH1 0x4 DUP6 ADD PUSH2 0x84B JUMP JUMPDEST SUB SWAP3 GAS CALL DUP1 ISZERO PUSH2 0x6D3 JUMPI PUSH2 0xD95 JUMPI JUMPDEST POP PUSH2 0xA8B PUSH2 0x62C PUSH2 0x62C PUSH1 0x1 PUSH2 0x726 JUMP JUMPDEST PUSH1 0x20 PUSH4 0x23B872DD SWAP2 CALLER SWAP1 PUSH2 0xA60 PUSH1 0x0 PUSH2 0xAA3 ADDRESS PUSH2 0x20D JUMP JUMPDEST SWAP6 PUSH2 0xAB1 DUP9 PUSH2 0xA53 PUSH1 0x40 MLOAD SWAP1 JUMP JUMPDEST SUB SWAP3 GAS CALL DUP1 ISZERO PUSH2 0x6D3 JUMPI PUSH2 0xD79 JUMPI JUMPDEST POP PUSH2 0xAD1 PUSH2 0x62C PUSH2 0x62C PUSH1 0x0 PUSH2 0x726 JUMP JUMPDEST PUSH1 0x20 PUSH4 0x95EA7B3 SWAP2 PUSH2 0xB02 PUSH32 0x0 PUSH2 0x20D JUMP JUMPDEST SWAP1 PUSH2 0xB23 PUSH1 0x0 DUP8 SWAP6 PUSH2 0xB2E PUSH2 0xB16 PUSH1 0x40 MLOAD SWAP1 JUMP JUMPDEST SWAP8 DUP9 SWAP7 DUP8 SWAP6 DUP7 SWAP5 PUSH1 0xE0 SHL SWAP1 JUMP JUMPDEST DUP5 MSTORE PUSH1 0x4 DUP5 ADD PUSH2 0x86F JUMP JUMPDEST SUB SWAP3 GAS CALL DUP1 ISZERO PUSH2 0x6D3 JUMPI PUSH2 0xD5D JUMPI JUMPDEST POP PUSH2 0xB4E PUSH2 0x62C PUSH2 0x62C PUSH1 0x1 PUSH2 0x726 JUMP JUMPDEST PUSH1 0x20 PUSH4 0x95EA7B3 SWAP2 PUSH2 0xB7F PUSH32 0x0 PUSH2 0x20D JUMP JUMPDEST SWAP1 PUSH2 0xB23 PUSH1 0x0 DUP7 SWAP6 PUSH2 0xB93 PUSH2 0xB16 PUSH1 0x40 MLOAD SWAP1 JUMP JUMPDEST SUB SWAP3 GAS CALL DUP1 ISZERO PUSH2 0x6D3 JUMPI PUSH2 0xD31 JUMPI JUMPDEST POP PUSH2 0xBAD PUSH1 0x0 PUSH2 0x726 JUMP JUMPDEST SWAP2 PUSH2 0xBB8 PUSH1 0x1 PUSH2 0x726 JUMP JUMPDEST SWAP2 PUSH2 0xBC3 PUSH1 0x1 PUSH2 0x898 JUMP JUMPDEST SWAP2 PUSH32 0xFFFFFFFFFFFFFFFFFFFFFFFFFFFFFFFFFFFFFFFFFFFFFFFFFFFFFFFFFFF2764C SWAP2 PUSH3 0xD89B4 SWAP2 PUSH1 0x0 SWAP3 PUSH1 0x0 SWAP5 CALLER SWAP7 TIMESTAMP PUSH1 0x78 PUSH2 0xBFF SWAP1 PUSH2 0x8A2 JUMP JUMPDEST PUSH2 0xC08 SWAP2 PUSH2 0x8DE JUMP JUMPDEST SWAP9 PUSH2 0xC11 PUSH2 0x904 JUMP JUMPDEST PUSH1 0x1 PUSH1 0x1 PUSH1 0xA0 SHL SUB SWAP1 SWAP12 AND DUP12 MSTORE PUSH1 0x1 PUSH1 0x1 PUSH1 0xA0 SHL SUB AND PUSH1 0x20 DUP12 ADD MSTORE PUSH3 0xFFFFFF AND PUSH1 0x40 DUP11 ADD MSTORE PUSH2 0xC3F SWAP1 PUSH2 0x90F JUMP JUMPDEST PUSH1 0x2 SIGNEXTEND PUSH1 0x60 DUP10 ADD MSTORE PUSH2 0xC50 SWAP1 PUSH2 0x90F JUMP JUMPDEST PUSH1 0x2 SIGNEXTEND PUSH1 0x80 DUP9 ADD MSTORE PUSH1 0xA0 DUP8 ADD MSTORE PUSH1 0xC0 DUP7 ADD MSTORE PUSH2 0xC6B SWAP1 PUSH2 0x8A2 JUMP JUMPDEST PUSH1 0xE0 DUP6 ADD MSTORE PUSH2 0xC79 SWAP1 PUSH2 0x8A2 JUMP JUMPDEST PUSH2 0x100 DUP5 ADD MSTORE PUSH1 0x1 PUSH1 0x1 PUSH1 0xA0 SHL SUB AND PUSH2 0x120 DUP4 ADD MSTORE PUSH2 0x140 DUP3 ADD MSTORE PUSH2 0xCBD PUSH32 0x0 PUSH2 0x20D JUMP JUMPDEST PUSH4 0x88316456 PUSH2 0xCCB PUSH1 0x40 MLOAD SWAP1 JUMP JUMPDEST DUP1 SWAP4 PUSH2 0xCD8 DUP3 SWAP4 PUSH1 0xE0 SHL SWAP1 JUMP JUMPDEST DUP3 MSTORE PUSH2 0xCE7 SWAP1 PUSH1 0x4 DUP4 ADD PUSH2 0xA0B JUMP JUMPDEST SUB DUP2 GAS PUSH1 0x80 SWAP5 PUSH1 0x0 SWAP2 CALL SWAP1 DUP2 ISZERO PUSH2 0x6D3 JUMPI PUSH1 0x0 SWAP2 PUSH2 0xD03 JUMPI POP SWAP1 JUMP JUMPDEST PUSH2 0xD24 SWAP2 POP PUSH1 0x80 RETURNDATASIZE DUP2 GT PUSH2 0xD2A JUMPI JUMPDEST PUSH2 0xD1C DUP2 DUP4 PUSH2 0x4B4 JUMP JUMPDEST DUP2 ADD SWAP1 PUSH2 0x922 JUMP JUMPDEST POP POP POP SWAP1 JUMP JUMPDEST POP RETURNDATASIZE PUSH2 0xD12 JUMP JUMPDEST PUSH2 0xD51 SWAP1 PUSH1 0x20 RETURNDATASIZE DUP2 GT PUSH2 0xD56 JUMPI JUMPDEST PUSH2 0xD49 DUP2 DUP4 PUSH2 0x4B4 JUMP JUMPDEST DUP2 ADD SWAP1 PUSH2 0x837 JUMP JUMPDEST PUSH2 0xBA2 JUMP JUMPDEST POP RETURNDATASIZE PUSH2 0xD3F JUMP JUMPDEST PUSH2 0xD74 SWAP1 PUSH1 0x20 RETURNDATASIZE DUP2 GT PUSH2 0xD56 JUMPI PUSH2 0xD49 DUP2 DUP4 PUSH2 0x4B4 JUMP JUMPDEST PUSH2 0xB3D JUMP JUMPDEST PUSH2 0xD90 SWAP1 PUSH1 0x20 RETURNDATASIZE DUP2 GT PUSH2 0xD56 JUMPI PUSH2 0xD49 DUP2 DUP4 PUSH2 0x4B4 JUMP JUMPDEST PUSH2 0xAC0 JUMP JUMPDEST PUSH2 0xDAC SWAP1 PUSH1 0x20 RETURNDATASIZE DUP2 GT PUSH2 0xD56 JUMPI PUSH2 0xD49 DUP2 DUP4 PUSH2 0x4B4 JUMP JUMPDEST PUSH2 0xA7A JUMP JUMPDEST PUSH2 0xD3 PUSH2 0x100 PUSH2 0x8F0 JUMP JUMPDEST PUSH2 0xC7 PUSH2 0xD3 PUSH2 0xD3 SWAP3 SWAP1 JUMP JUMPDEST DUP1 MLOAD PUSH1 0x1 PUSH1 0x1 PUSH1 0xA0 SHL SUB AND DUP3 MSTORE PUSH2 0xFA SWAP2 SWAP1 PUSH1 0xE0 SWAP1 DUP2 SWAP1 PUSH1 0x20 DUP2 DUP2 ADD MLOAD PUSH1 0x1 PUSH1 0x1 PUSH1 0xA0 SHL SUB AND SWAP1 DUP6 ADD MSTORE PUSH1 0x40 DUP2 DUP2 ADD MLOAD PUSH3 0xFFFFFF AND SWAP1 DUP6 ADD MSTORE PUSH1 0x60 DUP1 DUP3 ADD MLOAD PUSH1 0x1 PUSH1 0x1 PUSH1 0xA0 SHL SUB AND SWAP1 DUP6 ADD MSTORE PUSH2 0xE24 PUSH1 0x80 DUP3 ADD MLOAD PUSH1 0x80 DUP7 ADD MSTORE JUMP JUMPDEST PUSH2 0xE33 PUSH1 0xA0 DUP3 ADD MLOAD PUSH1 0xA0 DUP7 ADD MSTORE JUMP JUMPDEST PUSH2 0xE42 PUSH1 0xC0 DUP3 ADD MLOAD PUSH1 0xC0 DUP7 ADD MSTORE JUMP JUMPDEST ADD MLOAD PUSH1 0x1 PUSH1 0x1 PUSH1 0xA0 SHL SUB AND SWAP2 ADD MSTORE JUMP JUMPDEST PUSH2 0x100 DUP2 ADD SWAP3 SWAP2 PUSH2 0xFA SWAP2 SWAP1 PUSH2 0xDC9 JUMP JUMPDEST SWAP1 SWAP2 SWAP1 PUSH2 0xE72 PUSH2 0x62C DUP3 PUSH2 0x20D JUMP JUMPDEST PUSH1 0x20 PUSH4 0x23B872DD SWAP2 CALLER SWAP1 PUSH2 0xA60 PUSH1 0x0 PUSH2 0xE8A ADDRESS PUSH2 0x20D JUMP JUMPDEST SWAP6 PUSH2 0xE98 DUP10 PUSH2 0xA53 PUSH1 0x40 MLOAD SWAP1 JUMP JUMPDEST SUB SWAP3 GAS CALL DUP1 ISZERO PUSH2 0x6D3 JUMPI PUSH2 0x1029 JUMPI JUMPDEST POP PUSH2 0xEB4 PUSH2 0x62C DUP3 PUSH2 0x20D JUMP JUMPDEST PUSH1 0x20 PUSH4 0x95EA7B3 SWAP2 PUSH2 0xEE5 PUSH32 0x0 PUSH2 0x20D JUMP JUMPDEST SWAP1 PUSH2 0xB23 PUSH1 0x0 DUP8 SWAP6 PUSH2 0xEF9 PUSH2 0xB16 PUSH1 0x40 MLOAD SWAP1 JUMP JUMPDEST SUB SWAP3 GAS CALL DUP1 ISZERO PUSH2 0x6D3 JUMPI PUSH2 0x100D JUMPI JUMPDEST POP SWAP2 SWAP1 PUSH2 0xF15 PUSH1 0x1 PUSH2 0x898 JUMP JUMPDEST SWAP1 CALLER SWAP1 TIMESTAMP PUSH2 0xF23 PUSH1 0x3C PUSH2 0x8A2 JUMP JUMPDEST PUSH2 0xF2C SWAP2 PUSH2 0x8DE JUMP JUMPDEST SWAP1 SWAP2 PUSH1 0x0 SWAP4 PUSH1 0x0 SWAP6 PUSH2 0xF3C PUSH2 0xDB1 JUMP JUMPDEST PUSH1 0x1 PUSH1 0x1 PUSH1 0xA0 SHL SUB SWAP1 SWAP9 AND DUP9 MSTORE PUSH1 0x1 PUSH1 0x1 PUSH1 0xA0 SHL SUB AND PUSH1 0x20 DUP9 ADD MSTORE PUSH3 0xFFFFFF AND PUSH1 0x40 DUP8 ADD MSTORE PUSH1 0x1 PUSH1 0x1 PUSH1 0xA0 SHL SUB AND PUSH1 0x60 DUP7 ADD MSTORE PUSH1 0x80 DUP6 ADD MSTORE PUSH1 0xA0 DUP5 ADD MSTORE PUSH2 0xF82 SWAP1 PUSH2 0x8A2 JUMP JUMPDEST PUSH1 0xC0 DUP4 ADD MSTORE PUSH2 0xF90 SWAP1 PUSH2 0xDBC JUMP JUMPDEST PUSH1 0x1 PUSH1 0x1 PUSH1 0xA0 SHL SUB AND PUSH1 0xE0 DUP3 ADD MSTORE PUSH2 0xFC7 PUSH32 0x0 PUSH2 0x20D JUMP JUMPDEST PUSH4 0x414BF389 PUSH2 0xFD5 PUSH1 0x40 MLOAD SWAP1 JUMP JUMPDEST DUP1 SWAP4 PUSH2 0xFE2 DUP3 SWAP4 PUSH1 0xE0 SHL SWAP1 JUMP JUMPDEST DUP3 MSTORE PUSH2 0xFF1 SWAP1 PUSH1 0x4 DUP4 ADD PUSH2 0xE52 JUMP JUMPDEST SUB DUP2 GAS PUSH1 0x20 SWAP5 PUSH1 0x0 SWAP2 CALL SWAP1 DUP2 ISZERO PUSH2 0x6D3 JUMPI PUSH1 0x0 SWAP2 PUSH2 0x7F2 JUMPI POP SWAP1 JUMP JUMPDEST PUSH2 0x1024 SWAP1 PUSH1 0x20 RETURNDATASIZE DUP2 GT PUSH2 0xD56 JUMPI PUSH2 0xD49 DUP2 DUP4 PUSH2 0x4B4 JUMP JUMPDEST PUSH2 0xF08 JUMP JUMPDEST PUSH2 0x1040 SWAP1 PUSH1 0x20 RETURNDATASIZE DUP2 GT PUSH2 0xD56 JUMPI PUSH2 0xD49 DUP2 DUP4 PUSH2 0x4B4 JUMP JUMPDEST PUSH2 0xEA7 JUMP JUMPDEST PUSH2 0xD3 PUSH2 0xD3 PUSH2 0xD3 SWAP3 PUSH1 0x1 PUSH1 0x1 PUSH1 0xA0 SHL SUB AND SWAP1 JUMP JUMPDEST DUP2 DUP2 MUL SWAP3 SWAP2 DUP2 ISZERO SWAP2 DUP5 DIV EQ OR ISZERO PUSH2 0x8EB JUMPI JUMP JUMPDEST PUSH32 0x4E487B7100000000000000000000000000000000000000000000000000000000 PUSH1 0x0 MSTORE PUSH1 0x12 PUSH1 0x4 MSTORE PUSH1 0x24 PUSH1 0x0 REVERT JUMPDEST DUP2 ISZERO PUSH2 0x10A7 JUMPI DIV SWAP1 JUMP JUMPDEST PUSH2 0x106E JUMP JUMPDEST PUSH1 0xE0 PUSH2 0x10C6 PUSH2 0x62C PUSH2 0x10D5 SWAP4 PUSH2 0x10C0 PUSH1 0x0 SWAP1 JUMP JUMPDEST POP PUSH2 0x20D JUMP JUMPDEST PUSH4 0x3850C7BD SWAP1 PUSH2 0x687 PUSH1 0x40 MLOAD SWAP1 JUMP JUMPDEST DUP3 MSTORE PUSH1 0x4 SWAP1 DUP3 SWAP1 GAS STATICCALL SWAP1 DUP2 ISZERO PUSH2 0x6D3 JUMPI PUSH2 0xD3 SWAP2 PUSH2 0x110E SWAP2 PUSH1 0x0 SWAP2 PUSH2 0x1136 JUMPI JUMPDEST POP PUSH2 0x1108 PUSH2 0x1102 DUP3 PUSH2 0x1045 JUMP JUMPDEST SWAP2 PUSH2 0x1045 JUMP JUMPDEST SWAP1 PUSH2 0x105B JUMP JUMPDEST PUSH2 0x1130 PUSH25 0x1000000000000000000000000000000000000000000000000 PUSH2 0x8A2 JUMP JUMPDEST SWAP1 PUSH2 0x109D JUMP JUMPDEST PUSH2 0x114E SWAP2 POP PUSH1 0xE0 RETURNDATASIZE DUP2 GT PUSH2 0x716 JUMPI PUSH2 0x6FF DUP2 DUP4 PUSH2 0x4B4 JUMP JUMPDEST POP POP POP POP POP PUSH2 0x10F5 JUMP JUMPDEST PUSH12 0xFFFFFFFFFFFFFFFFFFFFFFFF DUP2 AND PUSH2 0xE1 JUMP JUMPDEST SWAP1 POP MLOAD SWAP1 PUSH2 0xFA DUP3 PUSH2 0x1158 JUMP JUMPDEST SWAP1 POP MLOAD SWAP1 PUSH2 0xFA DUP3 PUSH2 0xD6 JUMP JUMPDEST PUSH3 0xFFFFFF DUP2 AND PUSH2 0xE1 JUMP JUMPDEST SWAP1 POP MLOAD SWAP1 PUSH2 0xFA DUP3 PUSH2 0x1186 JUMP JUMPDEST SWAP1 SWAP2 PUSH2 0x180 DUP3 DUP5 SUB SLT PUSH2 0xE8 JUMPI PUSH2 0x11B5 DUP4 DUP4 PUSH2 0x116C JUMP JUMPDEST SWAP3 PUSH2 0x11C3 DUP2 PUSH1 0x20 DUP6 ADD PUSH2 0x1179 JUMP JUMPDEST SWAP3 PUSH2 0x11D1 DUP3 PUSH1 0x40 DUP4 ADD PUSH2 0x1179 JUMP JUMPDEST SWAP3 PUSH2 0x11DF DUP4 PUSH1 0x60 DUP5 ADD PUSH2 0x1179 JUMP JUMPDEST SWAP3 PUSH2 0x11ED DUP2 PUSH1 0x80 DUP6 ADD PUSH2 0x1191 JUMP JUMPDEST SWAP3 PUSH2 0x11FB DUP3 PUSH1 0xA0 DUP4 ADD PUSH2 0x51F JUMP JUMPDEST SWAP3 PUSH2 0x1209 DUP4 PUSH1 0xC0 DUP5 ADD PUSH2 0x51F JUMP JUMPDEST SWAP3 PUSH2 0x1217 DUP2 PUSH1 0xE0 DUP6 ADD PUSH2 0x5F8 JUMP JUMPDEST SWAP3 PUSH2 0x1226 DUP3 PUSH2 0x100 DUP4 ADD PUSH2 0x730 JUMP JUMPDEST SWAP3 PUSH2 0xD3 PUSH2 0x1238 DUP5 PUSH2 0x120 DUP6 ADD PUSH2 0x730 JUMP JUMPDEST SWAP4 PUSH2 0x1247 DUP2 PUSH2 0x140 DUP7 ADD PUSH2 0x5F8 JUMP JUMPDEST SWAP4 PUSH2 0x160 ADD PUSH2 0x5F8 JUMP JUMPDEST PUSH2 0x180 PUSH2 0x12A9 SWAP2 PUSH2 0x1260 PUSH1 0x0 SWAP1 JUMP JUMPDEST POP PUSH2 0x128A PUSH32 0x0 PUSH2 0x20D JUMP JUMPDEST PUSH2 0x129B PUSH4 0x99FBAB88 PUSH2 0x77B PUSH1 0x40 MLOAD SWAP1 JUMP JUMPDEST DUP4 MSTORE PUSH1 0x4 DUP4 ADD MSTORE PUSH1 0x24 DUP3 ADD SWAP1 JUMP JUMPDEST SUB SWAP2 GAS STATICCALL SWAP1 DUP2 ISZERO PUSH2 0x6D3 JUMPI PUSH1 0x0 SWAP2 PUSH2 0x12BF JUMPI POP SWAP1 JUMP JUMPDEST PUSH2 0x12E1 SWAP2 POP PUSH2 0x180 RETURNDATASIZE DUP2 GT PUSH2 0x12F0 JUMPI JUMPDEST PUSH2 0x12D9 DUP2 DUP4 PUSH2 0x4B4 JUMP JUMPDEST DUP2 ADD SWAP1 PUSH2 0x119E JUMP JUMPDEST POP POP POP POP SWAP7 POP POP POP POP POP POP POP SWAP1 JUMP JUMPDEST POP RETURNDATASIZE PUSH2 0x12CF JUMP INVALID LOG2 PUSH5 0x6970667358 0x22 SLT KECCAK256 CALL PUSH27 0x6F396BC7623A886BB9D821F01C3461265EC2FD885F0D24E5AF770A 0xE9 0xD7 PUSH19 0x64736F6C634300081800330000000000000000 "},"methodIdentifiers":{"addLiquidity(uint256,uint256)":"9cd441da","fee()":"ddca3f43","getPoolBalances(address)":"7b50f8c5","getPoolInfo(address)":"06bfa938","getPosition(uint256)":"eb02c301","getTokenPrice(address)":"d02641a0","positionManager()":"791b98bc","swapExactInputSingle(address,address,uint256)":"ceb92012","swapRouter()":"c31c9c07","token0()":"0dfe1681","token1()":"d21220a7"}}}}}