{"contracts/ABYATKN.sol":{"ABYATKN":{"abi":[{"inputs":[],"stateMutability":"nonpayable","type":"constructor"},{"anonymous":false,"inputs":[{"indexed":true,"internalType":"address","name":"owner","type":"address"},{"indexed":true,"internalType":"address","name":"spender","type":"address"},{"indexed":false,"internalType":"uint256","name":"value","type":"uint256"}],"name":"Approval","type":"event"},{"anonymous":false,"inputs":[{"indexed":true,"internalType":"address","name":"from","type":"address"},{"indexed":true,"internalType":"address","name":"to","type":"address"},{"indexed":false,"internalType":"uint256","name":"value","type":"uint256"}],"name":"Transfer","type":"event"},{"inputs":[],"name":"INITIAL_SUPPLY","outputs":[{"internalType":"uint256","name":"","type":"uint256"}],"stateMutability":"view","type":"function"},{"inputs":[],"name":"MAX_SUPPLY","outputs":[{"internalType":"uint256","name":"","type":"uint256"}],"stateMutability":"view","type":"function"},{"inputs":[{"internalType":"address","name":"owner","type":"address"},{"internalType":"address","name":"spender","type":"address"}],"name":"allowance","outputs":[{"internalType":"uint256","name":"","type":"uint256"}],"stateMutability":"view","type":"function"},{"inputs":[{"internalType":"address","name":"spender","type":"address"},{"internalType":"uint256","name":"amount","type":"uint256"}],"name":"approve","outputs":[{"internalType":"bool","name":"","type":"bool"}],"stateMutability":"nonpayable","type":"function"},{"inputs":[{"internalType":"address","name":"account","type":"address"}],"name":"balanceOf","outputs":[{"internalType":"uint256","name":"","type":"uint256"}],"stateMutability":"view","type":"function"},{"inputs":[{"internalType":"uint256","name":"amount","type":"uint256"}],"name":"burn","outputs":[],"stateMutability":"nonpayable","type":"function"},{"inputs":[],"name":"decimals","outputs":[{"internalType":"uint8","name":"","type":"uint8"}],"stateMutability":"view","type":"function"},{"inputs":[{"internalType":"address","name":"spender","type":"address"},{"internalType":"uint256","name":"subtractedValue","type":"uint256"}],"name":"decreaseAllowance","outputs":[{"internalType":"bool","name":"","type":"bool"}],"stateMutability":"nonpayable","type":"function"},{"inputs":[{"internalType":"address","name":"spender","type":"address"},{"internalType":"uint256","name":"addedValue","type":"uint256"}],"name":"increaseAllowance","outputs":[{"internalType":"bool","name":"","type":"bool"}],"stateMutability":"nonpayable","type":"function"},{"inputs":[{"internalType":"address","name":"to","type":"address"},{"internalType":"uint256","name":"amount","type":"uint256"}],"name":"mint","outputs":[],"stateMutability":"nonpayable","type":"function"},{"inputs":[],"name":"name","outputs":[{"internalType":"string","name":"","type":"string"}],"stateMutability":"view","type":"function"},{"inputs":[],"name":"symbol","outputs":[{"internalType":"string","name":"","type":"string"}],"stateMutability":"view","type":"function"},{"inputs":[],"name":"totalSupply","outputs":[{"internalType":"uint256","name":"","type":"uint256"}],"stateMutability":"view","type":"function"},{"inputs":[{"internalType":"address","name":"recipient","type":"address"},{"internalType":"uint256","name":"amount","type":"uint256"}],"name":"transfer","outputs":[{"internalType":"bool","name":"","type":"bool"}],"stateMutability":"nonpayable","type":"function"},{"inputs":[{"internalType":"address","name":"from","type":"address"},{"internalType":"address","name":"to","type":"address"},{"internalType":"uint256","name":"amount","type":"uint256"}],"name":"transferFrom","outputs":[{"internalType":"bool","name":"","type":"bool"}],"stateMutability":"nonpayable","type":"function"}],"evm":{"bytecode":{"linkReferences":{},"object":"608060405234620000265762000014620001a3565b60405161110a62000615823961110a90f35b600080fd5b634e487b7160e01b600052604160045260246000fd5b90601f01601f191681019081106001600160401b038211176200006357604052565b6200002b565b90620000806200007860405190565b928362000041565b565b6001600160401b0381116200006357602090601f01601f19160190565b90620000b5620000af8362000082565b62000069565b918252565b620000c660076200009f565b6620a12ca0aa25a760c91b602082015290565b620000e3620000ba565b90565b620000f260066200009f565b6520a12caa25a760d11b602082015290565b620000e3620000e6565b620000e3620000e3620000e39290565b620000e36b033b2e3c9fd0803ce80000006200010e565b620000e36b204fce5e3e250261100000006200010e565b156200015457565b60405162461bcd60e51b815260206004820152602160248201527f496e697469616c20737570706c792065786365656473206d617820737570706c6044820152607960f81b6064820152608490fd5b620001c2620001b1620000d9565b620001bb62000104565b90620003f5565b620001ee620001d06200011e565b620001e6620001e2620000e362000135565b9190565b11156200014c565b6200008033620001fd6200011e565b906200052e565b634e487b7160e01b600052602260045260246000fd5b90600160028304921680156200023d575b60208310146200023757565b62000204565b91607f16916200022b565b9160001960089290920291821b911b5b9181191691161790565b919062000277620000e362000280936200010e565b90835462000248565b9055565b620000809160009162000262565b8181106200029e575050565b80620002ae600060019362000284565b0162000292565b9190601f8111620002c557505050565b620002d96200008093600052602060002090565b906020601f840181900483019310620002fd575b6020601f90910104019062000292565b9091508190620002ed565b9062000312815190565b906001600160401b03821162000063576200033a826200033385546200021a565b85620002b5565b602090601f83116001146200037957620002809291600091836200036d575b5050600019600883021c1916906002021790565b01519050388062000359565b601f198316916200038f85600052602060002090565b9260005b818110620003d057509160029391856001969410620003b6575b50505002019055565b01516000196008601f8516021c19169055388080620003ad565b9193602060018192878701518155019501920162000393565b90620000809162000308565b906200040762000080926003620003e9565b6004620003e9565b6200041f620000e3620000e39290565b6001600160a01b031690565b620000e3906200040f565b156200043e57565b60405162461bcd60e51b815260206004820152601f60248201527f45524332303a206d696e7420746f20746865207a65726f2061646472657373006044820152606490fd5b620000e39081565b620000e3905462000483565b634e487b7160e01b600052601160045260246000fd5b91908201809211620004bb57565b62000497565b906000199062000258565b90620004e0620000e362000280926200010e565b8254620004c1565b620000e3906200041f906001600160a01b031682565b620000e390620004e8565b620000e390620004fe565b90620005209062000509565b600052602052604060002090565b906200055d82620005556200054e6200054860006200042b565b6200041f565b916200041f565b141562000436565b6200058062000578826200057260026200048b565b620004ad565b6002620004cc565b620005ad81620005a66200059685600062000514565b91620005a2836200048b565b0190565b90620004cc565b620005b960006200042b565b9190916200060f620005f7620005f07fddf252ad1be2c89b69c2b068fc378daa952ba7f163c4a11628f55a4df523b3ef9362000509565b9362000509565b936200060260405190565b9182918290815260200190565b0390a356fe6080604052600436101561001257600080fd5b60003560e01c806306fdde0314610102578063095ea7b3146100fd57806318160ddd146100f857806323b872dd146100f35780632ff2e9dc146100ee578063313ce567146100e957806332cb6b0c146100e457806339509351146100df57806340c10f19146100da57806342966c68146100d557806370a08231146100d057806395d89b41146100cb578063a457c2d7146100c6578063a9059cbb146100c15763dd62ed3e03610112576104a9565b61046a565b61044e565b610433565b610418565b6103ec565b6103ba565b61039e565b610383565b610337565b61031c565b6102d6565b61027a565b61024c565b6101a4565b600091031261011257565b600080fd5b60005b83811061012a5750506000910152565b818101518382015260200161011a565b61015b61016460209361018c9361014f815190565b80835293849260200190565b95869101610117565b601f017fffffffffffffffffffffffffffffffffffffffffffffffffffffffffffffffe01690565b0190565b60208082526101a19291019061013a565b90565b34610112576101b4366004610107565b6101cb6101bf61064a565b60405191829182610190565b0390f35b73ffffffffffffffffffffffffffffffffffffffff1690565b73ffffffffffffffffffffffffffffffffffffffff81165b0361011257565b90503590610214826101e8565b565b80610200565b9050359061021482610216565b9190604083820312610112576101a1906102438185610207565b9360200161021c565b34610112576101cb610268610262366004610229565b90610654565b60405191829182901515815260200190565b346101125761028a366004610107565b6101cb610295610675565b6040515b9182918290815260200190565b9091606082840312610112576101a16102bf8484610207565b936102cd8160208601610207565b9360400161021c565b34610112576101cb6102686102ec3660046102a6565b9161067f565b6101a16101a16101a19290565b6101a16b033b2e3c9fd0803ce80000006102f2565b6101a16102ff565b346101125761032c366004610107565b6101cb610295610314565b3461011257610347366004610107565b6101cb6103526106aa565b6040519182918260ff909116815260200190565b6101a16b204fce5e3e250261100000006102f2565b6101a1610366565b3461011257610393366004610107565b6101cb61029561037b565b34610112576101cb6102686103b4366004610229565b906106f5565b34610112576103d36103cd366004610229565b90610714565b604051005b90602082820312610112576101a19161021c565b34610112576103d36103ff3660046103d8565b610790565b90602082820312610112576101a191610207565b34610112576101cb61029561042e366004610404565b610802565b3461011257610443366004610107565b6101cb6101bf61081e565b34610112576101cb610268610464366004610229565b9061089a565b34610112576101cb610268610480366004610229565b906109e0565b9190604083820312610112576101a1906104a08185610207565b93602001610207565b34610112576101cb6102956104bf366004610486565b90610a50565b7f4e487b7100000000000000000000000000000000000000000000000000000000600052602260045260246000fd5b9060016002830492168015610514575b602083101461050f57565b6104c5565b91607f1691610504565b8054600093929161053b610531836104f4565b8085529360200190565b916001811690811561058d575060011461055457505050565b6105679192939450600052602060002090565b916000925b8184106105795750500190565b80548484015260209093019260010161056c565b92949550505060ff1916825215156020020190565b906101a19161051e565b7f4e487b7100000000000000000000000000000000000000000000000000000000600052604160045260246000fd5b90601f017fffffffffffffffffffffffffffffffffffffffffffffffffffffffffffffffe016810190811067ffffffffffffffff82111761061b57604052565b6105ac565b9061021461063a9261063160405190565b938480926105a2565b03836105db565b6101a190610620565b6101a16003610641565b61065f919033610b67565b600190565b6101a19081565b6101a19054610664565b6101a1600261066b565b61065f929061068f823383610c52565b919091610dfe565b6106a46101a16101a19290565b60ff1690565b6101a16012610697565b7f4e487b7100000000000000000000000000000000000000000000000000000000600052601160045260246000fd5b919082018092116106f057565b6106b4565b61065f9161070e3392916107098385610a50565b6106e3565b91610b67565b9061021491610f09565b1561072557565b60405162461bcd60e51b815260206004820152602560248201527f4275726e20616d6f756e74206d7573742062652067726561746572207468616e60448201527f207a65726f0000000000000000000000000000000000000000000000000000006064820152608490fd5b610214906107af816107a96107a560006102f2565b9190565b1161071e565b3361103d565b6101cf6101a16101a19273ffffffffffffffffffffffffffffffffffffffff1690565b6101a1906107b5565b6101a1906107d8565b906107f4906107e1565b600052602052604060002090565b6108196101a191610811600090565b5060006107ea565b61066b565b6101a16004610641565b1561082f57565b60405162461bcd60e51b815260206004820152602560248201527f45524332303a2064656372656173656420616c6c6f77616e63652062656c6f7760448201527f207a65726f0000000000000000000000000000000000000000000000000000006064820152608490fd5b61065f9161070e33916108ad8484610a50565b926108ba82851015610828565b93920390565b6101cf6101a16101a19290565b6101a1906108c0565b156108dd57565b60405162461bcd60e51b815260206004820152601c60248201527f5472616e7366657220746f20746865207a65726f2061646472657373000000006044820152606490fd5b1561092957565b60405162461bcd60e51b815260206004820152602960248201527f5472616e7366657220616d6f756e74206d75737420626520677265617465722060448201527f7468616e207a65726f00000000000000000000000000000000000000000000006064820152608490fd5b1561099b57565b60405162461bcd60e51b815260206004820152601460248201527f496e73756666696369656e742062616c616e63650000000000000000000000006044820152606490fd5b6101a19190610a1a81610a136109f96101cf60006108cd565b9173ffffffffffffffffffffffffffffffffffffffff1690565b14156108d6565b610a3182610a2b6107a560006102f2565b11610922565b610a4b82610a446107a56101a133610802565b1115610994565b6110ca565b6101a191610a6b61081992610a63600090565b5060016107ea565b6107ea565b15610a7757565b60405162461bcd60e51b8152602060048201526024808201527f45524332303a20617070726f76652066726f6d20746865207a65726f2061646460448201527f72657373000000000000000000000000000000000000000000000000000000006064820152608490fd5b15610ae857565b60405162461bcd60e51b815260206004820152602260248201527f45524332303a20617070726f766520746f20746865207a65726f20616464726560448201527f73730000000000000000000000000000000000000000000000000000000000006064820152608490fd5b906101a16101a1610b63926102f2565b9055565b919091610b8581610b7e6109f96101cf60006108cd565b1415610a70565b610ba083610b996109f96101cf60006108cd565b1415610ae1565b610bbe82610bb9610bb28460016107ea565b86906107ea565b610b53565b919091610c01610bf7610bf17f8c5be1e5ebec7d5bd14f71427d1e84f3dd0314c0f7b2291e5b200ac8c7c3b925936107e1565b936107e1565b9361029960405190565b0390a3565b15610c0d57565b60405162461bcd60e51b815260206004820152601d60248201527f45524332303a20696e73756666696369656e7420616c6c6f77616e63650000006044820152606490fd5b610c5c8282610a50565b907fffffffffffffffffffffffffffffffffffffffffffffffffffffffffffffffff8203610c8b575b50505050565b610c9f9361070e916108ba82851015610c06565b38808080610c85565b15610caf57565b60405162461bcd60e51b815260206004820152602560248201527f45524332303a207472616e736665722066726f6d20746865207a65726f20616460448201527f64726573730000000000000000000000000000000000000000000000000000006064820152608490fd5b15610d2157565b60405162461bcd60e51b815260206004820152602360248201527f45524332303a207472616e7366657220746f20746865207a65726f206164647260448201527f65737300000000000000000000000000000000000000000000000000000000006064820152608490fd5b15610d9357565b60405162461bcd60e51b815260206004820152602660248201527f45524332303a207472616e7366657220616d6f756e742065786365656473206260448201527f616c616e636500000000000000000000000000000000000000000000000000006064820152608490fd5b919091610e1c81610e156109f96101cf60006108cd565b1415610ca8565b610e3783610e306109f96101cf60006108cd565b1415610d1a565b610e68610e5d610e4b6108198460006107ea565b610e5785821015610d8c565b84900390565b610bb98360006107ea565b610e8a82610e84610e7a8660006107ea565b9161018c8361066b565b90610b53565b919091610c01610bf7610bf17fddf252ad1be2c89b69c2b068fc378daa952ba7f163c4a11628f55a4df523b3ef936107e1565b15610ec457565b60405162461bcd60e51b815260206004820152601f60248201527f45524332303a206d696e7420746f20746865207a65726f2061646472657373006044820152606490fd5b90610f2582610f1e6109f96101cf60006108cd565b1415610ebd565b610f3d610f3682610709600261066b565b6002610b53565b610f4f81610e84610e7a8560006107ea565b610e8a60006108cd565b15610f6057565b60405162461bcd60e51b815260206004820152602160248201527f45524332303a206275726e2066726f6d20746865207a65726f2061646472657360448201527f73000000000000000000000000000000000000000000000000000000000000006064820152608490fd5b15610fd257565b60405162461bcd60e51b815260206004820152602260248201527f45524332303a206275726e20616d6f756e7420657863656564732062616c616e60448201527f63650000000000000000000000000000000000000000000000000000000000006064820152608490fd5b611058816110516109f96101cf60006108cd565b1415610f59565b611078610e5d61106c6108198460006107ea565b610e5785821015610fcb565b61108d610f3683611089600261066b565b0390565b9061109860006108cd565b9091610c01610bf7610bf17fddf252ad1be2c89b69c2b068fc378daa952ba7f163c4a11628f55a4df523b3ef936107e1565b61065f913361068f56fea26469706673582212200659a27879d543b4805c8a6f154404fe9be7ff4f83c57263f23844e7cdc9729364736f6c63430008180033","opcodes":"PUSH1 0x80 PUSH1 0x40 MSTORE CALLVALUE PUSH3 0x26 JUMPI PUSH3 0x14 PUSH3 0x1A3 JUMP JUMPDEST PUSH1 0x40 MLOAD PUSH2 0x110A PUSH3 0x615 DUP3 CODECOPY PUSH2 0x110A SWAP1 RETURN JUMPDEST PUSH1 0x0 DUP1 REVERT JUMPDEST PUSH4 0x4E487B71 PUSH1 0xE0 SHL PUSH1 0x0 MSTORE PUSH1 0x41 PUSH1 0x4 MSTORE PUSH1 0x24 PUSH1 0x0 REVERT JUMPDEST SWAP1 PUSH1 0x1F ADD PUSH1 0x1F NOT AND DUP2 ADD SWAP1 DUP2 LT PUSH1 0x1 PUSH1 0x1 PUSH1 0x40 SHL SUB DUP3 GT OR PUSH3 0x63 JUMPI PUSH1 0x40 MSTORE JUMP JUMPDEST PUSH3 0x2B JUMP JUMPDEST SWAP1 PUSH3 0x80 PUSH3 0x78 PUSH1 0x40 MLOAD SWAP1 JUMP JUMPDEST SWAP3 DUP4 PUSH3 0x41 JUMP JUMPDEST JUMP JUMPDEST PUSH1 0x1 PUSH1 0x1 PUSH1 0x40 SHL SUB DUP2 GT PUSH3 0x63 JUMPI PUSH1 0x20 SWAP1 PUSH1 0x1F ADD PUSH1 0x1F NOT AND ADD SWAP1 JUMP JUMPDEST SWAP1 PUSH3 0xB5 PUSH3 0xAF DUP4 PUSH3 0x82 JUMP JUMPDEST PUSH3 0x69 JUMP JUMPDEST SWAP2 DUP3 MSTORE JUMP JUMPDEST PUSH3 0xC6 PUSH1 0x7 PUSH3 0x9F JUMP JUMPDEST PUSH7 0x20A12CA0AA25A7 PUSH1 0xC9 SHL PUSH1 0x20 DUP3 ADD MSTORE SWAP1 JUMP JUMPDEST PUSH3 0xE3 PUSH3 0xBA JUMP JUMPDEST SWAP1 JUMP JUMPDEST PUSH3 0xF2 PUSH1 0x6 PUSH3 0x9F JUMP JUMPDEST PUSH6 0x20A12CAA25A7 PUSH1 0xD1 SHL PUSH1 0x20 DUP3 ADD MSTORE SWAP1 JUMP JUMPDEST PUSH3 0xE3 PUSH3 0xE6 JUMP JUMPDEST PUSH3 0xE3 PUSH3 0xE3 PUSH3 0xE3 SWAP3 SWAP1 JUMP JUMPDEST PUSH3 0xE3 PUSH12 0x33B2E3C9FD0803CE8000000 PUSH3 0x10E JUMP JUMPDEST PUSH3 0xE3 PUSH12 0x204FCE5E3E25026110000000 PUSH3 0x10E JUMP JUMPDEST ISZERO PUSH3 0x154 JUMPI JUMP JUMPDEST PUSH1 0x40 MLOAD PUSH3 0x461BCD PUSH1 0xE5 SHL DUP2 MSTORE PUSH1 0x20 PUSH1 0x4 DUP3 ADD MSTORE PUSH1 0x21 PUSH1 0x24 DUP3 ADD MSTORE PUSH32 0x496E697469616C20737570706C792065786365656473206D617820737570706C PUSH1 0x44 DUP3 ADD MSTORE PUSH1 0x79 PUSH1 0xF8 SHL PUSH1 0x64 DUP3 ADD MSTORE PUSH1 0x84 SWAP1 REVERT JUMPDEST PUSH3 0x1C2 PUSH3 0x1B1 PUSH3 0xD9 JUMP JUMPDEST PUSH3 0x1BB PUSH3 0x104 JUMP JUMPDEST SWAP1 PUSH3 0x3F5 JUMP JUMPDEST PUSH3 0x1EE PUSH3 0x1D0 PUSH3 0x11E JUMP JUMPDEST PUSH3 0x1E6 PUSH3 0x1E2 PUSH3 0xE3 PUSH3 0x135 JUMP JUMPDEST SWAP2 SWAP1 JUMP JUMPDEST GT ISZERO PUSH3 0x14C JUMP JUMPDEST PUSH3 0x80 CALLER PUSH3 0x1FD PUSH3 0x11E JUMP JUMPDEST SWAP1 PUSH3 0x52E JUMP JUMPDEST PUSH4 0x4E487B71 PUSH1 0xE0 SHL PUSH1 0x0 MSTORE PUSH1 0x22 PUSH1 0x4 MSTORE PUSH1 0x24 PUSH1 0x0 REVERT JUMPDEST SWAP1 PUSH1 0x1 PUSH1 0x2 DUP4 DIV SWAP3 AND DUP1 ISZERO PUSH3 0x23D JUMPI JUMPDEST PUSH1 0x20 DUP4 LT EQ PUSH3 0x237 JUMPI JUMP JUMPDEST PUSH3 0x204 JUMP JUMPDEST SWAP2 PUSH1 0x7F AND SWAP2 PUSH3 0x22B JUMP JUMPDEST SWAP2 PUSH1 0x0 NOT PUSH1 0x8 SWAP3 SWAP1 SWAP3 MUL SWAP2 DUP3 SHL SWAP2 SHL JUMPDEST SWAP2 DUP2 NOT AND SWAP2 AND OR SWAP1 JUMP JUMPDEST SWAP2 SWAP1 PUSH3 0x277 PUSH3 0xE3 PUSH3 0x280 SWAP4 PUSH3 0x10E JUMP JUMPDEST SWAP1 DUP4 SLOAD PUSH3 0x248 JUMP JUMPDEST SWAP1 SSTORE JUMP JUMPDEST PUSH3 0x80 SWAP2 PUSH1 0x0 SWAP2 PUSH3 0x262 JUMP JUMPDEST DUP2 DUP2 LT PUSH3 0x29E JUMPI POP POP JUMP JUMPDEST DUP1 PUSH3 0x2AE PUSH1 0x0 PUSH1 0x1 SWAP4 PUSH3 0x284 JUMP JUMPDEST ADD PUSH3 0x292 JUMP JUMPDEST SWAP2 SWAP1 PUSH1 0x1F DUP2 GT PUSH3 0x2C5 JUMPI POP POP POP JUMP JUMPDEST PUSH3 0x2D9 PUSH3 0x80 SWAP4 PUSH1 0x0 MSTORE PUSH1 0x20 PUSH1 0x0 KECCAK256 SWAP1 JUMP JUMPDEST SWAP1 PUSH1 0x20 PUSH1 0x1F DUP5 ADD DUP2 SWAP1 DIV DUP4 ADD SWAP4 LT PUSH3 0x2FD JUMPI JUMPDEST PUSH1 0x20 PUSH1 0x1F SWAP1 SWAP2 ADD DIV ADD SWAP1 PUSH3 0x292 JUMP JUMPDEST SWAP1 SWAP2 POP DUP2 SWAP1 PUSH3 0x2ED JUMP JUMPDEST SWAP1 PUSH3 0x312 DUP2 MLOAD SWAP1 JUMP JUMPDEST SWAP1 PUSH1 0x1 PUSH1 0x1 PUSH1 0x40 SHL SUB DUP3 GT PUSH3 0x63 JUMPI PUSH3 0x33A DUP3 PUSH3 0x333 DUP6 SLOAD PUSH3 0x21A JUMP JUMPDEST DUP6 PUSH3 0x2B5 JUMP JUMPDEST PUSH1 0x20 SWAP1 PUSH1 0x1F DUP4 GT PUSH1 0x1 EQ PUSH3 0x379 JUMPI PUSH3 0x280 SWAP3 SWAP2 PUSH1 0x0 SWAP2 DUP4 PUSH3 0x36D JUMPI JUMPDEST POP POP PUSH1 0x0 NOT PUSH1 0x8 DUP4 MUL SHR NOT AND SWAP1 PUSH1 0x2 MUL OR SWAP1 JUMP JUMPDEST ADD MLOAD SWAP1 POP CODESIZE DUP1 PUSH3 0x359 JUMP JUMPDEST PUSH1 0x1F NOT DUP4 AND SWAP2 PUSH3 0x38F DUP6 PUSH1 0x0 MSTORE PUSH1 0x20 PUSH1 0x0 KECCAK256 SWAP1 JUMP JUMPDEST SWAP3 PUSH1 0x0 JUMPDEST DUP2 DUP2 LT PUSH3 0x3D0 JUMPI POP SWAP2 PUSH1 0x2 SWAP4 SWAP2 DUP6 PUSH1 0x1 SWAP7 SWAP5 LT PUSH3 0x3B6 JUMPI JUMPDEST POP POP POP MUL ADD SWAP1 SSTORE JUMP JUMPDEST ADD MLOAD PUSH1 0x0 NOT PUSH1 0x8 PUSH1 0x1F DUP6 AND MUL SHR NOT AND SWAP1 SSTORE CODESIZE DUP1 DUP1 PUSH3 0x3AD JUMP JUMPDEST SWAP2 SWAP4 PUSH1 0x20 PUSH1 0x1 DUP2 SWAP3 DUP8 DUP8 ADD MLOAD DUP2 SSTORE ADD SWAP6 ADD SWAP3 ADD PUSH3 0x393 JUMP JUMPDEST SWAP1 PUSH3 0x80 SWAP2 PUSH3 0x308 JUMP JUMPDEST SWAP1 PUSH3 0x407 PUSH3 0x80 SWAP3 PUSH1 0x3 PUSH3 0x3E9 JUMP JUMPDEST PUSH1 0x4 PUSH3 0x3E9 JUMP JUMPDEST PUSH3 0x41F PUSH3 0xE3 PUSH3 0xE3 SWAP3 SWAP1 JUMP JUMPDEST PUSH1 0x1 PUSH1 0x1 PUSH1 0xA0 SHL SUB AND SWAP1 JUMP JUMPDEST PUSH3 0xE3 SWAP1 PUSH3 0x40F JUMP JUMPDEST ISZERO PUSH3 0x43E JUMPI JUMP JUMPDEST PUSH1 0x40 MLOAD PUSH3 0x461BCD PUSH1 0xE5 SHL DUP2 MSTORE PUSH1 0x20 PUSH1 0x4 DUP3 ADD MSTORE PUSH1 0x1F PUSH1 0x24 DUP3 ADD MSTORE PUSH32 0x45524332303A206D696E7420746F20746865207A65726F206164647265737300 PUSH1 0x44 DUP3 ADD MSTORE PUSH1 0x64 SWAP1 REVERT JUMPDEST PUSH3 0xE3 SWAP1 DUP2 JUMP JUMPDEST PUSH3 0xE3 SWAP1 SLOAD PUSH3 0x483 JUMP JUMPDEST PUSH4 0x4E487B71 PUSH1 0xE0 SHL PUSH1 0x0 MSTORE PUSH1 0x11 PUSH1 0x4 MSTORE PUSH1 0x24 PUSH1 0x0 REVERT JUMPDEST SWAP2 SWAP1 DUP3 ADD DUP1 SWAP3 GT PUSH3 0x4BB JUMPI JUMP JUMPDEST PUSH3 0x497 JUMP JUMPDEST SWAP1 PUSH1 0x0 NOT SWAP1 PUSH3 0x258 JUMP JUMPDEST SWAP1 PUSH3 0x4E0 PUSH3 0xE3 PUSH3 0x280 SWAP3 PUSH3 0x10E JUMP JUMPDEST DUP3 SLOAD PUSH3 0x4C1 JUMP JUMPDEST PUSH3 0xE3 SWAP1 PUSH3 0x41F SWAP1 PUSH1 0x1 PUSH1 0x1 PUSH1 0xA0 SHL SUB AND DUP3 JUMP JUMPDEST PUSH3 0xE3 SWAP1 PUSH3 0x4E8 JUMP JUMPDEST PUSH3 0xE3 SWAP1 PUSH3 0x4FE JUMP JUMPDEST SWAP1 PUSH3 0x520 SWAP1 PUSH3 0x509 JUMP JUMPDEST PUSH1 0x0 MSTORE PUSH1 0x20 MSTORE PUSH1 0x40 PUSH1 0x0 KECCAK256 SWAP1 JUMP JUMPDEST SWAP1 PUSH3 0x55D DUP3 PUSH3 0x555 PUSH3 0x54E PUSH3 0x548 PUSH1 0x0 PUSH3 0x42B JUMP JUMPDEST PUSH3 0x41F JUMP JUMPDEST SWAP2 PUSH3 0x41F JUMP JUMPDEST EQ ISZERO PUSH3 0x436 JUMP JUMPDEST PUSH3 0x580 PUSH3 0x578 DUP3 PUSH3 0x572 PUSH1 0x2 PUSH3 0x48B JUMP JUMPDEST PUSH3 0x4AD JUMP JUMPDEST PUSH1 0x2 PUSH3 0x4CC JUMP JUMPDEST PUSH3 0x5AD DUP2 PUSH3 0x5A6 PUSH3 0x596 DUP6 PUSH1 0x0 PUSH3 0x514 JUMP JUMPDEST SWAP2 PUSH3 0x5A2 DUP4 PUSH3 0x48B JUMP JUMPDEST ADD SWAP1 JUMP JUMPDEST SWAP1 PUSH3 0x4CC JUMP JUMPDEST PUSH3 0x5B9 PUSH1 0x0 PUSH3 0x42B JUMP JUMPDEST SWAP2 SWAP1 SWAP2 PUSH3 0x60F PUSH3 0x5F7 PUSH3 0x5F0 PUSH32 0xDDF252AD1BE2C89B69C2B068FC378DAA952BA7F163C4A11628F55A4DF523B3EF SWAP4 PUSH3 0x509 JUMP JUMPDEST SWAP4 PUSH3 0x509 JUMP JUMPDEST SWAP4 PUSH3 0x602 PUSH1 0x40 MLOAD SWAP1 JUMP JUMPDEST SWAP2 DUP3 SWAP2 DUP3 SWAP1 DUP2 MSTORE PUSH1 0x20 ADD SWAP1 JUMP JUMPDEST SUB SWAP1 LOG3 JUMP INVALID PUSH1 0x80 PUSH1 0x40 MSTORE PUSH1 0x4 CALLDATASIZE LT ISZERO PUSH2 0x12 JUMPI PUSH1 0x0 DUP1 REVERT JUMPDEST PUSH1 0x0 CALLDATALOAD PUSH1 0xE0 SHR DUP1 PUSH4 0x6FDDE03 EQ PUSH2 0x102 JUMPI DUP1 PUSH4 0x95EA7B3 EQ PUSH2 0xFD JUMPI DUP1 PUSH4 0x18160DDD EQ PUSH2 0xF8 JUMPI DUP1 PUSH4 0x23B872DD EQ PUSH2 0xF3 JUMPI DUP1 PUSH4 0x2FF2E9DC EQ PUSH2 0xEE JUMPI DUP1 PUSH4 0x313CE567 EQ PUSH2 0xE9 JUMPI DUP1 PUSH4 0x32CB6B0C EQ PUSH2 0xE4 JUMPI DUP1 PUSH4 0x39509351 EQ PUSH2 0xDF JUMPI DUP1 PUSH4 0x40C10F19 EQ PUSH2 0xDA JUMPI DUP1 PUSH4 0x42966C68 EQ PUSH2 0xD5 JUMPI DUP1 PUSH4 0x70A08231 EQ PUSH2 0xD0 JUMPI DUP1 PUSH4 0x95D89B41 EQ PUSH2 0xCB JUMPI DUP1 PUSH4 0xA457C2D7 EQ PUSH2 0xC6 JUMPI DUP1 PUSH4 0xA9059CBB EQ PUSH2 0xC1 JUMPI PUSH4 0xDD62ED3E SUB PUSH2 0x112 JUMPI PUSH2 0x4A9 JUMP JUMPDEST PUSH2 0x46A JUMP JUMPDEST PUSH2 0x44E JUMP JUMPDEST PUSH2 0x433 JUMP JUMPDEST PUSH2 0x418 JUMP JUMPDEST PUSH2 0x3EC JUMP JUMPDEST PUSH2 0x3BA JUMP JUMPDEST PUSH2 0x39E JUMP JUMPDEST PUSH2 0x383 JUMP JUMPDEST PUSH2 0x337 JUMP JUMPDEST PUSH2 0x31C JUMP JUMPDEST PUSH2 0x2D6 JUMP JUMPDEST PUSH2 0x27A JUMP JUMPDEST PUSH2 0x24C JUMP JUMPDEST PUSH2 0x1A4 JUMP JUMPDEST PUSH1 0x0 SWAP2 SUB SLT PUSH2 0x112 JUMPI JUMP JUMPDEST PUSH1 0x0 DUP1 REVERT JUMPDEST PUSH1 0x0 JUMPDEST DUP4 DUP2 LT PUSH2 0x12A JUMPI POP POP PUSH1 0x0 SWAP2 ADD MSTORE JUMP JUMPDEST DUP2 DUP2 ADD MLOAD DUP4 DUP3 ADD MSTORE PUSH1 0x20 ADD PUSH2 0x11A JUMP JUMPDEST PUSH2 0x15B PUSH2 0x164 PUSH1 0x20 SWAP4 PUSH2 0x18C SWAP4 PUSH2 0x14F DUP2 MLOAD SWAP1 JUMP JUMPDEST DUP1 DUP4 MSTORE SWAP4 DUP5 SWAP3 PUSH1 0x20 ADD SWAP1 JUMP JUMPDEST SWAP6 DUP7 SWAP2 ADD PUSH2 0x117 JUMP JUMPDEST PUSH1 0x1F ADD PUSH32 0xFFFFFFFFFFFFFFFFFFFFFFFFFFFFFFFFFFFFFFFFFFFFFFFFFFFFFFFFFFFFFFE0 AND SWAP1 JUMP JUMPDEST ADD SWAP1 JUMP JUMPDEST PUSH1 0x20 DUP1 DUP3 MSTORE PUSH2 0x1A1 SWAP3 SWAP2 ADD SWAP1 PUSH2 0x13A JUMP JUMPDEST SWAP1 JUMP JUMPDEST CALLVALUE PUSH2 0x112 JUMPI PUSH2 0x1B4 CALLDATASIZE PUSH1 0x4 PUSH2 0x107 JUMP JUMPDEST PUSH2 0x1CB PUSH2 0x1BF PUSH2 0x64A JUMP JUMPDEST PUSH1 0x40 MLOAD SWAP2 DUP3 SWAP2 DUP3 PUSH2 0x190 JUMP JUMPDEST SUB SWAP1 RETURN JUMPDEST PUSH20 0xFFFFFFFFFFFFFFFFFFFFFFFFFFFFFFFFFFFFFFFF AND SWAP1 JUMP JUMPDEST PUSH20 0xFFFFFFFFFFFFFFFFFFFFFFFFFFFFFFFFFFFFFFFF DUP2 AND JUMPDEST SUB PUSH2 0x112 JUMPI JUMP JUMPDEST SWAP1 POP CALLDATALOAD SWAP1 PUSH2 0x214 DUP3 PUSH2 0x1E8 JUMP JUMPDEST JUMP JUMPDEST DUP1 PUSH2 0x200 JUMP JUMPDEST SWAP1 POP CALLDATALOAD SWAP1 PUSH2 0x214 DUP3 PUSH2 0x216 JUMP JUMPDEST SWAP2 SWAP1 PUSH1 0x40 DUP4 DUP3 SUB SLT PUSH2 0x112 JUMPI PUSH2 0x1A1 SWAP1 PUSH2 0x243 DUP2 DUP6 PUSH2 0x207 JUMP JUMPDEST SWAP4 PUSH1 0x20 ADD PUSH2 0x21C JUMP JUMPDEST CALLVALUE PUSH2 0x112 JUMPI PUSH2 0x1CB PUSH2 0x268 PUSH2 0x262 CALLDATASIZE PUSH1 0x4 PUSH2 0x229 JUMP JUMPDEST SWAP1 PUSH2 0x654 JUMP JUMPDEST PUSH1 0x40 MLOAD SWAP2 DUP3 SWAP2 DUP3 SWAP1 ISZERO ISZERO DUP2 MSTORE PUSH1 0x20 ADD SWAP1 JUMP JUMPDEST CALLVALUE PUSH2 0x112 JUMPI PUSH2 0x28A CALLDATASIZE PUSH1 0x4 PUSH2 0x107 JUMP JUMPDEST PUSH2 0x1CB PUSH2 0x295 PUSH2 0x675 JUMP JUMPDEST PUSH1 0x40 MLOAD JUMPDEST SWAP2 DUP3 SWAP2 DUP3 SWAP1 DUP2 MSTORE PUSH1 0x20 ADD SWAP1 JUMP JUMPDEST SWAP1 SWAP2 PUSH1 0x60 DUP3 DUP5 SUB SLT PUSH2 0x112 JUMPI PUSH2 0x1A1 PUSH2 0x2BF DUP5 DUP5 PUSH2 0x207 JUMP JUMPDEST SWAP4 PUSH2 0x2CD DUP2 PUSH1 0x20 DUP7 ADD PUSH2 0x207 JUMP JUMPDEST SWAP4 PUSH1 0x40 ADD PUSH2 0x21C JUMP JUMPDEST CALLVALUE PUSH2 0x112 JUMPI PUSH2 0x1CB PUSH2 0x268 PUSH2 0x2EC CALLDATASIZE PUSH1 0x4 PUSH2 0x2A6 JUMP JUMPDEST SWAP2 PUSH2 0x67F JUMP JUMPDEST PUSH2 0x1A1 PUSH2 0x1A1 PUSH2 0x1A1 SWAP3 SWAP1 JUMP JUMPDEST PUSH2 0x1A1 PUSH12 0x33B2E3C9FD0803CE8000000 PUSH2 0x2F2 JUMP JUMPDEST PUSH2 0x1A1 PUSH2 0x2FF JUMP JUMPDEST CALLVALUE PUSH2 0x112 JUMPI PUSH2 0x32C CALLDATASIZE PUSH1 0x4 PUSH2 0x107 JUMP JUMPDEST PUSH2 0x1CB PUSH2 0x295 PUSH2 0x314 JUMP JUMPDEST CALLVALUE PUSH2 0x112 JUMPI PUSH2 0x347 CALLDATASIZE PUSH1 0x4 PUSH2 0x107 JUMP JUMPDEST PUSH2 0x1CB PUSH2 0x352 PUSH2 0x6AA JUMP JUMPDEST PUSH1 0x40 MLOAD SWAP2 DUP3 SWAP2 DUP3 PUSH1 0xFF SWAP1 SWAP2 AND DUP2 MSTORE PUSH1 0x20 ADD SWAP1 JUMP JUMPDEST PUSH2 0x1A1 PUSH12 0x204FCE5E3E25026110000000 PUSH2 0x2F2 JUMP JUMPDEST PUSH2 0x1A1 PUSH2 0x366 JUMP JUMPDEST CALLVALUE PUSH2 0x112 JUMPI PUSH2 0x393 CALLDATASIZE PUSH1 0x4 PUSH2 0x107 JUMP JUMPDEST PUSH2 0x1CB PUSH2 0x295 PUSH2 0x37B JUMP JUMPDEST CALLVALUE PUSH2 0x112 JUMPI PUSH2 0x1CB PUSH2 0x268 PUSH2 0x3B4 CALLDATASIZE PUSH1 0x4 PUSH2 0x229 JUMP JUMPDEST SWAP1 PUSH2 0x6F5 JUMP JUMPDEST CALLVALUE PUSH2 0x112 JUMPI PUSH2 0x3D3 PUSH2 0x3CD CALLDATASIZE PUSH1 0x4 PUSH2 0x229 JUMP JUMPDEST SWAP1 PUSH2 0x714 JUMP JUMPDEST PUSH1 0x40 MLOAD STOP JUMPDEST SWAP1 PUSH1 0x20 DUP3 DUP3 SUB SLT PUSH2 0x112 JUMPI PUSH2 0x1A1 SWAP2 PUSH2 0x21C JUMP JUMPDEST CALLVALUE PUSH2 0x112 JUMPI PUSH2 0x3D3 PUSH2 0x3FF CALLDATASIZE PUSH1 0x4 PUSH2 0x3D8 JUMP JUMPDEST PUSH2 0x790 JUMP JUMPDEST SWAP1 PUSH1 0x20 DUP3 DUP3 SUB SLT PUSH2 0x112 JUMPI PUSH2 0x1A1 SWAP2 PUSH2 0x207 JUMP JUMPDEST CALLVALUE PUSH2 0x112 JUMPI PUSH2 0x1CB PUSH2 0x295 PUSH2 0x42E CALLDATASIZE PUSH1 0x4 PUSH2 0x404 JUMP JUMPDEST PUSH2 0x802 JUMP JUMPDEST CALLVALUE PUSH2 0x112 JUMPI PUSH2 0x443 CALLDATASIZE PUSH1 0x4 PUSH2 0x107 JUMP JUMPDEST PUSH2 0x1CB PUSH2 0x1BF PUSH2 0x81E JUMP JUMPDEST CALLVALUE PUSH2 0x112 JUMPI PUSH2 0x1CB PUSH2 0x268 PUSH2 0x464 CALLDATASIZE PUSH1 0x4 PUSH2 0x229 JUMP JUMPDEST SWAP1 PUSH2 0x89A JUMP JUMPDEST CALLVALUE PUSH2 0x112 JUMPI PUSH2 0x1CB PUSH2 0x268 PUSH2 0x480 CALLDATASIZE PUSH1 0x4 PUSH2 0x229 JUMP JUMPDEST SWAP1 PUSH2 0x9E0 JUMP JUMPDEST SWAP2 SWAP1 PUSH1 0x40 DUP4 DUP3 SUB SLT PUSH2 0x112 JUMPI PUSH2 0x1A1 SWAP1 PUSH2 0x4A0 DUP2 DUP6 PUSH2 0x207 JUMP JUMPDEST SWAP4 PUSH1 0x20 ADD PUSH2 0x207 JUMP JUMPDEST CALLVALUE PUSH2 0x112 JUMPI PUSH2 0x1CB PUSH2 0x295 PUSH2 0x4BF CALLDATASIZE PUSH1 0x4 PUSH2 0x486 JUMP JUMPDEST SWAP1 PUSH2 0xA50 JUMP JUMPDEST PUSH32 0x4E487B7100000000000000000000000000000000000000000000000000000000 PUSH1 0x0 MSTORE PUSH1 0x22 PUSH1 0x4 MSTORE PUSH1 0x24 PUSH1 0x0 REVERT JUMPDEST SWAP1 PUSH1 0x1 PUSH1 0x2 DUP4 DIV SWAP3 AND DUP1 ISZERO PUSH2 0x514 JUMPI JUMPDEST PUSH1 0x20 DUP4 LT EQ PUSH2 0x50F JUMPI JUMP JUMPDEST PUSH2 0x4C5 JUMP JUMPDEST SWAP2 PUSH1 0x7F AND SWAP2 PUSH2 0x504 JUMP JUMPDEST DUP1 SLOAD PUSH1 0x0 SWAP4 SWAP3 SWAP2 PUSH2 0x53B PUSH2 0x531 DUP4 PUSH2 0x4F4 JUMP JUMPDEST DUP1 DUP6 MSTORE SWAP4 PUSH1 0x20 ADD SWAP1 JUMP JUMPDEST SWAP2 PUSH1 0x1 DUP2 AND SWAP1 DUP2 ISZERO PUSH2 0x58D JUMPI POP PUSH1 0x1 EQ PUSH2 0x554 JUMPI POP POP POP JUMP JUMPDEST PUSH2 0x567 SWAP2 SWAP3 SWAP4 SWAP5 POP PUSH1 0x0 MSTORE PUSH1 0x20 PUSH1 0x0 KECCAK256 SWAP1 JUMP JUMPDEST SWAP2 PUSH1 0x0 SWAP3 JUMPDEST DUP2 DUP5 LT PUSH2 0x579 JUMPI POP POP ADD SWAP1 JUMP JUMPDEST DUP1 SLOAD DUP5 DUP5 ADD MSTORE PUSH1 0x20 SWAP1 SWAP4 ADD SWAP3 PUSH1 0x1 ADD PUSH2 0x56C JUMP JUMPDEST SWAP3 SWAP5 SWAP6 POP POP POP PUSH1 0xFF NOT AND DUP3 MSTORE ISZERO ISZERO PUSH1 0x20 MUL ADD SWAP1 JUMP JUMPDEST SWAP1 PUSH2 0x1A1 SWAP2 PUSH2 0x51E JUMP JUMPDEST PUSH32 0x4E487B7100000000000000000000000000000000000000000000000000000000 PUSH1 0x0 MSTORE PUSH1 0x41 PUSH1 0x4 MSTORE PUSH1 0x24 PUSH1 0x0 REVERT JUMPDEST SWAP1 PUSH1 0x1F ADD PUSH32 0xFFFFFFFFFFFFFFFFFFFFFFFFFFFFFFFFFFFFFFFFFFFFFFFFFFFFFFFFFFFFFFE0 AND DUP2 ADD SWAP1 DUP2 LT PUSH8 0xFFFFFFFFFFFFFFFF DUP3 GT OR PUSH2 0x61B JUMPI PUSH1 0x40 MSTORE JUMP JUMPDEST PUSH2 0x5AC JUMP JUMPDEST SWAP1 PUSH2 0x214 PUSH2 0x63A SWAP3 PUSH2 0x631 PUSH1 0x40 MLOAD SWAP1 JUMP JUMPDEST SWAP4 DUP5 DUP1 SWAP3 PUSH2 0x5A2 JUMP JUMPDEST SUB DUP4 PUSH2 0x5DB JUMP JUMPDEST PUSH2 0x1A1 SWAP1 PUSH2 0x620 JUMP JUMPDEST PUSH2 0x1A1 PUSH1 0x3 PUSH2 0x641 JUMP JUMPDEST PUSH2 0x65F SWAP2 SWAP1 CALLER PUSH2 0xB67 JUMP JUMPDEST PUSH1 0x1 SWAP1 JUMP JUMPDEST PUSH2 0x1A1 SWAP1 DUP2 JUMP JUMPDEST PUSH2 0x1A1 SWAP1 SLOAD PUSH2 0x664 JUMP JUMPDEST PUSH2 0x1A1 PUSH1 0x2 PUSH2 0x66B JUMP JUMPDEST PUSH2 0x65F SWAP3 SWAP1 PUSH2 0x68F DUP3 CALLER DUP4 PUSH2 0xC52 JUMP JUMPDEST SWAP2 SWAP1 SWAP2 PUSH2 0xDFE JUMP JUMPDEST PUSH2 0x6A4 PUSH2 0x1A1 PUSH2 0x1A1 SWAP3 SWAP1 JUMP JUMPDEST PUSH1 0xFF AND SWAP1 JUMP JUMPDEST PUSH2 0x1A1 PUSH1 0x12 PUSH2 0x697 JUMP JUMPDEST PUSH32 0x4E487B7100000000000000000000000000000000000000000000000000000000 PUSH1 0x0 MSTORE PUSH1 0x11 PUSH1 0x4 MSTORE PUSH1 0x24 PUSH1 0x0 REVERT JUMPDEST SWAP2 SWAP1 DUP3 ADD DUP1 SWAP3 GT PUSH2 0x6F0 JUMPI JUMP JUMPDEST PUSH2 0x6B4 JUMP JUMPDEST PUSH2 0x65F SWAP2 PUSH2 0x70E CALLER SWAP3 SWAP2 PUSH2 0x709 DUP4 DUP6 PUSH2 0xA50 JUMP JUMPDEST PUSH2 0x6E3 JUMP JUMPDEST SWAP2 PUSH2 0xB67 JUMP JUMPDEST SWAP1 PUSH2 0x214 SWAP2 PUSH2 0xF09 JUMP JUMPDEST ISZERO PUSH2 0x725 JUMPI JUMP JUMPDEST PUSH1 0x40 MLOAD PUSH3 0x461BCD PUSH1 0xE5 SHL DUP2 MSTORE PUSH1 0x20 PUSH1 0x4 DUP3 ADD MSTORE PUSH1 0x25 PUSH1 0x24 DUP3 ADD MSTORE PUSH32 0x4275726E20616D6F756E74206D7573742062652067726561746572207468616E PUSH1 0x44 DUP3 ADD MSTORE PUSH32 0x207A65726F000000000000000000000000000000000000000000000000000000 PUSH1 0x64 DUP3 ADD MSTORE PUSH1 0x84 SWAP1 REVERT JUMPDEST PUSH2 0x214 SWAP1 PUSH2 0x7AF DUP2 PUSH2 0x7A9 PUSH2 0x7A5 PUSH1 0x0 PUSH2 0x2F2 JUMP JUMPDEST SWAP2 SWAP1 JUMP JUMPDEST GT PUSH2 0x71E JUMP JUMPDEST CALLER PUSH2 0x103D JUMP JUMPDEST PUSH2 0x1CF PUSH2 0x1A1 PUSH2 0x1A1 SWAP3 PUSH20 0xFFFFFFFFFFFFFFFFFFFFFFFFFFFFFFFFFFFFFFFF AND SWAP1 JUMP JUMPDEST PUSH2 0x1A1 SWAP1 PUSH2 0x7B5 JUMP JUMPDEST PUSH2 0x1A1 SWAP1 PUSH2 0x7D8 JUMP JUMPDEST SWAP1 PUSH2 0x7F4 SWAP1 PUSH2 0x7E1 JUMP JUMPDEST PUSH1 0x0 MSTORE PUSH1 0x20 MSTORE PUSH1 0x40 PUSH1 0x0 KECCAK256 SWAP1 JUMP JUMPDEST PUSH2 0x819 PUSH2 0x1A1 SWAP2 PUSH2 0x811 PUSH1 0x0 SWAP1 JUMP JUMPDEST POP PUSH1 0x0 PUSH2 0x7EA JUMP JUMPDEST PUSH2 0x66B JUMP JUMPDEST PUSH2 0x1A1 PUSH1 0x4 PUSH2 0x641 JUMP JUMPDEST ISZERO PUSH2 0x82F JUMPI JUMP JUMPDEST PUSH1 0x40 MLOAD PUSH3 0x461BCD PUSH1 0xE5 SHL DUP2 MSTORE PUSH1 0x20 PUSH1 0x4 DUP3 ADD MSTORE PUSH1 0x25 PUSH1 0x24 DUP3 ADD MSTORE PUSH32 0x45524332303A2064656372656173656420616C6C6F77616E63652062656C6F77 PUSH1 0x44 DUP3 ADD MSTORE PUSH32 0x207A65726F000000000000000000000000000000000000000000000000000000 PUSH1 0x64 DUP3 ADD MSTORE PUSH1 0x84 SWAP1 REVERT JUMPDEST PUSH2 0x65F SWAP2 PUSH2 0x70E CALLER SWAP2 PUSH2 0x8AD DUP5 DUP5 PUSH2 0xA50 JUMP JUMPDEST SWAP3 PUSH2 0x8BA DUP3 DUP6 LT ISZERO PUSH2 0x828 JUMP JUMPDEST SWAP4 SWAP3 SUB SWAP1 JUMP JUMPDEST PUSH2 0x1CF PUSH2 0x1A1 PUSH2 0x1A1 SWAP3 SWAP1 JUMP JUMPDEST PUSH2 0x1A1 SWAP1 PUSH2 0x8C0 JUMP JUMPDEST ISZERO PUSH2 0x8DD JUMPI JUMP JUMPDEST PUSH1 0x40 MLOAD PUSH3 0x461BCD PUSH1 0xE5 SHL DUP2 MSTORE PUSH1 0x20 PUSH1 0x4 DUP3 ADD MSTORE PUSH1 0x1C PUSH1 0x24 DUP3 ADD MSTORE PUSH32 0x5472616E7366657220746F20746865207A65726F206164647265737300000000 PUSH1 0x44 DUP3 ADD MSTORE PUSH1 0x64 SWAP1 REVERT JUMPDEST ISZERO PUSH2 0x929 JUMPI JUMP JUMPDEST PUSH1 0x40 MLOAD PUSH3 0x461BCD PUSH1 0xE5 SHL DUP2 MSTORE PUSH1 0x20 PUSH1 0x4 DUP3 ADD MSTORE PUSH1 0x29 PUSH1 0x24 DUP3 ADD MSTORE PUSH32 0x5472616E7366657220616D6F756E74206D757374206265206772656174657220 PUSH1 0x44 DUP3 ADD MSTORE PUSH32 0x7468616E207A65726F0000000000000000000000000000000000000000000000 PUSH1 0x64 DUP3 ADD MSTORE PUSH1 0x84 SWAP1 REVERT JUMPDEST ISZERO PUSH2 0x99B JUMPI JUMP JUMPDEST PUSH1 0x40 MLOAD PUSH3 0x461BCD PUSH1 0xE5 SHL DUP2 MSTORE PUSH1 0x20 PUSH1 0x4 DUP3 ADD MSTORE PUSH1 0x14 PUSH1 0x24 DUP3 ADD MSTORE PUSH32 0x496E73756666696369656E742062616C616E6365000000000000000000000000 PUSH1 0x44 DUP3 ADD MSTORE PUSH1 0x64 SWAP1 REVERT JUMPDEST PUSH2 0x1A1 SWAP2 SWAP1 PUSH2 0xA1A DUP2 PUSH2 0xA13 PUSH2 0x9F9 PUSH2 0x1CF PUSH1 0x0 PUSH2 0x8CD JUMP JUMPDEST SWAP2 PUSH20 0xFFFFFFFFFFFFFFFFFFFFFFFFFFFFFFFFFFFFFFFF AND SWAP1 JUMP JUMPDEST EQ ISZERO PUSH2 0x8D6 JUMP JUMPDEST PUSH2 0xA31 DUP3 PUSH2 0xA2B PUSH2 0x7A5 PUSH1 0x0 PUSH2 0x2F2 JUMP JUMPDEST GT PUSH2 0x922 JUMP JUMPDEST PUSH2 0xA4B DUP3 PUSH2 0xA44 PUSH2 0x7A5 PUSH2 0x1A1 CALLER PUSH2 0x802 JUMP JUMPDEST GT ISZERO PUSH2 0x994 JUMP JUMPDEST PUSH2 0x10CA JUMP JUMPDEST PUSH2 0x1A1 SWAP2 PUSH2 0xA6B PUSH2 0x819 SWAP3 PUSH2 0xA63 PUSH1 0x0 SWAP1 JUMP JUMPDEST POP PUSH1 0x1 PUSH2 0x7EA JUMP JUMPDEST PUSH2 0x7EA JUMP JUMPDEST ISZERO PUSH2 0xA77 JUMPI JUMP JUMPDEST PUSH1 0x40 MLOAD PUSH3 0x461BCD PUSH1 0xE5 SHL DUP2 MSTORE PUSH1 0x20 PUSH1 0x4 DUP3 ADD MSTORE PUSH1 0x24 DUP1 DUP3 ADD MSTORE PUSH32 0x45524332303A20617070726F76652066726F6D20746865207A65726F20616464 PUSH1 0x44 DUP3 ADD MSTORE PUSH32 0x7265737300000000000000000000000000000000000000000000000000000000 PUSH1 0x64 DUP3 ADD MSTORE PUSH1 0x84 SWAP1 REVERT JUMPDEST ISZERO PUSH2 0xAE8 JUMPI JUMP JUMPDEST PUSH1 0x40 MLOAD PUSH3 0x461BCD PUSH1 0xE5 SHL DUP2 MSTORE PUSH1 0x20 PUSH1 0x4 DUP3 ADD MSTORE PUSH1 0x22 PUSH1 0x24 DUP3 ADD MSTORE PUSH32 0x45524332303A20617070726F766520746F20746865207A65726F206164647265 PUSH1 0x44 DUP3 ADD MSTORE PUSH32 0x7373000000000000000000000000000000000000000000000000000000000000 PUSH1 0x64 DUP3 ADD MSTORE PUSH1 0x84 SWAP1 REVERT JUMPDEST SWAP1 PUSH2 0x1A1 PUSH2 0x1A1 PUSH2 0xB63 SWAP3 PUSH2 0x2F2 JUMP JUMPDEST SWAP1 SSTORE JUMP JUMPDEST SWAP2 SWAP1 SWAP2 PUSH2 0xB85 DUP2 PUSH2 0xB7E PUSH2 0x9F9 PUSH2 0x1CF PUSH1 0x0 PUSH2 0x8CD JUMP JUMPDEST EQ ISZERO PUSH2 0xA70 JUMP JUMPDEST PUSH2 0xBA0 DUP4 PUSH2 0xB99 PUSH2 0x9F9 PUSH2 0x1CF PUSH1 0x0 PUSH2 0x8CD JUMP JUMPDEST EQ ISZERO PUSH2 0xAE1 JUMP JUMPDEST PUSH2 0xBBE DUP3 PUSH2 0xBB9 PUSH2 0xBB2 DUP5 PUSH1 0x1 PUSH2 0x7EA JUMP JUMPDEST DUP7 SWAP1 PUSH2 0x7EA JUMP JUMPDEST PUSH2 0xB53 JUMP JUMPDEST SWAP2 SWAP1 SWAP2 PUSH2 0xC01 PUSH2 0xBF7 PUSH2 0xBF1 PUSH32 0x8C5BE1E5EBEC7D5BD14F71427D1E84F3DD0314C0F7B2291E5B200AC8C7C3B925 SWAP4 PUSH2 0x7E1 JUMP JUMPDEST SWAP4 PUSH2 0x7E1 JUMP JUMPDEST SWAP4 PUSH2 0x299 PUSH1 0x40 MLOAD SWAP1 JUMP JUMPDEST SUB SWAP1 LOG3 JUMP JUMPDEST ISZERO PUSH2 0xC0D JUMPI JUMP JUMPDEST PUSH1 0x40 MLOAD PUSH3 0x461BCD PUSH1 0xE5 SHL DUP2 MSTORE PUSH1 0x20 PUSH1 0x4 DUP3 ADD MSTORE PUSH1 0x1D PUSH1 0x24 DUP3 ADD MSTORE PUSH32 0x45524332303A20696E73756666696369656E7420616C6C6F77616E6365000000 PUSH1 0x44 DUP3 ADD MSTORE PUSH1 0x64 SWAP1 REVERT JUMPDEST PUSH2 0xC5C DUP3 DUP3 PUSH2 0xA50 JUMP JUMPDEST SWAP1 PUSH32 0xFFFFFFFFFFFFFFFFFFFFFFFFFFFFFFFFFFFFFFFFFFFFFFFFFFFFFFFFFFFFFFFF DUP3 SUB PUSH2 0xC8B JUMPI JUMPDEST POP POP POP POP JUMP JUMPDEST PUSH2 0xC9F SWAP4 PUSH2 0x70E SWAP2 PUSH2 0x8BA DUP3 DUP6 LT ISZERO PUSH2 0xC06 JUMP JUMPDEST CODESIZE DUP1 DUP1 DUP1 PUSH2 0xC85 JUMP JUMPDEST ISZERO PUSH2 0xCAF JUMPI JUMP JUMPDEST PUSH1 0x40 MLOAD PUSH3 0x461BCD PUSH1 0xE5 SHL DUP2 MSTORE PUSH1 0x20 PUSH1 0x4 DUP3 ADD MSTORE PUSH1 0x25 PUSH1 0x24 DUP3 ADD MSTORE PUSH32 0x45524332303A207472616E736665722066726F6D20746865207A65726F206164 PUSH1 0x44 DUP3 ADD MSTORE PUSH32 0x6472657373000000000000000000000000000000000000000000000000000000 PUSH1 0x64 DUP3 ADD MSTORE PUSH1 0x84 SWAP1 REVERT JUMPDEST ISZERO PUSH2 0xD21 JUMPI JUMP JUMPDEST PUSH1 0x40 MLOAD PUSH3 0x461BCD PUSH1 0xE5 SHL DUP2 MSTORE PUSH1 0x20 PUSH1 0x4 DUP3 ADD MSTORE PUSH1 0x23 PUSH1 0x24 DUP3 ADD MSTORE PUSH32 0x45524332303A207472616E7366657220746F20746865207A65726F2061646472 PUSH1 0x44 DUP3 ADD MSTORE PUSH32 0x6573730000000000000000000000000000000000000000000000000000000000 PUSH1 0x64 DUP3 ADD MSTORE PUSH1 0x84 SWAP1 REVERT JUMPDEST ISZERO PUSH2 0xD93 JUMPI JUMP JUMPDEST PUSH1 0x40 MLOAD PUSH3 0x461BCD PUSH1 0xE5 SHL DUP2 MSTORE PUSH1 0x20 PUSH1 0x4 DUP3 ADD MSTORE PUSH1 0x26 PUSH1 0x24 DUP3 ADD MSTORE PUSH32 0x45524332303A207472616E7366657220616D6F756E7420657863656564732062 PUSH1 0x44 DUP3 ADD MSTORE PUSH32 0x616C616E63650000000000000000000000000000000000000000000000000000 PUSH1 0x64 DUP3 ADD MSTORE PUSH1 0x84 SWAP1 REVERT JUMPDEST SWAP2 SWAP1 SWAP2 PUSH2 0xE1C DUP2 PUSH2 0xE15 PUSH2 0x9F9 PUSH2 0x1CF PUSH1 0x0 PUSH2 0x8CD JUMP JUMPDEST EQ ISZERO PUSH2 0xCA8 JUMP JUMPDEST PUSH2 0xE37 DUP4 PUSH2 0xE30 PUSH2 0x9F9 PUSH2 0x1CF PUSH1 0x0 PUSH2 0x8CD JUMP JUMPDEST EQ ISZERO PUSH2 0xD1A JUMP JUMPDEST PUSH2 0xE68 PUSH2 0xE5D PUSH2 0xE4B PUSH2 0x819 DUP5 PUSH1 0x0 PUSH2 0x7EA JUMP JUMPDEST PUSH2 0xE57 DUP6 DUP3 LT ISZERO PUSH2 0xD8C JUMP JUMPDEST DUP5 SWAP1 SUB SWAP1 JUMP JUMPDEST PUSH2 0xBB9 DUP4 PUSH1 0x0 PUSH2 0x7EA JUMP JUMPDEST PUSH2 0xE8A DUP3 PUSH2 0xE84 PUSH2 0xE7A DUP7 PUSH1 0x0 PUSH2 0x7EA JUMP JUMPDEST SWAP2 PUSH2 0x18C DUP4 PUSH2 0x66B JUMP JUMPDEST SWAP1 PUSH2 0xB53 JUMP JUMPDEST SWAP2 SWAP1 SWAP2 PUSH2 0xC01 PUSH2 0xBF7 PUSH2 0xBF1 PUSH32 0xDDF252AD1BE2C89B69C2B068FC378DAA952BA7F163C4A11628F55A4DF523B3EF SWAP4 PUSH2 0x7E1 JUMP JUMPDEST ISZERO PUSH2 0xEC4 JUMPI JUMP JUMPDEST PUSH1 0x40 MLOAD PUSH3 0x461BCD PUSH1 0xE5 SHL DUP2 MSTORE PUSH1 0x20 PUSH1 0x4 DUP3 ADD MSTORE PUSH1 0x1F PUSH1 0x24 DUP3 ADD MSTORE PUSH32 0x45524332303A206D696E7420746F20746865207A65726F206164647265737300 PUSH1 0x44 DUP3 ADD MSTORE PUSH1 0x64 SWAP1 REVERT JUMPDEST SWAP1 PUSH2 0xF25 DUP3 PUSH2 0xF1E PUSH2 0x9F9 PUSH2 0x1CF PUSH1 0x0 PUSH2 0x8CD JUMP JUMPDEST EQ ISZERO PUSH2 0xEBD JUMP JUMPDEST PUSH2 0xF3D PUSH2 0xF36 DUP3 PUSH2 0x709 PUSH1 0x2 PUSH2 0x66B JUMP JUMPDEST PUSH1 0x2 PUSH2 0xB53 JUMP JUMPDEST PUSH2 0xF4F DUP2 PUSH2 0xE84 PUSH2 0xE7A DUP6 PUSH1 0x0 PUSH2 0x7EA JUMP JUMPDEST PUSH2 0xE8A PUSH1 0x0 PUSH2 0x8CD JUMP JUMPDEST ISZERO PUSH2 0xF60 JUMPI JUMP JUMPDEST PUSH1 0x40 MLOAD PUSH3 0x461BCD PUSH1 0xE5 SHL DUP2 MSTORE PUSH1 0x20 PUSH1 0x4 DUP3 ADD MSTORE PUSH1 0x21 PUSH1 0x24 DUP3 ADD MSTORE PUSH32 0x45524332303A206275726E2066726F6D20746865207A65726F20616464726573 PUSH1 0x44 DUP3 ADD MSTORE PUSH32 0x7300000000000000000000000000000000000000000000000000000000000000 PUSH1 0x64 DUP3 ADD MSTORE PUSH1 0x84 SWAP1 REVERT JUMPDEST ISZERO PUSH2 0xFD2 JUMPI JUMP JUMPDEST PUSH1 0x40 MLOAD PUSH3 0x461BCD PUSH1 0xE5 SHL DUP2 MSTORE PUSH1 0x20 PUSH1 0x4 DUP3 ADD MSTORE PUSH1 0x22 PUSH1 0x24 DUP3 ADD MSTORE PUSH32 0x45524332303A206275726E20616D6F756E7420657863656564732062616C616E PUSH1 0x44 DUP3 ADD MSTORE PUSH32 0x6365000000000000000000000000000000000000000000000000000000000000 PUSH1 0x64 DUP3 ADD MSTORE PUSH1 0x84 SWAP1 REVERT JUMPDEST PUSH2 0x1058 DUP2 PUSH2 0x1051 PUSH2 0x9F9 PUSH2 0x1CF PUSH1 0x0 PUSH2 0x8CD JUMP JUMPDEST EQ ISZERO PUSH2 0xF59 JUMP JUMPDEST PUSH2 0x1078 PUSH2 0xE5D PUSH2 0x106C PUSH2 0x819 DUP5 PUSH1 0x0 PUSH2 0x7EA JUMP JUMPDEST PUSH2 0xE57 DUP6 DUP3 LT ISZERO PUSH2 0xFCB JUMP JUMPDEST PUSH2 0x108D PUSH2 0xF36 DUP4 PUSH2 0x1089 PUSH1 0x2 PUSH2 0x66B JUMP JUMPDEST SUB SWAP1 JUMP JUMPDEST SWAP1 PUSH2 0x1098 PUSH1 0x0 PUSH2 0x8CD JUMP JUMPDEST SWAP1 SWAP2 PUSH2 0xC01 PUSH2 0xBF7 PUSH2 0xBF1 PUSH32 0xDDF252AD1BE2C89B69C2B068FC378DAA952BA7F163C4A11628F55A4DF523B3EF SWAP4 PUSH2 0x7E1 JUMP JUMPDEST PUSH2 0x65F SWAP2 CALLER PUSH2 0x68F JUMP INVALID LOG2 PUSH5 0x6970667358 0x22 SLT KECCAK256 MOD MSIZE LOG2 PUSH25 0x79D543B4805C8A6F154404FE9BE7FF4F83C57263F23844E7CD 0xC9 PUSH19 0x9364736F6C6343000818003300000000000000 "},"methodIdentifiers":{"INITIAL_SUPPLY()":"2ff2e9dc","MAX_SUPPLY()":"32cb6b0c","allowance(address,address)":"dd62ed3e","approve(address,uint256)":"095ea7b3","balanceOf(address)":"70a08231","burn(uint256)":"42966c68","decimals()":"313ce567","decreaseAllowance(address,uint256)":"a457c2d7","increaseAllowance(address,uint256)":"39509351","mint(address,uint256)":"40c10f19","name()":"06fdde03","symbol()":"95d89b41","totalSupply()":"18160ddd","transfer(address,uint256)":"a9059cbb","transferFrom(address,address,uint256)":"23b872dd"}}}}}