{"contracts/Add_Swap_Contract.sol":{"Add_Swap_Contract":{"abi":[{"inputs":[{"internalType":"address","name":"_swapRouter","type":"address"},{"internalType":"address","name":"_positionManager","type":"address"},{"internalType":"address","name":"_pool","type":"address"}],"stateMutability":"nonpayable","type":"constructor"},{"anonymous":false,"inputs":[{"indexed":true,"internalType":"uint256","name":"id","type":"uint256"},{"indexed":true,"internalType":"enum Add_Swap_Contract.TransactionType","name":"transactionType","type":"uint8"},{"indexed":false,"internalType":"bytes32","name":"txHash","type":"bytes32"},{"indexed":true,"internalType":"address","name":"user","type":"address"}],"name":"TransactionAdded","type":"event"},{"inputs":[{"internalType":"uint256","name":"amount0Desired","type":"uint256"},{"internalType":"uint256","name":"amount1Desired","type":"uint256"}],"name":"addLiquidity","outputs":[{"internalType":"uint256","name":"tokenId","type":"uint256"}],"stateMutability":"nonpayable","type":"function"},{"inputs":[{"internalType":"uint256","name":"amount0Desired","type":"uint256"},{"internalType":"uint256","name":"amount1Desired","type":"uint256"},{"internalType":"int24","name":"tickLower","type":"int24"},{"internalType":"int24","name":"tickUpper","type":"int24"}],"name":"addLiquidityWithRange","outputs":[{"internalType":"uint256","name":"tokenId","type":"uint256"}],"stateMutability":"nonpayable","type":"function"},{"inputs":[{"internalType":"enum Add_Swap_Contract.TransactionType","name":"transactionType","type":"uint8"},{"internalType":"string","name":"fromToken","type":"string"},{"internalType":"string","name":"toToken","type":"string"},{"internalType":"uint256","name":"fromAmount","type":"uint256"},{"internalType":"uint256","name":"toAmount","type":"uint256"},{"internalType":"bytes32","name":"txHash","type":"bytes32"}],"name":"addTransactionToHistory","outputs":[],"stateMutability":"nonpayable","type":"function"},{"inputs":[{"internalType":"uint256","name":"","type":"uint256"}],"name":"allTransactions","outputs":[{"internalType":"uint256","name":"id","type":"uint256"},{"internalType":"enum Add_Swap_Contract.TransactionType","name":"transactionType","type":"uint8"},{"internalType":"string","name":"fromToken","type":"string"},{"internalType":"string","name":"toToken","type":"string"},{"internalType":"uint256","name":"fromAmount","type":"uint256"},{"internalType":"uint256","name":"toAmount","type":"uint256"},{"internalType":"uint256","name":"timestamp","type":"uint256"},{"internalType":"bytes32","name":"hash","type":"bytes32"},{"internalType":"string","name":"status","type":"string"}],"stateMutability":"view","type":"function"},{"inputs":[{"internalType":"uint256","name":"tokenId","type":"uint256"}],"name":"approvePositionManager","outputs":[],"stateMutability":"nonpayable","type":"function"},{"inputs":[{"internalType":"uint256","name":"tokenId","type":"uint256"}],"name":"collectFees","outputs":[{"internalType":"uint256","name":"amount0","type":"uint256"},{"internalType":"uint256","name":"amount1","type":"uint256"}],"stateMutability":"nonpayable","type":"function"},{"inputs":[],"name":"fee","outputs":[{"internalType":"uint24","name":"","type":"uint24"}],"stateMutability":"view","type":"function"},{"inputs":[],"name":"getAllTransactionHistory","outputs":[{"components":[{"internalType":"uint256","name":"id","type":"uint256"},{"internalType":"enum Add_Swap_Contract.TransactionType","name":"transactionType","type":"uint8"},{"internalType":"string","name":"fromToken","type":"string"},{"internalType":"string","name":"toToken","type":"string"},{"internalType":"uint256","name":"fromAmount","type":"uint256"},{"internalType":"uint256","name":"toAmount","type":"uint256"},{"internalType":"uint256","name":"timestamp","type":"uint256"},{"internalType":"bytes32","name":"hash","type":"bytes32"},{"internalType":"string","name":"status","type":"string"}],"internalType":"struct Add_Swap_Contract.Transaction[]","name":"","type":"tuple[]"}],"stateMutability":"view","type":"function"},{"inputs":[],"name":"getCurrentTick","outputs":[{"internalType":"int24","name":"tick","type":"int24"}],"stateMutability":"view","type":"function"},{"inputs":[],"name":"getPool","outputs":[{"internalType":"address","name":"","type":"address"}],"stateMutability":"view","type":"function"},{"inputs":[],"name":"getPoolBalances","outputs":[{"internalType":"uint256","name":"bal0","type":"uint256"},{"internalType":"uint256","name":"bal1","type":"uint256"}],"stateMutability":"view","type":"function"},{"inputs":[],"name":"getPoolInfo","outputs":[{"internalType":"uint160","name":"sqrtPriceX96","type":"uint160"},{"internalType":"int24","name":"tick","type":"int24"},{"internalType":"uint128","name":"liquidity","type":"uint128"}],"stateMutability":"view","type":"function"},{"inputs":[{"internalType":"uint256","name":"tokenId","type":"uint256"}],"name":"getPosition","outputs":[{"internalType":"uint128","name":"liquidity","type":"uint128"}],"stateMutability":"view","type":"function"},{"inputs":[{"internalType":"uint256","name":"tokenId","type":"uint256"}],"name":"getPositionDetails","outputs":[{"internalType":"address","name":"positionToken0","type":"address"},{"internalType":"address","name":"positionToken1","type":"address"},{"internalType":"uint128","name":"liquidity","type":"uint128"},{"internalType":"uint256","name":"feeGrowthInside0LastX128","type":"uint256"},{"internalType":"uint256","name":"feeGrowthInside1LastX128","type":"uint256"},{"internalType":"uint128","name":"tokensOwed0","type":"uint128"},{"internalType":"uint128","name":"tokensOwed1","type":"uint128"}],"stateMutability":"view","type":"function"},{"inputs":[{"internalType":"uint256","name":"tokenId","type":"uint256"}],"name":"getPositionFees","outputs":[{"internalType":"uint256","name":"fees0","type":"uint256"},{"internalType":"uint256","name":"fees1","type":"uint256"}],"stateMutability":"view","type":"function"},{"inputs":[],"name":"getTokenPrice","outputs":[{"internalType":"uint256","name":"price","type":"uint256"}],"stateMutability":"view","type":"function"},{"inputs":[],"name":"getUserPositions","outputs":[{"internalType":"uint256[]","name":"","type":"uint256[]"}],"stateMutability":"view","type":"function"},{"inputs":[],"name":"getUserTransactionHistory","outputs":[{"components":[{"internalType":"uint256","name":"id","type":"uint256"},{"internalType":"enum Add_Swap_Contract.TransactionType","name":"transactionType","type":"uint8"},{"internalType":"string","name":"fromToken","type":"string"},{"internalType":"string","name":"toToken","type":"string"},{"internalType":"uint256","name":"fromAmount","type":"uint256"},{"internalType":"uint256","name":"toAmount","type":"uint256"},{"internalType":"uint256","name":"timestamp","type":"uint256"},{"internalType":"bytes32","name":"hash","type":"bytes32"},{"internalType":"string","name":"status","type":"string"}],"internalType":"struct Add_Swap_Contract.Transaction[]","name":"","type":"tuple[]"}],"stateMutability":"view","type":"function"},{"inputs":[{"internalType":"address","name":"user","type":"address"},{"internalType":"uint256","name":"tokenId","type":"uint256"}],"name":"ownsPosition","outputs":[{"internalType":"bool","name":"","type":"bool"}],"stateMutability":"view","type":"function"},{"inputs":[],"name":"pool","outputs":[{"internalType":"contract IUniswapV3Pool","name":"","type":"address"}],"stateMutability":"view","type":"function"},{"inputs":[],"name":"positionManager","outputs":[{"internalType":"contract INonfungiblePositionManager","name":"","type":"address"}],"stateMutability":"view","type":"function"},{"inputs":[{"internalType":"uint256","name":"tokenId","type":"uint256"},{"internalType":"uint128","name":"liquidity","type":"uint128"}],"name":"removeLiquidity","outputs":[{"internalType":"uint256","name":"amount0","type":"uint256"},{"internalType":"uint256","name":"amount1","type":"uint256"}],"stateMutability":"nonpayable","type":"function"},{"inputs":[{"internalType":"address","name":"inputToken","type":"address"},{"internalType":"address","name":"outputToken","type":"address"},{"internalType":"uint256","name":"amountIn","type":"uint256"}],"name":"swapExactInputSingle","outputs":[{"internalType":"uint256","name":"amountOut","type":"uint256"}],"stateMutability":"nonpayable","type":"function"},{"inputs":[],"name":"swapRouter","outputs":[{"internalType":"contract ISwapRouter","name":"","type":"address"}],"stateMutability":"view","type":"function"},{"inputs":[],"name":"token0","outputs":[{"internalType":"address","name":"","type":"address"}],"stateMutability":"view","type":"function"},{"inputs":[],"name":"token1","outputs":[{"internalType":"address","name":"","type":"address"}],"stateMutability":"view","type":"function"}],"evm":{"bytecode":{"linkReferences":{},"object":"60e06040523462000102576200001f62000018620001c6565b9162000357565b604051613c406200052c8239608051818181610a520152818161303f0152613120015260a05181818161082c015281816118a80152818161192201528181611c8001528181611d6101528181611fae0152818161252c015281816127b1015281816128a901528181612b2401528181612b7101528181612c5501528181612cd5015281816134d6015281816135d101526136b9015260c0518181816102b001528181610eaa0152818161149e015281816115ce015281816116b00152818161173c015281816117880152818161200d0152818161206401526138030152613c4090f35b600080fd5b634e487b7160e01b600052604160045260246000fd5b90601f01601f191681019081106001600160401b038211176200013f57604052565b62000107565b906200015c6200015460405190565b92836200011d565b565b6001600160a01b031690565b90565b6001600160a01b0381165b036200010257565b905051906200015c826200016d565b909160608284031262000102576200016a620001ac848462000180565b93620001bc816020860162000180565b9360400162000180565b620001e96200416c80380380620001dd8162000145565b9283398101906200018f565b909192565b9062ffffff60a01b9060a01b5b9181191691161790565b620002156200016a6200016a9290565b62ffffff1690565b90620002316200016a620002399262000205565b8254620001ee565b9055565b6200016a906200015e906001600160a01b031682565b6200016a906200023d565b6200016a9062000253565b516001600160a01b031690565b9060208282031262000102576200016a9162000180565b6040513d6000823e3d90fd5b906001600160a01b0390620001fb565b90620002bd6200016a62000239926200025e565b825462000299565b62ffffff811662000178565b905051906200015c82620002c5565b9060208282031262000102576200016a91620002d1565b620002156200016a6200016a9262ffffff1690565b90620002316200016a6200023992620002f7565b6200016a6200016a6200016a9290565b9060001990620001fb565b906200034f6200016a620002399262000320565b825462000330565b6200038d92916200037b6200038492620003756101f460016200021d565b6200025e565b6080526200025e565b60a0526200025e565b60c052620003bf6020620003a66200037560c062000269565b630dfe168190620003b660405190565b93849260e01b90565b825260049082905afa8015620004cd57620003e69160009162000508575b506000620002a9565b6200040c6020620003fc6200037560c062000269565b63d21220a790620003b660405190565b825260049082905afa8015620004cd576200043391600091620004d3575b506001620002a9565b620004596020620004496200037560c062000269565b63ddca3f4390620003b660405190565b825260049082905afa8015620004cd57620004809160009162000498575b5060016200030c565b6200015c62000490600162000320565b60046200033b565b620004be915060203d8111620004c5575b620004b581836200011d565b810190620002e0565b3862000477565b503d620004a9565b6200028d565b620004f9915060203d811162000500575b620004f081836200011d565b81019062000276565b386200042a565b503d620004e4565b62000524915060203d81116200050057620004f081836200011d565b38620003dd56fe6080604052600436101561001257600080fd5b60003560e01c8063026b1d5f146101b25780630dfe1681146101ad57806316f0115b146101a85780634abf5dc1146101a35780634b94f50e1461019e57806352375bb11461019957806353aad1d91461019457806360246c881461018f578063630797031461018a57806365e34c0914610185578063784394bc14610180578063791b98bc1461017b578063911757ba14610176578063972960c5146101715780639cd441da1461016c5780639ecceb5e14610167578063a3a8d0b614610162578063b17acdcd1461015d578063c31c9c0714610158578063c979affb14610153578063ceb920121461014e578063d21220a714610149578063d7ff071414610144578063ddca3f431461013f578063eb02c3011461013a5763fa1b8025036101c257610e86565b610df5565b610dc4565b610d65565b610ae9565b610ac1565b610a76565b610a3d565b610a25565b6109f7565b61098d565b6108ec565b6108b1565b610898565b610817565b6107f0565b610610565b610591565b610553565b6104e1565b6104b3565b610475565b610451565b61029b565b61023f565b6101dc565b60009103126101c257565b600080fd5b6001600160a01b031690565b90565b9052565b565b346101c2576101ec3660046101b7565b6102116101f7610ea5565b604051918291826001600160a01b03909116815260200190565b0390f35b6101d3916008021c6001600160a01b031690565b906101d39154610215565b6101d3600080610229565b346101c25761024f3660046101b7565b6102116101f7610234565b6101c76101d36101d3926001600160a01b031690565b6101d39061025a565b6101d390610270565b6101d690610279565b6020810192916101da9190610282565b346101c2576102ab3660046101b7565b6102117f00000000000000000000000000000000000000000000000000000000000000005b6040519182918261028b565b600211156101c257565b905035906101da826102dc565b634e487b7160e01b600052604160045260246000fd5b90601f01601f1916810190811067ffffffffffffffff82111761032b57604052565b6102f3565b906101da61033d60405190565b9283610309565b67ffffffffffffffff811161032b57602090601f01601f19160190565b0190565b90826000939282370152565b9092919261038661038182610344565b610330565b938185526020850190828401116101c2576101da92610365565b9080601f830112156101c2578160206101d393359101610371565b805b036101c257565b905035906101da826103bb565b909160c0828403126101c2576103e783836102e6565b92602083013567ffffffffffffffff81116101c257816104089185016103a0565b92604081013567ffffffffffffffff81116101c257826104299183016103a0565b926101d361043a84606085016103c4565b9361044881608086016103c4565b9360a0016103c4565b346101c2576104706104643660046103d1565b9493909392919261127c565b604051005b346101c2576104853660046101b7565b610211610490611494565b6040519182918290815260200190565b9081526040810192916101da9160200152565b346101c2576104c33660046101b7565b6104cb6115a6565b906102116104d860405190565b928392836104a0565b346101c2576104f13660046101b7565b6102116104fc6116a6565b6040519182918260029190910b815260200190565b6001600160a01b0390911681526060810193926101da92909160409161053b9060020b6020830152565b01906fffffffffffffffffffffffffffffffff169052565b346101c2576105633660046101b7565b61021161056e611732565b60405191939193849384610511565b906020828203126101c2576101d3916103c4565b346101c2576104706105a436600461057d565b61189e565b906105c96105c26105b8845190565b8084529260200190565b9260200190565b9060005b8181106105da5750505090565b9091926105f76105f06001928651815260200190565b9460200190565b9291016105cd565b60208082526101d3929101906105a9565b346101c2576106203660046101b7565b61021161062b611a66565b604051918291826105ff565b634e487b7160e01b600052602160045260246000fd5b6002111561065757565b610637565b906101da8261064d565b6101d39061065c565b6101d690610666565b60005b83811061068b5750506000910152565b818101518382015260200161067b565b6106bc6106c5602093610361936106b0815190565b80835293849260200190565b95869101610678565b601f01601f191690565b805182526101d39161010061071b61070961012084016106f76020870151602087019061066f565b6040860151858203604087015261069b565b6060850151848203606086015261069b565b9261072b60808201516080850152565b61073a60a082015160a0850152565b61074960c082015160c0850152565b61075860e082015160e0850152565b01519061010081840391015261069b565b906101d3916106cf565b9061078961077f835190565b8083529160200190565b908161079b6020830284019460200190565b926000915b8383106107af57505050505090565b909192939460206107d26107cb83856001950387528951610769565b9760200190565b93019301919392906107a0565b60208082526101d392910190610773565b346101c2576108003660046101b7565b61021161080b611bd1565b604051918291826107df565b346101c2576108273660046101b7565b6102117f00000000000000000000000000000000000000000000000000000000000000006102d0565b6fffffffffffffffffffffffffffffffff81166103bd565b905035906101da82610850565b91906040838203126101c2576101d39061088f81856103c4565b93602001610868565b346101c2576104cb6108ab366004610875565b90611c74565b346101c2576104cb6108c436600461057d565b611f95565b91906040838203126101c2576101d3906108e381856103c4565b936020016103c4565b346101c2576102116104906109023660046108c9565b9061241d565b949290979695939160e08601986000870161092a916001600160a01b03169052565b6001600160a01b031660208601526fffffffffffffffffffffffffffffffff166040850152606084015260808301526fffffffffffffffffffffffffffffffff1660a082015260c0016101da916fffffffffffffffffffffffffffffffff169052565b346101c2576102116109a86109a336600461057d565b612948565b936109b897959793919360405190565b97889788610908565b6001600160a01b0381166103bd565b905035906101da826109c1565b91906040838203126101c2576101d3906108e381856109d0565b346101c257610211610a13610a0d3660046109dd565b906129d2565b60405191829182901515815260200190565b346101c2576104cb610a3836600461057d565b612b1a565b346101c257610a4d3660046101b7565b6102117f00000000000000000000000000000000000000000000000000000000000000006102d0565b346101c257610a863660046101b7565b61021161080b612dad565b90916060828403126101c2576101d3610aaa84846109d0565b93610ab881602086016109d0565b936040016103c4565b346101c257610211610490610ad7366004610a91565b91612f80565b6101d360006001610229565b346101c257610af93660046101b7565b6102116101f7610add565b634e487b7160e01b600052603260045260246000fd5b8054821015610b3d57610b34600991600052602060002090565b91020190600090565b610b04565b6101d39081565b6101d39054610b42565b6101d3905b60ff1690565b6101d39054610b53565b634e487b7160e01b600052602260045260246000fd5b9060016002830492168015610b9e575b6020831014610b9957565b610b68565b91607f1691610b8e565b80546000939291610bc5610bbb83610b7e565b8085529360200190565b9160018116908115610c175750600114610bde57505050565b610bf19192939450600052602060002090565b916000925b818410610c035750500190565b805484840152602090930192600101610bf6565b92949550505060ff1916825215156020020190565b906101d391610ba8565b906101da610c5092610c4760405190565b93848092610c2c565b0383610309565b600590610c62825490565b8110156101c257610c7291610b1a565b50610c7c81610b49565b91610c8960018301610b5e565b91610c9660028201610c36565b91610ca360038301610c36565b91610cb060048201610b49565b91610cbd60058301610b49565b91610cca60068201610b49565b916101d36008610cdc60078501610b49565b9301610c36565b95610d42610d3a610d57979a96610d2c610d4995610d50986101d39f9d98610d1f9060208f610d186101208201966000830152565b019061066f565b8c820360408e015261069b565b908a820360608c015261069b565b996080890152565b60a0870152565b60c0850152565b60e0830152565b61010081840391015261069b565b346101c257610211610d80610d7b36600461057d565b610c57565b95610d9399979995919594929460405190565b998a998a610ce3565b6101d3916008021c5b62ffffff1690565b906101d39154610d9c565b6101d360146001610dad565b346101c257610dd43660046101b7565b610211610ddf610db8565b6040519182918262ffffff909116815260200190565b346101c257610211610e10610e0b36600461057d565b61330c565b604051918291826fffffffffffffffffffffffffffffffff909116815260200190565b6103bd8160020b90565b905035906101da82610e33565b6080818303126101c257610e5e82826103c4565b926101d3610e6f84602085016103c4565b93610e7d8160408601610e3d565b93606001610e3d565b346101c257610211610490610e9c366004610e4a565b929190916133a5565b6101d37f0000000000000000000000000000000000000000000000000000000000000000610279565b6101d3610120610330565b906101d69061065c565b90610ef061038183610344565b918252565b610eff6009610ee3565b7f636f6e6669726d65640000000000000000000000000000000000000000000000602082015290565b6101d3610ef5565b634e487b7160e01b600052600060045260246000fd5b90600019905b9181191691161790565b6101d36101d36101d39290565b90610f736101d3610f7a92610f56565b8254610f46565b9055565b6101d3905161065c565b9060ff90610f4c565b90610fa16101d3610f7a92610666565b8254610f88565b91906008610f4c910291610fbd600019841b90565b921b90565b9190610fd36101d3610f7a93610f56565b908354610fa8565b6101da91600091610fc2565b818110610ff2575050565b806110006000600193610fdb565b01610fe7565b9190601f811161101557505050565b6110276101da93600052602060002090565b906020601f840181900483019310611049575b6020601f909101040190610fe7565b909150819061103a565b9061105c815190565b9067ffffffffffffffff821161032b576110808261107a8554610b7e565b85611006565b602090601f83116001146110bb57610f7a9291600091836110b0575b5050600019600883021c1916906002021790565b01519050388061109c565b601f198316916110d085600052602060002090565b9260005b81811061110e575091600293918560019694106110f5575b50505002019055565b01516000196008601f8516021c191690553880806110ec565b919360206001819287870151815501950192016110d4565b906101da91611053565b90610f736101d3610f7a9290565b6101da919061118b90610100906008906111608161115a875190565b90610f63565b6111796001820161117360208801610f7e565b90610f91565b6111916002820161118b604088015190565b90611126565b6111a36003820161118b606088015190565b6111b56004820161115a608088015190565b6111c76005820161115a60a088015190565b6111d96006820161115a60c088015190565b6111f1600782016111eb60e088015190565b90611130565b0192015190565b9190611207576101da9161113e565b610f30565b908154916801000000000000000083101561032b57826112349160016101da95018155610b1a565b906111f8565b9061124490610279565b600052602052604060002090565b634e487b7160e01b600052601160045260246000fd5b60001981146112775760010190565b611252565b939291909161128b6004610b49565b9386934293919291908761129d610ece565b9788526112ad9060208901610ed9565b60408701526060860152608085015260a084015260c083015260e08201526112d3610f28565b6101008201526112e481600561120c565b6112ef33600261123a565b816112f99161120c565b6113036004610b49565b61130c90611268565b611317906004610f63565b519033917f19c7fb851f92c8d4f19411743a614909b5753cf16d0ef77d269c04e51eaa7f0e9061134690610f56565b9161135090610666565b9261135a90610279565b9361136460405190565b908152602090a4565b905051906101da826109c1565b905051906101da82610e33565b61ffff81166103bd565b905051906101da82611387565b60ff81166103bd565b905051906101da8261139e565b8015156103bd565b905051906101da826113b4565b60e0818303126101c2576113dd828261136d565b926113eb836020840161137a565b926113f98160408501611391565b926114078260608301611391565b926101d36114188460808501611391565b936114268160a086016113a7565b9360c0016113bc565b6040513d6000823e3d90fd5b6101d36101d36101d3926001600160a01b031690565b8181029291811591840414171561127757565b634e487b7160e01b600052601260045260246000fd5b90611484565b9190565b90811561148f570490565b611464565b6114da60e06114c27f0000000000000000000000000000000000000000000000000000000000000000610279565b633850c7bd906114d160405190565b93849260e01b90565b825260049082905afa90811561156d576101d3916115139160009161153b575b5061150d6115078261143b565b9161143b565b90611451565b6115357801000000000000000000000000000000000000000000000000610f56565b9061147a565b61155c915060e03d8111611566575b6115548183610309565b8101906113c9565b50505050506114fa565b503d61154a565b61142f565b6101d3906101c7565b6101d39054611572565b905051906101da826103bb565b906020828203126101c2576101d391611585565b61162060206115c06115bb6115bb600061157b565b610279565b6370a08231906116096115f27f0000000000000000000000000000000000000000000000000000000000000000610279565b926115fc60405190565b9586948593849360e01b90565b83526001600160a01b031660048301526024820190565b03915afa90811561156d57600091611688575b509061164a60206115c06115bb6115bb600161157b565b03915afa90811561156d57600091611660575090565b6101d3915060203d8111611681575b6116798183610309565b810190611592565b503d61166f565b6116a0915060203d8111611681576116798183610309565b38611633565b6116d460e06114c27f0000000000000000000000000000000000000000000000000000000000000000610279565b825260049082905afa90811561156d576000916116ef575090565b611707915060e03d8111611566576115548183610309565b5050505050905090565b905051906101da82610850565b906020828203126101c2576101d391611711565b61176060e06114c27f0000000000000000000000000000000000000000000000000000000000000000610279565b825260049082905afa90811561156d576000809190926117fe575b5090916117bb60206117ac7f0000000000000000000000000000000000000000000000000000000000000000610279565b631a686502906114d160405190565b825260049082905afa90811561156d576000916117d6575090565b6101d3915060203d81116117f7575b6117ef8183610309565b81019061171e565b503d6117e5565b9050611818915060e03d8111611566576115548183610309565b5050505061177b565b906020828203126101c2576101d39161136d565b1561183c57565b60405162461bcd60e51b815260206004820152601260248201527f4e6f7420706f736974696f6e206f776e657200000000000000000000000000006044820152606490fd5b6001600160a01b0390911681526040810192916101da9160200152565b6118ee60206118cc7f0000000000000000000000000000000000000000000000000000000000000000610279565b636352211e906118e085926115fc60405190565b835260048301526024820190565b03915afa801561156d5761191d916000916119b3575b50611917335b916001600160a01b031690565b14611835565b6119467f0000000000000000000000000000000000000000000000000000000000000000610279565b9063095ea7b39061195630610279565b9092803b156101c25761197f6000809461198a61197260405190565b9788968795869460e01b90565b845260048401611881565b03925af1801561156d5761199b5750565b6101da9060006119ab8183610309565b8101906101b7565b6119d4915060203d81116119da575b6119cc8183610309565b810190611821565b38611904565b503d6119c2565b906119fc6119f06105b8845490565b92600052602060002090565b9060005b818110611a0d5750505090565b909192611a31611a2a600192611a2287610b49565b815260200190565b9460010190565b929101611a00565b906101d3916119e1565b906101da610c5092611a5460405190565b93848092611a39565b6101d390611a43565b6101d3611a7433600361123a565b611a5d565b67ffffffffffffffff811161032b5760208091020190565b90610ef061038183611a79565b906101da611b626008611aaf610ece565b94611ac0611abc82610b49565b8752565b611ad8611acf60018301610b5e565b60208801610ed9565b611aee611ae760028301610c36565b6040880152565b611b04611afd60038301610c36565b6060880152565b611b1a611b1360048301610b49565b6080880152565b611b30611b2960058301610b49565b60a0880152565b611b46611b3f60068301610b49565b60c0880152565b611b5c611b5560078301610b49565b60e0880152565b01610c36565b610100840152565b6101d390611a9e565b90611b7c825490565b611b8581611a91565b92611b996020850191600052602060002090565b6000915b838310611baa5750505050565b60096020600192611bba85611b6a565b815201920192019190611b9d565b6101d390611b73565b6101d36005611bc8565b9190820180921161127757565b6101d360a0610330565b91906040838203126101c2576101d390611c0c8185611585565b93602001611585565b805182526101da919060809081906020818101516fffffffffffffffffffffffffffffffff1690850152611c4e60408201516040860152565b611c5d60608201516060860152565b0151910152565b60a0810192916101da9190611c15565b91611cc5916020611ca47f0000000000000000000000000000000000000000000000000000000000000000610279565b636352211e906118e08792611cb860405190565b9788948593849360e01b90565b03915afa90811561156d57611ceb604092611db0956000916119b357506119173361190a565b611d5c8591611d55611d4e6000611d43611d48600092611d43611d1942611d1361012c610f56565b90611bdb565b97611d2a611d25611be8565b9b8c52565b6fffffffffffffffffffffffffffffffff1660208b0152565b610f56565b88880152565b6060850152565b6080830152565b611d857f0000000000000000000000000000000000000000000000000000000000000000610279565b611da56000630c49ccbe611d9860405190565b9788958694859360e01b90565b835260048301611c64565b03925af191821561156d57600080919093611e34575b506040611df8919394611dd830610279565b6118e0600063b17acdcd611deb60405190565b9687958694859360e01b90565b03925af1801561156d57611e095750565b611e299060403d8111611e2d575b611e218183610309565b810190611bf2565b5050565b503d611e17565b60409350611df89150611e5390843d8111611e2d57611e218183610309565b915092611dc6565b6bffffffffffffffffffffffff81166103bd565b905051906101da82611e5b565b62ffffff81166103bd565b905051906101da82611e7c565b9091610180828403126101c257611eab8383611e6f565b92611eb9816020850161136d565b92611ec7826040830161136d565b92611ed5836060840161136d565b92611ee38160808501611e87565b92611ef18260a0830161137a565b92611eff8360c0840161137a565b92611f0d8160e08501611711565b92611f1c826101008301611585565b926101d3611f2e846101208501611585565b93611f3d816101408601611711565b9361016001611711565b6101d36101d36101d3926fffffffffffffffffffffffffffffffff1690565b611f736101d36101d39290565b6fffffffffffffffffffffffffffffffff1690565b9190820391821161127757565b610180611fe391611fa4600090565b5060005b50611fd27f0000000000000000000000000000000000000000000000000000000000000000610279565b6118e06399fbab886115fc60405190565b03915afa91821561156d5760009283928391829182916121bc575b509194909361204060206120317f0000000000000000000000000000000000000000000000000000000000000000610279565b63f3058399906114d160405190565b825260049082905afa90811561156d5760009161219e575b509561209760206120887f0000000000000000000000000000000000000000000000000000000000000000610279565b6346141319906114d160405190565b825260049082905afa801561156d576120b991600091612180575b5096611f47565b96846120de6120c86000611f66565b916fffffffffffffffffffffffffffffffff1690565b11612151575b50506120ef90611f47565b93826120fe6120c86000611f66565b1161210857505050565b61214761212d6101d395969461150d612127611d139661214c96611f88565b91611f47565b611535700100000000000000000000000000000000610f56565b611f66565b611f47565b96611d1361214c61214761212d61216f612178966120ef989d611f88565b61150d8a611f47565b9590386120e4565b612198915060203d8111611681576116798183610309565b386120b2565b6121b6915060203d8111611681576116798183610309565b38612058565b9395505050506121e491506101803d81116121f5575b6121dc8183610309565b810190611e94565b9a5096509997509550925050611ffe565b503d6121d2565b1561220357565b60405162461bcd60e51b815260206004820152601c60248201527f4d7573742070726f76696465206e6f6e2d7a65726f20616d6f756e74000000006044820152606490fd5b906020828203126101c2576101d3916113bc565b6001600160a01b039182168152911660208201526060810192916101da9160400152565b6101d39060a01c610da5565b6101d39054612280565b6101d3610160610330565b6080818303126101c2576122b58282611585565b926101d36122c68460208501611711565b936122d48160408601611585565b93606001611585565b80516001600160a01b031682526101da91906101409081906020818101516001600160a01b03169085015260408181015162ffffff169085015260608181015160020b9085015260808181015160020b9085015261234060a082015160a0860152565b61234f60c082015160c0860152565b61235e60e082015160e0860152565b61236f610100820151610100860152565b610120818101516001600160a01b031690850152611c5d565b610160810192916101da91906122dd565b8054821015610b3d57610b34600191600052602060002090565b908154916801000000000000000083101561032b57826123db9160016101da95018155612399565b90610fc2565b6101d6906001600160a01b031660601b90565b60206103619461241782809998959661241760148761241761241799869c6123e1565b01918252565b8061242b6114806000610f56565b11801561292e575b61243c906121fc565b8061244a6114806000610f56565b11612846575b8161245e6114806000610f56565b11612736575b61246c6137f9565b612476600061157b565b91612481600161157b565b9161248c600161228c565b339260009283928992899291426124a461012c610f56565b6124ad91611bdb565b986124b6612296565b6001600160a01b03909b168b526001600160a01b031660208b015262ffffff1660408a015260020b606089015260020b608088015260a087015260c08601526124fe90610f56565b60e085015261250c90610f56565b6101008401526001600160a01b03166101208301526101408201526125507f0000000000000000000000000000000000000000000000000000000000000000610279565b638831645661255e60405190565b809361256b829360e01b90565b825261257a9060048301612388565b03815a608094600091f190811561156d57600091612707575b50916125a033600361123a565b836125aa916123b3565b334283918386906125ba60405190565b9485946125ca94602087016123f4565b6020820181038252036125dd9082610309565b805190602001206125ee6004610b49565b926000926125fc600061157b565b61260590613948565b91612610600161157b565b61261990613948565b909192429495612627610ece565b9788526126379060208901610ed9565b60408701526060860152608085015260a084015260c083015260e082015261265d610f28565b61010082015261266e81600561120c565b61267933600261123a565b816126839161120c565b61268d6004610b49565b61269690611268565b6126a1906004610f63565b805160009160e0016126b1905190565b9133917f19c7fb851f92c8d4f19411743a614909b5753cf16d0ef77d269c04e51eaa7f0e906126df90610f56565b916126e990610666565b926126f390610279565b936126fd60405190565b908152602090a490565b612728915060803d811161272f575b6127208183610309565b8101906122a1565b5050612593565b503d612716565b6127466115bb6115bb600161157b565b60206323b872dd913390612779600061275e30610279565b956127848961276c60405190565b9889978896879560e01b90565b85526004850161225c565b03925af1801561156d5761282a575b506127a46115bb6115bb600161157b565b602063095ea7b3916127d57f0000000000000000000000000000000000000000000000000000000000000000610279565b9061197f600087956127e961197260405190565b03925af1801561156d576127fe575b50612464565b61281e9060203d8111612823575b6128168183610309565b810190612248565b6127f8565b503d61280c565b6128419060203d8111612823576128168183610309565b612793565b6128566115bb6115bb600061157b565b60206323b872dd913390612779600061286e30610279565b9561287c8861276c60405190565b03925af1801561156d57612912575b5061289c6115bb6115bb600061157b565b602063095ea7b3916128cd7f0000000000000000000000000000000000000000000000000000000000000000610279565b9061197f600086956128e161197260405190565b03925af1801561156d576128f6575b50612450565b61290d9060203d8111612823576128168183610309565b6128f0565b6129299060203d8111612823576128168183610309565b61288b565b5061243c826129406114806000610f56565b119050612433565b61018061295f91612957600090565b506000611fa4565b03915afa90811561156d57600091829182918291829182918291612988575b5090919293949596565b955050505050506129a891506101803d81116121f5576121dc8183610309565b945094509450949650949661297e565b906129c1825190565b811015610b3d576020809102010190565b611a746129e9916129e1600090565b50600361123a565b906129f46000610f56565b80612a036114806101d3865190565b1015612a3057612a1a612a1682856129b8565b5190565b8214612a28576001016129f4565b505050600190565b505050600090565b15612a3f57565b60405162461bcd60e51b815260206004820152602d60248201527f436f6e7472616374206e6f7420617070726f76656420746f206d616e6167652060448201527f7468697320706f736974696f6e000000000000000000000000000000000000006064820152608490fd5b6101d36080610330565b805182526020808201516001600160a01b0316908301526101da919060609081906040818101516fffffffffffffffffffffffffffffffff169085015201516fffffffffffffffffffffffffffffffff16910152565b6080810192916101da9190612ab4565b612b4860206118cc7f0000000000000000000000000000000000000000000000000000000000000000610279565b03915afa801561156d57612b67916000916119b357506119173361190a565b612ba96020612b957f0000000000000000000000000000000000000000000000000000000000000000610279565b63081812fc906118e085926115fc60405190565b03915afa90811561156d57600091612d8f575b50612bcc61190a6101c730610279565b148015612ccf575b612c9791612be3604092612a38565b612c506fffffffffffffffffffffffffffffffff612c3781612c1f33612c0f612c0a612aaa565b978852565b6001600160a01b03166020870152565b6fffffffffffffffffffffffffffffffff1684860152565b6fffffffffffffffffffffffffffffffff166060830152565b612c797f0000000000000000000000000000000000000000000000000000000000000000610279565b612c8c600063fc6f7865611deb60405190565b835260048301612b0a565b03925af190811561156d57600080919092612cb157509091565b9050612ccb915060403d8111611e2d57611e218183610309565b9091565b50612cf97f0000000000000000000000000000000000000000000000000000000000000000610279565b90602063e985e9c5923390612d2a612d1030610279565b95612d49612d1d60405190565b9788958694859460e01b90565b84526001600160a01b0390811660048501521660248301526044820190565b03915afa90811561156d57612be3604092612c9794600091612d71575b509250509150612bd4565b612d89915060203d8111612823576128168183610309565b38612d66565b612da7915060203d81116119da576119cc8183610309565b38612bbc565b6101d3612dbb33600261123a565b611bc8565b15612dc757565b60405162461bcd60e51b815260206004820152601360248201527f496e76616c696420696e70757420746f6b656e000000000000000000000000006044820152606490fd5b15612e1357565b60405162461bcd60e51b815260206004820152601460248201527f496e76616c6964206f757470757420746f6b656e0000000000000000000000006044820152606490fd5b15612e5f57565b60405162461bcd60e51b815260206004820152601660248201527f43616e6e6f7420737761702073616d6520746f6b656e000000000000000000006044820152606490fd5b6101d3610100610330565b6101c76101d36101d39290565b80516001600160a01b031682526101da919060e09081906020818101516001600160a01b03169085015260408181015162ffffff16908501526060808201516001600160a01b031690850152612f1760808201516080860152565b612f2660a082015160a0860152565b612f3560c082015160c0860152565b01516001600160a01b0316910152565b610100810192916101da9190612ebc565b601461036194612f7860208396612f78858761241761241799869f9e9b6123e1565b0180926123e1565b90919080612f9461190a6101c7600061157b565b1480156132ef575b612fa590612dc0565b82612fb661190a6101c7600061157b565b1480156132d2575b612fc790612e0c565b612fe481612fdd6001600160a01b03861661190a565b1415612e58565b612ff06115bb82610279565b60206323b872dd913390612779600061300830610279565b956130168961276c60405190565b03925af1801561156d576132b6575b506130326115bb82610279565b602063095ea7b3916130637f0000000000000000000000000000000000000000000000000000000000000000610279565b9061197f6000879561307761197260405190565b03925af1801561156d5761329a575b508083613093600161228c565b33426130a061012c610f56565b6130a991611bdb565b86916000936000956130b9612ea4565b6001600160a01b0390981688526001600160a01b0316602088015262ffffff1660408701526001600160a01b03166060860152608085015260a08401526130ff90610f56565b60c083015261310d90612eaf565b6001600160a01b031660e08201526131447f0000000000000000000000000000000000000000000000000000000000000000610279565b63414bf38961315260405190565b809361315f829360e01b90565b825261316e9060048301612f45565b03815a602094600091f190811561156d5760009161327c575b50923342839183869061319960405190565b9485946131a99460208701612f56565b6020820181038252036131bc9082610309565b80519060200120906131ce6004610b49565b936001936131db90613948565b916131e590613948565b86924294956131f2610ece565b9788526132029060208901610ed9565b60408701526060860152608085015260a084015260c083015260e0820152613228610f28565b61010082015261323981600561120c565b61324433600261123a565b8161324e9161120c565b6132586004610b49565b61326190611268565b61326c906004610f63565b805160019160e0016126b1905190565b613294915060203d8111611681576116798183610309565b38613187565b6132b19060203d8111612823576128168183610309565b613086565b6132cd9060203d8111612823576128168183610309565b613025565b50612fc7836132e761190a6101c7600161157b565b149050612fbe565b50612fa58161330461190a6101c7600161157b565b149050612f9c565b61018061331b91611fa8600090565b03915afa90811561156d57600091613331575090565b61334a91506101803d81116121f5576121dc8183610309565b50505050965050505050505090565b1561336057565b60405162461bcd60e51b815260206004820152601260248201527f496e76616c6964207469636b2072616e676500000000000000000000000000006044820152606490fd5b9190926133b0600090565b50826133bf6114806000610f56565b11801561373e575b6133d0906121fc565b6133ee826133e86133e18460020b90565b9160020b90565b12613359565b826133fc6114806000610f56565b11613656575b836134106114806000610f56565b1161356e575b613420600061157b565b9161342b600161157b565b91613436600161228c565b3392600092839289928992914261344e61012c610f56565b61345791611bdb565b98613460612296565b6001600160a01b03909b168b526001600160a01b031660208b015262ffffff1660408a015260020b606089015260020b608088015260a087015260c08601526134a890610f56565b60e08501526134b690610f56565b6101008401526001600160a01b03166101208301526101408201526134fa7f0000000000000000000000000000000000000000000000000000000000000000610279565b638831645661350860405190565b8093613515829360e01b90565b82526135249060048301612388565b03815a608094600091f190811561156d5760009161354f575b5091334283918386906125ba60405190565b613567915060803d811161272f576127208183610309565b505061353d565b61357e6115bb6115bb600161157b565b60206323b872dd913390612779600061359630610279565b956135a48b61276c60405190565b03925af1801561156d5761363a575b506135c46115bb6115bb600161157b565b602063095ea7b3916135f57f0000000000000000000000000000000000000000000000000000000000000000610279565b9061197f6000899561360961197260405190565b03925af1801561156d5761361e575b50613416565b6136359060203d8111612823576128168183610309565b613618565b6136519060203d8111612823576128168183610309565b6135b3565b6136666115bb6115bb600061157b565b60206323b872dd913390612779600061367e30610279565b9561368c8a61276c60405190565b03925af1801561156d57613722575b506136ac6115bb6115bb600061157b565b602063095ea7b3916136dd7f0000000000000000000000000000000000000000000000000000000000000000610279565b9061197f600088956136f161197260405190565b03925af1801561156d57613706575b50613402565b61371d9060203d8111612823576128168183610309565b613700565b6137399060203d8111612823576128168183610309565b61369b565b506133d0846137506114806000610f56565b1190506133c7565b6137656101d36101d39290565b60020b90565b6137779060020b6133e1565b900390627fffff8213627fffff1983121761127757565b61379a9060020b6133e1565b90811561148f57627fffff198114600019831416611277570590565b6137c29060020b6133e1565b02906137ce8260020b90565b91820361127757565b6137e39060020b6133e1565b0190627fffff198212627fffff83131761127757565b61382760e06114c27f0000000000000000000000000000000000000000000000000000000000000000610279565b825260049082905afa90811561156d57600091613919575b509061388f61384e600a613758565b61388a61388361385f610fa0613758565b61387d61387661386f838a61376b565b869061378e565b85906137b6565b966137d7565b829061378e565b6137b6565b90826138bd6133e17ffffffffffffffffffffffffffffffffffffffffffffffffffffffffffff2764c613758565b126138e8575b816138d36133e1620d89b4613758565b136138da57565b90506101d3620d89b4613758565b91506139137ffffffffffffffffffffffffffffffffffffffffffffffffffffffffffff2764c613758565b916138c3565b613931915060e03d8111611566576115548183610309565b50505050509061383f565b610361816014936123e1565b61396a6139796101d39261395a606090565b506040519283916020830161393c565b60208201810382520382610309565b613aaa565b6139886010610ee3565b7f3031323334353637383961626364656600000000000000000000000000000000602082015290565b6101d361397e565b369037565b906101da6139cb83610ee3565b926020806139d98693610344565b92019103906139b9565b906139ec825190565b811015610b3d570160200190565b610b586101d36101d39290565b613a4690613a41613a1b6101d39460ff1690565b917fff000000000000000000000000000000000000000000000000000000000000001690565b901c90565b7fff000000000000000000000000000000000000000000000000000000000000001690565b610b586101d36101d39260ff1690565b6101d39060f81c613a6b565b6101d36101d36101d39260ff1690565b613a46613aa46101d39290565b60f81b90565b90613ab36139b1565b613ae3613ade6002613ad9613ad3613ac9885190565b61150d6002610f56565b91610f56565b611bdb565b6139be565b906030613afa83613af46000610f56565b906139e3565b536078613b0b83613af46001610f56565b53613b166000610f56565b80613b256114806101d3885190565b1015613bff57613bfa90613b8a613b4a84613af4613b85613b80613b7085888e6139e3565b517fff000000000000000000000000000000000000000000000000000000000000001690565b613b7a60046139fa565b90613a07565b613a7b565b613a87565b613baf8591613ba56002613ad9613ad38761150d6002610f56565b9060001a926139e3565b53613bd8613b4a84613af4613b85613bc884878d6139e3565b613bd2600f613a97565b16613a7b565b613bf38591613ba56003613ad9613ad38761150d6002610f56565b5360010190565b613b16565b50506101d39192509056fea26469706673582212200b946333cabce15ed6dbb102069a08c261a2212b845bd5c1bcb95eefea62ba7264736f6c63430008180033","opcodes":"PUSH1 0xE0 PUSH1 0x40 MSTORE CALLVALUE PUSH3 0x102 JUMPI PUSH3 0x1F PUSH3 0x18 PUSH3 0x1C6 JUMP JUMPDEST SWAP2 PUSH3 0x357 JUMP JUMPDEST PUSH1 0x40 MLOAD PUSH2 0x3C40 PUSH3 0x52C DUP3 CODECOPY PUSH1 0x80 MLOAD DUP2 DUP2 DUP2 PUSH2 0xA52 ADD MSTORE DUP2 DUP2 PUSH2 0x303F ADD MSTORE PUSH2 0x3120 ADD MSTORE PUSH1 0xA0 MLOAD DUP2 DUP2 DUP2 PUSH2 0x82C ADD MSTORE DUP2 DUP2 PUSH2 0x18A8 ADD MSTORE DUP2 DUP2 PUSH2 0x1922 ADD MSTORE DUP2 DUP2 PUSH2 0x1C80 ADD MSTORE DUP2 DUP2 PUSH2 0x1D61 ADD MSTORE DUP2 DUP2 PUSH2 0x1FAE ADD MSTORE DUP2 DUP2 PUSH2 0x252C ADD MSTORE DUP2 DUP2 PUSH2 0x27B1 ADD MSTORE DUP2 DUP2 PUSH2 0x28A9 ADD MSTORE DUP2 DUP2 PUSH2 0x2B24 ADD MSTORE DUP2 DUP2 PUSH2 0x2B71 ADD MSTORE DUP2 DUP2 PUSH2 0x2C55 ADD MSTORE DUP2 DUP2 PUSH2 0x2CD5 ADD MSTORE DUP2 DUP2 PUSH2 0x34D6 ADD MSTORE DUP2 DUP2 PUSH2 0x35D1 ADD MSTORE PUSH2 0x36B9 ADD MSTORE PUSH1 0xC0 MLOAD DUP2 DUP2 DUP2 PUSH2 0x2B0 ADD MSTORE DUP2 DUP2 PUSH2 0xEAA ADD MSTORE DUP2 DUP2 PUSH2 0x149E ADD MSTORE DUP2 DUP2 PUSH2 0x15CE ADD MSTORE DUP2 DUP2 PUSH2 0x16B0 ADD MSTORE DUP2 DUP2 PUSH2 0x173C ADD MSTORE DUP2 DUP2 PUSH2 0x1788 ADD MSTORE DUP2 DUP2 PUSH2 0x200D ADD MSTORE DUP2 DUP2 PUSH2 0x2064 ADD MSTORE PUSH2 0x3803 ADD MSTORE PUSH2 0x3C40 SWAP1 RETURN JUMPDEST PUSH1 0x0 DUP1 REVERT JUMPDEST PUSH4 0x4E487B71 PUSH1 0xE0 SHL PUSH1 0x0 MSTORE PUSH1 0x41 PUSH1 0x4 MSTORE PUSH1 0x24 PUSH1 0x0 REVERT JUMPDEST SWAP1 PUSH1 0x1F ADD PUSH1 0x1F NOT AND DUP2 ADD SWAP1 DUP2 LT PUSH1 0x1 PUSH1 0x1 PUSH1 0x40 SHL SUB DUP3 GT OR PUSH3 0x13F JUMPI PUSH1 0x40 MSTORE JUMP JUMPDEST PUSH3 0x107 JUMP JUMPDEST SWAP1 PUSH3 0x15C PUSH3 0x154 PUSH1 0x40 MLOAD SWAP1 JUMP JUMPDEST SWAP3 DUP4 PUSH3 0x11D JUMP JUMPDEST JUMP JUMPDEST PUSH1 0x1 PUSH1 0x1 PUSH1 0xA0 SHL SUB AND SWAP1 JUMP JUMPDEST SWAP1 JUMP JUMPDEST PUSH1 0x1 PUSH1 0x1 PUSH1 0xA0 SHL SUB DUP2 AND JUMPDEST SUB PUSH3 0x102 JUMPI JUMP JUMPDEST SWAP1 POP MLOAD SWAP1 PUSH3 0x15C DUP3 PUSH3 0x16D JUMP JUMPDEST SWAP1 SWAP2 PUSH1 0x60 DUP3 DUP5 SUB SLT PUSH3 0x102 JUMPI PUSH3 0x16A PUSH3 0x1AC DUP5 DUP5 PUSH3 0x180 JUMP JUMPDEST SWAP4 PUSH3 0x1BC DUP2 PUSH1 0x20 DUP7 ADD PUSH3 0x180 JUMP JUMPDEST SWAP4 PUSH1 0x40 ADD PUSH3 0x180 JUMP JUMPDEST PUSH3 0x1E9 PUSH3 0x416C DUP1 CODESIZE SUB DUP1 PUSH3 0x1DD DUP2 PUSH3 0x145 JUMP JUMPDEST SWAP3 DUP4 CODECOPY DUP2 ADD SWAP1 PUSH3 0x18F JUMP JUMPDEST SWAP1 SWAP2 SWAP3 JUMP JUMPDEST SWAP1 PUSH3 0xFFFFFF PUSH1 0xA0 SHL SWAP1 PUSH1 0xA0 SHL JUMPDEST SWAP2 DUP2 NOT AND SWAP2 AND OR SWAP1 JUMP JUMPDEST PUSH3 0x215 PUSH3 0x16A PUSH3 0x16A SWAP3 SWAP1 JUMP JUMPDEST PUSH3 0xFFFFFF AND SWAP1 JUMP JUMPDEST SWAP1 PUSH3 0x231 PUSH3 0x16A PUSH3 0x239 SWAP3 PUSH3 0x205 JUMP JUMPDEST DUP3 SLOAD PUSH3 0x1EE JUMP JUMPDEST SWAP1 SSTORE JUMP JUMPDEST PUSH3 0x16A SWAP1 PUSH3 0x15E SWAP1 PUSH1 0x1 PUSH1 0x1 PUSH1 0xA0 SHL SUB AND DUP3 JUMP JUMPDEST PUSH3 0x16A SWAP1 PUSH3 0x23D JUMP JUMPDEST PUSH3 0x16A SWAP1 PUSH3 0x253 JUMP JUMPDEST MLOAD PUSH1 0x1 PUSH1 0x1 PUSH1 0xA0 SHL SUB AND SWAP1 JUMP JUMPDEST SWAP1 PUSH1 0x20 DUP3 DUP3 SUB SLT PUSH3 0x102 JUMPI PUSH3 0x16A SWAP2 PUSH3 0x180 JUMP JUMPDEST PUSH1 0x40 MLOAD RETURNDATASIZE PUSH1 0x0 DUP3 RETURNDATACOPY RETURNDATASIZE SWAP1 REVERT JUMPDEST SWAP1 PUSH1 0x1 PUSH1 0x1 PUSH1 0xA0 SHL SUB SWAP1 PUSH3 0x1FB JUMP JUMPDEST SWAP1 PUSH3 0x2BD PUSH3 0x16A PUSH3 0x239 SWAP3 PUSH3 0x25E JUMP JUMPDEST DUP3 SLOAD PUSH3 0x299 JUMP JUMPDEST PUSH3 0xFFFFFF DUP2 AND PUSH3 0x178 JUMP JUMPDEST SWAP1 POP MLOAD SWAP1 PUSH3 0x15C DUP3 PUSH3 0x2C5 JUMP JUMPDEST SWAP1 PUSH1 0x20 DUP3 DUP3 SUB SLT PUSH3 0x102 JUMPI PUSH3 0x16A SWAP2 PUSH3 0x2D1 JUMP JUMPDEST PUSH3 0x215 PUSH3 0x16A PUSH3 0x16A SWAP3 PUSH3 0xFFFFFF AND SWAP1 JUMP JUMPDEST SWAP1 PUSH3 0x231 PUSH3 0x16A PUSH3 0x239 SWAP3 PUSH3 0x2F7 JUMP JUMPDEST PUSH3 0x16A PUSH3 0x16A PUSH3 0x16A SWAP3 SWAP1 JUMP JUMPDEST SWAP1 PUSH1 0x0 NOT SWAP1 PUSH3 0x1FB JUMP JUMPDEST SWAP1 PUSH3 0x34F PUSH3 0x16A PUSH3 0x239 SWAP3 PUSH3 0x320 JUMP JUMPDEST DUP3 SLOAD PUSH3 0x330 JUMP JUMPDEST PUSH3 0x38D SWAP3 SWAP2 PUSH3 0x37B PUSH3 0x384 SWAP3 PUSH3 0x375 PUSH2 0x1F4 PUSH1 0x1 PUSH3 0x21D JUMP JUMPDEST PUSH3 0x25E JUMP JUMPDEST PUSH1 0x80 MSTORE PUSH3 0x25E JUMP JUMPDEST PUSH1 0xA0 MSTORE PUSH3 0x25E JUMP JUMPDEST PUSH1 0xC0 MSTORE PUSH3 0x3BF PUSH1 0x20 PUSH3 0x3A6 PUSH3 0x375 PUSH1 0xC0 PUSH3 0x269 JUMP JUMPDEST PUSH4 0xDFE1681 SWAP1 PUSH3 0x3B6 PUSH1 0x40 MLOAD SWAP1 JUMP JUMPDEST SWAP4 DUP5 SWAP3 PUSH1 0xE0 SHL SWAP1 JUMP JUMPDEST DUP3 MSTORE PUSH1 0x4 SWAP1 DUP3 SWAP1 GAS STATICCALL DUP1 ISZERO PUSH3 0x4CD JUMPI PUSH3 0x3E6 SWAP2 PUSH1 0x0 SWAP2 PUSH3 0x508 JUMPI JUMPDEST POP PUSH1 0x0 PUSH3 0x2A9 JUMP JUMPDEST PUSH3 0x40C PUSH1 0x20 PUSH3 0x3FC PUSH3 0x375 PUSH1 0xC0 PUSH3 0x269 JUMP JUMPDEST PUSH4 0xD21220A7 SWAP1 PUSH3 0x3B6 PUSH1 0x40 MLOAD SWAP1 JUMP JUMPDEST DUP3 MSTORE PUSH1 0x4 SWAP1 DUP3 SWAP1 GAS STATICCALL DUP1 ISZERO PUSH3 0x4CD JUMPI PUSH3 0x433 SWAP2 PUSH1 0x0 SWAP2 PUSH3 0x4D3 JUMPI JUMPDEST POP PUSH1 0x1 PUSH3 0x2A9 JUMP JUMPDEST PUSH3 0x459 PUSH1 0x20 PUSH3 0x449 PUSH3 0x375 PUSH1 0xC0 PUSH3 0x269 JUMP JUMPDEST PUSH4 0xDDCA3F43 SWAP1 PUSH3 0x3B6 PUSH1 0x40 MLOAD SWAP1 JUMP JUMPDEST DUP3 MSTORE PUSH1 0x4 SWAP1 DUP3 SWAP1 GAS STATICCALL DUP1 ISZERO PUSH3 0x4CD JUMPI PUSH3 0x480 SWAP2 PUSH1 0x0 SWAP2 PUSH3 0x498 JUMPI JUMPDEST POP PUSH1 0x1 PUSH3 0x30C JUMP JUMPDEST PUSH3 0x15C PUSH3 0x490 PUSH1 0x1 PUSH3 0x320 JUMP JUMPDEST PUSH1 0x4 PUSH3 0x33B JUMP JUMPDEST PUSH3 0x4BE SWAP2 POP PUSH1 0x20 RETURNDATASIZE DUP2 GT PUSH3 0x4C5 JUMPI JUMPDEST PUSH3 0x4B5 DUP2 DUP4 PUSH3 0x11D JUMP JUMPDEST DUP2 ADD SWAP1 PUSH3 0x2E0 JUMP JUMPDEST CODESIZE PUSH3 0x477 JUMP JUMPDEST POP RETURNDATASIZE PUSH3 0x4A9 JUMP JUMPDEST PUSH3 0x28D JUMP JUMPDEST PUSH3 0x4F9 SWAP2 POP PUSH1 0x20 RETURNDATASIZE DUP2 GT PUSH3 0x500 JUMPI JUMPDEST PUSH3 0x4F0 DUP2 DUP4 PUSH3 0x11D JUMP JUMPDEST DUP2 ADD SWAP1 PUSH3 0x276 JUMP JUMPDEST CODESIZE PUSH3 0x42A JUMP JUMPDEST POP RETURNDATASIZE PUSH3 0x4E4 JUMP JUMPDEST PUSH3 0x524 SWAP2 POP PUSH1 0x20 RETURNDATASIZE DUP2 GT PUSH3 0x500 JUMPI PUSH3 0x4F0 DUP2 DUP4 PUSH3 0x11D JUMP JUMPDEST CODESIZE PUSH3 0x3DD JUMP INVALID PUSH1 0x80 PUSH1 0x40 MSTORE PUSH1 0x4 CALLDATASIZE LT ISZERO PUSH2 0x12 JUMPI PUSH1 0x0 DUP1 REVERT JUMPDEST PUSH1 0x0 CALLDATALOAD PUSH1 0xE0 SHR DUP1 PUSH4 0x26B1D5F EQ PUSH2 0x1B2 JUMPI DUP1 PUSH4 0xDFE1681 EQ PUSH2 0x1AD JUMPI DUP1 PUSH4 0x16F0115B EQ PUSH2 0x1A8 JUMPI DUP1 PUSH4 0x4ABF5DC1 EQ PUSH2 0x1A3 JUMPI DUP1 PUSH4 0x4B94F50E EQ PUSH2 0x19E JUMPI DUP1 PUSH4 0x52375BB1 EQ PUSH2 0x199 JUMPI DUP1 PUSH4 0x53AAD1D9 EQ PUSH2 0x194 JUMPI DUP1 PUSH4 0x60246C88 EQ PUSH2 0x18F JUMPI DUP1 PUSH4 0x63079703 EQ PUSH2 0x18A JUMPI DUP1 PUSH4 0x65E34C09 EQ PUSH2 0x185 JUMPI DUP1 PUSH4 0x784394BC EQ PUSH2 0x180 JUMPI DUP1 PUSH4 0x791B98BC EQ PUSH2 0x17B JUMPI DUP1 PUSH4 0x911757BA EQ PUSH2 0x176 JUMPI DUP1 PUSH4 0x972960C5 EQ PUSH2 0x171 JUMPI DUP1 PUSH4 0x9CD441DA EQ PUSH2 0x16C JUMPI DUP1 PUSH4 0x9ECCEB5E EQ PUSH2 0x167 JUMPI DUP1 PUSH4 0xA3A8D0B6 EQ PUSH2 0x162 JUMPI DUP1 PUSH4 0xB17ACDCD EQ PUSH2 0x15D JUMPI DUP1 PUSH4 0xC31C9C07 EQ PUSH2 0x158 JUMPI DUP1 PUSH4 0xC979AFFB EQ PUSH2 0x153 JUMPI DUP1 PUSH4 0xCEB92012 EQ PUSH2 0x14E JUMPI DUP1 PUSH4 0xD21220A7 EQ PUSH2 0x149 JUMPI DUP1 PUSH4 0xD7FF0714 EQ PUSH2 0x144 JUMPI DUP1 PUSH4 0xDDCA3F43 EQ PUSH2 0x13F JUMPI DUP1 PUSH4 0xEB02C301 EQ PUSH2 0x13A JUMPI PUSH4 0xFA1B8025 SUB PUSH2 0x1C2 JUMPI PUSH2 0xE86 JUMP JUMPDEST PUSH2 0xDF5 JUMP JUMPDEST PUSH2 0xDC4 JUMP JUMPDEST PUSH2 0xD65 JUMP JUMPDEST PUSH2 0xAE9 JUMP JUMPDEST PUSH2 0xAC1 JUMP JUMPDEST PUSH2 0xA76 JUMP JUMPDEST PUSH2 0xA3D JUMP JUMPDEST PUSH2 0xA25 JUMP JUMPDEST PUSH2 0x9F7 JUMP JUMPDEST PUSH2 0x98D JUMP JUMPDEST PUSH2 0x8EC JUMP JUMPDEST PUSH2 0x8B1 JUMP JUMPDEST PUSH2 0x898 JUMP JUMPDEST PUSH2 0x817 JUMP JUMPDEST PUSH2 0x7F0 JUMP JUMPDEST PUSH2 0x610 JUMP JUMPDEST PUSH2 0x591 JUMP JUMPDEST PUSH2 0x553 JUMP JUMPDEST PUSH2 0x4E1 JUMP JUMPDEST PUSH2 0x4B3 JUMP JUMPDEST PUSH2 0x475 JUMP JUMPDEST PUSH2 0x451 JUMP JUMPDEST PUSH2 0x29B JUMP JUMPDEST PUSH2 0x23F JUMP JUMPDEST PUSH2 0x1DC JUMP JUMPDEST PUSH1 0x0 SWAP2 SUB SLT PUSH2 0x1C2 JUMPI JUMP JUMPDEST PUSH1 0x0 DUP1 REVERT JUMPDEST PUSH1 0x1 PUSH1 0x1 PUSH1 0xA0 SHL SUB AND SWAP1 JUMP JUMPDEST SWAP1 JUMP JUMPDEST SWAP1 MSTORE JUMP JUMPDEST JUMP JUMPDEST CALLVALUE PUSH2 0x1C2 JUMPI PUSH2 0x1EC CALLDATASIZE PUSH1 0x4 PUSH2 0x1B7 JUMP JUMPDEST PUSH2 0x211 PUSH2 0x1F7 PUSH2 0xEA5 JUMP JUMPDEST PUSH1 0x40 MLOAD SWAP2 DUP3 SWAP2 DUP3 PUSH1 0x1 PUSH1 0x1 PUSH1 0xA0 SHL SUB SWAP1 SWAP2 AND DUP2 MSTORE PUSH1 0x20 ADD SWAP1 JUMP JUMPDEST SUB SWAP1 RETURN JUMPDEST PUSH2 0x1D3 SWAP2 PUSH1 0x8 MUL SHR PUSH1 0x1 PUSH1 0x1 PUSH1 0xA0 SHL SUB AND SWAP1 JUMP JUMPDEST SWAP1 PUSH2 0x1D3 SWAP2 SLOAD PUSH2 0x215 JUMP JUMPDEST PUSH2 0x1D3 PUSH1 0x0 DUP1 PUSH2 0x229 JUMP JUMPDEST CALLVALUE PUSH2 0x1C2 JUMPI PUSH2 0x24F CALLDATASIZE PUSH1 0x4 PUSH2 0x1B7 JUMP JUMPDEST PUSH2 0x211 PUSH2 0x1F7 PUSH2 0x234 JUMP JUMPDEST PUSH2 0x1C7 PUSH2 0x1D3 PUSH2 0x1D3 SWAP3 PUSH1 0x1 PUSH1 0x1 PUSH1 0xA0 SHL SUB AND SWAP1 JUMP JUMPDEST PUSH2 0x1D3 SWAP1 PUSH2 0x25A JUMP JUMPDEST PUSH2 0x1D3 SWAP1 PUSH2 0x270 JUMP JUMPDEST PUSH2 0x1D6 SWAP1 PUSH2 0x279 JUMP JUMPDEST PUSH1 0x20 DUP2 ADD SWAP3 SWAP2 PUSH2 0x1DA SWAP2 SWAP1 PUSH2 0x282 JUMP JUMPDEST CALLVALUE PUSH2 0x1C2 JUMPI PUSH2 0x2AB CALLDATASIZE PUSH1 0x4 PUSH2 0x1B7 JUMP JUMPDEST PUSH2 0x211 PUSH32 0x0 JUMPDEST PUSH1 0x40 MLOAD SWAP2 DUP3 SWAP2 DUP3 PUSH2 0x28B JUMP JUMPDEST PUSH1 0x2 GT ISZERO PUSH2 0x1C2 JUMPI JUMP JUMPDEST SWAP1 POP CALLDATALOAD SWAP1 PUSH2 0x1DA DUP3 PUSH2 0x2DC JUMP JUMPDEST PUSH4 0x4E487B71 PUSH1 0xE0 SHL PUSH1 0x0 MSTORE PUSH1 0x41 PUSH1 0x4 MSTORE PUSH1 0x24 PUSH1 0x0 REVERT JUMPDEST SWAP1 PUSH1 0x1F ADD PUSH1 0x1F NOT AND DUP2 ADD SWAP1 DUP2 LT PUSH8 0xFFFFFFFFFFFFFFFF DUP3 GT OR PUSH2 0x32B JUMPI PUSH1 0x40 MSTORE JUMP JUMPDEST PUSH2 0x2F3 JUMP JUMPDEST SWAP1 PUSH2 0x1DA PUSH2 0x33D PUSH1 0x40 MLOAD SWAP1 JUMP JUMPDEST SWAP3 DUP4 PUSH2 0x309 JUMP JUMPDEST PUSH8 0xFFFFFFFFFFFFFFFF DUP2 GT PUSH2 0x32B JUMPI PUSH1 0x20 SWAP1 PUSH1 0x1F ADD PUSH1 0x1F NOT AND ADD SWAP1 JUMP JUMPDEST ADD SWAP1 JUMP JUMPDEST SWAP1 DUP3 PUSH1 0x0 SWAP4 SWAP3 DUP3 CALLDATACOPY ADD MSTORE JUMP JUMPDEST SWAP1 SWAP3 SWAP2 SWAP3 PUSH2 0x386 PUSH2 0x381 DUP3 PUSH2 0x344 JUMP JUMPDEST PUSH2 0x330 JUMP JUMPDEST SWAP4 DUP2 DUP6 MSTORE PUSH1 0x20 DUP6 ADD SWAP1 DUP3 DUP5 ADD GT PUSH2 0x1C2 JUMPI PUSH2 0x1DA SWAP3 PUSH2 0x365 JUMP JUMPDEST SWAP1 DUP1 PUSH1 0x1F DUP4 ADD SLT ISZERO PUSH2 0x1C2 JUMPI DUP2 PUSH1 0x20 PUSH2 0x1D3 SWAP4 CALLDATALOAD SWAP2 ADD PUSH2 0x371 JUMP JUMPDEST DUP1 JUMPDEST SUB PUSH2 0x1C2 JUMPI JUMP JUMPDEST SWAP1 POP CALLDATALOAD SWAP1 PUSH2 0x1DA DUP3 PUSH2 0x3BB JUMP JUMPDEST SWAP1 SWAP2 PUSH1 0xC0 DUP3 DUP5 SUB SLT PUSH2 0x1C2 JUMPI PUSH2 0x3E7 DUP4 DUP4 PUSH2 0x2E6 JUMP JUMPDEST SWAP3 PUSH1 0x20 DUP4 ADD CALLDATALOAD PUSH8 0xFFFFFFFFFFFFFFFF DUP2 GT PUSH2 0x1C2 JUMPI DUP2 PUSH2 0x408 SWAP2 DUP6 ADD PUSH2 0x3A0 JUMP JUMPDEST SWAP3 PUSH1 0x40 DUP2 ADD CALLDATALOAD PUSH8 0xFFFFFFFFFFFFFFFF DUP2 GT PUSH2 0x1C2 JUMPI DUP3 PUSH2 0x429 SWAP2 DUP4 ADD PUSH2 0x3A0 JUMP JUMPDEST SWAP3 PUSH2 0x1D3 PUSH2 0x43A DUP5 PUSH1 0x60 DUP6 ADD PUSH2 0x3C4 JUMP JUMPDEST SWAP4 PUSH2 0x448 DUP2 PUSH1 0x80 DUP7 ADD PUSH2 0x3C4 JUMP JUMPDEST SWAP4 PUSH1 0xA0 ADD PUSH2 0x3C4 JUMP JUMPDEST CALLVALUE PUSH2 0x1C2 JUMPI PUSH2 0x470 PUSH2 0x464 CALLDATASIZE PUSH1 0x4 PUSH2 0x3D1 JUMP JUMPDEST SWAP5 SWAP4 SWAP1 SWAP4 SWAP3 SWAP2 SWAP3 PUSH2 0x127C JUMP JUMPDEST PUSH1 0x40 MLOAD STOP JUMPDEST CALLVALUE PUSH2 0x1C2 JUMPI PUSH2 0x485 CALLDATASIZE PUSH1 0x4 PUSH2 0x1B7 JUMP JUMPDEST PUSH2 0x211 PUSH2 0x490 PUSH2 0x1494 JUMP JUMPDEST PUSH1 0x40 MLOAD SWAP2 DUP3 SWAP2 DUP3 SWAP1 DUP2 MSTORE PUSH1 0x20 ADD SWAP1 JUMP JUMPDEST SWAP1 DUP2 MSTORE PUSH1 0x40 DUP2 ADD SWAP3 SWAP2 PUSH2 0x1DA SWAP2 PUSH1 0x20 ADD MSTORE JUMP JUMPDEST CALLVALUE PUSH2 0x1C2 JUMPI PUSH2 0x4C3 CALLDATASIZE PUSH1 0x4 PUSH2 0x1B7 JUMP JUMPDEST PUSH2 0x4CB PUSH2 0x15A6 JUMP JUMPDEST SWAP1 PUSH2 0x211 PUSH2 0x4D8 PUSH1 0x40 MLOAD SWAP1 JUMP JUMPDEST SWAP3 DUP4 SWAP3 DUP4 PUSH2 0x4A0 JUMP JUMPDEST CALLVALUE PUSH2 0x1C2 JUMPI PUSH2 0x4F1 CALLDATASIZE PUSH1 0x4 PUSH2 0x1B7 JUMP JUMPDEST PUSH2 0x211 PUSH2 0x4FC PUSH2 0x16A6 JUMP JUMPDEST PUSH1 0x40 MLOAD SWAP2 DUP3 SWAP2 DUP3 PUSH1 0x2 SWAP2 SWAP1 SWAP2 SIGNEXTEND DUP2 MSTORE PUSH1 0x20 ADD SWAP1 JUMP JUMPDEST PUSH1 0x1 PUSH1 0x1 PUSH1 0xA0 SHL SUB SWAP1 SWAP2 AND DUP2 MSTORE PUSH1 0x60 DUP2 ADD SWAP4 SWAP3 PUSH2 0x1DA SWAP3 SWAP1 SWAP2 PUSH1 0x40 SWAP2 PUSH2 0x53B SWAP1 PUSH1 0x2 SIGNEXTEND PUSH1 0x20 DUP4 ADD MSTORE JUMP JUMPDEST ADD SWAP1 PUSH16 0xFFFFFFFFFFFFFFFFFFFFFFFFFFFFFFFF AND SWAP1 MSTORE JUMP JUMPDEST CALLVALUE PUSH2 0x1C2 JUMPI PUSH2 0x563 CALLDATASIZE PUSH1 0x4 PUSH2 0x1B7 JUMP JUMPDEST PUSH2 0x211 PUSH2 0x56E PUSH2 0x1732 JUMP JUMPDEST PUSH1 0x40 MLOAD SWAP2 SWAP4 SWAP2 SWAP4 DUP5 SWAP4 DUP5 PUSH2 0x511 JUMP JUMPDEST SWAP1 PUSH1 0x20 DUP3 DUP3 SUB SLT PUSH2 0x1C2 JUMPI PUSH2 0x1D3 SWAP2 PUSH2 0x3C4 JUMP JUMPDEST CALLVALUE PUSH2 0x1C2 JUMPI PUSH2 0x470 PUSH2 0x5A4 CALLDATASIZE PUSH1 0x4 PUSH2 0x57D JUMP JUMPDEST PUSH2 0x189E JUMP JUMPDEST SWAP1 PUSH2 0x5C9 PUSH2 0x5C2 PUSH2 0x5B8 DUP5 MLOAD SWAP1 JUMP JUMPDEST DUP1 DUP5 MSTORE SWAP3 PUSH1 0x20 ADD SWAP1 JUMP JUMPDEST SWAP3 PUSH1 0x20 ADD SWAP1 JUMP JUMPDEST SWAP1 PUSH1 0x0 JUMPDEST DUP2 DUP2 LT PUSH2 0x5DA JUMPI POP POP POP SWAP1 JUMP JUMPDEST SWAP1 SWAP2 SWAP3 PUSH2 0x5F7 PUSH2 0x5F0 PUSH1 0x1 SWAP3 DUP7 MLOAD DUP2 MSTORE PUSH1 0x20 ADD SWAP1 JUMP JUMPDEST SWAP5 PUSH1 0x20 ADD SWAP1 JUMP JUMPDEST SWAP3 SWAP2 ADD PUSH2 0x5CD JUMP JUMPDEST PUSH1 0x20 DUP1 DUP3 MSTORE PUSH2 0x1D3 SWAP3 SWAP2 ADD SWAP1 PUSH2 0x5A9 JUMP JUMPDEST CALLVALUE PUSH2 0x1C2 JUMPI PUSH2 0x620 CALLDATASIZE PUSH1 0x4 PUSH2 0x1B7 JUMP JUMPDEST PUSH2 0x211 PUSH2 0x62B PUSH2 0x1A66 JUMP JUMPDEST PUSH1 0x40 MLOAD SWAP2 DUP3 SWAP2 DUP3 PUSH2 0x5FF JUMP JUMPDEST PUSH4 0x4E487B71 PUSH1 0xE0 SHL PUSH1 0x0 MSTORE PUSH1 0x21 PUSH1 0x4 MSTORE PUSH1 0x24 PUSH1 0x0 REVERT JUMPDEST PUSH1 0x2 GT ISZERO PUSH2 0x657 JUMPI JUMP JUMPDEST PUSH2 0x637 JUMP JUMPDEST SWAP1 PUSH2 0x1DA DUP3 PUSH2 0x64D JUMP JUMPDEST PUSH2 0x1D3 SWAP1 PUSH2 0x65C JUMP JUMPDEST PUSH2 0x1D6 SWAP1 PUSH2 0x666 JUMP JUMPDEST PUSH1 0x0 JUMPDEST DUP4 DUP2 LT PUSH2 0x68B JUMPI POP POP PUSH1 0x0 SWAP2 ADD MSTORE JUMP JUMPDEST DUP2 DUP2 ADD MLOAD DUP4 DUP3 ADD MSTORE PUSH1 0x20 ADD PUSH2 0x67B JUMP JUMPDEST PUSH2 0x6BC PUSH2 0x6C5 PUSH1 0x20 SWAP4 PUSH2 0x361 SWAP4 PUSH2 0x6B0 DUP2 MLOAD SWAP1 JUMP JUMPDEST DUP1 DUP4 MSTORE SWAP4 DUP5 SWAP3 PUSH1 0x20 ADD SWAP1 JUMP JUMPDEST SWAP6 DUP7 SWAP2 ADD PUSH2 0x678 JUMP JUMPDEST PUSH1 0x1F ADD PUSH1 0x1F NOT AND SWAP1 JUMP JUMPDEST DUP1 MLOAD DUP3 MSTORE PUSH2 0x1D3 SWAP2 PUSH2 0x100 PUSH2 0x71B PUSH2 0x709 PUSH2 0x120 DUP5 ADD PUSH2 0x6F7 PUSH1 0x20 DUP8 ADD MLOAD PUSH1 0x20 DUP8 ADD SWAP1 PUSH2 0x66F JUMP JUMPDEST PUSH1 0x40 DUP7 ADD MLOAD DUP6 DUP3 SUB PUSH1 0x40 DUP8 ADD MSTORE PUSH2 0x69B JUMP JUMPDEST PUSH1 0x60 DUP6 ADD MLOAD DUP5 DUP3 SUB PUSH1 0x60 DUP7 ADD MSTORE PUSH2 0x69B JUMP JUMPDEST SWAP3 PUSH2 0x72B PUSH1 0x80 DUP3 ADD MLOAD PUSH1 0x80 DUP6 ADD MSTORE JUMP JUMPDEST PUSH2 0x73A PUSH1 0xA0 DUP3 ADD MLOAD PUSH1 0xA0 DUP6 ADD MSTORE JUMP JUMPDEST PUSH2 0x749 PUSH1 0xC0 DUP3 ADD MLOAD PUSH1 0xC0 DUP6 ADD MSTORE JUMP JUMPDEST PUSH2 0x758 PUSH1 0xE0 DUP3 ADD MLOAD PUSH1 0xE0 DUP6 ADD MSTORE JUMP JUMPDEST ADD MLOAD SWAP1 PUSH2 0x100 DUP2 DUP5 SUB SWAP2 ADD MSTORE PUSH2 0x69B JUMP JUMPDEST SWAP1 PUSH2 0x1D3 SWAP2 PUSH2 0x6CF JUMP JUMPDEST SWAP1 PUSH2 0x789 PUSH2 0x77F DUP4 MLOAD SWAP1 JUMP JUMPDEST DUP1 DUP4 MSTORE SWAP2 PUSH1 0x20 ADD SWAP1 JUMP JUMPDEST SWAP1 DUP2 PUSH2 0x79B PUSH1 0x20 DUP4 MUL DUP5 ADD SWAP5 PUSH1 0x20 ADD SWAP1 JUMP JUMPDEST SWAP3 PUSH1 0x0 SWAP2 JUMPDEST DUP4 DUP4 LT PUSH2 0x7AF JUMPI POP POP POP POP POP SWAP1 JUMP JUMPDEST SWAP1 SWAP2 SWAP3 SWAP4 SWAP5 PUSH1 0x20 PUSH2 0x7D2 PUSH2 0x7CB DUP4 DUP6 PUSH1 0x1 SWAP6 SUB DUP8 MSTORE DUP10 MLOAD PUSH2 0x769 JUMP JUMPDEST SWAP8 PUSH1 0x20 ADD SWAP1 JUMP JUMPDEST SWAP4 ADD SWAP4 ADD SWAP2 SWAP4 SWAP3 SWAP1 PUSH2 0x7A0 JUMP JUMPDEST PUSH1 0x20 DUP1 DUP3 MSTORE PUSH2 0x1D3 SWAP3 SWAP2 ADD SWAP1 PUSH2 0x773 JUMP JUMPDEST CALLVALUE PUSH2 0x1C2 JUMPI PUSH2 0x800 CALLDATASIZE PUSH1 0x4 PUSH2 0x1B7 JUMP JUMPDEST PUSH2 0x211 PUSH2 0x80B PUSH2 0x1BD1 JUMP JUMPDEST PUSH1 0x40 MLOAD SWAP2 DUP3 SWAP2 DUP3 PUSH2 0x7DF JUMP JUMPDEST CALLVALUE PUSH2 0x1C2 JUMPI PUSH2 0x827 CALLDATASIZE PUSH1 0x4 PUSH2 0x1B7 JUMP JUMPDEST PUSH2 0x211 PUSH32 0x0 PUSH2 0x2D0 JUMP JUMPDEST PUSH16 0xFFFFFFFFFFFFFFFFFFFFFFFFFFFFFFFF DUP2 AND PUSH2 0x3BD JUMP JUMPDEST SWAP1 POP CALLDATALOAD SWAP1 PUSH2 0x1DA DUP3 PUSH2 0x850 JUMP JUMPDEST SWAP2 SWAP1 PUSH1 0x40 DUP4 DUP3 SUB SLT PUSH2 0x1C2 JUMPI PUSH2 0x1D3 SWAP1 PUSH2 0x88F DUP2 DUP6 PUSH2 0x3C4 JUMP JUMPDEST SWAP4 PUSH1 0x20 ADD PUSH2 0x868 JUMP JUMPDEST CALLVALUE PUSH2 0x1C2 JUMPI PUSH2 0x4CB PUSH2 0x8AB CALLDATASIZE PUSH1 0x4 PUSH2 0x875 JUMP JUMPDEST SWAP1 PUSH2 0x1C74 JUMP JUMPDEST CALLVALUE PUSH2 0x1C2 JUMPI PUSH2 0x4CB PUSH2 0x8C4 CALLDATASIZE PUSH1 0x4 PUSH2 0x57D JUMP JUMPDEST PUSH2 0x1F95 JUMP JUMPDEST SWAP2 SWAP1 PUSH1 0x40 DUP4 DUP3 SUB SLT PUSH2 0x1C2 JUMPI PUSH2 0x1D3 SWAP1 PUSH2 0x8E3 DUP2 DUP6 PUSH2 0x3C4 JUMP JUMPDEST SWAP4 PUSH1 0x20 ADD PUSH2 0x3C4 JUMP JUMPDEST CALLVALUE PUSH2 0x1C2 JUMPI PUSH2 0x211 PUSH2 0x490 PUSH2 0x902 CALLDATASIZE PUSH1 0x4 PUSH2 0x8C9 JUMP JUMPDEST SWAP1 PUSH2 0x241D JUMP JUMPDEST SWAP5 SWAP3 SWAP1 SWAP8 SWAP7 SWAP6 SWAP4 SWAP2 PUSH1 0xE0 DUP7 ADD SWAP9 PUSH1 0x0 DUP8 ADD PUSH2 0x92A SWAP2 PUSH1 0x1 PUSH1 0x1 PUSH1 0xA0 SHL SUB AND SWAP1 MSTORE JUMP JUMPDEST PUSH1 0x1 PUSH1 0x1 PUSH1 0xA0 SHL SUB AND PUSH1 0x20 DUP7 ADD MSTORE PUSH16 0xFFFFFFFFFFFFFFFFFFFFFFFFFFFFFFFF AND PUSH1 0x40 DUP6 ADD MSTORE PUSH1 0x60 DUP5 ADD MSTORE PUSH1 0x80 DUP4 ADD MSTORE PUSH16 0xFFFFFFFFFFFFFFFFFFFFFFFFFFFFFFFF AND PUSH1 0xA0 DUP3 ADD MSTORE PUSH1 0xC0 ADD PUSH2 0x1DA SWAP2 PUSH16 0xFFFFFFFFFFFFFFFFFFFFFFFFFFFFFFFF AND SWAP1 MSTORE JUMP JUMPDEST CALLVALUE PUSH2 0x1C2 JUMPI PUSH2 0x211 PUSH2 0x9A8 PUSH2 0x9A3 CALLDATASIZE PUSH1 0x4 PUSH2 0x57D JUMP JUMPDEST PUSH2 0x2948 JUMP JUMPDEST SWAP4 PUSH2 0x9B8 SWAP8 SWAP6 SWAP8 SWAP4 SWAP2 SWAP4 PUSH1 0x40 MLOAD SWAP1 JUMP JUMPDEST SWAP8 DUP9 SWAP8 DUP9 PUSH2 0x908 JUMP JUMPDEST PUSH1 0x1 PUSH1 0x1 PUSH1 0xA0 SHL SUB DUP2 AND PUSH2 0x3BD JUMP JUMPDEST SWAP1 POP CALLDATALOAD SWAP1 PUSH2 0x1DA DUP3 PUSH2 0x9C1 JUMP JUMPDEST SWAP2 SWAP1 PUSH1 0x40 DUP4 DUP3 SUB SLT PUSH2 0x1C2 JUMPI PUSH2 0x1D3 SWAP1 PUSH2 0x8E3 DUP2 DUP6 PUSH2 0x9D0 JUMP JUMPDEST CALLVALUE PUSH2 0x1C2 JUMPI PUSH2 0x211 PUSH2 0xA13 PUSH2 0xA0D CALLDATASIZE PUSH1 0x4 PUSH2 0x9DD JUMP JUMPDEST SWAP1 PUSH2 0x29D2 JUMP JUMPDEST PUSH1 0x40 MLOAD SWAP2 DUP3 SWAP2 DUP3 SWAP1 ISZERO ISZERO DUP2 MSTORE PUSH1 0x20 ADD SWAP1 JUMP JUMPDEST CALLVALUE PUSH2 0x1C2 JUMPI PUSH2 0x4CB PUSH2 0xA38 CALLDATASIZE PUSH1 0x4 PUSH2 0x57D JUMP JUMPDEST PUSH2 0x2B1A JUMP JUMPDEST CALLVALUE PUSH2 0x1C2 JUMPI PUSH2 0xA4D CALLDATASIZE PUSH1 0x4 PUSH2 0x1B7 JUMP JUMPDEST PUSH2 0x211 PUSH32 0x0 PUSH2 0x2D0 JUMP JUMPDEST CALLVALUE PUSH2 0x1C2 JUMPI PUSH2 0xA86 CALLDATASIZE PUSH1 0x4 PUSH2 0x1B7 JUMP JUMPDEST PUSH2 0x211 PUSH2 0x80B PUSH2 0x2DAD JUMP JUMPDEST SWAP1 SWAP2 PUSH1 0x60 DUP3 DUP5 SUB SLT PUSH2 0x1C2 JUMPI PUSH2 0x1D3 PUSH2 0xAAA DUP5 DUP5 PUSH2 0x9D0 JUMP JUMPDEST SWAP4 PUSH2 0xAB8 DUP2 PUSH1 0x20 DUP7 ADD PUSH2 0x9D0 JUMP JUMPDEST SWAP4 PUSH1 0x40 ADD PUSH2 0x3C4 JUMP JUMPDEST CALLVALUE PUSH2 0x1C2 JUMPI PUSH2 0x211 PUSH2 0x490 PUSH2 0xAD7 CALLDATASIZE PUSH1 0x4 PUSH2 0xA91 JUMP JUMPDEST SWAP2 PUSH2 0x2F80 JUMP JUMPDEST PUSH2 0x1D3 PUSH1 0x0 PUSH1 0x1 PUSH2 0x229 JUMP JUMPDEST CALLVALUE PUSH2 0x1C2 JUMPI PUSH2 0xAF9 CALLDATASIZE PUSH1 0x4 PUSH2 0x1B7 JUMP JUMPDEST PUSH2 0x211 PUSH2 0x1F7 PUSH2 0xADD JUMP JUMPDEST PUSH4 0x4E487B71 PUSH1 0xE0 SHL PUSH1 0x0 MSTORE PUSH1 0x32 PUSH1 0x4 MSTORE PUSH1 0x24 PUSH1 0x0 REVERT JUMPDEST DUP1 SLOAD DUP3 LT ISZERO PUSH2 0xB3D JUMPI PUSH2 0xB34 PUSH1 0x9 SWAP2 PUSH1 0x0 MSTORE PUSH1 0x20 PUSH1 0x0 KECCAK256 SWAP1 JUMP JUMPDEST SWAP2 MUL ADD SWAP1 PUSH1 0x0 SWAP1 JUMP JUMPDEST PUSH2 0xB04 JUMP JUMPDEST PUSH2 0x1D3 SWAP1 DUP2 JUMP JUMPDEST PUSH2 0x1D3 SWAP1 SLOAD PUSH2 0xB42 JUMP JUMPDEST PUSH2 0x1D3 SWAP1 JUMPDEST PUSH1 0xFF AND SWAP1 JUMP JUMPDEST PUSH2 0x1D3 SWAP1 SLOAD PUSH2 0xB53 JUMP JUMPDEST PUSH4 0x4E487B71 PUSH1 0xE0 SHL PUSH1 0x0 MSTORE PUSH1 0x22 PUSH1 0x4 MSTORE PUSH1 0x24 PUSH1 0x0 REVERT JUMPDEST SWAP1 PUSH1 0x1 PUSH1 0x2 DUP4 DIV SWAP3 AND DUP1 ISZERO PUSH2 0xB9E JUMPI JUMPDEST PUSH1 0x20 DUP4 LT EQ PUSH2 0xB99 JUMPI JUMP JUMPDEST PUSH2 0xB68 JUMP JUMPDEST SWAP2 PUSH1 0x7F AND SWAP2 PUSH2 0xB8E JUMP JUMPDEST DUP1 SLOAD PUSH1 0x0 SWAP4 SWAP3 SWAP2 PUSH2 0xBC5 PUSH2 0xBBB DUP4 PUSH2 0xB7E JUMP JUMPDEST DUP1 DUP6 MSTORE SWAP4 PUSH1 0x20 ADD SWAP1 JUMP JUMPDEST SWAP2 PUSH1 0x1 DUP2 AND SWAP1 DUP2 ISZERO PUSH2 0xC17 JUMPI POP PUSH1 0x1 EQ PUSH2 0xBDE JUMPI POP POP POP JUMP JUMPDEST PUSH2 0xBF1 SWAP2 SWAP3 SWAP4 SWAP5 POP PUSH1 0x0 MSTORE PUSH1 0x20 PUSH1 0x0 KECCAK256 SWAP1 JUMP JUMPDEST SWAP2 PUSH1 0x0 SWAP3 JUMPDEST DUP2 DUP5 LT PUSH2 0xC03 JUMPI POP POP ADD SWAP1 JUMP JUMPDEST DUP1 SLOAD DUP5 DUP5 ADD MSTORE PUSH1 0x20 SWAP1 SWAP4 ADD SWAP3 PUSH1 0x1 ADD PUSH2 0xBF6 JUMP JUMPDEST SWAP3 SWAP5 SWAP6 POP POP POP PUSH1 0xFF NOT AND DUP3 MSTORE ISZERO ISZERO PUSH1 0x20 MUL ADD SWAP1 JUMP JUMPDEST SWAP1 PUSH2 0x1D3 SWAP2 PUSH2 0xBA8 JUMP JUMPDEST SWAP1 PUSH2 0x1DA PUSH2 0xC50 SWAP3 PUSH2 0xC47 PUSH1 0x40 MLOAD SWAP1 JUMP JUMPDEST SWAP4 DUP5 DUP1 SWAP3 PUSH2 0xC2C JUMP JUMPDEST SUB DUP4 PUSH2 0x309 JUMP JUMPDEST PUSH1 0x5 SWAP1 PUSH2 0xC62 DUP3 SLOAD SWAP1 JUMP JUMPDEST DUP2 LT ISZERO PUSH2 0x1C2 JUMPI PUSH2 0xC72 SWAP2 PUSH2 0xB1A JUMP JUMPDEST POP PUSH2 0xC7C DUP2 PUSH2 0xB49 JUMP JUMPDEST SWAP2 PUSH2 0xC89 PUSH1 0x1 DUP4 ADD PUSH2 0xB5E JUMP JUMPDEST SWAP2 PUSH2 0xC96 PUSH1 0x2 DUP3 ADD PUSH2 0xC36 JUMP JUMPDEST SWAP2 PUSH2 0xCA3 PUSH1 0x3 DUP4 ADD PUSH2 0xC36 JUMP JUMPDEST SWAP2 PUSH2 0xCB0 PUSH1 0x4 DUP3 ADD PUSH2 0xB49 JUMP JUMPDEST SWAP2 PUSH2 0xCBD PUSH1 0x5 DUP4 ADD PUSH2 0xB49 JUMP JUMPDEST SWAP2 PUSH2 0xCCA PUSH1 0x6 DUP3 ADD PUSH2 0xB49 JUMP JUMPDEST SWAP2 PUSH2 0x1D3 PUSH1 0x8 PUSH2 0xCDC PUSH1 0x7 DUP6 ADD PUSH2 0xB49 JUMP JUMPDEST SWAP4 ADD PUSH2 0xC36 JUMP JUMPDEST SWAP6 PUSH2 0xD42 PUSH2 0xD3A PUSH2 0xD57 SWAP8 SWAP11 SWAP7 PUSH2 0xD2C PUSH2 0xD49 SWAP6 PUSH2 0xD50 SWAP9 PUSH2 0x1D3 SWAP16 SWAP14 SWAP9 PUSH2 0xD1F SWAP1 PUSH1 0x20 DUP16 PUSH2 0xD18 PUSH2 0x120 DUP3 ADD SWAP7 PUSH1 0x0 DUP4 ADD MSTORE JUMP JUMPDEST ADD SWAP1 PUSH2 0x66F JUMP JUMPDEST DUP13 DUP3 SUB PUSH1 0x40 DUP15 ADD MSTORE PUSH2 0x69B JUMP JUMPDEST SWAP1 DUP11 DUP3 SUB PUSH1 0x60 DUP13 ADD MSTORE PUSH2 0x69B JUMP JUMPDEST SWAP10 PUSH1 0x80 DUP10 ADD MSTORE JUMP JUMPDEST PUSH1 0xA0 DUP8 ADD MSTORE JUMP JUMPDEST PUSH1 0xC0 DUP6 ADD MSTORE JUMP JUMPDEST PUSH1 0xE0 DUP4 ADD MSTORE JUMP JUMPDEST PUSH2 0x100 DUP2 DUP5 SUB SWAP2 ADD MSTORE PUSH2 0x69B JUMP JUMPDEST CALLVALUE PUSH2 0x1C2 JUMPI PUSH2 0x211 PUSH2 0xD80 PUSH2 0xD7B CALLDATASIZE PUSH1 0x4 PUSH2 0x57D JUMP JUMPDEST PUSH2 0xC57 JUMP JUMPDEST SWAP6 PUSH2 0xD93 SWAP10 SWAP8 SWAP10 SWAP6 SWAP2 SWAP6 SWAP5 SWAP3 SWAP5 PUSH1 0x40 MLOAD SWAP1 JUMP JUMPDEST SWAP10 DUP11 SWAP10 DUP11 PUSH2 0xCE3 JUMP JUMPDEST PUSH2 0x1D3 SWAP2 PUSH1 0x8 MUL SHR JUMPDEST PUSH3 0xFFFFFF AND SWAP1 JUMP JUMPDEST SWAP1 PUSH2 0x1D3 SWAP2 SLOAD PUSH2 0xD9C JUMP JUMPDEST PUSH2 0x1D3 PUSH1 0x14 PUSH1 0x1 PUSH2 0xDAD JUMP JUMPDEST CALLVALUE PUSH2 0x1C2 JUMPI PUSH2 0xDD4 CALLDATASIZE PUSH1 0x4 PUSH2 0x1B7 JUMP JUMPDEST PUSH2 0x211 PUSH2 0xDDF PUSH2 0xDB8 JUMP JUMPDEST PUSH1 0x40 MLOAD SWAP2 DUP3 SWAP2 DUP3 PUSH3 0xFFFFFF SWAP1 SWAP2 AND DUP2 MSTORE PUSH1 0x20 ADD SWAP1 JUMP JUMPDEST CALLVALUE PUSH2 0x1C2 JUMPI PUSH2 0x211 PUSH2 0xE10 PUSH2 0xE0B CALLDATASIZE PUSH1 0x4 PUSH2 0x57D JUMP JUMPDEST PUSH2 0x330C JUMP JUMPDEST PUSH1 0x40 MLOAD SWAP2 DUP3 SWAP2 DUP3 PUSH16 0xFFFFFFFFFFFFFFFFFFFFFFFFFFFFFFFF SWAP1 SWAP2 AND DUP2 MSTORE PUSH1 0x20 ADD SWAP1 JUMP JUMPDEST PUSH2 0x3BD DUP2 PUSH1 0x2 SIGNEXTEND SWAP1 JUMP JUMPDEST SWAP1 POP CALLDATALOAD SWAP1 PUSH2 0x1DA DUP3 PUSH2 0xE33 JUMP JUMPDEST PUSH1 0x80 DUP2 DUP4 SUB SLT PUSH2 0x1C2 JUMPI PUSH2 0xE5E DUP3 DUP3 PUSH2 0x3C4 JUMP JUMPDEST SWAP3 PUSH2 0x1D3 PUSH2 0xE6F DUP5 PUSH1 0x20 DUP6 ADD PUSH2 0x3C4 JUMP JUMPDEST SWAP4 PUSH2 0xE7D DUP2 PUSH1 0x40 DUP7 ADD PUSH2 0xE3D JUMP JUMPDEST SWAP4 PUSH1 0x60 ADD PUSH2 0xE3D JUMP JUMPDEST CALLVALUE PUSH2 0x1C2 JUMPI PUSH2 0x211 PUSH2 0x490 PUSH2 0xE9C CALLDATASIZE PUSH1 0x4 PUSH2 0xE4A JUMP JUMPDEST SWAP3 SWAP2 SWAP1 SWAP2 PUSH2 0x33A5 JUMP JUMPDEST PUSH2 0x1D3 PUSH32 0x0 PUSH2 0x279 JUMP JUMPDEST PUSH2 0x1D3 PUSH2 0x120 PUSH2 0x330 JUMP JUMPDEST SWAP1 PUSH2 0x1D6 SWAP1 PUSH2 0x65C JUMP JUMPDEST SWAP1 PUSH2 0xEF0 PUSH2 0x381 DUP4 PUSH2 0x344 JUMP JUMPDEST SWAP2 DUP3 MSTORE JUMP JUMPDEST PUSH2 0xEFF PUSH1 0x9 PUSH2 0xEE3 JUMP JUMPDEST PUSH32 0x636F6E6669726D65640000000000000000000000000000000000000000000000 PUSH1 0x20 DUP3 ADD MSTORE SWAP1 JUMP JUMPDEST PUSH2 0x1D3 PUSH2 0xEF5 JUMP JUMPDEST PUSH4 0x4E487B71 PUSH1 0xE0 SHL PUSH1 0x0 MSTORE PUSH1 0x0 PUSH1 0x4 MSTORE PUSH1 0x24 PUSH1 0x0 REVERT JUMPDEST SWAP1 PUSH1 0x0 NOT SWAP1 JUMPDEST SWAP2 DUP2 NOT AND SWAP2 AND OR SWAP1 JUMP JUMPDEST PUSH2 0x1D3 PUSH2 0x1D3 PUSH2 0x1D3 SWAP3 SWAP1 JUMP JUMPDEST SWAP1 PUSH2 0xF73 PUSH2 0x1D3 PUSH2 0xF7A SWAP3 PUSH2 0xF56 JUMP JUMPDEST DUP3 SLOAD PUSH2 0xF46 JUMP JUMPDEST SWAP1 SSTORE JUMP JUMPDEST PUSH2 0x1D3 SWAP1 MLOAD PUSH2 0x65C JUMP JUMPDEST SWAP1 PUSH1 0xFF SWAP1 PUSH2 0xF4C JUMP JUMPDEST SWAP1 PUSH2 0xFA1 PUSH2 0x1D3 PUSH2 0xF7A SWAP3 PUSH2 0x666 JUMP JUMPDEST DUP3 SLOAD PUSH2 0xF88 JUMP JUMPDEST SWAP2 SWAP1 PUSH1 0x8 PUSH2 0xF4C SWAP2 MUL SWAP2 PUSH2 0xFBD PUSH1 0x0 NOT DUP5 SHL SWAP1 JUMP JUMPDEST SWAP3 SHL SWAP1 JUMP JUMPDEST SWAP2 SWAP1 PUSH2 0xFD3 PUSH2 0x1D3 PUSH2 0xF7A SWAP4 PUSH2 0xF56 JUMP JUMPDEST SWAP1 DUP4 SLOAD PUSH2 0xFA8 JUMP JUMPDEST PUSH2 0x1DA SWAP2 PUSH1 0x0 SWAP2 PUSH2 0xFC2 JUMP JUMPDEST DUP2 DUP2 LT PUSH2 0xFF2 JUMPI POP POP JUMP JUMPDEST DUP1 PUSH2 0x1000 PUSH1 0x0 PUSH1 0x1 SWAP4 PUSH2 0xFDB JUMP JUMPDEST ADD PUSH2 0xFE7 JUMP JUMPDEST SWAP2 SWAP1 PUSH1 0x1F DUP2 GT PUSH2 0x1015 JUMPI POP POP POP JUMP JUMPDEST PUSH2 0x1027 PUSH2 0x1DA SWAP4 PUSH1 0x0 MSTORE PUSH1 0x20 PUSH1 0x0 KECCAK256 SWAP1 JUMP JUMPDEST SWAP1 PUSH1 0x20 PUSH1 0x1F DUP5 ADD DUP2 SWAP1 DIV DUP4 ADD SWAP4 LT PUSH2 0x1049 JUMPI JUMPDEST PUSH1 0x20 PUSH1 0x1F SWAP1 SWAP2 ADD DIV ADD SWAP1 PUSH2 0xFE7 JUMP JUMPDEST SWAP1 SWAP2 POP DUP2 SWAP1 PUSH2 0x103A JUMP JUMPDEST SWAP1 PUSH2 0x105C DUP2 MLOAD SWAP1 JUMP JUMPDEST SWAP1 PUSH8 0xFFFFFFFFFFFFFFFF DUP3 GT PUSH2 0x32B JUMPI PUSH2 0x1080 DUP3 PUSH2 0x107A DUP6 SLOAD PUSH2 0xB7E JUMP JUMPDEST DUP6 PUSH2 0x1006 JUMP JUMPDEST PUSH1 0x20 SWAP1 PUSH1 0x1F DUP4 GT PUSH1 0x1 EQ PUSH2 0x10BB JUMPI PUSH2 0xF7A SWAP3 SWAP2 PUSH1 0x0 SWAP2 DUP4 PUSH2 0x10B0 JUMPI JUMPDEST POP POP PUSH1 0x0 NOT PUSH1 0x8 DUP4 MUL SHR NOT AND SWAP1 PUSH1 0x2 MUL OR SWAP1 JUMP JUMPDEST ADD MLOAD SWAP1 POP CODESIZE DUP1 PUSH2 0x109C JUMP JUMPDEST PUSH1 0x1F NOT DUP4 AND SWAP2 PUSH2 0x10D0 DUP6 PUSH1 0x0 MSTORE PUSH1 0x20 PUSH1 0x0 KECCAK256 SWAP1 JUMP JUMPDEST SWAP3 PUSH1 0x0 JUMPDEST DUP2 DUP2 LT PUSH2 0x110E JUMPI POP SWAP2 PUSH1 0x2 SWAP4 SWAP2 DUP6 PUSH1 0x1 SWAP7 SWAP5 LT PUSH2 0x10F5 JUMPI JUMPDEST POP POP POP MUL ADD SWAP1 SSTORE JUMP JUMPDEST ADD MLOAD PUSH1 0x0 NOT PUSH1 0x8 PUSH1 0x1F DUP6 AND MUL SHR NOT AND SWAP1 SSTORE CODESIZE DUP1 DUP1 PUSH2 0x10EC JUMP JUMPDEST SWAP2 SWAP4 PUSH1 0x20 PUSH1 0x1 DUP2 SWAP3 DUP8 DUP8 ADD MLOAD DUP2 SSTORE ADD SWAP6 ADD SWAP3 ADD PUSH2 0x10D4 JUMP JUMPDEST SWAP1 PUSH2 0x1DA SWAP2 PUSH2 0x1053 JUMP JUMPDEST SWAP1 PUSH2 0xF73 PUSH2 0x1D3 PUSH2 0xF7A SWAP3 SWAP1 JUMP JUMPDEST PUSH2 0x1DA SWAP2 SWAP1 PUSH2 0x118B SWAP1 PUSH2 0x100 SWAP1 PUSH1 0x8 SWAP1 PUSH2 0x1160 DUP2 PUSH2 0x115A DUP8 MLOAD SWAP1 JUMP JUMPDEST SWAP1 PUSH2 0xF63 JUMP JUMPDEST PUSH2 0x1179 PUSH1 0x1 DUP3 ADD PUSH2 0x1173 PUSH1 0x20 DUP9 ADD PUSH2 0xF7E JUMP JUMPDEST SWAP1 PUSH2 0xF91 JUMP JUMPDEST PUSH2 0x1191 PUSH1 0x2 DUP3 ADD PUSH2 0x118B PUSH1 0x40 DUP9 ADD MLOAD SWAP1 JUMP JUMPDEST SWAP1 PUSH2 0x1126 JUMP JUMPDEST PUSH2 0x11A3 PUSH1 0x3 DUP3 ADD PUSH2 0x118B PUSH1 0x60 DUP9 ADD MLOAD SWAP1 JUMP JUMPDEST PUSH2 0x11B5 PUSH1 0x4 DUP3 ADD PUSH2 0x115A PUSH1 0x80 DUP9 ADD MLOAD SWAP1 JUMP JUMPDEST PUSH2 0x11C7 PUSH1 0x5 DUP3 ADD PUSH2 0x115A PUSH1 0xA0 DUP9 ADD MLOAD SWAP1 JUMP JUMPDEST PUSH2 0x11D9 PUSH1 0x6 DUP3 ADD PUSH2 0x115A PUSH1 0xC0 DUP9 ADD MLOAD SWAP1 JUMP JUMPDEST PUSH2 0x11F1 PUSH1 0x7 DUP3 ADD PUSH2 0x11EB PUSH1 0xE0 DUP9 ADD MLOAD SWAP1 JUMP JUMPDEST SWAP1 PUSH2 0x1130 JUMP JUMPDEST ADD SWAP3 ADD MLOAD SWAP1 JUMP JUMPDEST SWAP2 SWAP1 PUSH2 0x1207 JUMPI PUSH2 0x1DA SWAP2 PUSH2 0x113E JUMP JUMPDEST PUSH2 0xF30 JUMP JUMPDEST SWAP1 DUP2 SLOAD SWAP2 PUSH9 0x10000000000000000 DUP4 LT ISZERO PUSH2 0x32B JUMPI DUP3 PUSH2 0x1234 SWAP2 PUSH1 0x1 PUSH2 0x1DA SWAP6 ADD DUP2 SSTORE PUSH2 0xB1A JUMP JUMPDEST SWAP1 PUSH2 0x11F8 JUMP JUMPDEST SWAP1 PUSH2 0x1244 SWAP1 PUSH2 0x279 JUMP JUMPDEST PUSH1 0x0 MSTORE PUSH1 0x20 MSTORE PUSH1 0x40 PUSH1 0x0 KECCAK256 SWAP1 JUMP JUMPDEST PUSH4 0x4E487B71 PUSH1 0xE0 SHL PUSH1 0x0 MSTORE PUSH1 0x11 PUSH1 0x4 MSTORE PUSH1 0x24 PUSH1 0x0 REVERT JUMPDEST PUSH1 0x0 NOT DUP2 EQ PUSH2 0x1277 JUMPI PUSH1 0x1 ADD SWAP1 JUMP JUMPDEST PUSH2 0x1252 JUMP JUMPDEST SWAP4 SWAP3 SWAP2 SWAP1 SWAP2 PUSH2 0x128B PUSH1 0x4 PUSH2 0xB49 JUMP JUMPDEST SWAP4 DUP7 SWAP4 TIMESTAMP SWAP4 SWAP2 SWAP3 SWAP2 SWAP1 DUP8 PUSH2 0x129D PUSH2 0xECE JUMP JUMPDEST SWAP8 DUP9 MSTORE PUSH2 0x12AD SWAP1 PUSH1 0x20 DUP10 ADD PUSH2 0xED9 JUMP JUMPDEST PUSH1 0x40 DUP8 ADD MSTORE PUSH1 0x60 DUP7 ADD MSTORE PUSH1 0x80 DUP6 ADD MSTORE PUSH1 0xA0 DUP5 ADD MSTORE PUSH1 0xC0 DUP4 ADD MSTORE PUSH1 0xE0 DUP3 ADD MSTORE PUSH2 0x12D3 PUSH2 0xF28 JUMP JUMPDEST PUSH2 0x100 DUP3 ADD MSTORE PUSH2 0x12E4 DUP2 PUSH1 0x5 PUSH2 0x120C JUMP JUMPDEST PUSH2 0x12EF CALLER PUSH1 0x2 PUSH2 0x123A JUMP JUMPDEST DUP2 PUSH2 0x12F9 SWAP2 PUSH2 0x120C JUMP JUMPDEST PUSH2 0x1303 PUSH1 0x4 PUSH2 0xB49 JUMP JUMPDEST PUSH2 0x130C SWAP1 PUSH2 0x1268 JUMP JUMPDEST PUSH2 0x1317 SWAP1 PUSH1 0x4 PUSH2 0xF63 JUMP JUMPDEST MLOAD SWAP1 CALLER SWAP2 PUSH32 0x19C7FB851F92C8D4F19411743A614909B5753CF16D0EF77D269C04E51EAA7F0E SWAP1 PUSH2 0x1346 SWAP1 PUSH2 0xF56 JUMP JUMPDEST SWAP2 PUSH2 0x1350 SWAP1 PUSH2 0x666 JUMP JUMPDEST SWAP3 PUSH2 0x135A SWAP1 PUSH2 0x279 JUMP JUMPDEST SWAP4 PUSH2 0x1364 PUSH1 0x40 MLOAD SWAP1 JUMP JUMPDEST SWAP1 DUP2 MSTORE PUSH1 0x20 SWAP1 LOG4 JUMP JUMPDEST SWAP1 POP MLOAD SWAP1 PUSH2 0x1DA DUP3 PUSH2 0x9C1 JUMP JUMPDEST SWAP1 POP MLOAD SWAP1 PUSH2 0x1DA DUP3 PUSH2 0xE33 JUMP JUMPDEST PUSH2 0xFFFF DUP2 AND PUSH2 0x3BD JUMP JUMPDEST SWAP1 POP MLOAD SWAP1 PUSH2 0x1DA DUP3 PUSH2 0x1387 JUMP JUMPDEST PUSH1 0xFF DUP2 AND PUSH2 0x3BD JUMP JUMPDEST SWAP1 POP MLOAD SWAP1 PUSH2 0x1DA DUP3 PUSH2 0x139E JUMP JUMPDEST DUP1 ISZERO ISZERO PUSH2 0x3BD JUMP JUMPDEST SWAP1 POP MLOAD SWAP1 PUSH2 0x1DA DUP3 PUSH2 0x13B4 JUMP JUMPDEST PUSH1 0xE0 DUP2 DUP4 SUB SLT PUSH2 0x1C2 JUMPI PUSH2 0x13DD DUP3 DUP3 PUSH2 0x136D JUMP JUMPDEST SWAP3 PUSH2 0x13EB DUP4 PUSH1 0x20 DUP5 ADD PUSH2 0x137A JUMP JUMPDEST SWAP3 PUSH2 0x13F9 DUP2 PUSH1 0x40 DUP6 ADD PUSH2 0x1391 JUMP JUMPDEST SWAP3 PUSH2 0x1407 DUP3 PUSH1 0x60 DUP4 ADD PUSH2 0x1391 JUMP JUMPDEST SWAP3 PUSH2 0x1D3 PUSH2 0x1418 DUP5 PUSH1 0x80 DUP6 ADD PUSH2 0x1391 JUMP JUMPDEST SWAP4 PUSH2 0x1426 DUP2 PUSH1 0xA0 DUP7 ADD PUSH2 0x13A7 JUMP JUMPDEST SWAP4 PUSH1 0xC0 ADD PUSH2 0x13BC JUMP JUMPDEST PUSH1 0x40 MLOAD RETURNDATASIZE PUSH1 0x0 DUP3 RETURNDATACOPY RETURNDATASIZE SWAP1 REVERT JUMPDEST PUSH2 0x1D3 PUSH2 0x1D3 PUSH2 0x1D3 SWAP3 PUSH1 0x1 PUSH1 0x1 PUSH1 0xA0 SHL SUB AND SWAP1 JUMP JUMPDEST DUP2 DUP2 MUL SWAP3 SWAP2 DUP2 ISZERO SWAP2 DUP5 DIV EQ OR ISZERO PUSH2 0x1277 JUMPI JUMP JUMPDEST PUSH4 0x4E487B71 PUSH1 0xE0 SHL PUSH1 0x0 MSTORE PUSH1 0x12 PUSH1 0x4 MSTORE PUSH1 0x24 PUSH1 0x0 REVERT JUMPDEST SWAP1 PUSH2 0x1484 JUMP JUMPDEST SWAP2 SWAP1 JUMP JUMPDEST SWAP1 DUP2 ISZERO PUSH2 0x148F JUMPI DIV SWAP1 JUMP JUMPDEST PUSH2 0x1464 JUMP JUMPDEST PUSH2 0x14DA PUSH1 0xE0 PUSH2 0x14C2 PUSH32 0x0 PUSH2 0x279 JUMP JUMPDEST PUSH4 0x3850C7BD SWAP1 PUSH2 0x14D1 PUSH1 0x40 MLOAD SWAP1 JUMP JUMPDEST SWAP4 DUP5 SWAP3 PUSH1 0xE0 SHL SWAP1 JUMP JUMPDEST DUP3 MSTORE PUSH1 0x4 SWAP1 DUP3 SWAP1 GAS STATICCALL SWAP1 DUP2 ISZERO PUSH2 0x156D JUMPI PUSH2 0x1D3 SWAP2 PUSH2 0x1513 SWAP2 PUSH1 0x0 SWAP2 PUSH2 0x153B JUMPI JUMPDEST POP PUSH2 0x150D PUSH2 0x1507 DUP3 PUSH2 0x143B JUMP JUMPDEST SWAP2 PUSH2 0x143B JUMP JUMPDEST SWAP1 PUSH2 0x1451 JUMP JUMPDEST PUSH2 0x1535 PUSH25 0x1000000000000000000000000000000000000000000000000 PUSH2 0xF56 JUMP JUMPDEST SWAP1 PUSH2 0x147A JUMP JUMPDEST PUSH2 0x155C SWAP2 POP PUSH1 0xE0 RETURNDATASIZE DUP2 GT PUSH2 0x1566 JUMPI JUMPDEST PUSH2 0x1554 DUP2 DUP4 PUSH2 0x309 JUMP JUMPDEST DUP2 ADD SWAP1 PUSH2 0x13C9 JUMP JUMPDEST POP POP POP POP POP PUSH2 0x14FA JUMP JUMPDEST POP RETURNDATASIZE PUSH2 0x154A JUMP JUMPDEST PUSH2 0x142F JUMP JUMPDEST PUSH2 0x1D3 SWAP1 PUSH2 0x1C7 JUMP JUMPDEST PUSH2 0x1D3 SWAP1 SLOAD PUSH2 0x1572 JUMP JUMPDEST SWAP1 POP MLOAD SWAP1 PUSH2 0x1DA DUP3 PUSH2 0x3BB JUMP JUMPDEST SWAP1 PUSH1 0x20 DUP3 DUP3 SUB SLT PUSH2 0x1C2 JUMPI PUSH2 0x1D3 SWAP2 PUSH2 0x1585 JUMP JUMPDEST PUSH2 0x1620 PUSH1 0x20 PUSH2 0x15C0 PUSH2 0x15BB PUSH2 0x15BB PUSH1 0x0 PUSH2 0x157B JUMP JUMPDEST PUSH2 0x279 JUMP JUMPDEST PUSH4 0x70A08231 SWAP1 PUSH2 0x1609 PUSH2 0x15F2 PUSH32 0x0 PUSH2 0x279 JUMP JUMPDEST SWAP3 PUSH2 0x15FC PUSH1 0x40 MLOAD SWAP1 JUMP JUMPDEST SWAP6 DUP7 SWAP5 DUP6 SWAP4 DUP5 SWAP4 PUSH1 0xE0 SHL SWAP1 JUMP JUMPDEST DUP4 MSTORE PUSH1 0x1 PUSH1 0x1 PUSH1 0xA0 SHL SUB AND PUSH1 0x4 DUP4 ADD MSTORE PUSH1 0x24 DUP3 ADD SWAP1 JUMP JUMPDEST SUB SWAP2 GAS STATICCALL SWAP1 DUP2 ISZERO PUSH2 0x156D JUMPI PUSH1 0x0 SWAP2 PUSH2 0x1688 JUMPI JUMPDEST POP SWAP1 PUSH2 0x164A PUSH1 0x20 PUSH2 0x15C0 PUSH2 0x15BB PUSH2 0x15BB PUSH1 0x1 PUSH2 0x157B JUMP JUMPDEST SUB SWAP2 GAS STATICCALL SWAP1 DUP2 ISZERO PUSH2 0x156D JUMPI PUSH1 0x0 SWAP2 PUSH2 0x1660 JUMPI POP SWAP1 JUMP JUMPDEST PUSH2 0x1D3 SWAP2 POP PUSH1 0x20 RETURNDATASIZE DUP2 GT PUSH2 0x1681 JUMPI JUMPDEST PUSH2 0x1679 DUP2 DUP4 PUSH2 0x309 JUMP JUMPDEST DUP2 ADD SWAP1 PUSH2 0x1592 JUMP JUMPDEST POP RETURNDATASIZE PUSH2 0x166F JUMP JUMPDEST PUSH2 0x16A0 SWAP2 POP PUSH1 0x20 RETURNDATASIZE DUP2 GT PUSH2 0x1681 JUMPI PUSH2 0x1679 DUP2 DUP4 PUSH2 0x309 JUMP JUMPDEST CODESIZE PUSH2 0x1633 JUMP JUMPDEST PUSH2 0x16D4 PUSH1 0xE0 PUSH2 0x14C2 PUSH32 0x0 PUSH2 0x279 JUMP JUMPDEST DUP3 MSTORE PUSH1 0x4 SWAP1 DUP3 SWAP1 GAS STATICCALL SWAP1 DUP2 ISZERO PUSH2 0x156D JUMPI PUSH1 0x0 SWAP2 PUSH2 0x16EF JUMPI POP SWAP1 JUMP JUMPDEST PUSH2 0x1707 SWAP2 POP PUSH1 0xE0 RETURNDATASIZE DUP2 GT PUSH2 0x1566 JUMPI PUSH2 0x1554 DUP2 DUP4 PUSH2 0x309 JUMP JUMPDEST POP POP POP POP POP SWAP1 POP SWAP1 JUMP JUMPDEST SWAP1 POP MLOAD SWAP1 PUSH2 0x1DA DUP3 PUSH2 0x850 JUMP JUMPDEST SWAP1 PUSH1 0x20 DUP3 DUP3 SUB SLT PUSH2 0x1C2 JUMPI PUSH2 0x1D3 SWAP2 PUSH2 0x1711 JUMP JUMPDEST PUSH2 0x1760 PUSH1 0xE0 PUSH2 0x14C2 PUSH32 0x0 PUSH2 0x279 JUMP JUMPDEST DUP3 MSTORE PUSH1 0x4 SWAP1 DUP3 SWAP1 GAS STATICCALL SWAP1 DUP2 ISZERO PUSH2 0x156D JUMPI PUSH1 0x0 DUP1 SWAP2 SWAP1 SWAP3 PUSH2 0x17FE JUMPI JUMPDEST POP SWAP1 SWAP2 PUSH2 0x17BB PUSH1 0x20 PUSH2 0x17AC PUSH32 0x0 PUSH2 0x279 JUMP JUMPDEST PUSH4 0x1A686502 SWAP1 PUSH2 0x14D1 PUSH1 0x40 MLOAD SWAP1 JUMP JUMPDEST DUP3 MSTORE PUSH1 0x4 SWAP1 DUP3 SWAP1 GAS STATICCALL SWAP1 DUP2 ISZERO PUSH2 0x156D JUMPI PUSH1 0x0 SWAP2 PUSH2 0x17D6 JUMPI POP SWAP1 JUMP JUMPDEST PUSH2 0x1D3 SWAP2 POP PUSH1 0x20 RETURNDATASIZE DUP2 GT PUSH2 0x17F7 JUMPI JUMPDEST PUSH2 0x17EF DUP2 DUP4 PUSH2 0x309 JUMP JUMPDEST DUP2 ADD SWAP1 PUSH2 0x171E JUMP JUMPDEST POP RETURNDATASIZE PUSH2 0x17E5 JUMP JUMPDEST SWAP1 POP PUSH2 0x1818 SWAP2 POP PUSH1 0xE0 RETURNDATASIZE DUP2 GT PUSH2 0x1566 JUMPI PUSH2 0x1554 DUP2 DUP4 PUSH2 0x309 JUMP JUMPDEST POP POP POP POP PUSH2 0x177B JUMP JUMPDEST SWAP1 PUSH1 0x20 DUP3 DUP3 SUB SLT PUSH2 0x1C2 JUMPI PUSH2 0x1D3 SWAP2 PUSH2 0x136D JUMP JUMPDEST ISZERO PUSH2 0x183C JUMPI JUMP JUMPDEST PUSH1 0x40 MLOAD PUSH3 0x461BCD PUSH1 0xE5 SHL DUP2 MSTORE PUSH1 0x20 PUSH1 0x4 DUP3 ADD MSTORE PUSH1 0x12 PUSH1 0x24 DUP3 ADD MSTORE PUSH32 0x4E6F7420706F736974696F6E206F776E65720000000000000000000000000000 PUSH1 0x44 DUP3 ADD MSTORE PUSH1 0x64 SWAP1 REVERT JUMPDEST PUSH1 0x1 PUSH1 0x1 PUSH1 0xA0 SHL SUB SWAP1 SWAP2 AND DUP2 MSTORE PUSH1 0x40 DUP2 ADD SWAP3 SWAP2 PUSH2 0x1DA SWAP2 PUSH1 0x20 ADD MSTORE JUMP JUMPDEST PUSH2 0x18EE PUSH1 0x20 PUSH2 0x18CC PUSH32 0x0 PUSH2 0x279 JUMP JUMPDEST PUSH4 0x6352211E SWAP1 PUSH2 0x18E0 DUP6 SWAP3 PUSH2 0x15FC PUSH1 0x40 MLOAD SWAP1 JUMP JUMPDEST DUP4 MSTORE PUSH1 0x4 DUP4 ADD MSTORE PUSH1 0x24 DUP3 ADD SWAP1 JUMP JUMPDEST SUB SWAP2 GAS STATICCALL DUP1 ISZERO PUSH2 0x156D JUMPI PUSH2 0x191D SWAP2 PUSH1 0x0 SWAP2 PUSH2 0x19B3 JUMPI JUMPDEST POP PUSH2 0x1917 CALLER JUMPDEST SWAP2 PUSH1 0x1 PUSH1 0x1 PUSH1 0xA0 SHL SUB AND SWAP1 JUMP JUMPDEST EQ PUSH2 0x1835 JUMP JUMPDEST PUSH2 0x1946 PUSH32 0x0 PUSH2 0x279 JUMP JUMPDEST SWAP1 PUSH4 0x95EA7B3 SWAP1 PUSH2 0x1956 ADDRESS PUSH2 0x279 JUMP JUMPDEST SWAP1 SWAP3 DUP1 EXTCODESIZE ISZERO PUSH2 0x1C2 JUMPI PUSH2 0x197F PUSH1 0x0 DUP1 SWAP5 PUSH2 0x198A PUSH2 0x1972 PUSH1 0x40 MLOAD SWAP1 JUMP JUMPDEST SWAP8 DUP9 SWAP7 DUP8 SWAP6 DUP7 SWAP5 PUSH1 0xE0 SHL SWAP1 JUMP JUMPDEST DUP5 MSTORE PUSH1 0x4 DUP5 ADD PUSH2 0x1881 JUMP JUMPDEST SUB SWAP3 GAS CALL DUP1 ISZERO PUSH2 0x156D JUMPI PUSH2 0x199B JUMPI POP JUMP JUMPDEST PUSH2 0x1DA SWAP1 PUSH1 0x0 PUSH2 0x19AB DUP2 DUP4 PUSH2 0x309 JUMP JUMPDEST DUP2 ADD SWAP1 PUSH2 0x1B7 JUMP JUMPDEST PUSH2 0x19D4 SWAP2 POP PUSH1 0x20 RETURNDATASIZE DUP2 GT PUSH2 0x19DA JUMPI JUMPDEST PUSH2 0x19CC DUP2 DUP4 PUSH2 0x309 JUMP JUMPDEST DUP2 ADD SWAP1 PUSH2 0x1821 JUMP JUMPDEST CODESIZE PUSH2 0x1904 JUMP JUMPDEST POP RETURNDATASIZE PUSH2 0x19C2 JUMP JUMPDEST SWAP1 PUSH2 0x19FC PUSH2 0x19F0 PUSH2 0x5B8 DUP5 SLOAD SWAP1 JUMP JUMPDEST SWAP3 PUSH1 0x0 MSTORE PUSH1 0x20 PUSH1 0x0 KECCAK256 SWAP1 JUMP JUMPDEST SWAP1 PUSH1 0x0 JUMPDEST DUP2 DUP2 LT PUSH2 0x1A0D JUMPI POP POP POP SWAP1 JUMP JUMPDEST SWAP1 SWAP2 SWAP3 PUSH2 0x1A31 PUSH2 0x1A2A PUSH1 0x1 SWAP3 PUSH2 0x1A22 DUP8 PUSH2 0xB49 JUMP JUMPDEST DUP2 MSTORE PUSH1 0x20 ADD SWAP1 JUMP JUMPDEST SWAP5 PUSH1 0x1 ADD SWAP1 JUMP JUMPDEST SWAP3 SWAP2 ADD PUSH2 0x1A00 JUMP JUMPDEST SWAP1 PUSH2 0x1D3 SWAP2 PUSH2 0x19E1 JUMP JUMPDEST SWAP1 PUSH2 0x1DA PUSH2 0xC50 SWAP3 PUSH2 0x1A54 PUSH1 0x40 MLOAD SWAP1 JUMP JUMPDEST SWAP4 DUP5 DUP1 SWAP3 PUSH2 0x1A39 JUMP JUMPDEST PUSH2 0x1D3 SWAP1 PUSH2 0x1A43 JUMP JUMPDEST PUSH2 0x1D3 PUSH2 0x1A74 CALLER PUSH1 0x3 PUSH2 0x123A JUMP JUMPDEST PUSH2 0x1A5D JUMP JUMPDEST PUSH8 0xFFFFFFFFFFFFFFFF DUP2 GT PUSH2 0x32B JUMPI PUSH1 0x20 DUP1 SWAP2 MUL ADD SWAP1 JUMP JUMPDEST SWAP1 PUSH2 0xEF0 PUSH2 0x381 DUP4 PUSH2 0x1A79 JUMP JUMPDEST SWAP1 PUSH2 0x1DA PUSH2 0x1B62 PUSH1 0x8 PUSH2 0x1AAF PUSH2 0xECE JUMP JUMPDEST SWAP5 PUSH2 0x1AC0 PUSH2 0x1ABC DUP3 PUSH2 0xB49 JUMP JUMPDEST DUP8 MSTORE JUMP JUMPDEST PUSH2 0x1AD8 PUSH2 0x1ACF PUSH1 0x1 DUP4 ADD PUSH2 0xB5E JUMP JUMPDEST PUSH1 0x20 DUP9 ADD PUSH2 0xED9 JUMP JUMPDEST PUSH2 0x1AEE PUSH2 0x1AE7 PUSH1 0x2 DUP4 ADD PUSH2 0xC36 JUMP JUMPDEST PUSH1 0x40 DUP9 ADD MSTORE JUMP JUMPDEST PUSH2 0x1B04 PUSH2 0x1AFD PUSH1 0x3 DUP4 ADD PUSH2 0xC36 JUMP JUMPDEST PUSH1 0x60 DUP9 ADD MSTORE JUMP JUMPDEST PUSH2 0x1B1A PUSH2 0x1B13 PUSH1 0x4 DUP4 ADD PUSH2 0xB49 JUMP JUMPDEST PUSH1 0x80 DUP9 ADD MSTORE JUMP JUMPDEST PUSH2 0x1B30 PUSH2 0x1B29 PUSH1 0x5 DUP4 ADD PUSH2 0xB49 JUMP JUMPDEST PUSH1 0xA0 DUP9 ADD MSTORE JUMP JUMPDEST PUSH2 0x1B46 PUSH2 0x1B3F PUSH1 0x6 DUP4 ADD PUSH2 0xB49 JUMP JUMPDEST PUSH1 0xC0 DUP9 ADD MSTORE JUMP JUMPDEST PUSH2 0x1B5C PUSH2 0x1B55 PUSH1 0x7 DUP4 ADD PUSH2 0xB49 JUMP JUMPDEST PUSH1 0xE0 DUP9 ADD MSTORE JUMP JUMPDEST ADD PUSH2 0xC36 JUMP JUMPDEST PUSH2 0x100 DUP5 ADD MSTORE JUMP JUMPDEST PUSH2 0x1D3 SWAP1 PUSH2 0x1A9E JUMP JUMPDEST SWAP1 PUSH2 0x1B7C DUP3 SLOAD SWAP1 JUMP JUMPDEST PUSH2 0x1B85 DUP2 PUSH2 0x1A91 JUMP JUMPDEST SWAP3 PUSH2 0x1B99 PUSH1 0x20 DUP6 ADD SWAP2 PUSH1 0x0 MSTORE PUSH1 0x20 PUSH1 0x0 KECCAK256 SWAP1 JUMP JUMPDEST PUSH1 0x0 SWAP2 JUMPDEST DUP4 DUP4 LT PUSH2 0x1BAA JUMPI POP POP POP POP JUMP JUMPDEST PUSH1 0x9 PUSH1 0x20 PUSH1 0x1 SWAP3 PUSH2 0x1BBA DUP6 PUSH2 0x1B6A JUMP JUMPDEST DUP2 MSTORE ADD SWAP3 ADD SWAP3 ADD SWAP2 SWAP1 PUSH2 0x1B9D JUMP JUMPDEST PUSH2 0x1D3 SWAP1 PUSH2 0x1B73 JUMP JUMPDEST PUSH2 0x1D3 PUSH1 0x5 PUSH2 0x1BC8 JUMP JUMPDEST SWAP2 SWAP1 DUP3 ADD DUP1 SWAP3 GT PUSH2 0x1277 JUMPI JUMP JUMPDEST PUSH2 0x1D3 PUSH1 0xA0 PUSH2 0x330 JUMP JUMPDEST SWAP2 SWAP1 PUSH1 0x40 DUP4 DUP3 SUB SLT PUSH2 0x1C2 JUMPI PUSH2 0x1D3 SWAP1 PUSH2 0x1C0C DUP2 DUP6 PUSH2 0x1585 JUMP JUMPDEST SWAP4 PUSH1 0x20 ADD PUSH2 0x1585 JUMP JUMPDEST DUP1 MLOAD DUP3 MSTORE PUSH2 0x1DA SWAP2 SWAP1 PUSH1 0x80 SWAP1 DUP2 SWAP1 PUSH1 0x20 DUP2 DUP2 ADD MLOAD PUSH16 0xFFFFFFFFFFFFFFFFFFFFFFFFFFFFFFFF AND SWAP1 DUP6 ADD MSTORE PUSH2 0x1C4E PUSH1 0x40 DUP3 ADD MLOAD PUSH1 0x40 DUP7 ADD MSTORE JUMP JUMPDEST PUSH2 0x1C5D PUSH1 0x60 DUP3 ADD MLOAD PUSH1 0x60 DUP7 ADD MSTORE JUMP JUMPDEST ADD MLOAD SWAP2 ADD MSTORE JUMP JUMPDEST PUSH1 0xA0 DUP2 ADD SWAP3 SWAP2 PUSH2 0x1DA SWAP2 SWAP1 PUSH2 0x1C15 JUMP JUMPDEST SWAP2 PUSH2 0x1CC5 SWAP2 PUSH1 0x20 PUSH2 0x1CA4 PUSH32 0x0 PUSH2 0x279 JUMP JUMPDEST PUSH4 0x6352211E SWAP1 PUSH2 0x18E0 DUP8 SWAP3 PUSH2 0x1CB8 PUSH1 0x40 MLOAD SWAP1 JUMP JUMPDEST SWAP8 DUP9 SWAP5 DUP6 SWAP4 DUP5 SWAP4 PUSH1 0xE0 SHL SWAP1 JUMP JUMPDEST SUB SWAP2 GAS STATICCALL SWAP1 DUP2 ISZERO PUSH2 0x156D JUMPI PUSH2 0x1CEB PUSH1 0x40 SWAP3 PUSH2 0x1DB0 SWAP6 PUSH1 0x0 SWAP2 PUSH2 0x19B3 JUMPI POP PUSH2 0x1917 CALLER PUSH2 0x190A JUMP JUMPDEST PUSH2 0x1D5C DUP6 SWAP2 PUSH2 0x1D55 PUSH2 0x1D4E PUSH1 0x0 PUSH2 0x1D43 PUSH2 0x1D48 PUSH1 0x0 SWAP3 PUSH2 0x1D43 PUSH2 0x1D19 TIMESTAMP PUSH2 0x1D13 PUSH2 0x12C PUSH2 0xF56 JUMP JUMPDEST SWAP1 PUSH2 0x1BDB JUMP JUMPDEST SWAP8 PUSH2 0x1D2A PUSH2 0x1D25 PUSH2 0x1BE8 JUMP JUMPDEST SWAP12 DUP13 MSTORE JUMP JUMPDEST PUSH16 0xFFFFFFFFFFFFFFFFFFFFFFFFFFFFFFFF AND PUSH1 0x20 DUP12 ADD MSTORE JUMP JUMPDEST PUSH2 0xF56 JUMP JUMPDEST DUP9 DUP9 ADD MSTORE JUMP JUMPDEST PUSH1 0x60 DUP6 ADD MSTORE JUMP JUMPDEST PUSH1 0x80 DUP4 ADD MSTORE JUMP JUMPDEST PUSH2 0x1D85 PUSH32 0x0 PUSH2 0x279 JUMP JUMPDEST PUSH2 0x1DA5 PUSH1 0x0 PUSH4 0xC49CCBE PUSH2 0x1D98 PUSH1 0x40 MLOAD SWAP1 JUMP JUMPDEST SWAP8 DUP9 SWAP6 DUP7 SWAP5 DUP6 SWAP4 PUSH1 0xE0 SHL SWAP1 JUMP JUMPDEST DUP4 MSTORE PUSH1 0x4 DUP4 ADD PUSH2 0x1C64 JUMP JUMPDEST SUB SWAP3 GAS CALL SWAP2 DUP3 ISZERO PUSH2 0x156D JUMPI PUSH1 0x0 DUP1 SWAP2 SWAP1 SWAP4 PUSH2 0x1E34 JUMPI JUMPDEST POP PUSH1 0x40 PUSH2 0x1DF8 SWAP2 SWAP4 SWAP5 PUSH2 0x1DD8 ADDRESS PUSH2 0x279 JUMP JUMPDEST PUSH2 0x18E0 PUSH1 0x0 PUSH4 0xB17ACDCD PUSH2 0x1DEB PUSH1 0x40 MLOAD SWAP1 JUMP JUMPDEST SWAP7 DUP8 SWAP6 DUP7 SWAP5 DUP6 SWAP4 PUSH1 0xE0 SHL SWAP1 JUMP JUMPDEST SUB SWAP3 GAS CALL DUP1 ISZERO PUSH2 0x156D JUMPI PUSH2 0x1E09 JUMPI POP JUMP JUMPDEST PUSH2 0x1E29 SWAP1 PUSH1 0x40 RETURNDATASIZE DUP2 GT PUSH2 0x1E2D JUMPI JUMPDEST PUSH2 0x1E21 DUP2 DUP4 PUSH2 0x309 JUMP JUMPDEST DUP2 ADD SWAP1 PUSH2 0x1BF2 JUMP JUMPDEST POP POP JUMP JUMPDEST POP RETURNDATASIZE PUSH2 0x1E17 JUMP JUMPDEST PUSH1 0x40 SWAP4 POP PUSH2 0x1DF8 SWAP2 POP PUSH2 0x1E53 SWAP1 DUP5 RETURNDATASIZE DUP2 GT PUSH2 0x1E2D JUMPI PUSH2 0x1E21 DUP2 DUP4 PUSH2 0x309 JUMP JUMPDEST SWAP2 POP SWAP3 PUSH2 0x1DC6 JUMP JUMPDEST PUSH12 0xFFFFFFFFFFFFFFFFFFFFFFFF DUP2 AND PUSH2 0x3BD JUMP JUMPDEST SWAP1 POP MLOAD SWAP1 PUSH2 0x1DA DUP3 PUSH2 0x1E5B JUMP JUMPDEST PUSH3 0xFFFFFF DUP2 AND PUSH2 0x3BD JUMP JUMPDEST SWAP1 POP MLOAD SWAP1 PUSH2 0x1DA DUP3 PUSH2 0x1E7C JUMP JUMPDEST SWAP1 SWAP2 PUSH2 0x180 DUP3 DUP5 SUB SLT PUSH2 0x1C2 JUMPI PUSH2 0x1EAB DUP4 DUP4 PUSH2 0x1E6F JUMP JUMPDEST SWAP3 PUSH2 0x1EB9 DUP2 PUSH1 0x20 DUP6 ADD PUSH2 0x136D JUMP JUMPDEST SWAP3 PUSH2 0x1EC7 DUP3 PUSH1 0x40 DUP4 ADD PUSH2 0x136D JUMP JUMPDEST SWAP3 PUSH2 0x1ED5 DUP4 PUSH1 0x60 DUP5 ADD PUSH2 0x136D JUMP JUMPDEST SWAP3 PUSH2 0x1EE3 DUP2 PUSH1 0x80 DUP6 ADD PUSH2 0x1E87 JUMP JUMPDEST SWAP3 PUSH2 0x1EF1 DUP3 PUSH1 0xA0 DUP4 ADD PUSH2 0x137A JUMP JUMPDEST SWAP3 PUSH2 0x1EFF DUP4 PUSH1 0xC0 DUP5 ADD PUSH2 0x137A JUMP JUMPDEST SWAP3 PUSH2 0x1F0D DUP2 PUSH1 0xE0 DUP6 ADD PUSH2 0x1711 JUMP JUMPDEST SWAP3 PUSH2 0x1F1C DUP3 PUSH2 0x100 DUP4 ADD PUSH2 0x1585 JUMP JUMPDEST SWAP3 PUSH2 0x1D3 PUSH2 0x1F2E DUP5 PUSH2 0x120 DUP6 ADD PUSH2 0x1585 JUMP JUMPDEST SWAP4 PUSH2 0x1F3D DUP2 PUSH2 0x140 DUP7 ADD PUSH2 0x1711 JUMP JUMPDEST SWAP4 PUSH2 0x160 ADD PUSH2 0x1711 JUMP JUMPDEST PUSH2 0x1D3 PUSH2 0x1D3 PUSH2 0x1D3 SWAP3 PUSH16 0xFFFFFFFFFFFFFFFFFFFFFFFFFFFFFFFF AND SWAP1 JUMP JUMPDEST PUSH2 0x1F73 PUSH2 0x1D3 PUSH2 0x1D3 SWAP3 SWAP1 JUMP JUMPDEST PUSH16 0xFFFFFFFFFFFFFFFFFFFFFFFFFFFFFFFF AND SWAP1 JUMP JUMPDEST SWAP2 SWAP1 DUP3 SUB SWAP2 DUP3 GT PUSH2 0x1277 JUMPI JUMP JUMPDEST PUSH2 0x180 PUSH2 0x1FE3 SWAP2 PUSH2 0x1FA4 PUSH1 0x0 SWAP1 JUMP JUMPDEST POP PUSH1 0x0 JUMPDEST POP PUSH2 0x1FD2 PUSH32 0x0 PUSH2 0x279 JUMP JUMPDEST PUSH2 0x18E0 PUSH4 0x99FBAB88 PUSH2 0x15FC PUSH1 0x40 MLOAD SWAP1 JUMP JUMPDEST SUB SWAP2 GAS STATICCALL SWAP2 DUP3 ISZERO PUSH2 0x156D JUMPI PUSH1 0x0 SWAP3 DUP4 SWAP3 DUP4 SWAP2 DUP3 SWAP2 DUP3 SWAP2 PUSH2 0x21BC JUMPI JUMPDEST POP SWAP2 SWAP5 SWAP1 SWAP4 PUSH2 0x2040 PUSH1 0x20 PUSH2 0x2031 PUSH32 0x0 PUSH2 0x279 JUMP JUMPDEST PUSH4 0xF3058399 SWAP1 PUSH2 0x14D1 PUSH1 0x40 MLOAD SWAP1 JUMP JUMPDEST DUP3 MSTORE PUSH1 0x4 SWAP1 DUP3 SWAP1 GAS STATICCALL SWAP1 DUP2 ISZERO PUSH2 0x156D JUMPI PUSH1 0x0 SWAP2 PUSH2 0x219E JUMPI JUMPDEST POP SWAP6 PUSH2 0x2097 PUSH1 0x20 PUSH2 0x2088 PUSH32 0x0 PUSH2 0x279 JUMP JUMPDEST PUSH4 0x46141319 SWAP1 PUSH2 0x14D1 PUSH1 0x40 MLOAD SWAP1 JUMP JUMPDEST DUP3 MSTORE PUSH1 0x4 SWAP1 DUP3 SWAP1 GAS STATICCALL DUP1 ISZERO PUSH2 0x156D JUMPI PUSH2 0x20B9 SWAP2 PUSH1 0x0 SWAP2 PUSH2 0x2180 JUMPI JUMPDEST POP SWAP7 PUSH2 0x1F47 JUMP JUMPDEST SWAP7 DUP5 PUSH2 0x20DE PUSH2 0x20C8 PUSH1 0x0 PUSH2 0x1F66 JUMP JUMPDEST SWAP2 PUSH16 0xFFFFFFFFFFFFFFFFFFFFFFFFFFFFFFFF AND SWAP1 JUMP JUMPDEST GT PUSH2 0x2151 JUMPI JUMPDEST POP POP PUSH2 0x20EF SWAP1 PUSH2 0x1F47 JUMP JUMPDEST SWAP4 DUP3 PUSH2 0x20FE PUSH2 0x20C8 PUSH1 0x0 PUSH2 0x1F66 JUMP JUMPDEST GT PUSH2 0x2108 JUMPI POP POP POP JUMP JUMPDEST PUSH2 0x2147 PUSH2 0x212D PUSH2 0x1D3 SWAP6 SWAP7 SWAP5 PUSH2 0x150D PUSH2 0x2127 PUSH2 0x1D13 SWAP7 PUSH2 0x214C SWAP7 PUSH2 0x1F88 JUMP JUMPDEST SWAP2 PUSH2 0x1F47 JUMP JUMPDEST PUSH2 0x1535 PUSH17 0x100000000000000000000000000000000 PUSH2 0xF56 JUMP JUMPDEST PUSH2 0x1F66 JUMP JUMPDEST PUSH2 0x1F47 JUMP JUMPDEST SWAP7 PUSH2 0x1D13 PUSH2 0x214C PUSH2 0x2147 PUSH2 0x212D PUSH2 0x216F PUSH2 0x2178 SWAP7 PUSH2 0x20EF SWAP9 SWAP14 PUSH2 0x1F88 JUMP JUMPDEST PUSH2 0x150D DUP11 PUSH2 0x1F47 JUMP JUMPDEST SWAP6 SWAP1 CODESIZE PUSH2 0x20E4 JUMP JUMPDEST PUSH2 0x2198 SWAP2 POP PUSH1 0x20 RETURNDATASIZE DUP2 GT PUSH2 0x1681 JUMPI PUSH2 0x1679 DUP2 DUP4 PUSH2 0x309 JUMP JUMPDEST CODESIZE PUSH2 0x20B2 JUMP JUMPDEST PUSH2 0x21B6 SWAP2 POP PUSH1 0x20 RETURNDATASIZE DUP2 GT PUSH2 0x1681 JUMPI PUSH2 0x1679 DUP2 DUP4 PUSH2 0x309 JUMP JUMPDEST CODESIZE PUSH2 0x2058 JUMP JUMPDEST SWAP4 SWAP6 POP POP POP POP PUSH2 0x21E4 SWAP2 POP PUSH2 0x180 RETURNDATASIZE DUP2 GT PUSH2 0x21F5 JUMPI JUMPDEST PUSH2 0x21DC DUP2 DUP4 PUSH2 0x309 JUMP JUMPDEST DUP2 ADD SWAP1 PUSH2 0x1E94 JUMP JUMPDEST SWAP11 POP SWAP7 POP SWAP10 SWAP8 POP SWAP6 POP SWAP3 POP POP PUSH2 0x1FFE JUMP JUMPDEST POP RETURNDATASIZE PUSH2 0x21D2 JUMP JUMPDEST ISZERO PUSH2 0x2203 JUMPI JUMP JUMPDEST PUSH1 0x40 MLOAD PUSH3 0x461BCD PUSH1 0xE5 SHL DUP2 MSTORE PUSH1 0x20 PUSH1 0x4 DUP3 ADD MSTORE PUSH1 0x1C PUSH1 0x24 DUP3 ADD MSTORE PUSH32 0x4D7573742070726F76696465206E6F6E2D7A65726F20616D6F756E7400000000 PUSH1 0x44 DUP3 ADD MSTORE PUSH1 0x64 SWAP1 REVERT JUMPDEST SWAP1 PUSH1 0x20 DUP3 DUP3 SUB SLT PUSH2 0x1C2 JUMPI PUSH2 0x1D3 SWAP2 PUSH2 0x13BC JUMP JUMPDEST PUSH1 0x1 PUSH1 0x1 PUSH1 0xA0 SHL SUB SWAP2 DUP3 AND DUP2 MSTORE SWAP2 AND PUSH1 0x20 DUP3 ADD MSTORE PUSH1 0x60 DUP2 ADD SWAP3 SWAP2 PUSH2 0x1DA SWAP2 PUSH1 0x40 ADD MSTORE JUMP JUMPDEST PUSH2 0x1D3 SWAP1 PUSH1 0xA0 SHR PUSH2 0xDA5 JUMP JUMPDEST PUSH2 0x1D3 SWAP1 SLOAD PUSH2 0x2280 JUMP JUMPDEST PUSH2 0x1D3 PUSH2 0x160 PUSH2 0x330 JUMP JUMPDEST PUSH1 0x80 DUP2 DUP4 SUB SLT PUSH2 0x1C2 JUMPI PUSH2 0x22B5 DUP3 DUP3 PUSH2 0x1585 JUMP JUMPDEST SWAP3 PUSH2 0x1D3 PUSH2 0x22C6 DUP5 PUSH1 0x20 DUP6 ADD PUSH2 0x1711 JUMP JUMPDEST SWAP4 PUSH2 0x22D4 DUP2 PUSH1 0x40 DUP7 ADD PUSH2 0x1585 JUMP JUMPDEST SWAP4 PUSH1 0x60 ADD PUSH2 0x1585 JUMP JUMPDEST DUP1 MLOAD PUSH1 0x1 PUSH1 0x1 PUSH1 0xA0 SHL SUB AND DUP3 MSTORE PUSH2 0x1DA SWAP2 SWAP1 PUSH2 0x140 SWAP1 DUP2 SWAP1 PUSH1 0x20 DUP2 DUP2 ADD MLOAD PUSH1 0x1 PUSH1 0x1 PUSH1 0xA0 SHL SUB AND SWAP1 DUP6 ADD MSTORE PUSH1 0x40 DUP2 DUP2 ADD MLOAD PUSH3 0xFFFFFF AND SWAP1 DUP6 ADD MSTORE PUSH1 0x60 DUP2 DUP2 ADD MLOAD PUSH1 0x2 SIGNEXTEND SWAP1 DUP6 ADD MSTORE PUSH1 0x80 DUP2 DUP2 ADD MLOAD PUSH1 0x2 SIGNEXTEND SWAP1 DUP6 ADD MSTORE PUSH2 0x2340 PUSH1 0xA0 DUP3 ADD MLOAD PUSH1 0xA0 DUP7 ADD MSTORE JUMP JUMPDEST PUSH2 0x234F PUSH1 0xC0 DUP3 ADD MLOAD PUSH1 0xC0 DUP7 ADD MSTORE JUMP JUMPDEST PUSH2 0x235E PUSH1 0xE0 DUP3 ADD MLOAD PUSH1 0xE0 DUP7 ADD MSTORE JUMP JUMPDEST PUSH2 0x236F PUSH2 0x100 DUP3 ADD MLOAD PUSH2 0x100 DUP7 ADD MSTORE JUMP JUMPDEST PUSH2 0x120 DUP2 DUP2 ADD MLOAD PUSH1 0x1 PUSH1 0x1 PUSH1 0xA0 SHL SUB AND SWAP1 DUP6 ADD MSTORE PUSH2 0x1C5D JUMP JUMPDEST PUSH2 0x160 DUP2 ADD SWAP3 SWAP2 PUSH2 0x1DA SWAP2 SWAP1 PUSH2 0x22DD JUMP JUMPDEST DUP1 SLOAD DUP3 LT ISZERO PUSH2 0xB3D JUMPI PUSH2 0xB34 PUSH1 0x1 SWAP2 PUSH1 0x0 MSTORE PUSH1 0x20 PUSH1 0x0 KECCAK256 SWAP1 JUMP JUMPDEST SWAP1 DUP2 SLOAD SWAP2 PUSH9 0x10000000000000000 DUP4 LT ISZERO PUSH2 0x32B JUMPI DUP3 PUSH2 0x23DB SWAP2 PUSH1 0x1 PUSH2 0x1DA SWAP6 ADD DUP2 SSTORE PUSH2 0x2399 JUMP JUMPDEST SWAP1 PUSH2 0xFC2 JUMP JUMPDEST PUSH2 0x1D6 SWAP1 PUSH1 0x1 PUSH1 0x1 PUSH1 0xA0 SHL SUB AND PUSH1 0x60 SHL SWAP1 JUMP JUMPDEST PUSH1 0x20 PUSH2 0x361 SWAP5 PUSH2 0x2417 DUP3 DUP1 SWAP10 SWAP9 SWAP6 SWAP7 PUSH2 0x2417 PUSH1 0x14 DUP8 PUSH2 0x2417 PUSH2 0x2417 SWAP10 DUP7 SWAP13 PUSH2 0x23E1 JUMP JUMPDEST ADD SWAP2 DUP3 MSTORE JUMP JUMPDEST DUP1 PUSH2 0x242B PUSH2 0x1480 PUSH1 0x0 PUSH2 0xF56 JUMP JUMPDEST GT DUP1 ISZERO PUSH2 0x292E JUMPI JUMPDEST PUSH2 0x243C SWAP1 PUSH2 0x21FC JUMP JUMPDEST DUP1 PUSH2 0x244A PUSH2 0x1480 PUSH1 0x0 PUSH2 0xF56 JUMP JUMPDEST GT PUSH2 0x2846 JUMPI JUMPDEST DUP2 PUSH2 0x245E PUSH2 0x1480 PUSH1 0x0 PUSH2 0xF56 JUMP JUMPDEST GT PUSH2 0x2736 JUMPI JUMPDEST PUSH2 0x246C PUSH2 0x37F9 JUMP JUMPDEST PUSH2 0x2476 PUSH1 0x0 PUSH2 0x157B JUMP JUMPDEST SWAP2 PUSH2 0x2481 PUSH1 0x1 PUSH2 0x157B JUMP JUMPDEST SWAP2 PUSH2 0x248C PUSH1 0x1 PUSH2 0x228C JUMP JUMPDEST CALLER SWAP3 PUSH1 0x0 SWAP3 DUP4 SWAP3 DUP10 SWAP3 DUP10 SWAP3 SWAP2 TIMESTAMP PUSH2 0x24A4 PUSH2 0x12C PUSH2 0xF56 JUMP JUMPDEST PUSH2 0x24AD SWAP2 PUSH2 0x1BDB JUMP JUMPDEST SWAP9 PUSH2 0x24B6 PUSH2 0x2296 JUMP JUMPDEST PUSH1 0x1 PUSH1 0x1 PUSH1 0xA0 SHL SUB SWAP1 SWAP12 AND DUP12 MSTORE PUSH1 0x1 PUSH1 0x1 PUSH1 0xA0 SHL SUB AND PUSH1 0x20 DUP12 ADD MSTORE PUSH3 0xFFFFFF AND PUSH1 0x40 DUP11 ADD MSTORE PUSH1 0x2 SIGNEXTEND PUSH1 0x60 DUP10 ADD MSTORE PUSH1 0x2 SIGNEXTEND PUSH1 0x80 DUP9 ADD MSTORE PUSH1 0xA0 DUP8 ADD MSTORE PUSH1 0xC0 DUP7 ADD MSTORE PUSH2 0x24FE SWAP1 PUSH2 0xF56 JUMP JUMPDEST PUSH1 0xE0 DUP6 ADD MSTORE PUSH2 0x250C SWAP1 PUSH2 0xF56 JUMP JUMPDEST PUSH2 0x100 DUP5 ADD MSTORE PUSH1 0x1 PUSH1 0x1 PUSH1 0xA0 SHL SUB AND PUSH2 0x120 DUP4 ADD MSTORE PUSH2 0x140 DUP3 ADD MSTORE PUSH2 0x2550 PUSH32 0x0 PUSH2 0x279 JUMP JUMPDEST PUSH4 0x88316456 PUSH2 0x255E PUSH1 0x40 MLOAD SWAP1 JUMP JUMPDEST DUP1 SWAP4 PUSH2 0x256B DUP3 SWAP4 PUSH1 0xE0 SHL SWAP1 JUMP JUMPDEST DUP3 MSTORE PUSH2 0x257A SWAP1 PUSH1 0x4 DUP4 ADD PUSH2 0x2388 JUMP JUMPDEST SUB DUP2 GAS PUSH1 0x80 SWAP5 PUSH1 0x0 SWAP2 CALL SWAP1 DUP2 ISZERO PUSH2 0x156D JUMPI PUSH1 0x0 SWAP2 PUSH2 0x2707 JUMPI JUMPDEST POP SWAP2 PUSH2 0x25A0 CALLER PUSH1 0x3 PUSH2 0x123A JUMP JUMPDEST DUP4 PUSH2 0x25AA SWAP2 PUSH2 0x23B3 JUMP JUMPDEST CALLER TIMESTAMP DUP4 SWAP2 DUP4 DUP7 SWAP1 PUSH2 0x25BA PUSH1 0x40 MLOAD SWAP1 JUMP JUMPDEST SWAP5 DUP6 SWAP5 PUSH2 0x25CA SWAP5 PUSH1 0x20 DUP8 ADD PUSH2 0x23F4 JUMP JUMPDEST PUSH1 0x20 DUP3 ADD DUP2 SUB DUP3 MSTORE SUB PUSH2 0x25DD SWAP1 DUP3 PUSH2 0x309 JUMP JUMPDEST DUP1 MLOAD SWAP1 PUSH1 0x20 ADD KECCAK256 PUSH2 0x25EE PUSH1 0x4 PUSH2 0xB49 JUMP JUMPDEST SWAP3 PUSH1 0x0 SWAP3 PUSH2 0x25FC PUSH1 0x0 PUSH2 0x157B JUMP JUMPDEST PUSH2 0x2605 SWAP1 PUSH2 0x3948 JUMP JUMPDEST SWAP2 PUSH2 0x2610 PUSH1 0x1 PUSH2 0x157B JUMP JUMPDEST PUSH2 0x2619 SWAP1 PUSH2 0x3948 JUMP JUMPDEST SWAP1 SWAP2 SWAP3 TIMESTAMP SWAP5 SWAP6 PUSH2 0x2627 PUSH2 0xECE JUMP JUMPDEST SWAP8 DUP9 MSTORE PUSH2 0x2637 SWAP1 PUSH1 0x20 DUP10 ADD PUSH2 0xED9 JUMP JUMPDEST PUSH1 0x40 DUP8 ADD MSTORE PUSH1 0x60 DUP7 ADD MSTORE PUSH1 0x80 DUP6 ADD MSTORE PUSH1 0xA0 DUP5 ADD MSTORE PUSH1 0xC0 DUP4 ADD MSTORE PUSH1 0xE0 DUP3 ADD MSTORE PUSH2 0x265D PUSH2 0xF28 JUMP JUMPDEST PUSH2 0x100 DUP3 ADD MSTORE PUSH2 0x266E DUP2 PUSH1 0x5 PUSH2 0x120C JUMP JUMPDEST PUSH2 0x2679 CALLER PUSH1 0x2 PUSH2 0x123A JUMP JUMPDEST DUP2 PUSH2 0x2683 SWAP2 PUSH2 0x120C JUMP JUMPDEST PUSH2 0x268D PUSH1 0x4 PUSH2 0xB49 JUMP JUMPDEST PUSH2 0x2696 SWAP1 PUSH2 0x1268 JUMP JUMPDEST PUSH2 0x26A1 SWAP1 PUSH1 0x4 PUSH2 0xF63 JUMP JUMPDEST DUP1 MLOAD PUSH1 0x0 SWAP2 PUSH1 0xE0 ADD PUSH2 0x26B1 SWAP1 MLOAD SWAP1 JUMP JUMPDEST SWAP2 CALLER SWAP2 PUSH32 0x19C7FB851F92C8D4F19411743A614909B5753CF16D0EF77D269C04E51EAA7F0E SWAP1 PUSH2 0x26DF SWAP1 PUSH2 0xF56 JUMP JUMPDEST SWAP2 PUSH2 0x26E9 SWAP1 PUSH2 0x666 JUMP JUMPDEST SWAP3 PUSH2 0x26F3 SWAP1 PUSH2 0x279 JUMP JUMPDEST SWAP4 PUSH2 0x26FD PUSH1 0x40 MLOAD SWAP1 JUMP JUMPDEST SWAP1 DUP2 MSTORE PUSH1 0x20 SWAP1 LOG4 SWAP1 JUMP JUMPDEST PUSH2 0x2728 SWAP2 POP PUSH1 0x80 RETURNDATASIZE DUP2 GT PUSH2 0x272F JUMPI JUMPDEST PUSH2 0x2720 DUP2 DUP4 PUSH2 0x309 JUMP JUMPDEST DUP2 ADD SWAP1 PUSH2 0x22A1 JUMP JUMPDEST POP POP PUSH2 0x2593 JUMP JUMPDEST POP RETURNDATASIZE PUSH2 0x2716 JUMP JUMPDEST PUSH2 0x2746 PUSH2 0x15BB PUSH2 0x15BB PUSH1 0x1 PUSH2 0x157B JUMP JUMPDEST PUSH1 0x20 PUSH4 0x23B872DD SWAP2 CALLER SWAP1 PUSH2 0x2779 PUSH1 0x0 PUSH2 0x275E ADDRESS PUSH2 0x279 JUMP JUMPDEST SWAP6 PUSH2 0x2784 DUP10 PUSH2 0x276C PUSH1 0x40 MLOAD SWAP1 JUMP JUMPDEST SWAP9 DUP10 SWAP8 DUP9 SWAP7 DUP8 SWAP6 PUSH1 0xE0 SHL SWAP1 JUMP JUMPDEST DUP6 MSTORE PUSH1 0x4 DUP6 ADD PUSH2 0x225C JUMP JUMPDEST SUB SWAP3 GAS CALL DUP1 ISZERO PUSH2 0x156D JUMPI PUSH2 0x282A JUMPI JUMPDEST POP PUSH2 0x27A4 PUSH2 0x15BB PUSH2 0x15BB PUSH1 0x1 PUSH2 0x157B JUMP JUMPDEST PUSH1 0x20 PUSH4 0x95EA7B3 SWAP2 PUSH2 0x27D5 PUSH32 0x0 PUSH2 0x279 JUMP JUMPDEST SWAP1 PUSH2 0x197F PUSH1 0x0 DUP8 SWAP6 PUSH2 0x27E9 PUSH2 0x1972 PUSH1 0x40 MLOAD SWAP1 JUMP JUMPDEST SUB SWAP3 GAS CALL DUP1 ISZERO PUSH2 0x156D JUMPI PUSH2 0x27FE JUMPI JUMPDEST POP PUSH2 0x2464 JUMP JUMPDEST PUSH2 0x281E SWAP1 PUSH1 0x20 RETURNDATASIZE DUP2 GT PUSH2 0x2823 JUMPI JUMPDEST PUSH2 0x2816 DUP2 DUP4 PUSH2 0x309 JUMP JUMPDEST DUP2 ADD SWAP1 PUSH2 0x2248 JUMP JUMPDEST PUSH2 0x27F8 JUMP JUMPDEST POP RETURNDATASIZE PUSH2 0x280C JUMP JUMPDEST PUSH2 0x2841 SWAP1 PUSH1 0x20 RETURNDATASIZE DUP2 GT PUSH2 0x2823 JUMPI PUSH2 0x2816 DUP2 DUP4 PUSH2 0x309 JUMP JUMPDEST PUSH2 0x2793 JUMP JUMPDEST PUSH2 0x2856 PUSH2 0x15BB PUSH2 0x15BB PUSH1 0x0 PUSH2 0x157B JUMP JUMPDEST PUSH1 0x20 PUSH4 0x23B872DD SWAP2 CALLER SWAP1 PUSH2 0x2779 PUSH1 0x0 PUSH2 0x286E ADDRESS PUSH2 0x279 JUMP JUMPDEST SWAP6 PUSH2 0x287C DUP9 PUSH2 0x276C PUSH1 0x40 MLOAD SWAP1 JUMP JUMPDEST SUB SWAP3 GAS CALL DUP1 ISZERO PUSH2 0x156D JUMPI PUSH2 0x2912 JUMPI JUMPDEST POP PUSH2 0x289C PUSH2 0x15BB PUSH2 0x15BB PUSH1 0x0 PUSH2 0x157B JUMP JUMPDEST PUSH1 0x20 PUSH4 0x95EA7B3 SWAP2 PUSH2 0x28CD PUSH32 0x0 PUSH2 0x279 JUMP JUMPDEST SWAP1 PUSH2 0x197F PUSH1 0x0 DUP7 SWAP6 PUSH2 0x28E1 PUSH2 0x1972 PUSH1 0x40 MLOAD SWAP1 JUMP JUMPDEST SUB SWAP3 GAS CALL DUP1 ISZERO PUSH2 0x156D JUMPI PUSH2 0x28F6 JUMPI JUMPDEST POP PUSH2 0x2450 JUMP JUMPDEST PUSH2 0x290D SWAP1 PUSH1 0x20 RETURNDATASIZE DUP2 GT PUSH2 0x2823 JUMPI PUSH2 0x2816 DUP2 DUP4 PUSH2 0x309 JUMP JUMPDEST PUSH2 0x28F0 JUMP JUMPDEST PUSH2 0x2929 SWAP1 PUSH1 0x20 RETURNDATASIZE DUP2 GT PUSH2 0x2823 JUMPI PUSH2 0x2816 DUP2 DUP4 PUSH2 0x309 JUMP JUMPDEST PUSH2 0x288B JUMP JUMPDEST POP PUSH2 0x243C DUP3 PUSH2 0x2940 PUSH2 0x1480 PUSH1 0x0 PUSH2 0xF56 JUMP JUMPDEST GT SWAP1 POP PUSH2 0x2433 JUMP JUMPDEST PUSH2 0x180 PUSH2 0x295F SWAP2 PUSH2 0x2957 PUSH1 0x0 SWAP1 JUMP JUMPDEST POP PUSH1 0x0 PUSH2 0x1FA4 JUMP JUMPDEST SUB SWAP2 GAS STATICCALL SWAP1 DUP2 ISZERO PUSH2 0x156D JUMPI PUSH1 0x0 SWAP2 DUP3 SWAP2 DUP3 SWAP2 DUP3 SWAP2 DUP3 SWAP2 DUP3 SWAP2 DUP3 SWAP2 PUSH2 0x2988 JUMPI JUMPDEST POP SWAP1 SWAP2 SWAP3 SWAP4 SWAP5 SWAP6 SWAP7 JUMP JUMPDEST SWAP6 POP POP POP POP POP POP PUSH2 0x29A8 SWAP2 POP PUSH2 0x180 RETURNDATASIZE DUP2 GT PUSH2 0x21F5 JUMPI PUSH2 0x21DC DUP2 DUP4 PUSH2 0x309 JUMP JUMPDEST SWAP5 POP SWAP5 POP SWAP5 POP SWAP5 SWAP7 POP SWAP5 SWAP7 PUSH2 0x297E JUMP JUMPDEST SWAP1 PUSH2 0x29C1 DUP3 MLOAD SWAP1 JUMP JUMPDEST DUP2 LT ISZERO PUSH2 0xB3D JUMPI PUSH1 0x20 DUP1 SWAP2 MUL ADD ADD SWAP1 JUMP JUMPDEST PUSH2 0x1A74 PUSH2 0x29E9 SWAP2 PUSH2 0x29E1 PUSH1 0x0 SWAP1 JUMP JUMPDEST POP PUSH1 0x3 PUSH2 0x123A JUMP JUMPDEST SWAP1 PUSH2 0x29F4 PUSH1 0x0 PUSH2 0xF56 JUMP JUMPDEST DUP1 PUSH2 0x2A03 PUSH2 0x1480 PUSH2 0x1D3 DUP7 MLOAD SWAP1 JUMP JUMPDEST LT ISZERO PUSH2 0x2A30 JUMPI PUSH2 0x2A1A PUSH2 0x2A16 DUP3 DUP6 PUSH2 0x29B8 JUMP JUMPDEST MLOAD SWAP1 JUMP JUMPDEST DUP3 EQ PUSH2 0x2A28 JUMPI PUSH1 0x1 ADD PUSH2 0x29F4 JUMP JUMPDEST POP POP POP PUSH1 0x1 SWAP1 JUMP JUMPDEST POP POP POP PUSH1 0x0 SWAP1 JUMP JUMPDEST ISZERO PUSH2 0x2A3F JUMPI JUMP JUMPDEST PUSH1 0x40 MLOAD PUSH3 0x461BCD PUSH1 0xE5 SHL DUP2 MSTORE PUSH1 0x20 PUSH1 0x4 DUP3 ADD MSTORE PUSH1 0x2D PUSH1 0x24 DUP3 ADD MSTORE PUSH32 0x436F6E7472616374206E6F7420617070726F76656420746F206D616E61676520 PUSH1 0x44 DUP3 ADD MSTORE PUSH32 0x7468697320706F736974696F6E00000000000000000000000000000000000000 PUSH1 0x64 DUP3 ADD MSTORE PUSH1 0x84 SWAP1 REVERT JUMPDEST PUSH2 0x1D3 PUSH1 0x80 PUSH2 0x330 JUMP JUMPDEST DUP1 MLOAD DUP3 MSTORE PUSH1 0x20 DUP1 DUP3 ADD MLOAD PUSH1 0x1 PUSH1 0x1 PUSH1 0xA0 SHL SUB AND SWAP1 DUP4 ADD MSTORE PUSH2 0x1DA SWAP2 SWAP1 PUSH1 0x60 SWAP1 DUP2 SWAP1 PUSH1 0x40 DUP2 DUP2 ADD MLOAD PUSH16 0xFFFFFFFFFFFFFFFFFFFFFFFFFFFFFFFF AND SWAP1 DUP6 ADD MSTORE ADD MLOAD PUSH16 0xFFFFFFFFFFFFFFFFFFFFFFFFFFFFFFFF AND SWAP2 ADD MSTORE JUMP JUMPDEST PUSH1 0x80 DUP2 ADD SWAP3 SWAP2 PUSH2 0x1DA SWAP2 SWAP1 PUSH2 0x2AB4 JUMP JUMPDEST PUSH2 0x2B48 PUSH1 0x20 PUSH2 0x18CC PUSH32 0x0 PUSH2 0x279 JUMP JUMPDEST SUB SWAP2 GAS STATICCALL DUP1 ISZERO PUSH2 0x156D JUMPI PUSH2 0x2B67 SWAP2 PUSH1 0x0 SWAP2 PUSH2 0x19B3 JUMPI POP PUSH2 0x1917 CALLER PUSH2 0x190A JUMP JUMPDEST PUSH2 0x2BA9 PUSH1 0x20 PUSH2 0x2B95 PUSH32 0x0 PUSH2 0x279 JUMP JUMPDEST PUSH4 0x81812FC SWAP1 PUSH2 0x18E0 DUP6 SWAP3 PUSH2 0x15FC PUSH1 0x40 MLOAD SWAP1 JUMP JUMPDEST SUB SWAP2 GAS STATICCALL SWAP1 DUP2 ISZERO PUSH2 0x156D JUMPI PUSH1 0x0 SWAP2 PUSH2 0x2D8F JUMPI JUMPDEST POP PUSH2 0x2BCC PUSH2 0x190A PUSH2 0x1C7 ADDRESS PUSH2 0x279 JUMP JUMPDEST EQ DUP1 ISZERO PUSH2 0x2CCF JUMPI JUMPDEST PUSH2 0x2C97 SWAP2 PUSH2 0x2BE3 PUSH1 0x40 SWAP3 PUSH2 0x2A38 JUMP JUMPDEST PUSH2 0x2C50 PUSH16 0xFFFFFFFFFFFFFFFFFFFFFFFFFFFFFFFF PUSH2 0x2C37 DUP2 PUSH2 0x2C1F CALLER PUSH2 0x2C0F PUSH2 0x2C0A PUSH2 0x2AAA JUMP JUMPDEST SWAP8 DUP9 MSTORE JUMP JUMPDEST PUSH1 0x1 PUSH1 0x1 PUSH1 0xA0 SHL SUB AND PUSH1 0x20 DUP8 ADD MSTORE JUMP JUMPDEST PUSH16 0xFFFFFFFFFFFFFFFFFFFFFFFFFFFFFFFF AND DUP5 DUP7 ADD MSTORE JUMP JUMPDEST PUSH16 0xFFFFFFFFFFFFFFFFFFFFFFFFFFFFFFFF AND PUSH1 0x60 DUP4 ADD MSTORE JUMP JUMPDEST PUSH2 0x2C79 PUSH32 0x0 PUSH2 0x279 JUMP JUMPDEST PUSH2 0x2C8C PUSH1 0x0 PUSH4 0xFC6F7865 PUSH2 0x1DEB PUSH1 0x40 MLOAD SWAP1 JUMP JUMPDEST DUP4 MSTORE PUSH1 0x4 DUP4 ADD PUSH2 0x2B0A JUMP JUMPDEST SUB SWAP3 GAS CALL SWAP1 DUP2 ISZERO PUSH2 0x156D JUMPI PUSH1 0x0 DUP1 SWAP2 SWAP1 SWAP3 PUSH2 0x2CB1 JUMPI POP SWAP1 SWAP2 JUMP JUMPDEST SWAP1 POP PUSH2 0x2CCB SWAP2 POP PUSH1 0x40 RETURNDATASIZE DUP2 GT PUSH2 0x1E2D JUMPI PUSH2 0x1E21 DUP2 DUP4 PUSH2 0x309 JUMP JUMPDEST SWAP1 SWAP2 JUMP JUMPDEST POP PUSH2 0x2CF9 PUSH32 0x0 PUSH2 0x279 JUMP JUMPDEST SWAP1 PUSH1 0x20 PUSH4 0xE985E9C5 SWAP3 CALLER SWAP1 PUSH2 0x2D2A PUSH2 0x2D10 ADDRESS PUSH2 0x279 JUMP JUMPDEST SWAP6 PUSH2 0x2D49 PUSH2 0x2D1D PUSH1 0x40 MLOAD SWAP1 JUMP JUMPDEST SWAP8 DUP9 SWAP6 DUP7 SWAP5 DUP6 SWAP5 PUSH1 0xE0 SHL SWAP1 JUMP JUMPDEST DUP5 MSTORE PUSH1 0x1 PUSH1 0x1 PUSH1 0xA0 SHL SUB SWAP1 DUP2 AND PUSH1 0x4 DUP6 ADD MSTORE AND PUSH1 0x24 DUP4 ADD MSTORE PUSH1 0x44 DUP3 ADD SWAP1 JUMP JUMPDEST SUB SWAP2 GAS STATICCALL SWAP1 DUP2 ISZERO PUSH2 0x156D JUMPI PUSH2 0x2BE3 PUSH1 0x40 SWAP3 PUSH2 0x2C97 SWAP5 PUSH1 0x0 SWAP2 PUSH2 0x2D71 JUMPI JUMPDEST POP SWAP3 POP POP SWAP2 POP PUSH2 0x2BD4 JUMP JUMPDEST PUSH2 0x2D89 SWAP2 POP PUSH1 0x20 RETURNDATASIZE DUP2 GT PUSH2 0x2823 JUMPI PUSH2 0x2816 DUP2 DUP4 PUSH2 0x309 JUMP JUMPDEST CODESIZE PUSH2 0x2D66 JUMP JUMPDEST PUSH2 0x2DA7 SWAP2 POP PUSH1 0x20 RETURNDATASIZE DUP2 GT PUSH2 0x19DA JUMPI PUSH2 0x19CC DUP2 DUP4 PUSH2 0x309 JUMP JUMPDEST CODESIZE PUSH2 0x2BBC JUMP JUMPDEST PUSH2 0x1D3 PUSH2 0x2DBB CALLER PUSH1 0x2 PUSH2 0x123A JUMP JUMPDEST PUSH2 0x1BC8 JUMP JUMPDEST ISZERO PUSH2 0x2DC7 JUMPI JUMP JUMPDEST PUSH1 0x40 MLOAD PUSH3 0x461BCD PUSH1 0xE5 SHL DUP2 MSTORE PUSH1 0x20 PUSH1 0x4 DUP3 ADD MSTORE PUSH1 0x13 PUSH1 0x24 DUP3 ADD MSTORE PUSH32 0x496E76616C696420696E70757420746F6B656E00000000000000000000000000 PUSH1 0x44 DUP3 ADD MSTORE PUSH1 0x64 SWAP1 REVERT JUMPDEST ISZERO PUSH2 0x2E13 JUMPI JUMP JUMPDEST PUSH1 0x40 MLOAD PUSH3 0x461BCD PUSH1 0xE5 SHL DUP2 MSTORE PUSH1 0x20 PUSH1 0x4 DUP3 ADD MSTORE PUSH1 0x14 PUSH1 0x24 DUP3 ADD MSTORE PUSH32 0x496E76616C6964206F757470757420746F6B656E000000000000000000000000 PUSH1 0x44 DUP3 ADD MSTORE PUSH1 0x64 SWAP1 REVERT JUMPDEST ISZERO PUSH2 0x2E5F JUMPI JUMP JUMPDEST PUSH1 0x40 MLOAD PUSH3 0x461BCD PUSH1 0xE5 SHL DUP2 MSTORE PUSH1 0x20 PUSH1 0x4 DUP3 ADD MSTORE PUSH1 0x16 PUSH1 0x24 DUP3 ADD MSTORE PUSH32 0x43616E6E6F7420737761702073616D6520746F6B656E00000000000000000000 PUSH1 0x44 DUP3 ADD MSTORE PUSH1 0x64 SWAP1 REVERT JUMPDEST PUSH2 0x1D3 PUSH2 0x100 PUSH2 0x330 JUMP JUMPDEST PUSH2 0x1C7 PUSH2 0x1D3 PUSH2 0x1D3 SWAP3 SWAP1 JUMP JUMPDEST DUP1 MLOAD PUSH1 0x1 PUSH1 0x1 PUSH1 0xA0 SHL SUB AND DUP3 MSTORE PUSH2 0x1DA SWAP2 SWAP1 PUSH1 0xE0 SWAP1 DUP2 SWAP1 PUSH1 0x20 DUP2 DUP2 ADD MLOAD PUSH1 0x1 PUSH1 0x1 PUSH1 0xA0 SHL SUB AND SWAP1 DUP6 ADD MSTORE PUSH1 0x40 DUP2 DUP2 ADD MLOAD PUSH3 0xFFFFFF AND SWAP1 DUP6 ADD MSTORE PUSH1 0x60 DUP1 DUP3 ADD MLOAD PUSH1 0x1 PUSH1 0x1 PUSH1 0xA0 SHL SUB AND SWAP1 DUP6 ADD MSTORE PUSH2 0x2F17 PUSH1 0x80 DUP3 ADD MLOAD PUSH1 0x80 DUP7 ADD MSTORE JUMP JUMPDEST PUSH2 0x2F26 PUSH1 0xA0 DUP3 ADD MLOAD PUSH1 0xA0 DUP7 ADD MSTORE JUMP JUMPDEST PUSH2 0x2F35 PUSH1 0xC0 DUP3 ADD MLOAD PUSH1 0xC0 DUP7 ADD MSTORE JUMP JUMPDEST ADD MLOAD PUSH1 0x1 PUSH1 0x1 PUSH1 0xA0 SHL SUB AND SWAP2 ADD MSTORE JUMP JUMPDEST PUSH2 0x100 DUP2 ADD SWAP3 SWAP2 PUSH2 0x1DA SWAP2 SWAP1 PUSH2 0x2EBC JUMP JUMPDEST PUSH1 0x14 PUSH2 0x361 SWAP5 PUSH2 0x2F78 PUSH1 0x20 DUP4 SWAP7 PUSH2 0x2F78 DUP6 DUP8 PUSH2 0x2417 PUSH2 0x2417 SWAP10 DUP7 SWAP16 SWAP15 SWAP12 PUSH2 0x23E1 JUMP JUMPDEST ADD DUP1 SWAP3 PUSH2 0x23E1 JUMP JUMPDEST SWAP1 SWAP2 SWAP1 DUP1 PUSH2 0x2F94 PUSH2 0x190A PUSH2 0x1C7 PUSH1 0x0 PUSH2 0x157B JUMP JUMPDEST EQ DUP1 ISZERO PUSH2 0x32EF JUMPI JUMPDEST PUSH2 0x2FA5 SWAP1 PUSH2 0x2DC0 JUMP JUMPDEST DUP3 PUSH2 0x2FB6 PUSH2 0x190A PUSH2 0x1C7 PUSH1 0x0 PUSH2 0x157B JUMP JUMPDEST EQ DUP1 ISZERO PUSH2 0x32D2 JUMPI JUMPDEST PUSH2 0x2FC7 SWAP1 PUSH2 0x2E0C JUMP JUMPDEST PUSH2 0x2FE4 DUP2 PUSH2 0x2FDD PUSH1 0x1 PUSH1 0x1 PUSH1 0xA0 SHL SUB DUP7 AND PUSH2 0x190A JUMP JUMPDEST EQ ISZERO PUSH2 0x2E58 JUMP JUMPDEST PUSH2 0x2FF0 PUSH2 0x15BB DUP3 PUSH2 0x279 JUMP JUMPDEST PUSH1 0x20 PUSH4 0x23B872DD SWAP2 CALLER SWAP1 PUSH2 0x2779 PUSH1 0x0 PUSH2 0x3008 ADDRESS PUSH2 0x279 JUMP JUMPDEST SWAP6 PUSH2 0x3016 DUP10 PUSH2 0x276C PUSH1 0x40 MLOAD SWAP1 JUMP JUMPDEST SUB SWAP3 GAS CALL DUP1 ISZERO PUSH2 0x156D JUMPI PUSH2 0x32B6 JUMPI JUMPDEST POP PUSH2 0x3032 PUSH2 0x15BB DUP3 PUSH2 0x279 JUMP JUMPDEST PUSH1 0x20 PUSH4 0x95EA7B3 SWAP2 PUSH2 0x3063 PUSH32 0x0 PUSH2 0x279 JUMP JUMPDEST SWAP1 PUSH2 0x197F PUSH1 0x0 DUP8 SWAP6 PUSH2 0x3077 PUSH2 0x1972 PUSH1 0x40 MLOAD SWAP1 JUMP JUMPDEST SUB SWAP3 GAS CALL DUP1 ISZERO PUSH2 0x156D JUMPI PUSH2 0x329A JUMPI JUMPDEST POP DUP1 DUP4 PUSH2 0x3093 PUSH1 0x1 PUSH2 0x228C JUMP JUMPDEST CALLER TIMESTAMP PUSH2 0x30A0 PUSH2 0x12C PUSH2 0xF56 JUMP JUMPDEST PUSH2 0x30A9 SWAP2 PUSH2 0x1BDB JUMP JUMPDEST DUP7 SWAP2 PUSH1 0x0 SWAP4 PUSH1 0x0 SWAP6 PUSH2 0x30B9 PUSH2 0x2EA4 JUMP JUMPDEST PUSH1 0x1 PUSH1 0x1 PUSH1 0xA0 SHL SUB SWAP1 SWAP9 AND DUP9 MSTORE PUSH1 0x1 PUSH1 0x1 PUSH1 0xA0 SHL SUB AND PUSH1 0x20 DUP9 ADD MSTORE PUSH3 0xFFFFFF AND PUSH1 0x40 DUP8 ADD MSTORE PUSH1 0x1 PUSH1 0x1 PUSH1 0xA0 SHL SUB AND PUSH1 0x60 DUP7 ADD MSTORE PUSH1 0x80 DUP6 ADD MSTORE PUSH1 0xA0 DUP5 ADD MSTORE PUSH2 0x30FF SWAP1 PUSH2 0xF56 JUMP JUMPDEST PUSH1 0xC0 DUP4 ADD MSTORE PUSH2 0x310D SWAP1 PUSH2 0x2EAF JUMP JUMPDEST PUSH1 0x1 PUSH1 0x1 PUSH1 0xA0 SHL SUB AND PUSH1 0xE0 DUP3 ADD MSTORE PUSH2 0x3144 PUSH32 0x0 PUSH2 0x279 JUMP JUMPDEST PUSH4 0x414BF389 PUSH2 0x3152 PUSH1 0x40 MLOAD SWAP1 JUMP JUMPDEST DUP1 SWAP4 PUSH2 0x315F DUP3 SWAP4 PUSH1 0xE0 SHL SWAP1 JUMP JUMPDEST DUP3 MSTORE PUSH2 0x316E SWAP1 PUSH1 0x4 DUP4 ADD PUSH2 0x2F45 JUMP JUMPDEST SUB DUP2 GAS PUSH1 0x20 SWAP5 PUSH1 0x0 SWAP2 CALL SWAP1 DUP2 ISZERO PUSH2 0x156D JUMPI PUSH1 0x0 SWAP2 PUSH2 0x327C JUMPI JUMPDEST POP SWAP3 CALLER TIMESTAMP DUP4 SWAP2 DUP4 DUP7 SWAP1 PUSH2 0x3199 PUSH1 0x40 MLOAD SWAP1 JUMP JUMPDEST SWAP5 DUP6 SWAP5 PUSH2 0x31A9 SWAP5 PUSH1 0x20 DUP8 ADD PUSH2 0x2F56 JUMP JUMPDEST PUSH1 0x20 DUP3 ADD DUP2 SUB DUP3 MSTORE SUB PUSH2 0x31BC SWAP1 DUP3 PUSH2 0x309 JUMP JUMPDEST DUP1 MLOAD SWAP1 PUSH1 0x20 ADD KECCAK256 SWAP1 PUSH2 0x31CE PUSH1 0x4 PUSH2 0xB49 JUMP JUMPDEST SWAP4 PUSH1 0x1 SWAP4 PUSH2 0x31DB SWAP1 PUSH2 0x3948 JUMP JUMPDEST SWAP2 PUSH2 0x31E5 SWAP1 PUSH2 0x3948 JUMP JUMPDEST DUP7 SWAP3 TIMESTAMP SWAP5 SWAP6 PUSH2 0x31F2 PUSH2 0xECE JUMP JUMPDEST SWAP8 DUP9 MSTORE PUSH2 0x3202 SWAP1 PUSH1 0x20 DUP10 ADD PUSH2 0xED9 JUMP JUMPDEST PUSH1 0x40 DUP8 ADD MSTORE PUSH1 0x60 DUP7 ADD MSTORE PUSH1 0x80 DUP6 ADD MSTORE PUSH1 0xA0 DUP5 ADD MSTORE PUSH1 0xC0 DUP4 ADD MSTORE PUSH1 0xE0 DUP3 ADD MSTORE PUSH2 0x3228 PUSH2 0xF28 JUMP JUMPDEST PUSH2 0x100 DUP3 ADD MSTORE PUSH2 0x3239 DUP2 PUSH1 0x5 PUSH2 0x120C JUMP JUMPDEST PUSH2 0x3244 CALLER PUSH1 0x2 PUSH2 0x123A JUMP JUMPDEST DUP2 PUSH2 0x324E SWAP2 PUSH2 0x120C JUMP JUMPDEST PUSH2 0x3258 PUSH1 0x4 PUSH2 0xB49 JUMP JUMPDEST PUSH2 0x3261 SWAP1 PUSH2 0x1268 JUMP JUMPDEST PUSH2 0x326C SWAP1 PUSH1 0x4 PUSH2 0xF63 JUMP JUMPDEST DUP1 MLOAD PUSH1 0x1 SWAP2 PUSH1 0xE0 ADD PUSH2 0x26B1 SWAP1 MLOAD SWAP1 JUMP JUMPDEST PUSH2 0x3294 SWAP2 POP PUSH1 0x20 RETURNDATASIZE DUP2 GT PUSH2 0x1681 JUMPI PUSH2 0x1679 DUP2 DUP4 PUSH2 0x309 JUMP JUMPDEST CODESIZE PUSH2 0x3187 JUMP JUMPDEST PUSH2 0x32B1 SWAP1 PUSH1 0x20 RETURNDATASIZE DUP2 GT PUSH2 0x2823 JUMPI PUSH2 0x2816 DUP2 DUP4 PUSH2 0x309 JUMP JUMPDEST PUSH2 0x3086 JUMP JUMPDEST PUSH2 0x32CD SWAP1 PUSH1 0x20 RETURNDATASIZE DUP2 GT PUSH2 0x2823 JUMPI PUSH2 0x2816 DUP2 DUP4 PUSH2 0x309 JUMP JUMPDEST PUSH2 0x3025 JUMP JUMPDEST POP PUSH2 0x2FC7 DUP4 PUSH2 0x32E7 PUSH2 0x190A PUSH2 0x1C7 PUSH1 0x1 PUSH2 0x157B JUMP JUMPDEST EQ SWAP1 POP PUSH2 0x2FBE JUMP JUMPDEST POP PUSH2 0x2FA5 DUP2 PUSH2 0x3304 PUSH2 0x190A PUSH2 0x1C7 PUSH1 0x1 PUSH2 0x157B JUMP JUMPDEST EQ SWAP1 POP PUSH2 0x2F9C JUMP JUMPDEST PUSH2 0x180 PUSH2 0x331B SWAP2 PUSH2 0x1FA8 PUSH1 0x0 SWAP1 JUMP JUMPDEST SUB SWAP2 GAS STATICCALL SWAP1 DUP2 ISZERO PUSH2 0x156D JUMPI PUSH1 0x0 SWAP2 PUSH2 0x3331 JUMPI POP SWAP1 JUMP JUMPDEST PUSH2 0x334A SWAP2 POP PUSH2 0x180 RETURNDATASIZE DUP2 GT PUSH2 0x21F5 JUMPI PUSH2 0x21DC DUP2 DUP4 PUSH2 0x309 JUMP JUMPDEST POP POP POP POP SWAP7 POP POP POP POP POP POP POP SWAP1 JUMP JUMPDEST ISZERO PUSH2 0x3360 JUMPI JUMP JUMPDEST PUSH1 0x40 MLOAD PUSH3 0x461BCD PUSH1 0xE5 SHL DUP2 MSTORE PUSH1 0x20 PUSH1 0x4 DUP3 ADD MSTORE PUSH1 0x12 PUSH1 0x24 DUP3 ADD MSTORE PUSH32 0x496E76616C6964207469636B2072616E67650000000000000000000000000000 PUSH1 0x44 DUP3 ADD MSTORE PUSH1 0x64 SWAP1 REVERT JUMPDEST SWAP2 SWAP1 SWAP3 PUSH2 0x33B0 PUSH1 0x0 SWAP1 JUMP JUMPDEST POP DUP3 PUSH2 0x33BF PUSH2 0x1480 PUSH1 0x0 PUSH2 0xF56 JUMP JUMPDEST GT DUP1 ISZERO PUSH2 0x373E JUMPI JUMPDEST PUSH2 0x33D0 SWAP1 PUSH2 0x21FC JUMP JUMPDEST PUSH2 0x33EE DUP3 PUSH2 0x33E8 PUSH2 0x33E1 DUP5 PUSH1 0x2 SIGNEXTEND SWAP1 JUMP JUMPDEST SWAP2 PUSH1 0x2 SIGNEXTEND SWAP1 JUMP JUMPDEST SLT PUSH2 0x3359 JUMP JUMPDEST DUP3 PUSH2 0x33FC PUSH2 0x1480 PUSH1 0x0 PUSH2 0xF56 JUMP JUMPDEST GT PUSH2 0x3656 JUMPI JUMPDEST DUP4 PUSH2 0x3410 PUSH2 0x1480 PUSH1 0x0 PUSH2 0xF56 JUMP JUMPDEST GT PUSH2 0x356E JUMPI JUMPDEST PUSH2 0x3420 PUSH1 0x0 PUSH2 0x157B JUMP JUMPDEST SWAP2 PUSH2 0x342B PUSH1 0x1 PUSH2 0x157B JUMP JUMPDEST SWAP2 PUSH2 0x3436 PUSH1 0x1 PUSH2 0x228C JUMP JUMPDEST CALLER SWAP3 PUSH1 0x0 SWAP3 DUP4 SWAP3 DUP10 SWAP3 DUP10 SWAP3 SWAP2 TIMESTAMP PUSH2 0x344E PUSH2 0x12C PUSH2 0xF56 JUMP JUMPDEST PUSH2 0x3457 SWAP2 PUSH2 0x1BDB JUMP JUMPDEST SWAP9 PUSH2 0x3460 PUSH2 0x2296 JUMP JUMPDEST PUSH1 0x1 PUSH1 0x1 PUSH1 0xA0 SHL SUB SWAP1 SWAP12 AND DUP12 MSTORE PUSH1 0x1 PUSH1 0x1 PUSH1 0xA0 SHL SUB AND PUSH1 0x20 DUP12 ADD MSTORE PUSH3 0xFFFFFF AND PUSH1 0x40 DUP11 ADD MSTORE PUSH1 0x2 SIGNEXTEND PUSH1 0x60 DUP10 ADD MSTORE PUSH1 0x2 SIGNEXTEND PUSH1 0x80 DUP9 ADD MSTORE PUSH1 0xA0 DUP8 ADD MSTORE PUSH1 0xC0 DUP7 ADD MSTORE PUSH2 0x34A8 SWAP1 PUSH2 0xF56 JUMP JUMPDEST PUSH1 0xE0 DUP6 ADD MSTORE PUSH2 0x34B6 SWAP1 PUSH2 0xF56 JUMP JUMPDEST PUSH2 0x100 DUP5 ADD MSTORE PUSH1 0x1 PUSH1 0x1 PUSH1 0xA0 SHL SUB AND PUSH2 0x120 DUP4 ADD MSTORE PUSH2 0x140 DUP3 ADD MSTORE PUSH2 0x34FA PUSH32 0x0 PUSH2 0x279 JUMP JUMPDEST PUSH4 0x88316456 PUSH2 0x3508 PUSH1 0x40 MLOAD SWAP1 JUMP JUMPDEST DUP1 SWAP4 PUSH2 0x3515 DUP3 SWAP4 PUSH1 0xE0 SHL SWAP1 JUMP JUMPDEST DUP3 MSTORE PUSH2 0x3524 SWAP1 PUSH1 0x4 DUP4 ADD PUSH2 0x2388 JUMP JUMPDEST SUB DUP2 GAS PUSH1 0x80 SWAP5 PUSH1 0x0 SWAP2 CALL SWAP1 DUP2 ISZERO PUSH2 0x156D JUMPI PUSH1 0x0 SWAP2 PUSH2 0x354F JUMPI JUMPDEST POP SWAP2 CALLER TIMESTAMP DUP4 SWAP2 DUP4 DUP7 SWAP1 PUSH2 0x25BA PUSH1 0x40 MLOAD SWAP1 JUMP JUMPDEST PUSH2 0x3567 SWAP2 POP PUSH1 0x80 RETURNDATASIZE DUP2 GT PUSH2 0x272F JUMPI PUSH2 0x2720 DUP2 DUP4 PUSH2 0x309 JUMP JUMPDEST POP POP PUSH2 0x353D JUMP JUMPDEST PUSH2 0x357E PUSH2 0x15BB PUSH2 0x15BB PUSH1 0x1 PUSH2 0x157B JUMP JUMPDEST PUSH1 0x20 PUSH4 0x23B872DD SWAP2 CALLER SWAP1 PUSH2 0x2779 PUSH1 0x0 PUSH2 0x3596 ADDRESS PUSH2 0x279 JUMP JUMPDEST SWAP6 PUSH2 0x35A4 DUP12 PUSH2 0x276C PUSH1 0x40 MLOAD SWAP1 JUMP JUMPDEST SUB SWAP3 GAS CALL DUP1 ISZERO PUSH2 0x156D JUMPI PUSH2 0x363A JUMPI JUMPDEST POP PUSH2 0x35C4 PUSH2 0x15BB PUSH2 0x15BB PUSH1 0x1 PUSH2 0x157B JUMP JUMPDEST PUSH1 0x20 PUSH4 0x95EA7B3 SWAP2 PUSH2 0x35F5 PUSH32 0x0 PUSH2 0x279 JUMP JUMPDEST SWAP1 PUSH2 0x197F PUSH1 0x0 DUP10 SWAP6 PUSH2 0x3609 PUSH2 0x1972 PUSH1 0x40 MLOAD SWAP1 JUMP JUMPDEST SUB SWAP3 GAS CALL DUP1 ISZERO PUSH2 0x156D JUMPI PUSH2 0x361E JUMPI JUMPDEST POP PUSH2 0x3416 JUMP JUMPDEST PUSH2 0x3635 SWAP1 PUSH1 0x20 RETURNDATASIZE DUP2 GT PUSH2 0x2823 JUMPI PUSH2 0x2816 DUP2 DUP4 PUSH2 0x309 JUMP JUMPDEST PUSH2 0x3618 JUMP JUMPDEST PUSH2 0x3651 SWAP1 PUSH1 0x20 RETURNDATASIZE DUP2 GT PUSH2 0x2823 JUMPI PUSH2 0x2816 DUP2 DUP4 PUSH2 0x309 JUMP JUMPDEST PUSH2 0x35B3 JUMP JUMPDEST PUSH2 0x3666 PUSH2 0x15BB PUSH2 0x15BB PUSH1 0x0 PUSH2 0x157B JUMP JUMPDEST PUSH1 0x20 PUSH4 0x23B872DD SWAP2 CALLER SWAP1 PUSH2 0x2779 PUSH1 0x0 PUSH2 0x367E ADDRESS PUSH2 0x279 JUMP JUMPDEST SWAP6 PUSH2 0x368C DUP11 PUSH2 0x276C PUSH1 0x40 MLOAD SWAP1 JUMP JUMPDEST SUB SWAP3 GAS CALL DUP1 ISZERO PUSH2 0x156D JUMPI PUSH2 0x3722 JUMPI JUMPDEST POP PUSH2 0x36AC PUSH2 0x15BB PUSH2 0x15BB PUSH1 0x0 PUSH2 0x157B JUMP JUMPDEST PUSH1 0x20 PUSH4 0x95EA7B3 SWAP2 PUSH2 0x36DD PUSH32 0x0 PUSH2 0x279 JUMP JUMPDEST SWAP1 PUSH2 0x197F PUSH1 0x0 DUP9 SWAP6 PUSH2 0x36F1 PUSH2 0x1972 PUSH1 0x40 MLOAD SWAP1 JUMP JUMPDEST SUB SWAP3 GAS CALL DUP1 ISZERO PUSH2 0x156D JUMPI PUSH2 0x3706 JUMPI JUMPDEST POP PUSH2 0x3402 JUMP JUMPDEST PUSH2 0x371D SWAP1 PUSH1 0x20 RETURNDATASIZE DUP2 GT PUSH2 0x2823 JUMPI PUSH2 0x2816 DUP2 DUP4 PUSH2 0x309 JUMP JUMPDEST PUSH2 0x3700 JUMP JUMPDEST PUSH2 0x3739 SWAP1 PUSH1 0x20 RETURNDATASIZE DUP2 GT PUSH2 0x2823 JUMPI PUSH2 0x2816 DUP2 DUP4 PUSH2 0x309 JUMP JUMPDEST PUSH2 0x369B JUMP JUMPDEST POP PUSH2 0x33D0 DUP5 PUSH2 0x3750 PUSH2 0x1480 PUSH1 0x0 PUSH2 0xF56 JUMP JUMPDEST GT SWAP1 POP PUSH2 0x33C7 JUMP JUMPDEST PUSH2 0x3765 PUSH2 0x1D3 PUSH2 0x1D3 SWAP3 SWAP1 JUMP JUMPDEST PUSH1 0x2 SIGNEXTEND SWAP1 JUMP JUMPDEST PUSH2 0x3777 SWAP1 PUSH1 0x2 SIGNEXTEND PUSH2 0x33E1 JUMP JUMPDEST SWAP1 SUB SWAP1 PUSH3 0x7FFFFF DUP3 SGT PUSH3 0x7FFFFF NOT DUP4 SLT OR PUSH2 0x1277 JUMPI JUMP JUMPDEST PUSH2 0x379A SWAP1 PUSH1 0x2 SIGNEXTEND PUSH2 0x33E1 JUMP JUMPDEST SWAP1 DUP2 ISZERO PUSH2 0x148F JUMPI PUSH3 0x7FFFFF NOT DUP2 EQ PUSH1 0x0 NOT DUP4 EQ AND PUSH2 0x1277 JUMPI SDIV SWAP1 JUMP JUMPDEST PUSH2 0x37C2 SWAP1 PUSH1 0x2 SIGNEXTEND PUSH2 0x33E1 JUMP JUMPDEST MUL SWAP1 PUSH2 0x37CE DUP3 PUSH1 0x2 SIGNEXTEND SWAP1 JUMP JUMPDEST SWAP2 DUP3 SUB PUSH2 0x1277 JUMPI JUMP JUMPDEST PUSH2 0x37E3 SWAP1 PUSH1 0x2 SIGNEXTEND PUSH2 0x33E1 JUMP JUMPDEST ADD SWAP1 PUSH3 0x7FFFFF NOT DUP3 SLT PUSH3 0x7FFFFF DUP4 SGT OR PUSH2 0x1277 JUMPI JUMP JUMPDEST PUSH2 0x3827 PUSH1 0xE0 PUSH2 0x14C2 PUSH32 0x0 PUSH2 0x279 JUMP JUMPDEST DUP3 MSTORE PUSH1 0x4 SWAP1 DUP3 SWAP1 GAS STATICCALL SWAP1 DUP2 ISZERO PUSH2 0x156D JUMPI PUSH1 0x0 SWAP2 PUSH2 0x3919 JUMPI JUMPDEST POP SWAP1 PUSH2 0x388F PUSH2 0x384E PUSH1 0xA PUSH2 0x3758 JUMP JUMPDEST PUSH2 0x388A PUSH2 0x3883 PUSH2 0x385F PUSH2 0xFA0 PUSH2 0x3758 JUMP JUMPDEST PUSH2 0x387D PUSH2 0x3876 PUSH2 0x386F DUP4 DUP11 PUSH2 0x376B JUMP JUMPDEST DUP7 SWAP1 PUSH2 0x378E JUMP JUMPDEST DUP6 SWAP1 PUSH2 0x37B6 JUMP JUMPDEST SWAP7 PUSH2 0x37D7 JUMP JUMPDEST DUP3 SWAP1 PUSH2 0x378E JUMP JUMPDEST PUSH2 0x37B6 JUMP JUMPDEST SWAP1 DUP3 PUSH2 0x38BD PUSH2 0x33E1 PUSH32 0xFFFFFFFFFFFFFFFFFFFFFFFFFFFFFFFFFFFFFFFFFFFFFFFFFFFFFFFFFFF2764C PUSH2 0x3758 JUMP JUMPDEST SLT PUSH2 0x38E8 JUMPI JUMPDEST DUP2 PUSH2 0x38D3 PUSH2 0x33E1 PUSH3 0xD89B4 PUSH2 0x3758 JUMP JUMPDEST SGT PUSH2 0x38DA JUMPI JUMP JUMPDEST SWAP1 POP PUSH2 0x1D3 PUSH3 0xD89B4 PUSH2 0x3758 JUMP JUMPDEST SWAP2 POP PUSH2 0x3913 PUSH32 0xFFFFFFFFFFFFFFFFFFFFFFFFFFFFFFFFFFFFFFFFFFFFFFFFFFFFFFFFFFF2764C PUSH2 0x3758 JUMP JUMPDEST SWAP2 PUSH2 0x38C3 JUMP JUMPDEST PUSH2 0x3931 SWAP2 POP PUSH1 0xE0 RETURNDATASIZE DUP2 GT PUSH2 0x1566 JUMPI PUSH2 0x1554 DUP2 DUP4 PUSH2 0x309 JUMP JUMPDEST POP POP POP POP POP SWAP1 PUSH2 0x383F JUMP JUMPDEST PUSH2 0x361 DUP2 PUSH1 0x14 SWAP4 PUSH2 0x23E1 JUMP JUMPDEST PUSH2 0x396A PUSH2 0x3979 PUSH2 0x1D3 SWAP3 PUSH2 0x395A PUSH1 0x60 SWAP1 JUMP JUMPDEST POP PUSH1 0x40 MLOAD SWAP3 DUP4 SWAP2 PUSH1 0x20 DUP4 ADD PUSH2 0x393C JUMP JUMPDEST PUSH1 0x20 DUP3 ADD DUP2 SUB DUP3 MSTORE SUB DUP3 PUSH2 0x309 JUMP JUMPDEST PUSH2 0x3AAA JUMP JUMPDEST PUSH2 0x3988 PUSH1 0x10 PUSH2 0xEE3 JUMP JUMPDEST PUSH32 0x3031323334353637383961626364656600000000000000000000000000000000 PUSH1 0x20 DUP3 ADD MSTORE SWAP1 JUMP JUMPDEST PUSH2 0x1D3 PUSH2 0x397E JUMP JUMPDEST CALLDATASIZE SWAP1 CALLDATACOPY JUMP JUMPDEST SWAP1 PUSH2 0x1DA PUSH2 0x39CB DUP4 PUSH2 0xEE3 JUMP JUMPDEST SWAP3 PUSH1 0x20 DUP1 PUSH2 0x39D9 DUP7 SWAP4 PUSH2 0x344 JUMP JUMPDEST SWAP3 ADD SWAP2 SUB SWAP1 PUSH2 0x39B9 JUMP JUMPDEST SWAP1 PUSH2 0x39EC DUP3 MLOAD SWAP1 JUMP JUMPDEST DUP2 LT ISZERO PUSH2 0xB3D JUMPI ADD PUSH1 0x20 ADD SWAP1 JUMP JUMPDEST PUSH2 0xB58 PUSH2 0x1D3 PUSH2 0x1D3 SWAP3 SWAP1 JUMP JUMPDEST PUSH2 0x3A46 SWAP1 PUSH2 0x3A41 PUSH2 0x3A1B PUSH2 0x1D3 SWAP5 PUSH1 0xFF AND SWAP1 JUMP JUMPDEST SWAP2 PUSH32 0xFF00000000000000000000000000000000000000000000000000000000000000 AND SWAP1 JUMP JUMPDEST SWAP1 SHR SWAP1 JUMP JUMPDEST PUSH32 0xFF00000000000000000000000000000000000000000000000000000000000000 AND SWAP1 JUMP JUMPDEST PUSH2 0xB58 PUSH2 0x1D3 PUSH2 0x1D3 SWAP3 PUSH1 0xFF AND SWAP1 JUMP JUMPDEST PUSH2 0x1D3 SWAP1 PUSH1 0xF8 SHR PUSH2 0x3A6B JUMP JUMPDEST PUSH2 0x1D3 PUSH2 0x1D3 PUSH2 0x1D3 SWAP3 PUSH1 0xFF AND SWAP1 JUMP JUMPDEST PUSH2 0x3A46 PUSH2 0x3AA4 PUSH2 0x1D3 SWAP3 SWAP1 JUMP JUMPDEST PUSH1 0xF8 SHL SWAP1 JUMP JUMPDEST SWAP1 PUSH2 0x3AB3 PUSH2 0x39B1 JUMP JUMPDEST PUSH2 0x3AE3 PUSH2 0x3ADE PUSH1 0x2 PUSH2 0x3AD9 PUSH2 0x3AD3 PUSH2 0x3AC9 DUP9 MLOAD SWAP1 JUMP JUMPDEST PUSH2 0x150D PUSH1 0x2 PUSH2 0xF56 JUMP JUMPDEST SWAP2 PUSH2 0xF56 JUMP JUMPDEST PUSH2 0x1BDB JUMP JUMPDEST PUSH2 0x39BE JUMP JUMPDEST SWAP1 PUSH1 0x30 PUSH2 0x3AFA DUP4 PUSH2 0x3AF4 PUSH1 0x0 PUSH2 0xF56 JUMP JUMPDEST SWAP1 PUSH2 0x39E3 JUMP JUMPDEST MSTORE8 PUSH1 0x78 PUSH2 0x3B0B DUP4 PUSH2 0x3AF4 PUSH1 0x1 PUSH2 0xF56 JUMP JUMPDEST MSTORE8 PUSH2 0x3B16 PUSH1 0x0 PUSH2 0xF56 JUMP JUMPDEST DUP1 PUSH2 0x3B25 PUSH2 0x1480 PUSH2 0x1D3 DUP9 MLOAD SWAP1 JUMP JUMPDEST LT ISZERO PUSH2 0x3BFF JUMPI PUSH2 0x3BFA SWAP1 PUSH2 0x3B8A PUSH2 0x3B4A DUP5 PUSH2 0x3AF4 PUSH2 0x3B85 PUSH2 0x3B80 PUSH2 0x3B70 DUP6 DUP9 DUP15 PUSH2 0x39E3 JUMP JUMPDEST MLOAD PUSH32 0xFF00000000000000000000000000000000000000000000000000000000000000 AND SWAP1 JUMP JUMPDEST PUSH2 0x3B7A PUSH1 0x4 PUSH2 0x39FA JUMP JUMPDEST SWAP1 PUSH2 0x3A07 JUMP JUMPDEST PUSH2 0x3A7B JUMP JUMPDEST PUSH2 0x3A87 JUMP JUMPDEST PUSH2 0x3BAF DUP6 SWAP2 PUSH2 0x3BA5 PUSH1 0x2 PUSH2 0x3AD9 PUSH2 0x3AD3 DUP8 PUSH2 0x150D PUSH1 0x2 PUSH2 0xF56 JUMP JUMPDEST SWAP1 PUSH1 0x0 BYTE SWAP3 PUSH2 0x39E3 JUMP JUMPDEST MSTORE8 PUSH2 0x3BD8 PUSH2 0x3B4A DUP5 PUSH2 0x3AF4 PUSH2 0x3B85 PUSH2 0x3BC8 DUP5 DUP8 DUP14 PUSH2 0x39E3 JUMP JUMPDEST PUSH2 0x3BD2 PUSH1 0xF PUSH2 0x3A97 JUMP JUMPDEST AND PUSH2 0x3A7B JUMP JUMPDEST PUSH2 0x3BF3 DUP6 SWAP2 PUSH2 0x3BA5 PUSH1 0x3 PUSH2 0x3AD9 PUSH2 0x3AD3 DUP8 PUSH2 0x150D PUSH1 0x2 PUSH2 0xF56 JUMP JUMPDEST MSTORE8 PUSH1 0x1 ADD SWAP1 JUMP JUMPDEST PUSH2 0x3B16 JUMP JUMPDEST POP POP PUSH2 0x1D3 SWAP2 SWAP3 POP SWAP1 JUMP INVALID LOG2 PUSH5 0x6970667358 0x22 SLT KECCAK256 SIGNEXTEND SWAP5 PUSH4 0x33CABCE1 MCOPY 0xD6 0xDB 0xB1 MUL MOD SWAP11 ADDMOD 0xC2 PUSH2 0xA221 0x2B DUP5 JUMPDEST 0xD5 0xC1 0xBC 0xB9 MCOPY 0xEF 0xEA PUSH3 0xBA7264 PUSH20 0x6F6C634300081800330000000000000000000000 "},"methodIdentifiers":{"addLiquidity(uint256,uint256)":"9cd441da","addLiquidityWithRange(uint256,uint256,int24,int24)":"fa1b8025","addTransactionToHistory(uint8,string,string,uint256,uint256,bytes32)":"4abf5dc1","allTransactions(uint256)":"d7ff0714","approvePositionManager(uint256)":"63079703","collectFees(uint256)":"b17acdcd","fee()":"ddca3f43","getAllTransactionHistory()":"784394bc","getCurrentTick()":"53aad1d9","getPool()":"026b1d5f","getPoolBalances()":"52375bb1","getPoolInfo()":"60246c88","getPosition(uint256)":"eb02c301","getPositionDetails(uint256)":"9ecceb5e","getPositionFees(uint256)":"972960c5","getTokenPrice()":"4b94f50e","getUserPositions()":"65e34c09","getUserTransactionHistory()":"c979affb","ownsPosition(address,uint256)":"a3a8d0b6","pool()":"16f0115b","positionManager()":"791b98bc","removeLiquidity(uint256,uint128)":"911757ba","swapExactInputSingle(address,address,uint256)":"ceb92012","swapRouter()":"c31c9c07","token0()":"0dfe1681","token1()":"d21220a7"}}}}}