{"contracts/Add_Swap_Contract.sol":{"Add_Swap_Contract":{"abi":[{"inputs":[{"internalType":"address","name":"_swapRouter","type":"address"},{"internalType":"address","name":"_positionManager","type":"address"},{"internalType":"address","name":"_token0","type":"address"},{"internalType":"address","name":"_token1","type":"address"}],"stateMutability":"nonpayable","type":"constructor"},{"inputs":[{"internalType":"uint256","name":"amount0Desired","type":"uint256"},{"internalType":"uint256","name":"amount1Desired","type":"uint256"}],"name":"addLiquidity","outputs":[{"internalType":"uint256","name":"tokenId","type":"uint256"}],"stateMutability":"nonpayable","type":"function"},{"inputs":[],"name":"fee","outputs":[{"internalType":"uint24","name":"","type":"uint24"}],"stateMutability":"view","type":"function"},{"inputs":[],"name":"positionManager","outputs":[{"internalType":"contract INonfungiblePositionManager","name":"","type":"address"}],"stateMutability":"view","type":"function"},{"inputs":[{"internalType":"address","name":"inputToken","type":"address"},{"internalType":"address","name":"outputToken","type":"address"},{"internalType":"uint256","name":"amountIn","type":"uint256"}],"name":"swapExactInputSingle","outputs":[{"internalType":"uint256","name":"amountOut","type":"uint256"}],"stateMutability":"nonpayable","type":"function"},{"inputs":[],"name":"swapRouter","outputs":[{"internalType":"contract ISwapRouter","name":"","type":"address"}],"stateMutability":"view","type":"function"},{"inputs":[],"name":"token0","outputs":[{"internalType":"address","name":"","type":"address"}],"stateMutability":"view","type":"function"},{"inputs":[],"name":"token1","outputs":[{"internalType":"address","name":"","type":"address"}],"stateMutability":"view","type":"function"}],"evm":{"bytecode":{"linkReferences":{},"object":"60c06040526001805462ffffff60a01b1916607d60a21b1790553480156200002657600080fd5b5060405162000eb738038062000eb78339810160408190526200004991620000c0565b6001600160a01b0393841660805291831660a052600080549184166001600160a01b0319928316179055600180549290931691161790556200012e565b60006001600160a01b0382165b92915050565b620000a48162000086565b8114620000b057600080fd5b50565b8051620000938162000099565b60008060008060808587031215620000db57620000db600080fd5b6000620000e98787620000b3565b9450506020620000fc87828801620000b3565b93505060406200010f87828801620000b3565b92505060606200012287828801620000b3565b91505092959194509250565b60805160a051610d41620001766000396000818160bd01528181610325015281816103e1015261054c015260008181610111015281816106b701526107d20152610d416000f3fe608060405234801561001057600080fd5b506004361061007d5760003560e01c8063c31c9c071161005b578063c31c9c071461010c578063ceb9201214610133578063d21220a714610146578063ddca3f431461016657600080fd5b80630dfe168114610082578063791b98bc146100b85780639cd441da146100ec575b600080fd5b6000546100a29073ffffffffffffffffffffffffffffffffffffffff1681565b6040516100af9190610897565b60405180910390f35b6100df7f000000000000000000000000000000000000000000000000000000000000000081565b6040516100af91906108e2565b6100ff6100fa36600461090b565b61019a565b6040516100af919061094e565b6100df7f000000000000000000000000000000000000000000000000000000000000000081565b6100ff610141366004610970565b6105d0565b6001546100a29073ffffffffffffffffffffffffffffffffffffffff1681565b60015461018d9074010000000000000000000000000000000000000000900462ffffff1681565b6040516100af91906109cb565b600080546040517f23b872dd00000000000000000000000000000000000000000000000000000000815273ffffffffffffffffffffffffffffffffffffffff909116906323b872dd906101f5903390309088906004016109d9565b6020604051808303816000875af1158015610214573d6000803e3d6000fd5b505050506040513d601f19601f820116820180604052508101906102389190610a1c565b506001546040517f23b872dd00000000000000000000000000000000000000000000000000000000815273ffffffffffffffffffffffffffffffffffffffff909116906323b872dd90610293903390309087906004016109d9565b6020604051808303816000875af11580156102b2573d6000803e3d6000fd5b505050506040513d601f19601f820116820180604052508101906102d69190610a1c565b506000546040517f095ea7b300000000000000000000000000000000000000000000000000000000815273ffffffffffffffffffffffffffffffffffffffff9091169063095ea7b39061034f907f0000000000000000000000000000000000000000000000000000000000000000908790600401610a3d565b6020604051808303816000875af115801561036e573d6000803e3d6000fd5b505050506040513d601f19601f820116820180604052508101906103929190610a1c565b506001546040517f095ea7b300000000000000000000000000000000000000000000000000000000815273ffffffffffffffffffffffffffffffffffffffff9091169063095ea7b39061040b907f0000000000000000000000000000000000000000000000000000000000000000908690600401610a3d565b6020604051808303816000875af115801561042a573d6000803e3d6000fd5b505050506040513d601f19601f8201168201806040525081019061044e9190610a1c565b5060408051610160810182526000805473ffffffffffffffffffffffffffffffffffffffff9081168352600154908116602084015274010000000000000000000000000000000000000000900462ffffff16928201929092527ffffffffffffffffffffffffffffffffffffffffffffffffffffffffffff2764c6060820152620d89b4608082015260a0810185905260c0810184905260e08101829052610100810182905233610120820152610140810161050a426078610a8e565b90526040517f8831645600000000000000000000000000000000000000000000000000000000815290915073ffffffffffffffffffffffffffffffffffffffff7f00000000000000000000000000000000000000000000000000000000000000001690638831645690610581908490600401610b87565b6080604051808303816000875af11580156105a0573d6000803e3d6000fd5b505050506040513d601f19601f820116820180604052508101906105c49190610bc4565b50919695505050505050565b6040517f23b872dd00000000000000000000000000000000000000000000000000000000815260009073ffffffffffffffffffffffffffffffffffffffff8516906323b872dd90610629903390309087906004016109d9565b6020604051808303816000875af1158015610648573d6000803e3d6000fd5b505050506040513d601f19601f8201168201806040525081019061066c9190610a1c565b506040517f095ea7b300000000000000000000000000000000000000000000000000000000815273ffffffffffffffffffffffffffffffffffffffff85169063095ea7b3906106e1907f0000000000000000000000000000000000000000000000000000000000000000908690600401610a3d565b6020604051808303816000875af1158015610700573d6000803e3d6000fd5b505050506040513d601f19601f820116820180604052508101906107249190610a1c565b50604080516101008101825273ffffffffffffffffffffffffffffffffffffffff86811682528516602082015260015474010000000000000000000000000000000000000000900462ffffff16918101919091523360608201526000906080810161079042603c610a8e565b81526020810185905260006040808301829052606090920152517f414bf3890000000000000000000000000000000000000000000000000000000081529091507f000000000000000000000000000000000000000000000000000000000000000073ffffffffffffffffffffffffffffffffffffffff169063414bf3899061081c908490600401610cdb565b6020604051808303816000875af115801561083b573d6000803e3d6000fd5b505050506040513d601f19601f8201168201806040525081019061085f9190610cea565b95945050505050565b600073ffffffffffffffffffffffffffffffffffffffff82165b92915050565b61089181610868565b82525050565b602081016108828284610888565b600073ffffffffffffffffffffffffffffffffffffffff8216610882565b6000610882826108a5565b6000610882826108c3565b610891816108ce565b6020810161088282846108d9565b805b81146108fd57600080fd5b50565b8035610882816108f0565b6000806040838503121561092157610921600080fd5b600061092d8585610900565b925050602061093e85828601610900565b9150509250929050565b80610891565b602081016108828284610948565b6108f281610868565b80356108828161095c565b60008060006060848603121561098857610988600080fd5b60006109948686610965565b93505060206109a586828701610965565b92505060406109b686828701610900565b9150509250925092565b62ffffff8116610891565b6020810161088282846109c0565b606081016109e78286610888565b6109f46020830185610888565b610a016040830184610948565b949350505050565b8015156108f2565b805161088281610a09565b600060208284031215610a3157610a31600080fd5b6000610a018484610a11565b60408101610a4b8285610888565b610a586020830184610948565b9392505050565b7f4e487b7100000000000000000000000000000000000000000000000000000000600052601160045260246000fd5b8082018082111561088257610882610a5f565b6108918160020b90565b8051610160830190610abd8482610888565b506020820151610ad06020850182610888565b506040820151610ae360408501826109c0565b506060820151610af66060850182610aa1565b506080820151610b096080850182610aa1565b5060a0820151610b1c60a0850182610948565b5060c0820151610b2f60c0850182610948565b5060e0820151610b4260e0850182610948565b50610100820151610b57610100850182610948565b50610120820151610b6c610120850182610888565b50610140820151610b81610140850182610948565b50505050565b61016081016108828284610aab565b8051610882816108f0565b6fffffffffffffffffffffffffffffffff81166108f2565b805161088281610ba1565b60008060008060808587031215610bdd57610bdd600080fd5b6000610be98787610b96565b9450506020610bfa87828801610bb9565b9350506040610c0b87828801610b96565b9250506060610c1c87828801610b96565b91505092959194509250565b73ffffffffffffffffffffffffffffffffffffffff8116610891565b8051610100830190610c568482610888565b506020820151610c696020850182610888565b506040820151610c7c60408501826109c0565b506060820151610c8f6060850182610888565b506080820151610ca26080850182610948565b5060a0820151610cb560a0850182610948565b5060c0820151610cc860c0850182610948565b5060e0820151610b8160e0850182610c28565b61010081016108828284610c44565b600060208284031215610cff57610cff600080fd5b6000610a018484610b9656fea264697066735822122085791fee759eed1bd69e83d58409252782c328d264fb5e262a67c29ebd6efbb464736f6c63430008180033","opcodes":"PUSH1 0xC0 PUSH1 0x40 MSTORE PUSH1 0x1 DUP1 SLOAD PUSH3 0xFFFFFF PUSH1 0xA0 SHL NOT AND PUSH1 0x7D PUSH1 0xA2 SHL OR SWAP1 SSTORE CALLVALUE DUP1 ISZERO PUSH3 0x26 JUMPI PUSH1 0x0 DUP1 REVERT JUMPDEST POP PUSH1 0x40 MLOAD PUSH3 0xEB7 CODESIZE SUB DUP1 PUSH3 0xEB7 DUP4 CODECOPY DUP2 ADD PUSH1 0x40 DUP2 SWAP1 MSTORE PUSH3 0x49 SWAP2 PUSH3 0xC0 JUMP JUMPDEST PUSH1 0x1 PUSH1 0x1 PUSH1 0xA0 SHL SUB SWAP4 DUP5 AND PUSH1 0x80 MSTORE SWAP2 DUP4 AND PUSH1 0xA0 MSTORE PUSH1 0x0 DUP1 SLOAD SWAP2 DUP5 AND PUSH1 0x1 PUSH1 0x1 PUSH1 0xA0 SHL SUB NOT SWAP3 DUP4 AND OR SWAP1 SSTORE PUSH1 0x1 DUP1 SLOAD SWAP3 SWAP1 SWAP4 AND SWAP2 AND OR SWAP1 SSTORE PUSH3 0x12E JUMP JUMPDEST PUSH1 0x0 PUSH1 0x1 PUSH1 0x1 PUSH1 0xA0 SHL SUB DUP3 AND JUMPDEST SWAP3 SWAP2 POP POP JUMP JUMPDEST PUSH3 0xA4 DUP2 PUSH3 0x86 JUMP JUMPDEST DUP2 EQ PUSH3 0xB0 JUMPI PUSH1 0x0 DUP1 REVERT JUMPDEST POP JUMP JUMPDEST DUP1 MLOAD PUSH3 0x93 DUP2 PUSH3 0x99 JUMP JUMPDEST PUSH1 0x0 DUP1 PUSH1 0x0 DUP1 PUSH1 0x80 DUP6 DUP8 SUB SLT ISZERO PUSH3 0xDB JUMPI PUSH3 0xDB PUSH1 0x0 DUP1 REVERT JUMPDEST PUSH1 0x0 PUSH3 0xE9 DUP8 DUP8 PUSH3 0xB3 JUMP JUMPDEST SWAP5 POP POP PUSH1 0x20 PUSH3 0xFC DUP8 DUP3 DUP9 ADD PUSH3 0xB3 JUMP JUMPDEST SWAP4 POP POP PUSH1 0x40 PUSH3 0x10F DUP8 DUP3 DUP9 ADD PUSH3 0xB3 JUMP JUMPDEST SWAP3 POP POP PUSH1 0x60 PUSH3 0x122 DUP8 DUP3 DUP9 ADD PUSH3 0xB3 JUMP JUMPDEST SWAP2 POP POP SWAP3 SWAP6 SWAP2 SWAP5 POP SWAP3 POP JUMP JUMPDEST PUSH1 0x80 MLOAD PUSH1 0xA0 MLOAD PUSH2 0xD41 PUSH3 0x176 PUSH1 0x0 CODECOPY PUSH1 0x0 DUP2 DUP2 PUSH1 0xBD ADD MSTORE DUP2 DUP2 PUSH2 0x325 ADD MSTORE DUP2 DUP2 PUSH2 0x3E1 ADD MSTORE PUSH2 0x54C ADD MSTORE PUSH1 0x0 DUP2 DUP2 PUSH2 0x111 ADD MSTORE DUP2 DUP2 PUSH2 0x6B7 ADD MSTORE PUSH2 0x7D2 ADD MSTORE PUSH2 0xD41 PUSH1 0x0 RETURN INVALID PUSH1 0x80 PUSH1 0x40 MSTORE CALLVALUE DUP1 ISZERO PUSH2 0x10 JUMPI PUSH1 0x0 DUP1 REVERT JUMPDEST POP PUSH1 0x4 CALLDATASIZE LT PUSH2 0x7D JUMPI PUSH1 0x0 CALLDATALOAD PUSH1 0xE0 SHR DUP1 PUSH4 0xC31C9C07 GT PUSH2 0x5B JUMPI DUP1 PUSH4 0xC31C9C07 EQ PUSH2 0x10C JUMPI DUP1 PUSH4 0xCEB92012 EQ PUSH2 0x133 JUMPI DUP1 PUSH4 0xD21220A7 EQ PUSH2 0x146 JUMPI DUP1 PUSH4 0xDDCA3F43 EQ PUSH2 0x166 JUMPI PUSH1 0x0 DUP1 REVERT JUMPDEST DUP1 PUSH4 0xDFE1681 EQ PUSH2 0x82 JUMPI DUP1 PUSH4 0x791B98BC EQ PUSH2 0xB8 JUMPI DUP1 PUSH4 0x9CD441DA EQ PUSH2 0xEC JUMPI JUMPDEST PUSH1 0x0 DUP1 REVERT JUMPDEST PUSH1 0x0 SLOAD PUSH2 0xA2 SWAP1 PUSH20 0xFFFFFFFFFFFFFFFFFFFFFFFFFFFFFFFFFFFFFFFF AND DUP2 JUMP JUMPDEST PUSH1 0x40 MLOAD PUSH2 0xAF SWAP2 SWAP1 PUSH2 0x897 JUMP JUMPDEST PUSH1 0x40 MLOAD DUP1 SWAP2 SUB SWAP1 RETURN JUMPDEST PUSH2 0xDF PUSH32 0x0 DUP2 JUMP JUMPDEST PUSH1 0x40 MLOAD PUSH2 0xAF SWAP2 SWAP1 PUSH2 0x8E2 JUMP JUMPDEST PUSH2 0xFF PUSH2 0xFA CALLDATASIZE PUSH1 0x4 PUSH2 0x90B JUMP JUMPDEST PUSH2 0x19A JUMP JUMPDEST PUSH1 0x40 MLOAD PUSH2 0xAF SWAP2 SWAP1 PUSH2 0x94E JUMP JUMPDEST PUSH2 0xDF PUSH32 0x0 DUP2 JUMP JUMPDEST PUSH2 0xFF PUSH2 0x141 CALLDATASIZE PUSH1 0x4 PUSH2 0x970 JUMP JUMPDEST PUSH2 0x5D0 JUMP JUMPDEST PUSH1 0x1 SLOAD PUSH2 0xA2 SWAP1 PUSH20 0xFFFFFFFFFFFFFFFFFFFFFFFFFFFFFFFFFFFFFFFF AND DUP2 JUMP JUMPDEST PUSH1 0x1 SLOAD PUSH2 0x18D SWAP1 PUSH21 0x10000000000000000000000000000000000000000 SWAP1 DIV PUSH3 0xFFFFFF AND DUP2 JUMP JUMPDEST PUSH1 0x40 MLOAD PUSH2 0xAF SWAP2 SWAP1 PUSH2 0x9CB JUMP JUMPDEST PUSH1 0x0 DUP1 SLOAD PUSH1 0x40 MLOAD PUSH32 0x23B872DD00000000000000000000000000000000000000000000000000000000 DUP2 MSTORE PUSH20 0xFFFFFFFFFFFFFFFFFFFFFFFFFFFFFFFFFFFFFFFF SWAP1 SWAP2 AND SWAP1 PUSH4 0x23B872DD SWAP1 PUSH2 0x1F5 SWAP1 CALLER SWAP1 ADDRESS SWAP1 DUP9 SWAP1 PUSH1 0x4 ADD PUSH2 0x9D9 JUMP JUMPDEST PUSH1 0x20 PUSH1 0x40 MLOAD DUP1 DUP4 SUB DUP2 PUSH1 0x0 DUP8 GAS CALL ISZERO DUP1 ISZERO PUSH2 0x214 JUMPI RETURNDATASIZE PUSH1 0x0 DUP1 RETURNDATACOPY RETURNDATASIZE PUSH1 0x0 REVERT JUMPDEST POP POP POP POP PUSH1 0x40 MLOAD RETURNDATASIZE PUSH1 0x1F NOT PUSH1 0x1F DUP3 ADD AND DUP3 ADD DUP1 PUSH1 0x40 MSTORE POP DUP2 ADD SWAP1 PUSH2 0x238 SWAP2 SWAP1 PUSH2 0xA1C JUMP JUMPDEST POP PUSH1 0x1 SLOAD PUSH1 0x40 MLOAD PUSH32 0x23B872DD00000000000000000000000000000000000000000000000000000000 DUP2 MSTORE PUSH20 0xFFFFFFFFFFFFFFFFFFFFFFFFFFFFFFFFFFFFFFFF SWAP1 SWAP2 AND SWAP1 PUSH4 0x23B872DD SWAP1 PUSH2 0x293 SWAP1 CALLER SWAP1 ADDRESS SWAP1 DUP8 SWAP1 PUSH1 0x4 ADD PUSH2 0x9D9 JUMP JUMPDEST PUSH1 0x20 PUSH1 0x40 MLOAD DUP1 DUP4 SUB DUP2 PUSH1 0x0 DUP8 GAS CALL ISZERO DUP1 ISZERO PUSH2 0x2B2 JUMPI RETURNDATASIZE PUSH1 0x0 DUP1 RETURNDATACOPY RETURNDATASIZE PUSH1 0x0 REVERT JUMPDEST POP POP POP POP PUSH1 0x40 MLOAD RETURNDATASIZE PUSH1 0x1F NOT PUSH1 0x1F DUP3 ADD AND DUP3 ADD DUP1 PUSH1 0x40 MSTORE POP DUP2 ADD SWAP1 PUSH2 0x2D6 SWAP2 SWAP1 PUSH2 0xA1C JUMP JUMPDEST POP PUSH1 0x0 SLOAD PUSH1 0x40 MLOAD PUSH32 0x95EA7B300000000000000000000000000000000000000000000000000000000 DUP2 MSTORE PUSH20 0xFFFFFFFFFFFFFFFFFFFFFFFFFFFFFFFFFFFFFFFF SWAP1 SWAP2 AND SWAP1 PUSH4 0x95EA7B3 SWAP1 PUSH2 0x34F SWAP1 PUSH32 0x0 SWAP1 DUP8 SWAP1 PUSH1 0x4 ADD PUSH2 0xA3D JUMP JUMPDEST PUSH1 0x20 PUSH1 0x40 MLOAD DUP1 DUP4 SUB DUP2 PUSH1 0x0 DUP8 GAS CALL ISZERO DUP1 ISZERO PUSH2 0x36E JUMPI RETURNDATASIZE PUSH1 0x0 DUP1 RETURNDATACOPY RETURNDATASIZE PUSH1 0x0 REVERT JUMPDEST POP POP POP POP PUSH1 0x40 MLOAD RETURNDATASIZE PUSH1 0x1F NOT PUSH1 0x1F DUP3 ADD AND DUP3 ADD DUP1 PUSH1 0x40 MSTORE POP DUP2 ADD SWAP1 PUSH2 0x392 SWAP2 SWAP1 PUSH2 0xA1C JUMP JUMPDEST POP PUSH1 0x1 SLOAD PUSH1 0x40 MLOAD PUSH32 0x95EA7B300000000000000000000000000000000000000000000000000000000 DUP2 MSTORE PUSH20 0xFFFFFFFFFFFFFFFFFFFFFFFFFFFFFFFFFFFFFFFF SWAP1 SWAP2 AND SWAP1 PUSH4 0x95EA7B3 SWAP1 PUSH2 0x40B SWAP1 PUSH32 0x0 SWAP1 DUP7 SWAP1 PUSH1 0x4 ADD PUSH2 0xA3D JUMP JUMPDEST PUSH1 0x20 PUSH1 0x40 MLOAD DUP1 DUP4 SUB DUP2 PUSH1 0x0 DUP8 GAS CALL ISZERO DUP1 ISZERO PUSH2 0x42A JUMPI RETURNDATASIZE PUSH1 0x0 DUP1 RETURNDATACOPY RETURNDATASIZE PUSH1 0x0 REVERT JUMPDEST POP POP POP POP PUSH1 0x40 MLOAD RETURNDATASIZE PUSH1 0x1F NOT PUSH1 0x1F DUP3 ADD AND DUP3 ADD DUP1 PUSH1 0x40 MSTORE POP DUP2 ADD SWAP1 PUSH2 0x44E SWAP2 SWAP1 PUSH2 0xA1C JUMP JUMPDEST POP PUSH1 0x40 DUP1 MLOAD PUSH2 0x160 DUP2 ADD DUP3 MSTORE PUSH1 0x0 DUP1 SLOAD PUSH20 0xFFFFFFFFFFFFFFFFFFFFFFFFFFFFFFFFFFFFFFFF SWAP1 DUP2 AND DUP4 MSTORE PUSH1 0x1 SLOAD SWAP1 DUP2 AND PUSH1 0x20 DUP5 ADD MSTORE PUSH21 0x10000000000000000000000000000000000000000 SWAP1 DIV PUSH3 0xFFFFFF AND SWAP3 DUP3 ADD SWAP3 SWAP1 SWAP3 MSTORE PUSH32 0xFFFFFFFFFFFFFFFFFFFFFFFFFFFFFFFFFFFFFFFFFFFFFFFFFFFFFFFFFFF2764C PUSH1 0x60 DUP3 ADD MSTORE PUSH3 0xD89B4 PUSH1 0x80 DUP3 ADD MSTORE PUSH1 0xA0 DUP2 ADD DUP6 SWAP1 MSTORE PUSH1 0xC0 DUP2 ADD DUP5 SWAP1 MSTORE PUSH1 0xE0 DUP2 ADD DUP3 SWAP1 MSTORE PUSH2 0x100 DUP2 ADD DUP3 SWAP1 MSTORE CALLER PUSH2 0x120 DUP3 ADD MSTORE PUSH2 0x140 DUP2 ADD PUSH2 0x50A TIMESTAMP PUSH1 0x78 PUSH2 0xA8E JUMP JUMPDEST SWAP1 MSTORE PUSH1 0x40 MLOAD PUSH32 0x8831645600000000000000000000000000000000000000000000000000000000 DUP2 MSTORE SWAP1 SWAP2 POP PUSH20 0xFFFFFFFFFFFFFFFFFFFFFFFFFFFFFFFFFFFFFFFF PUSH32 0x0 AND SWAP1 PUSH4 0x88316456 SWAP1 PUSH2 0x581 SWAP1 DUP5 SWAP1 PUSH1 0x4 ADD PUSH2 0xB87 JUMP JUMPDEST PUSH1 0x80 PUSH1 0x40 MLOAD DUP1 DUP4 SUB DUP2 PUSH1 0x0 DUP8 GAS CALL ISZERO DUP1 ISZERO PUSH2 0x5A0 JUMPI RETURNDATASIZE PUSH1 0x0 DUP1 RETURNDATACOPY RETURNDATASIZE PUSH1 0x0 REVERT JUMPDEST POP POP POP POP PUSH1 0x40 MLOAD RETURNDATASIZE PUSH1 0x1F NOT PUSH1 0x1F DUP3 ADD AND DUP3 ADD DUP1 PUSH1 0x40 MSTORE POP DUP2 ADD SWAP1 PUSH2 0x5C4 SWAP2 SWAP1 PUSH2 0xBC4 JUMP JUMPDEST POP SWAP2 SWAP7 SWAP6 POP POP POP POP POP POP JUMP JUMPDEST PUSH1 0x40 MLOAD PUSH32 0x23B872DD00000000000000000000000000000000000000000000000000000000 DUP2 MSTORE PUSH1 0x0 SWAP1 PUSH20 0xFFFFFFFFFFFFFFFFFFFFFFFFFFFFFFFFFFFFFFFF DUP6 AND SWAP1 PUSH4 0x23B872DD SWAP1 PUSH2 0x629 SWAP1 CALLER SWAP1 ADDRESS SWAP1 DUP8 SWAP1 PUSH1 0x4 ADD PUSH2 0x9D9 JUMP JUMPDEST PUSH1 0x20 PUSH1 0x40 MLOAD DUP1 DUP4 SUB DUP2 PUSH1 0x0 DUP8 GAS CALL ISZERO DUP1 ISZERO PUSH2 0x648 JUMPI RETURNDATASIZE PUSH1 0x0 DUP1 RETURNDATACOPY RETURNDATASIZE PUSH1 0x0 REVERT JUMPDEST POP POP POP POP PUSH1 0x40 MLOAD RETURNDATASIZE PUSH1 0x1F NOT PUSH1 0x1F DUP3 ADD AND DUP3 ADD DUP1 PUSH1 0x40 MSTORE POP DUP2 ADD SWAP1 PUSH2 0x66C SWAP2 SWAP1 PUSH2 0xA1C JUMP JUMPDEST POP PUSH1 0x40 MLOAD PUSH32 0x95EA7B300000000000000000000000000000000000000000000000000000000 DUP2 MSTORE PUSH20 0xFFFFFFFFFFFFFFFFFFFFFFFFFFFFFFFFFFFFFFFF DUP6 AND SWAP1 PUSH4 0x95EA7B3 SWAP1 PUSH2 0x6E1 SWAP1 PUSH32 0x0 SWAP1 DUP7 SWAP1 PUSH1 0x4 ADD PUSH2 0xA3D JUMP JUMPDEST PUSH1 0x20 PUSH1 0x40 MLOAD DUP1 DUP4 SUB DUP2 PUSH1 0x0 DUP8 GAS CALL ISZERO DUP1 ISZERO PUSH2 0x700 JUMPI RETURNDATASIZE PUSH1 0x0 DUP1 RETURNDATACOPY RETURNDATASIZE PUSH1 0x0 REVERT JUMPDEST POP POP POP POP PUSH1 0x40 MLOAD RETURNDATASIZE PUSH1 0x1F NOT PUSH1 0x1F DUP3 ADD AND DUP3 ADD DUP1 PUSH1 0x40 MSTORE POP DUP2 ADD SWAP1 PUSH2 0x724 SWAP2 SWAP1 PUSH2 0xA1C JUMP JUMPDEST POP PUSH1 0x40 DUP1 MLOAD PUSH2 0x100 DUP2 ADD DUP3 MSTORE PUSH20 0xFFFFFFFFFFFFFFFFFFFFFFFFFFFFFFFFFFFFFFFF DUP7 DUP2 AND DUP3 MSTORE DUP6 AND PUSH1 0x20 DUP3 ADD MSTORE PUSH1 0x1 SLOAD PUSH21 0x10000000000000000000000000000000000000000 SWAP1 DIV PUSH3 0xFFFFFF AND SWAP2 DUP2 ADD SWAP2 SWAP1 SWAP2 MSTORE CALLER PUSH1 0x60 DUP3 ADD MSTORE PUSH1 0x0 SWAP1 PUSH1 0x80 DUP2 ADD PUSH2 0x790 TIMESTAMP PUSH1 0x3C PUSH2 0xA8E JUMP JUMPDEST DUP2 MSTORE PUSH1 0x20 DUP2 ADD DUP6 SWAP1 MSTORE PUSH1 0x0 PUSH1 0x40 DUP1 DUP4 ADD DUP3 SWAP1 MSTORE PUSH1 0x60 SWAP1 SWAP3 ADD MSTORE MLOAD PUSH32 0x414BF38900000000000000000000000000000000000000000000000000000000 DUP2 MSTORE SWAP1 SWAP2 POP PUSH32 0x0 PUSH20 0xFFFFFFFFFFFFFFFFFFFFFFFFFFFFFFFFFFFFFFFF AND SWAP1 PUSH4 0x414BF389 SWAP1 PUSH2 0x81C SWAP1 DUP5 SWAP1 PUSH1 0x4 ADD PUSH2 0xCDB JUMP JUMPDEST PUSH1 0x20 PUSH1 0x40 MLOAD DUP1 DUP4 SUB DUP2 PUSH1 0x0 DUP8 GAS CALL ISZERO DUP1 ISZERO PUSH2 0x83B JUMPI RETURNDATASIZE PUSH1 0x0 DUP1 RETURNDATACOPY RETURNDATASIZE PUSH1 0x0 REVERT JUMPDEST POP POP POP POP PUSH1 0x40 MLOAD RETURNDATASIZE PUSH1 0x1F NOT PUSH1 0x1F DUP3 ADD AND DUP3 ADD DUP1 PUSH1 0x40 MSTORE POP DUP2 ADD SWAP1 PUSH2 0x85F SWAP2 SWAP1 PUSH2 0xCEA JUMP JUMPDEST SWAP6 SWAP5 POP POP POP POP POP JUMP JUMPDEST PUSH1 0x0 PUSH20 0xFFFFFFFFFFFFFFFFFFFFFFFFFFFFFFFFFFFFFFFF DUP3 AND JUMPDEST SWAP3 SWAP2 POP POP JUMP JUMPDEST PUSH2 0x891 DUP2 PUSH2 0x868 JUMP JUMPDEST DUP3 MSTORE POP POP JUMP JUMPDEST PUSH1 0x20 DUP2 ADD PUSH2 0x882 DUP3 DUP5 PUSH2 0x888 JUMP JUMPDEST PUSH1 0x0 PUSH20 0xFFFFFFFFFFFFFFFFFFFFFFFFFFFFFFFFFFFFFFFF DUP3 AND PUSH2 0x882 JUMP JUMPDEST PUSH1 0x0 PUSH2 0x882 DUP3 PUSH2 0x8A5 JUMP JUMPDEST PUSH1 0x0 PUSH2 0x882 DUP3 PUSH2 0x8C3 JUMP JUMPDEST PUSH2 0x891 DUP2 PUSH2 0x8CE JUMP JUMPDEST PUSH1 0x20 DUP2 ADD PUSH2 0x882 DUP3 DUP5 PUSH2 0x8D9 JUMP JUMPDEST DUP1 JUMPDEST DUP2 EQ PUSH2 0x8FD JUMPI PUSH1 0x0 DUP1 REVERT JUMPDEST POP JUMP JUMPDEST DUP1 CALLDATALOAD PUSH2 0x882 DUP2 PUSH2 0x8F0 JUMP JUMPDEST PUSH1 0x0 DUP1 PUSH1 0x40 DUP4 DUP6 SUB SLT ISZERO PUSH2 0x921 JUMPI PUSH2 0x921 PUSH1 0x0 DUP1 REVERT JUMPDEST PUSH1 0x0 PUSH2 0x92D DUP6 DUP6 PUSH2 0x900 JUMP JUMPDEST SWAP3 POP POP PUSH1 0x20 PUSH2 0x93E DUP6 DUP3 DUP7 ADD PUSH2 0x900 JUMP JUMPDEST SWAP2 POP POP SWAP3 POP SWAP3 SWAP1 POP JUMP JUMPDEST DUP1 PUSH2 0x891 JUMP JUMPDEST PUSH1 0x20 DUP2 ADD PUSH2 0x882 DUP3 DUP5 PUSH2 0x948 JUMP JUMPDEST PUSH2 0x8F2 DUP2 PUSH2 0x868 JUMP JUMPDEST DUP1 CALLDATALOAD PUSH2 0x882 DUP2 PUSH2 0x95C JUMP JUMPDEST PUSH1 0x0 DUP1 PUSH1 0x0 PUSH1 0x60 DUP5 DUP7 SUB SLT ISZERO PUSH2 0x988 JUMPI PUSH2 0x988 PUSH1 0x0 DUP1 REVERT JUMPDEST PUSH1 0x0 PUSH2 0x994 DUP7 DUP7 PUSH2 0x965 JUMP JUMPDEST SWAP4 POP POP PUSH1 0x20 PUSH2 0x9A5 DUP7 DUP3 DUP8 ADD PUSH2 0x965 JUMP JUMPDEST SWAP3 POP POP PUSH1 0x40 PUSH2 0x9B6 DUP7 DUP3 DUP8 ADD PUSH2 0x900 JUMP JUMPDEST SWAP2 POP POP SWAP3 POP SWAP3 POP SWAP3 JUMP JUMPDEST PUSH3 0xFFFFFF DUP2 AND PUSH2 0x891 JUMP JUMPDEST PUSH1 0x20 DUP2 ADD PUSH2 0x882 DUP3 DUP5 PUSH2 0x9C0 JUMP JUMPDEST PUSH1 0x60 DUP2 ADD PUSH2 0x9E7 DUP3 DUP7 PUSH2 0x888 JUMP JUMPDEST PUSH2 0x9F4 PUSH1 0x20 DUP4 ADD DUP6 PUSH2 0x888 JUMP JUMPDEST PUSH2 0xA01 PUSH1 0x40 DUP4 ADD DUP5 PUSH2 0x948 JUMP JUMPDEST SWAP5 SWAP4 POP POP POP POP JUMP JUMPDEST DUP1 ISZERO ISZERO PUSH2 0x8F2 JUMP JUMPDEST DUP1 MLOAD PUSH2 0x882 DUP2 PUSH2 0xA09 JUMP JUMPDEST PUSH1 0x0 PUSH1 0x20 DUP3 DUP5 SUB SLT ISZERO PUSH2 0xA31 JUMPI PUSH2 0xA31 PUSH1 0x0 DUP1 REVERT JUMPDEST PUSH1 0x0 PUSH2 0xA01 DUP5 DUP5 PUSH2 0xA11 JUMP JUMPDEST PUSH1 0x40 DUP2 ADD PUSH2 0xA4B DUP3 DUP6 PUSH2 0x888 JUMP JUMPDEST PUSH2 0xA58 PUSH1 0x20 DUP4 ADD DUP5 PUSH2 0x948 JUMP JUMPDEST SWAP4 SWAP3 POP POP POP JUMP JUMPDEST PUSH32 0x4E487B7100000000000000000000000000000000000000000000000000000000 PUSH1 0x0 MSTORE PUSH1 0x11 PUSH1 0x4 MSTORE PUSH1 0x24 PUSH1 0x0 REVERT JUMPDEST DUP1 DUP3 ADD DUP1 DUP3 GT ISZERO PUSH2 0x882 JUMPI PUSH2 0x882 PUSH2 0xA5F JUMP JUMPDEST PUSH2 0x891 DUP2 PUSH1 0x2 SIGNEXTEND SWAP1 JUMP JUMPDEST DUP1 MLOAD PUSH2 0x160 DUP4 ADD SWAP1 PUSH2 0xABD DUP5 DUP3 PUSH2 0x888 JUMP JUMPDEST POP PUSH1 0x20 DUP3 ADD MLOAD PUSH2 0xAD0 PUSH1 0x20 DUP6 ADD DUP3 PUSH2 0x888 JUMP JUMPDEST POP PUSH1 0x40 DUP3 ADD MLOAD PUSH2 0xAE3 PUSH1 0x40 DUP6 ADD DUP3 PUSH2 0x9C0 JUMP JUMPDEST POP PUSH1 0x60 DUP3 ADD MLOAD PUSH2 0xAF6 PUSH1 0x60 DUP6 ADD DUP3 PUSH2 0xAA1 JUMP JUMPDEST POP PUSH1 0x80 DUP3 ADD MLOAD PUSH2 0xB09 PUSH1 0x80 DUP6 ADD DUP3 PUSH2 0xAA1 JUMP JUMPDEST POP PUSH1 0xA0 DUP3 ADD MLOAD PUSH2 0xB1C PUSH1 0xA0 DUP6 ADD DUP3 PUSH2 0x948 JUMP JUMPDEST POP PUSH1 0xC0 DUP3 ADD MLOAD PUSH2 0xB2F PUSH1 0xC0 DUP6 ADD DUP3 PUSH2 0x948 JUMP JUMPDEST POP PUSH1 0xE0 DUP3 ADD MLOAD PUSH2 0xB42 PUSH1 0xE0 DUP6 ADD DUP3 PUSH2 0x948 JUMP JUMPDEST POP PUSH2 0x100 DUP3 ADD MLOAD PUSH2 0xB57 PUSH2 0x100 DUP6 ADD DUP3 PUSH2 0x948 JUMP JUMPDEST POP PUSH2 0x120 DUP3 ADD MLOAD PUSH2 0xB6C PUSH2 0x120 DUP6 ADD DUP3 PUSH2 0x888 JUMP JUMPDEST POP PUSH2 0x140 DUP3 ADD MLOAD PUSH2 0xB81 PUSH2 0x140 DUP6 ADD DUP3 PUSH2 0x948 JUMP JUMPDEST POP POP POP POP JUMP JUMPDEST PUSH2 0x160 DUP2 ADD PUSH2 0x882 DUP3 DUP5 PUSH2 0xAAB JUMP JUMPDEST DUP1 MLOAD PUSH2 0x882 DUP2 PUSH2 0x8F0 JUMP JUMPDEST PUSH16 0xFFFFFFFFFFFFFFFFFFFFFFFFFFFFFFFF DUP2 AND PUSH2 0x8F2 JUMP JUMPDEST DUP1 MLOAD PUSH2 0x882 DUP2 PUSH2 0xBA1 JUMP JUMPDEST PUSH1 0x0 DUP1 PUSH1 0x0 DUP1 PUSH1 0x80 DUP6 DUP8 SUB SLT ISZERO PUSH2 0xBDD JUMPI PUSH2 0xBDD PUSH1 0x0 DUP1 REVERT JUMPDEST PUSH1 0x0 PUSH2 0xBE9 DUP8 DUP8 PUSH2 0xB96 JUMP JUMPDEST SWAP5 POP POP PUSH1 0x20 PUSH2 0xBFA DUP8 DUP3 DUP9 ADD PUSH2 0xBB9 JUMP JUMPDEST SWAP4 POP POP PUSH1 0x40 PUSH2 0xC0B DUP8 DUP3 DUP9 ADD PUSH2 0xB96 JUMP JUMPDEST SWAP3 POP POP PUSH1 0x60 PUSH2 0xC1C DUP8 DUP3 DUP9 ADD PUSH2 0xB96 JUMP JUMPDEST SWAP2 POP POP SWAP3 SWAP6 SWAP2 SWAP5 POP SWAP3 POP JUMP JUMPDEST PUSH20 0xFFFFFFFFFFFFFFFFFFFFFFFFFFFFFFFFFFFFFFFF DUP2 AND PUSH2 0x891 JUMP JUMPDEST DUP1 MLOAD PUSH2 0x100 DUP4 ADD SWAP1 PUSH2 0xC56 DUP5 DUP3 PUSH2 0x888 JUMP JUMPDEST POP PUSH1 0x20 DUP3 ADD MLOAD PUSH2 0xC69 PUSH1 0x20 DUP6 ADD DUP3 PUSH2 0x888 JUMP JUMPDEST POP PUSH1 0x40 DUP3 ADD MLOAD PUSH2 0xC7C PUSH1 0x40 DUP6 ADD DUP3 PUSH2 0x9C0 JUMP JUMPDEST POP PUSH1 0x60 DUP3 ADD MLOAD PUSH2 0xC8F PUSH1 0x60 DUP6 ADD DUP3 PUSH2 0x888 JUMP JUMPDEST POP PUSH1 0x80 DUP3 ADD MLOAD PUSH2 0xCA2 PUSH1 0x80 DUP6 ADD DUP3 PUSH2 0x948 JUMP JUMPDEST POP PUSH1 0xA0 DUP3 ADD MLOAD PUSH2 0xCB5 PUSH1 0xA0 DUP6 ADD DUP3 PUSH2 0x948 JUMP JUMPDEST POP PUSH1 0xC0 DUP3 ADD MLOAD PUSH2 0xCC8 PUSH1 0xC0 DUP6 ADD DUP3 PUSH2 0x948 JUMP JUMPDEST POP PUSH1 0xE0 DUP3 ADD MLOAD PUSH2 0xB81 PUSH1 0xE0 DUP6 ADD DUP3 PUSH2 0xC28 JUMP JUMPDEST PUSH2 0x100 DUP2 ADD PUSH2 0x882 DUP3 DUP5 PUSH2 0xC44 JUMP JUMPDEST PUSH1 0x0 PUSH1 0x20 DUP3 DUP5 SUB SLT ISZERO PUSH2 0xCFF JUMPI PUSH2 0xCFF PUSH1 0x0 DUP1 REVERT JUMPDEST PUSH1 0x0 PUSH2 0xA01 DUP5 DUP5 PUSH2 0xB96 JUMP INVALID LOG2 PUSH5 0x6970667358 0x22 SLT KECCAK256 DUP6 PUSH26 0x1FEE759EED1BD69E83D58409252782C328D264FB5E262A67C29E 0xBD PUSH15 0xFBB464736F6C634300081800330000 "},"methodIdentifiers":{"addLiquidity(uint256,uint256)":"9cd441da","fee()":"ddca3f43","positionManager()":"791b98bc","swapExactInputSingle(address,address,uint256)":"ceb92012","swapRouter()":"c31c9c07","token0()":"0dfe1681","token1()":"d21220a7"}}}}}