{"contracts/UsdCoin.sol":{"UsdCoin":{"abi":[{"inputs":[],"stateMutability":"nonpayable","type":"constructor"},{"anonymous":false,"inputs":[{"indexed":true,"internalType":"address","name":"owner","type":"address"},{"indexed":true,"internalType":"address","name":"spender","type":"address"},{"indexed":false,"internalType":"uint256","name":"value","type":"uint256"}],"name":"Approval","type":"event"},{"anonymous":false,"inputs":[{"indexed":true,"internalType":"address","name":"from","type":"address"},{"indexed":true,"internalType":"address","name":"to","type":"address"},{"indexed":false,"internalType":"uint256","name":"value","type":"uint256"}],"name":"Transfer","type":"event"},{"inputs":[],"name":"INITIAL_SUPPLY","outputs":[{"internalType":"uint256","name":"","type":"uint256"}],"stateMutability":"view","type":"function"},{"inputs":[],"name":"MAX_SUPPLY","outputs":[{"internalType":"uint256","name":"","type":"uint256"}],"stateMutability":"view","type":"function"},{"inputs":[{"internalType":"address","name":"owner","type":"address"},{"internalType":"address","name":"spender","type":"address"}],"name":"allowance","outputs":[{"internalType":"uint256","name":"","type":"uint256"}],"stateMutability":"view","type":"function"},{"inputs":[{"internalType":"address","name":"spender","type":"address"},{"internalType":"uint256","name":"amount","type":"uint256"}],"name":"approve","outputs":[{"internalType":"bool","name":"","type":"bool"}],"stateMutability":"nonpayable","type":"function"},{"inputs":[{"internalType":"address","name":"account","type":"address"}],"name":"balanceOf","outputs":[{"internalType":"uint256","name":"","type":"uint256"}],"stateMutability":"view","type":"function"},{"inputs":[],"name":"decimals","outputs":[{"internalType":"uint8","name":"","type":"uint8"}],"stateMutability":"view","type":"function"},{"inputs":[{"internalType":"address","name":"spender","type":"address"},{"internalType":"uint256","name":"subtractedValue","type":"uint256"}],"name":"decreaseAllowance","outputs":[{"internalType":"bool","name":"","type":"bool"}],"stateMutability":"nonpayable","type":"function"},{"inputs":[{"internalType":"address","name":"spender","type":"address"},{"internalType":"uint256","name":"addedValue","type":"uint256"}],"name":"increaseAllowance","outputs":[{"internalType":"bool","name":"","type":"bool"}],"stateMutability":"nonpayable","type":"function"},{"inputs":[{"internalType":"address","name":"to","type":"address"},{"internalType":"uint256","name":"amount","type":"uint256"}],"name":"mint","outputs":[],"stateMutability":"nonpayable","type":"function"},{"inputs":[],"name":"name","outputs":[{"internalType":"string","name":"","type":"string"}],"stateMutability":"view","type":"function"},{"inputs":[],"name":"symbol","outputs":[{"internalType":"string","name":"","type":"string"}],"stateMutability":"view","type":"function"},{"inputs":[],"name":"totalSupply","outputs":[{"internalType":"uint256","name":"","type":"uint256"}],"stateMutability":"view","type":"function"},{"inputs":[{"internalType":"address","name":"recipient","type":"address"},{"internalType":"uint256","name":"amount","type":"uint256"}],"name":"transfer","outputs":[{"internalType":"bool","name":"","type":"bool"}],"stateMutability":"nonpayable","type":"function"},{"inputs":[{"internalType":"address","name":"from","type":"address"},{"internalType":"address","name":"to","type":"address"},{"internalType":"uint256","name":"amount","type":"uint256"}],"name":"transferFrom","outputs":[{"internalType":"bool","name":"","type":"bool"}],"stateMutability":"nonpayable","type":"function"}],"evm":{"bytecode":{"linkReferences":{},"object":"60806040523462000026576200001462000195565b604051610ec3620006078239610ec390f35b600080fd5b634e487b7160e01b600052604160045260246000fd5b90601f01601f191681019081106001600160401b038211176200006357604052565b6200002b565b90620000806200007860405190565b928362000041565b565b6001600160401b0381116200006357602090601f01601f19160190565b90620000b5620000af8362000082565b62000069565b918252565b620000c660076200009f565b662ab9b221b7b4b760c91b602082015290565b620000e3620000ba565b90565b620000f260046200009f565b635553444360e01b602082015290565b620000e3620000e6565b620000e3620000e3620000e39290565b620000e364e8d4a510006200010c565b620000e366038d7ea4c680006200010c565b156200014657565b60405162461bcd60e51b815260206004820152602160248201527f496e697469616c20737570706c792065786365656473206d617820737570706c6044820152607960f81b6064820152608490fd5b620001b4620001a3620000d9565b620001ad62000102565b90620003e7565b620001e0620001c26200011c565b620001d8620001d4620000e36200012c565b9190565b11156200013e565b6200008033620001ef6200011c565b9062000520565b634e487b7160e01b600052602260045260246000fd5b90600160028304921680156200022f575b60208310146200022957565b620001f6565b91607f16916200021d565b9160001960089290920291821b911b5b9181191691161790565b919062000269620000e362000272936200010c565b9083546200023a565b9055565b620000809160009162000254565b81811062000290575050565b80620002a0600060019362000276565b0162000284565b9190601f8111620002b757505050565b620002cb6200008093600052602060002090565b906020601f840181900483019310620002ef575b6020601f90910104019062000284565b9091508190620002df565b9062000304815190565b906001600160401b03821162000063576200032c826200032585546200020c565b85620002a7565b602090601f83116001146200036b57620002729291600091836200035f575b5050600019600883021c1916906002021790565b0151905038806200034b565b601f198316916200038185600052602060002090565b9260005b818110620003c257509160029391856001969410620003a8575b50505002019055565b01516000196008601f8516021c191690553880806200039f565b9193602060018192878701518155019501920162000385565b906200008091620002fa565b90620003f962000080926003620003db565b6004620003db565b62000411620000e3620000e39290565b6001600160a01b031690565b620000e39062000401565b156200043057565b60405162461bcd60e51b815260206004820152601f60248201527f45524332303a206d696e7420746f20746865207a65726f2061646472657373006044820152606490fd5b620000e39081565b620000e3905462000475565b634e487b7160e01b600052601160045260246000fd5b91908201809211620004ad57565b62000489565b90600019906200024a565b90620004d2620000e362000272926200010c565b8254620004b3565b620000e39062000411906001600160a01b031682565b620000e390620004da565b620000e390620004f0565b906200051290620004fb565b600052602052604060002090565b906200054f8262000547620005406200053a60006200041d565b62000411565b9162000411565b141562000428565b620005726200056a826200056460026200047d565b6200049f565b6002620004be565b6200059f81620005986200058885600062000506565b9162000594836200047d565b0190565b90620004be565b620005ab60006200041d565b91909162000601620005e9620005e27fddf252ad1be2c89b69c2b068fc378daa952ba7f163c4a11628f55a4df523b3ef93620004fb565b93620004fb565b93620005f460405190565b9182918290815260200190565b0390a356fe6080604052600436101561001257600080fd5b60003560e01c806306fdde03146100f2578063095ea7b3146100ed57806318160ddd146100e857806323b872dd146100e35780632ff2e9dc146100de578063313ce567146100d957806332cb6b0c146100d457806339509351146100cf57806340c10f19146100ca57806370a08231146100c557806395d89b41146100c0578063a457c2d7146100bb578063a9059cbb146100b65763dd62ed3e0361010257610461565b610422565b610406565b6103eb565b6103d0565b61039e565b610382565b610367565b610320565b610305565b6102c6565b61026a565b61023c565b610194565b600091031261010257565b600080fd5b60005b83811061011a5750506000910152565b818101518382015260200161010a565b61014b61015460209361017c9361013f815190565b80835293849260200190565b95869101610107565b601f017fffffffffffffffffffffffffffffffffffffffffffffffffffffffffffffffe01690565b0190565b60208082526101919291019061012a565b90565b34610102576101a43660046100f7565b6101bb6101af610602565b60405191829182610180565b0390f35b73ffffffffffffffffffffffffffffffffffffffff1690565b73ffffffffffffffffffffffffffffffffffffffff81165b0361010257565b90503590610204826101d8565b565b806101f0565b9050359061020482610206565b9190604083820312610102576101919061023381856101f7565b9360200161020c565b34610102576101bb610258610252366004610219565b9061060c565b60405191829182901515815260200190565b346101025761027a3660046100f7565b6101bb61028561062d565b6040515b9182918290815260200190565b9091606082840312610102576101916102af84846101f7565b936102bd81602086016101f7565b9360400161020c565b34610102576101bb6102586102dc366004610296565b91610637565b6101916101916101919290565b61019164e8d4a510006102e2565b6101916102ef565b34610102576103153660046100f7565b6101bb6102856102fd565b34610102576103303660046100f7565b6101bb61033b610662565b6040519182918260ff909116815260200190565b61019166038d7ea4c680006102e2565b61019161034f565b34610102576103773660046100f7565b6101bb61028561035f565b34610102576101bb610258610398366004610219565b906106ad565b34610102576103b76103b1366004610219565b906106cc565b604051005b9060208282031261010257610191916101f7565b34610102576101bb6102856103e63660046103bc565b610723565b34610102576103fb3660046100f7565b6101bb6101af61073f565b34610102576101bb61025861041c366004610219565b906107bb565b34610102576101bb610258610438366004610219565b9061090a565b9190604083820312610102576101919061045881856101f7565b936020016101f7565b34610102576101bb61028561047736600461043e565b9061097a565b7f4e487b7100000000000000000000000000000000000000000000000000000000600052602260045260246000fd5b90600160028304921680156104cc575b60208310146104c757565b61047d565b91607f16916104bc565b805460009392916104f36104e9836104ac565b8085529360200190565b9160018116908115610545575060011461050c57505050565b61051f9192939450600052602060002090565b916000925b8184106105315750500190565b805484840152602090930192600101610524565b92949550505060ff1916825215156020020190565b90610191916104d6565b7f4e487b7100000000000000000000000000000000000000000000000000000000600052604160045260246000fd5b90601f017fffffffffffffffffffffffffffffffffffffffffffffffffffffffffffffffe016810190811067ffffffffffffffff8211176105d357604052565b610564565b906102046105f2926105e960405190565b9384809261055a565b0383610593565b610191906105d8565b61019160036105f9565b610617919033610a91565b600190565b6101919081565b610191905461061c565b6101916002610623565b6106179290610647823383610b7c565b919091610d28565b61065c6101916101919290565b60ff1690565b610191601261064f565b7f4e487b7100000000000000000000000000000000000000000000000000000000600052601160045260246000fd5b919082018092116106a857565b61066c565b610617916106c63392916106c1838561097a565b61069b565b91610a91565b9061020491610e33565b6101bf6101916101919273ffffffffffffffffffffffffffffffffffffffff1690565b610191906106d6565b610191906106f9565b9061071590610702565b600052602052604060002090565b61073a61019191610732600090565b50600061070b565b610623565b61019160046105f9565b1561075057565b60405162461bcd60e51b815260206004820152602560248201527f45524332303a2064656372656173656420616c6c6f77616e63652062656c6f7760448201527f207a65726f0000000000000000000000000000000000000000000000000000006064820152608490fd5b610617916106c633916107ce848461097a565b926107e482856107dd565b9190565b1015610749565b93920390565b6101bf6101916101919290565b610191906107ea565b1561080757565b60405162461bcd60e51b815260206004820152601c60248201527f5472616e7366657220746f20746865207a65726f2061646472657373000000006044820152606490fd5b1561085357565b60405162461bcd60e51b815260206004820152602960248201527f5472616e7366657220616d6f756e74206d75737420626520677265617465722060448201527f7468616e207a65726f00000000000000000000000000000000000000000000006064820152608490fd5b156108c557565b60405162461bcd60e51b815260206004820152601460248201527f496e73756666696369656e742062616c616e63650000000000000000000000006044820152606490fd5b61019191906109448161093d6109236101bf60006107f7565b9173ffffffffffffffffffffffffffffffffffffffff1690565b1415610800565b61095b826109556107d960006102e2565b1161084c565b6109758261096e6107d961019133610723565b11156108be565b610e83565b6101919161099561073a9261098d600090565b50600161070b565b61070b565b156109a157565b60405162461bcd60e51b8152602060048201526024808201527f45524332303a20617070726f76652066726f6d20746865207a65726f2061646460448201527f72657373000000000000000000000000000000000000000000000000000000006064820152608490fd5b15610a1257565b60405162461bcd60e51b815260206004820152602260248201527f45524332303a20617070726f766520746f20746865207a65726f20616464726560448201527f73730000000000000000000000000000000000000000000000000000000000006064820152608490fd5b90610191610191610a8d926102e2565b9055565b919091610aaf81610aa86109236101bf60006107f7565b141561099a565b610aca83610ac36109236101bf60006107f7565b1415610a0b565b610ae882610ae3610adc84600161070b565b869061070b565b610a7d565b919091610b2b610b21610b1b7f8c5be1e5ebec7d5bd14f71427d1e84f3dd0314c0f7b2291e5b200ac8c7c3b92593610702565b93610702565b9361028960405190565b0390a3565b15610b3757565b60405162461bcd60e51b815260206004820152601d60248201527f45524332303a20696e73756666696369656e7420616c6c6f77616e63650000006044820152606490fd5b610b86828261097a565b907fffffffffffffffffffffffffffffffffffffffffffffffffffffffffffffffff8203610bb5575b50505050565b610bc9936106c6916107e482851015610b30565b38808080610baf565b15610bd957565b60405162461bcd60e51b815260206004820152602560248201527f45524332303a207472616e736665722066726f6d20746865207a65726f20616460448201527f64726573730000000000000000000000000000000000000000000000000000006064820152608490fd5b15610c4b57565b60405162461bcd60e51b815260206004820152602360248201527f45524332303a207472616e7366657220746f20746865207a65726f206164647260448201527f65737300000000000000000000000000000000000000000000000000000000006064820152608490fd5b15610cbd57565b60405162461bcd60e51b815260206004820152602660248201527f45524332303a207472616e7366657220616d6f756e742065786365656473206260448201527f616c616e636500000000000000000000000000000000000000000000000000006064820152608490fd5b919091610d4681610d3f6109236101bf60006107f7565b1415610bd2565b610d6183610d5a6109236101bf60006107f7565b1415610c44565b610d92610d87610d7561073a84600061070b565b610d8185821015610cb6565b84900390565b610ae383600061070b565b610db482610dae610da486600061070b565b9161017c83610623565b90610a7d565b919091610b2b610b21610b1b7fddf252ad1be2c89b69c2b068fc378daa952ba7f163c4a11628f55a4df523b3ef93610702565b15610dee57565b60405162461bcd60e51b815260206004820152601f60248201527f45524332303a206d696e7420746f20746865207a65726f2061646472657373006044820152606490fd5b90610e4f82610e486109236101bf60006107f7565b1415610de7565b610e67610e60826106c16002610623565b6002610a7d565b610e7981610dae610da485600061070b565b610db460006107f7565b610617913361064756fea264697066735822122049b4abd94d060087600ffc4c72a51e949c79e2e28aeb5ba36d760ef0e575f92b64736f6c63430008180033","opcodes":"PUSH1 0x80 PUSH1 0x40 MSTORE CALLVALUE PUSH3 0x26 JUMPI PUSH3 0x14 PUSH3 0x195 JUMP JUMPDEST PUSH1 0x40 MLOAD PUSH2 0xEC3 PUSH3 0x607 DUP3 CODECOPY PUSH2 0xEC3 SWAP1 RETURN JUMPDEST PUSH1 0x0 DUP1 REVERT JUMPDEST PUSH4 0x4E487B71 PUSH1 0xE0 SHL PUSH1 0x0 MSTORE PUSH1 0x41 PUSH1 0x4 MSTORE PUSH1 0x24 PUSH1 0x0 REVERT JUMPDEST SWAP1 PUSH1 0x1F ADD PUSH1 0x1F NOT AND DUP2 ADD SWAP1 DUP2 LT PUSH1 0x1 PUSH1 0x1 PUSH1 0x40 SHL SUB DUP3 GT OR PUSH3 0x63 JUMPI PUSH1 0x40 MSTORE JUMP JUMPDEST PUSH3 0x2B JUMP JUMPDEST SWAP1 PUSH3 0x80 PUSH3 0x78 PUSH1 0x40 MLOAD SWAP1 JUMP JUMPDEST SWAP3 DUP4 PUSH3 0x41 JUMP JUMPDEST JUMP JUMPDEST PUSH1 0x1 PUSH1 0x1 PUSH1 0x40 SHL SUB DUP2 GT PUSH3 0x63 JUMPI PUSH1 0x20 SWAP1 PUSH1 0x1F ADD PUSH1 0x1F NOT AND ADD SWAP1 JUMP JUMPDEST SWAP1 PUSH3 0xB5 PUSH3 0xAF DUP4 PUSH3 0x82 JUMP JUMPDEST PUSH3 0x69 JUMP JUMPDEST SWAP2 DUP3 MSTORE JUMP JUMPDEST PUSH3 0xC6 PUSH1 0x7 PUSH3 0x9F JUMP JUMPDEST PUSH7 0x2AB9B221B7B4B7 PUSH1 0xC9 SHL PUSH1 0x20 DUP3 ADD MSTORE SWAP1 JUMP JUMPDEST PUSH3 0xE3 PUSH3 0xBA JUMP JUMPDEST SWAP1 JUMP JUMPDEST PUSH3 0xF2 PUSH1 0x4 PUSH3 0x9F JUMP JUMPDEST PUSH4 0x55534443 PUSH1 0xE0 SHL PUSH1 0x20 DUP3 ADD MSTORE SWAP1 JUMP JUMPDEST PUSH3 0xE3 PUSH3 0xE6 JUMP JUMPDEST PUSH3 0xE3 PUSH3 0xE3 PUSH3 0xE3 SWAP3 SWAP1 JUMP JUMPDEST PUSH3 0xE3 PUSH5 0xE8D4A51000 PUSH3 0x10C JUMP JUMPDEST PUSH3 0xE3 PUSH7 0x38D7EA4C68000 PUSH3 0x10C JUMP JUMPDEST ISZERO PUSH3 0x146 JUMPI JUMP JUMPDEST PUSH1 0x40 MLOAD PUSH3 0x461BCD PUSH1 0xE5 SHL DUP2 MSTORE PUSH1 0x20 PUSH1 0x4 DUP3 ADD MSTORE PUSH1 0x21 PUSH1 0x24 DUP3 ADD MSTORE PUSH32 0x496E697469616C20737570706C792065786365656473206D617820737570706C PUSH1 0x44 DUP3 ADD MSTORE PUSH1 0x79 PUSH1 0xF8 SHL PUSH1 0x64 DUP3 ADD MSTORE PUSH1 0x84 SWAP1 REVERT JUMPDEST PUSH3 0x1B4 PUSH3 0x1A3 PUSH3 0xD9 JUMP JUMPDEST PUSH3 0x1AD PUSH3 0x102 JUMP JUMPDEST SWAP1 PUSH3 0x3E7 JUMP JUMPDEST PUSH3 0x1E0 PUSH3 0x1C2 PUSH3 0x11C JUMP JUMPDEST PUSH3 0x1D8 PUSH3 0x1D4 PUSH3 0xE3 PUSH3 0x12C JUMP JUMPDEST SWAP2 SWAP1 JUMP JUMPDEST GT ISZERO PUSH3 0x13E JUMP JUMPDEST PUSH3 0x80 CALLER PUSH3 0x1EF PUSH3 0x11C JUMP JUMPDEST SWAP1 PUSH3 0x520 JUMP JUMPDEST PUSH4 0x4E487B71 PUSH1 0xE0 SHL PUSH1 0x0 MSTORE PUSH1 0x22 PUSH1 0x4 MSTORE PUSH1 0x24 PUSH1 0x0 REVERT JUMPDEST SWAP1 PUSH1 0x1 PUSH1 0x2 DUP4 DIV SWAP3 AND DUP1 ISZERO PUSH3 0x22F JUMPI JUMPDEST PUSH1 0x20 DUP4 LT EQ PUSH3 0x229 JUMPI JUMP JUMPDEST PUSH3 0x1F6 JUMP JUMPDEST SWAP2 PUSH1 0x7F AND SWAP2 PUSH3 0x21D JUMP JUMPDEST SWAP2 PUSH1 0x0 NOT PUSH1 0x8 SWAP3 SWAP1 SWAP3 MUL SWAP2 DUP3 SHL SWAP2 SHL JUMPDEST SWAP2 DUP2 NOT AND SWAP2 AND OR SWAP1 JUMP JUMPDEST SWAP2 SWAP1 PUSH3 0x269 PUSH3 0xE3 PUSH3 0x272 SWAP4 PUSH3 0x10C JUMP JUMPDEST SWAP1 DUP4 SLOAD PUSH3 0x23A JUMP JUMPDEST SWAP1 SSTORE JUMP JUMPDEST PUSH3 0x80 SWAP2 PUSH1 0x0 SWAP2 PUSH3 0x254 JUMP JUMPDEST DUP2 DUP2 LT PUSH3 0x290 JUMPI POP POP JUMP JUMPDEST DUP1 PUSH3 0x2A0 PUSH1 0x0 PUSH1 0x1 SWAP4 PUSH3 0x276 JUMP JUMPDEST ADD PUSH3 0x284 JUMP JUMPDEST SWAP2 SWAP1 PUSH1 0x1F DUP2 GT PUSH3 0x2B7 JUMPI POP POP POP JUMP JUMPDEST PUSH3 0x2CB PUSH3 0x80 SWAP4 PUSH1 0x0 MSTORE PUSH1 0x20 PUSH1 0x0 KECCAK256 SWAP1 JUMP JUMPDEST SWAP1 PUSH1 0x20 PUSH1 0x1F DUP5 ADD DUP2 SWAP1 DIV DUP4 ADD SWAP4 LT PUSH3 0x2EF JUMPI JUMPDEST PUSH1 0x20 PUSH1 0x1F SWAP1 SWAP2 ADD DIV ADD SWAP1 PUSH3 0x284 JUMP JUMPDEST SWAP1 SWAP2 POP DUP2 SWAP1 PUSH3 0x2DF JUMP JUMPDEST SWAP1 PUSH3 0x304 DUP2 MLOAD SWAP1 JUMP JUMPDEST SWAP1 PUSH1 0x1 PUSH1 0x1 PUSH1 0x40 SHL SUB DUP3 GT PUSH3 0x63 JUMPI PUSH3 0x32C DUP3 PUSH3 0x325 DUP6 SLOAD PUSH3 0x20C JUMP JUMPDEST DUP6 PUSH3 0x2A7 JUMP JUMPDEST PUSH1 0x20 SWAP1 PUSH1 0x1F DUP4 GT PUSH1 0x1 EQ PUSH3 0x36B JUMPI PUSH3 0x272 SWAP3 SWAP2 PUSH1 0x0 SWAP2 DUP4 PUSH3 0x35F JUMPI JUMPDEST POP POP PUSH1 0x0 NOT PUSH1 0x8 DUP4 MUL SHR NOT AND SWAP1 PUSH1 0x2 MUL OR SWAP1 JUMP JUMPDEST ADD MLOAD SWAP1 POP CODESIZE DUP1 PUSH3 0x34B JUMP JUMPDEST PUSH1 0x1F NOT DUP4 AND SWAP2 PUSH3 0x381 DUP6 PUSH1 0x0 MSTORE PUSH1 0x20 PUSH1 0x0 KECCAK256 SWAP1 JUMP JUMPDEST SWAP3 PUSH1 0x0 JUMPDEST DUP2 DUP2 LT PUSH3 0x3C2 JUMPI POP SWAP2 PUSH1 0x2 SWAP4 SWAP2 DUP6 PUSH1 0x1 SWAP7 SWAP5 LT PUSH3 0x3A8 JUMPI JUMPDEST POP POP POP MUL ADD SWAP1 SSTORE JUMP JUMPDEST ADD MLOAD PUSH1 0x0 NOT PUSH1 0x8 PUSH1 0x1F DUP6 AND MUL SHR NOT AND SWAP1 SSTORE CODESIZE DUP1 DUP1 PUSH3 0x39F JUMP JUMPDEST SWAP2 SWAP4 PUSH1 0x20 PUSH1 0x1 DUP2 SWAP3 DUP8 DUP8 ADD MLOAD DUP2 SSTORE ADD SWAP6 ADD SWAP3 ADD PUSH3 0x385 JUMP JUMPDEST SWAP1 PUSH3 0x80 SWAP2 PUSH3 0x2FA JUMP JUMPDEST SWAP1 PUSH3 0x3F9 PUSH3 0x80 SWAP3 PUSH1 0x3 PUSH3 0x3DB JUMP JUMPDEST PUSH1 0x4 PUSH3 0x3DB JUMP JUMPDEST PUSH3 0x411 PUSH3 0xE3 PUSH3 0xE3 SWAP3 SWAP1 JUMP JUMPDEST PUSH1 0x1 PUSH1 0x1 PUSH1 0xA0 SHL SUB AND SWAP1 JUMP JUMPDEST PUSH3 0xE3 SWAP1 PUSH3 0x401 JUMP JUMPDEST ISZERO PUSH3 0x430 JUMPI JUMP JUMPDEST PUSH1 0x40 MLOAD PUSH3 0x461BCD PUSH1 0xE5 SHL DUP2 MSTORE PUSH1 0x20 PUSH1 0x4 DUP3 ADD MSTORE PUSH1 0x1F PUSH1 0x24 DUP3 ADD MSTORE PUSH32 0x45524332303A206D696E7420746F20746865207A65726F206164647265737300 PUSH1 0x44 DUP3 ADD MSTORE PUSH1 0x64 SWAP1 REVERT JUMPDEST PUSH3 0xE3 SWAP1 DUP2 JUMP JUMPDEST PUSH3 0xE3 SWAP1 SLOAD PUSH3 0x475 JUMP JUMPDEST PUSH4 0x4E487B71 PUSH1 0xE0 SHL PUSH1 0x0 MSTORE PUSH1 0x11 PUSH1 0x4 MSTORE PUSH1 0x24 PUSH1 0x0 REVERT JUMPDEST SWAP2 SWAP1 DUP3 ADD DUP1 SWAP3 GT PUSH3 0x4AD JUMPI JUMP JUMPDEST PUSH3 0x489 JUMP JUMPDEST SWAP1 PUSH1 0x0 NOT SWAP1 PUSH3 0x24A JUMP JUMPDEST SWAP1 PUSH3 0x4D2 PUSH3 0xE3 PUSH3 0x272 SWAP3 PUSH3 0x10C JUMP JUMPDEST DUP3 SLOAD PUSH3 0x4B3 JUMP JUMPDEST PUSH3 0xE3 SWAP1 PUSH3 0x411 SWAP1 PUSH1 0x1 PUSH1 0x1 PUSH1 0xA0 SHL SUB AND DUP3 JUMP JUMPDEST PUSH3 0xE3 SWAP1 PUSH3 0x4DA JUMP JUMPDEST PUSH3 0xE3 SWAP1 PUSH3 0x4F0 JUMP JUMPDEST SWAP1 PUSH3 0x512 SWAP1 PUSH3 0x4FB JUMP JUMPDEST PUSH1 0x0 MSTORE PUSH1 0x20 MSTORE PUSH1 0x40 PUSH1 0x0 KECCAK256 SWAP1 JUMP JUMPDEST SWAP1 PUSH3 0x54F DUP3 PUSH3 0x547 PUSH3 0x540 PUSH3 0x53A PUSH1 0x0 PUSH3 0x41D JUMP JUMPDEST PUSH3 0x411 JUMP JUMPDEST SWAP2 PUSH3 0x411 JUMP JUMPDEST EQ ISZERO PUSH3 0x428 JUMP JUMPDEST PUSH3 0x572 PUSH3 0x56A DUP3 PUSH3 0x564 PUSH1 0x2 PUSH3 0x47D JUMP JUMPDEST PUSH3 0x49F JUMP JUMPDEST PUSH1 0x2 PUSH3 0x4BE JUMP JUMPDEST PUSH3 0x59F DUP2 PUSH3 0x598 PUSH3 0x588 DUP6 PUSH1 0x0 PUSH3 0x506 JUMP JUMPDEST SWAP2 PUSH3 0x594 DUP4 PUSH3 0x47D JUMP JUMPDEST ADD SWAP1 JUMP JUMPDEST SWAP1 PUSH3 0x4BE JUMP JUMPDEST PUSH3 0x5AB PUSH1 0x0 PUSH3 0x41D JUMP JUMPDEST SWAP2 SWAP1 SWAP2 PUSH3 0x601 PUSH3 0x5E9 PUSH3 0x5E2 PUSH32 0xDDF252AD1BE2C89B69C2B068FC378DAA952BA7F163C4A11628F55A4DF523B3EF SWAP4 PUSH3 0x4FB JUMP JUMPDEST SWAP4 PUSH3 0x4FB JUMP JUMPDEST SWAP4 PUSH3 0x5F4 PUSH1 0x40 MLOAD SWAP1 JUMP JUMPDEST SWAP2 DUP3 SWAP2 DUP3 SWAP1 DUP2 MSTORE PUSH1 0x20 ADD SWAP1 JUMP JUMPDEST SUB SWAP1 LOG3 JUMP INVALID PUSH1 0x80 PUSH1 0x40 MSTORE PUSH1 0x4 CALLDATASIZE LT ISZERO PUSH2 0x12 JUMPI PUSH1 0x0 DUP1 REVERT JUMPDEST PUSH1 0x0 CALLDATALOAD PUSH1 0xE0 SHR DUP1 PUSH4 0x6FDDE03 EQ PUSH2 0xF2 JUMPI DUP1 PUSH4 0x95EA7B3 EQ PUSH2 0xED JUMPI DUP1 PUSH4 0x18160DDD EQ PUSH2 0xE8 JUMPI DUP1 PUSH4 0x23B872DD EQ PUSH2 0xE3 JUMPI DUP1 PUSH4 0x2FF2E9DC EQ PUSH2 0xDE JUMPI DUP1 PUSH4 0x313CE567 EQ PUSH2 0xD9 JUMPI DUP1 PUSH4 0x32CB6B0C EQ PUSH2 0xD4 JUMPI DUP1 PUSH4 0x39509351 EQ PUSH2 0xCF JUMPI DUP1 PUSH4 0x40C10F19 EQ PUSH2 0xCA JUMPI DUP1 PUSH4 0x70A08231 EQ PUSH2 0xC5 JUMPI DUP1 PUSH4 0x95D89B41 EQ PUSH2 0xC0 JUMPI DUP1 PUSH4 0xA457C2D7 EQ PUSH2 0xBB JUMPI DUP1 PUSH4 0xA9059CBB EQ PUSH2 0xB6 JUMPI PUSH4 0xDD62ED3E SUB PUSH2 0x102 JUMPI PUSH2 0x461 JUMP JUMPDEST PUSH2 0x422 JUMP JUMPDEST PUSH2 0x406 JUMP JUMPDEST PUSH2 0x3EB JUMP JUMPDEST PUSH2 0x3D0 JUMP JUMPDEST PUSH2 0x39E JUMP JUMPDEST PUSH2 0x382 JUMP JUMPDEST PUSH2 0x367 JUMP JUMPDEST PUSH2 0x320 JUMP JUMPDEST PUSH2 0x305 JUMP JUMPDEST PUSH2 0x2C6 JUMP JUMPDEST PUSH2 0x26A JUMP JUMPDEST PUSH2 0x23C JUMP JUMPDEST PUSH2 0x194 JUMP JUMPDEST PUSH1 0x0 SWAP2 SUB SLT PUSH2 0x102 JUMPI JUMP JUMPDEST PUSH1 0x0 DUP1 REVERT JUMPDEST PUSH1 0x0 JUMPDEST DUP4 DUP2 LT PUSH2 0x11A JUMPI POP POP PUSH1 0x0 SWAP2 ADD MSTORE JUMP JUMPDEST DUP2 DUP2 ADD MLOAD DUP4 DUP3 ADD MSTORE PUSH1 0x20 ADD PUSH2 0x10A JUMP JUMPDEST PUSH2 0x14B PUSH2 0x154 PUSH1 0x20 SWAP4 PUSH2 0x17C SWAP4 PUSH2 0x13F DUP2 MLOAD SWAP1 JUMP JUMPDEST DUP1 DUP4 MSTORE SWAP4 DUP5 SWAP3 PUSH1 0x20 ADD SWAP1 JUMP JUMPDEST SWAP6 DUP7 SWAP2 ADD PUSH2 0x107 JUMP JUMPDEST PUSH1 0x1F ADD PUSH32 0xFFFFFFFFFFFFFFFFFFFFFFFFFFFFFFFFFFFFFFFFFFFFFFFFFFFFFFFFFFFFFFE0 AND SWAP1 JUMP JUMPDEST ADD SWAP1 JUMP JUMPDEST PUSH1 0x20 DUP1 DUP3 MSTORE PUSH2 0x191 SWAP3 SWAP2 ADD SWAP1 PUSH2 0x12A JUMP JUMPDEST SWAP1 JUMP JUMPDEST CALLVALUE PUSH2 0x102 JUMPI PUSH2 0x1A4 CALLDATASIZE PUSH1 0x4 PUSH2 0xF7 JUMP JUMPDEST PUSH2 0x1BB PUSH2 0x1AF PUSH2 0x602 JUMP JUMPDEST PUSH1 0x40 MLOAD SWAP2 DUP3 SWAP2 DUP3 PUSH2 0x180 JUMP JUMPDEST SUB SWAP1 RETURN JUMPDEST PUSH20 0xFFFFFFFFFFFFFFFFFFFFFFFFFFFFFFFFFFFFFFFF AND SWAP1 JUMP JUMPDEST PUSH20 0xFFFFFFFFFFFFFFFFFFFFFFFFFFFFFFFFFFFFFFFF DUP2 AND JUMPDEST SUB PUSH2 0x102 JUMPI JUMP JUMPDEST SWAP1 POP CALLDATALOAD SWAP1 PUSH2 0x204 DUP3 PUSH2 0x1D8 JUMP JUMPDEST JUMP JUMPDEST DUP1 PUSH2 0x1F0 JUMP JUMPDEST SWAP1 POP CALLDATALOAD SWAP1 PUSH2 0x204 DUP3 PUSH2 0x206 JUMP JUMPDEST SWAP2 SWAP1 PUSH1 0x40 DUP4 DUP3 SUB SLT PUSH2 0x102 JUMPI PUSH2 0x191 SWAP1 PUSH2 0x233 DUP2 DUP6 PUSH2 0x1F7 JUMP JUMPDEST SWAP4 PUSH1 0x20 ADD PUSH2 0x20C JUMP JUMPDEST CALLVALUE PUSH2 0x102 JUMPI PUSH2 0x1BB PUSH2 0x258 PUSH2 0x252 CALLDATASIZE PUSH1 0x4 PUSH2 0x219 JUMP JUMPDEST SWAP1 PUSH2 0x60C JUMP JUMPDEST PUSH1 0x40 MLOAD SWAP2 DUP3 SWAP2 DUP3 SWAP1 ISZERO ISZERO DUP2 MSTORE PUSH1 0x20 ADD SWAP1 JUMP JUMPDEST CALLVALUE PUSH2 0x102 JUMPI PUSH2 0x27A CALLDATASIZE PUSH1 0x4 PUSH2 0xF7 JUMP JUMPDEST PUSH2 0x1BB PUSH2 0x285 PUSH2 0x62D JUMP JUMPDEST PUSH1 0x40 MLOAD JUMPDEST SWAP2 DUP3 SWAP2 DUP3 SWAP1 DUP2 MSTORE PUSH1 0x20 ADD SWAP1 JUMP JUMPDEST SWAP1 SWAP2 PUSH1 0x60 DUP3 DUP5 SUB SLT PUSH2 0x102 JUMPI PUSH2 0x191 PUSH2 0x2AF DUP5 DUP5 PUSH2 0x1F7 JUMP JUMPDEST SWAP4 PUSH2 0x2BD DUP2 PUSH1 0x20 DUP7 ADD PUSH2 0x1F7 JUMP JUMPDEST SWAP4 PUSH1 0x40 ADD PUSH2 0x20C JUMP JUMPDEST CALLVALUE PUSH2 0x102 JUMPI PUSH2 0x1BB PUSH2 0x258 PUSH2 0x2DC CALLDATASIZE PUSH1 0x4 PUSH2 0x296 JUMP JUMPDEST SWAP2 PUSH2 0x637 JUMP JUMPDEST PUSH2 0x191 PUSH2 0x191 PUSH2 0x191 SWAP3 SWAP1 JUMP JUMPDEST PUSH2 0x191 PUSH5 0xE8D4A51000 PUSH2 0x2E2 JUMP JUMPDEST PUSH2 0x191 PUSH2 0x2EF JUMP JUMPDEST CALLVALUE PUSH2 0x102 JUMPI PUSH2 0x315 CALLDATASIZE PUSH1 0x4 PUSH2 0xF7 JUMP JUMPDEST PUSH2 0x1BB PUSH2 0x285 PUSH2 0x2FD JUMP JUMPDEST CALLVALUE PUSH2 0x102 JUMPI PUSH2 0x330 CALLDATASIZE PUSH1 0x4 PUSH2 0xF7 JUMP JUMPDEST PUSH2 0x1BB PUSH2 0x33B PUSH2 0x662 JUMP JUMPDEST PUSH1 0x40 MLOAD SWAP2 DUP3 SWAP2 DUP3 PUSH1 0xFF SWAP1 SWAP2 AND DUP2 MSTORE PUSH1 0x20 ADD SWAP1 JUMP JUMPDEST PUSH2 0x191 PUSH7 0x38D7EA4C68000 PUSH2 0x2E2 JUMP JUMPDEST PUSH2 0x191 PUSH2 0x34F JUMP JUMPDEST CALLVALUE PUSH2 0x102 JUMPI PUSH2 0x377 CALLDATASIZE PUSH1 0x4 PUSH2 0xF7 JUMP JUMPDEST PUSH2 0x1BB PUSH2 0x285 PUSH2 0x35F JUMP JUMPDEST CALLVALUE PUSH2 0x102 JUMPI PUSH2 0x1BB PUSH2 0x258 PUSH2 0x398 CALLDATASIZE PUSH1 0x4 PUSH2 0x219 JUMP JUMPDEST SWAP1 PUSH2 0x6AD JUMP JUMPDEST CALLVALUE PUSH2 0x102 JUMPI PUSH2 0x3B7 PUSH2 0x3B1 CALLDATASIZE PUSH1 0x4 PUSH2 0x219 JUMP JUMPDEST SWAP1 PUSH2 0x6CC JUMP JUMPDEST PUSH1 0x40 MLOAD STOP JUMPDEST SWAP1 PUSH1 0x20 DUP3 DUP3 SUB SLT PUSH2 0x102 JUMPI PUSH2 0x191 SWAP2 PUSH2 0x1F7 JUMP JUMPDEST CALLVALUE PUSH2 0x102 JUMPI PUSH2 0x1BB PUSH2 0x285 PUSH2 0x3E6 CALLDATASIZE PUSH1 0x4 PUSH2 0x3BC JUMP JUMPDEST PUSH2 0x723 JUMP JUMPDEST CALLVALUE PUSH2 0x102 JUMPI PUSH2 0x3FB CALLDATASIZE PUSH1 0x4 PUSH2 0xF7 JUMP JUMPDEST PUSH2 0x1BB PUSH2 0x1AF PUSH2 0x73F JUMP JUMPDEST CALLVALUE PUSH2 0x102 JUMPI PUSH2 0x1BB PUSH2 0x258 PUSH2 0x41C CALLDATASIZE PUSH1 0x4 PUSH2 0x219 JUMP JUMPDEST SWAP1 PUSH2 0x7BB JUMP JUMPDEST CALLVALUE PUSH2 0x102 JUMPI PUSH2 0x1BB PUSH2 0x258 PUSH2 0x438 CALLDATASIZE PUSH1 0x4 PUSH2 0x219 JUMP JUMPDEST SWAP1 PUSH2 0x90A JUMP JUMPDEST SWAP2 SWAP1 PUSH1 0x40 DUP4 DUP3 SUB SLT PUSH2 0x102 JUMPI PUSH2 0x191 SWAP1 PUSH2 0x458 DUP2 DUP6 PUSH2 0x1F7 JUMP JUMPDEST SWAP4 PUSH1 0x20 ADD PUSH2 0x1F7 JUMP JUMPDEST CALLVALUE PUSH2 0x102 JUMPI PUSH2 0x1BB PUSH2 0x285 PUSH2 0x477 CALLDATASIZE PUSH1 0x4 PUSH2 0x43E JUMP JUMPDEST SWAP1 PUSH2 0x97A JUMP JUMPDEST PUSH32 0x4E487B7100000000000000000000000000000000000000000000000000000000 PUSH1 0x0 MSTORE PUSH1 0x22 PUSH1 0x4 MSTORE PUSH1 0x24 PUSH1 0x0 REVERT JUMPDEST SWAP1 PUSH1 0x1 PUSH1 0x2 DUP4 DIV SWAP3 AND DUP1 ISZERO PUSH2 0x4CC JUMPI JUMPDEST PUSH1 0x20 DUP4 LT EQ PUSH2 0x4C7 JUMPI JUMP JUMPDEST PUSH2 0x47D JUMP JUMPDEST SWAP2 PUSH1 0x7F AND SWAP2 PUSH2 0x4BC JUMP JUMPDEST DUP1 SLOAD PUSH1 0x0 SWAP4 SWAP3 SWAP2 PUSH2 0x4F3 PUSH2 0x4E9 DUP4 PUSH2 0x4AC JUMP JUMPDEST DUP1 DUP6 MSTORE SWAP4 PUSH1 0x20 ADD SWAP1 JUMP JUMPDEST SWAP2 PUSH1 0x1 DUP2 AND SWAP1 DUP2 ISZERO PUSH2 0x545 JUMPI POP PUSH1 0x1 EQ PUSH2 0x50C JUMPI POP POP POP JUMP JUMPDEST PUSH2 0x51F SWAP2 SWAP3 SWAP4 SWAP5 POP PUSH1 0x0 MSTORE PUSH1 0x20 PUSH1 0x0 KECCAK256 SWAP1 JUMP JUMPDEST SWAP2 PUSH1 0x0 SWAP3 JUMPDEST DUP2 DUP5 LT PUSH2 0x531 JUMPI POP POP ADD SWAP1 JUMP JUMPDEST DUP1 SLOAD DUP5 DUP5 ADD MSTORE PUSH1 0x20 SWAP1 SWAP4 ADD SWAP3 PUSH1 0x1 ADD PUSH2 0x524 JUMP JUMPDEST SWAP3 SWAP5 SWAP6 POP POP POP PUSH1 0xFF NOT AND DUP3 MSTORE ISZERO ISZERO PUSH1 0x20 MUL ADD SWAP1 JUMP JUMPDEST SWAP1 PUSH2 0x191 SWAP2 PUSH2 0x4D6 JUMP JUMPDEST PUSH32 0x4E487B7100000000000000000000000000000000000000000000000000000000 PUSH1 0x0 MSTORE PUSH1 0x41 PUSH1 0x4 MSTORE PUSH1 0x24 PUSH1 0x0 REVERT JUMPDEST SWAP1 PUSH1 0x1F ADD PUSH32 0xFFFFFFFFFFFFFFFFFFFFFFFFFFFFFFFFFFFFFFFFFFFFFFFFFFFFFFFFFFFFFFE0 AND DUP2 ADD SWAP1 DUP2 LT PUSH8 0xFFFFFFFFFFFFFFFF DUP3 GT OR PUSH2 0x5D3 JUMPI PUSH1 0x40 MSTORE JUMP JUMPDEST PUSH2 0x564 JUMP JUMPDEST SWAP1 PUSH2 0x204 PUSH2 0x5F2 SWAP3 PUSH2 0x5E9 PUSH1 0x40 MLOAD SWAP1 JUMP JUMPDEST SWAP4 DUP5 DUP1 SWAP3 PUSH2 0x55A JUMP JUMPDEST SUB DUP4 PUSH2 0x593 JUMP JUMPDEST PUSH2 0x191 SWAP1 PUSH2 0x5D8 JUMP JUMPDEST PUSH2 0x191 PUSH1 0x3 PUSH2 0x5F9 JUMP JUMPDEST PUSH2 0x617 SWAP2 SWAP1 CALLER PUSH2 0xA91 JUMP JUMPDEST PUSH1 0x1 SWAP1 JUMP JUMPDEST PUSH2 0x191 SWAP1 DUP2 JUMP JUMPDEST PUSH2 0x191 SWAP1 SLOAD PUSH2 0x61C JUMP JUMPDEST PUSH2 0x191 PUSH1 0x2 PUSH2 0x623 JUMP JUMPDEST PUSH2 0x617 SWAP3 SWAP1 PUSH2 0x647 DUP3 CALLER DUP4 PUSH2 0xB7C JUMP JUMPDEST SWAP2 SWAP1 SWAP2 PUSH2 0xD28 JUMP JUMPDEST PUSH2 0x65C PUSH2 0x191 PUSH2 0x191 SWAP3 SWAP1 JUMP JUMPDEST PUSH1 0xFF AND SWAP1 JUMP JUMPDEST PUSH2 0x191 PUSH1 0x12 PUSH2 0x64F JUMP JUMPDEST PUSH32 0x4E487B7100000000000000000000000000000000000000000000000000000000 PUSH1 0x0 MSTORE PUSH1 0x11 PUSH1 0x4 MSTORE PUSH1 0x24 PUSH1 0x0 REVERT JUMPDEST SWAP2 SWAP1 DUP3 ADD DUP1 SWAP3 GT PUSH2 0x6A8 JUMPI JUMP JUMPDEST PUSH2 0x66C JUMP JUMPDEST PUSH2 0x617 SWAP2 PUSH2 0x6C6 CALLER SWAP3 SWAP2 PUSH2 0x6C1 DUP4 DUP6 PUSH2 0x97A JUMP JUMPDEST PUSH2 0x69B JUMP JUMPDEST SWAP2 PUSH2 0xA91 JUMP JUMPDEST SWAP1 PUSH2 0x204 SWAP2 PUSH2 0xE33 JUMP JUMPDEST PUSH2 0x1BF PUSH2 0x191 PUSH2 0x191 SWAP3 PUSH20 0xFFFFFFFFFFFFFFFFFFFFFFFFFFFFFFFFFFFFFFFF AND SWAP1 JUMP JUMPDEST PUSH2 0x191 SWAP1 PUSH2 0x6D6 JUMP JUMPDEST PUSH2 0x191 SWAP1 PUSH2 0x6F9 JUMP JUMPDEST SWAP1 PUSH2 0x715 SWAP1 PUSH2 0x702 JUMP JUMPDEST PUSH1 0x0 MSTORE PUSH1 0x20 MSTORE PUSH1 0x40 PUSH1 0x0 KECCAK256 SWAP1 JUMP JUMPDEST PUSH2 0x73A PUSH2 0x191 SWAP2 PUSH2 0x732 PUSH1 0x0 SWAP1 JUMP JUMPDEST POP PUSH1 0x0 PUSH2 0x70B JUMP JUMPDEST PUSH2 0x623 JUMP JUMPDEST PUSH2 0x191 PUSH1 0x4 PUSH2 0x5F9 JUMP JUMPDEST ISZERO PUSH2 0x750 JUMPI JUMP JUMPDEST PUSH1 0x40 MLOAD PUSH3 0x461BCD PUSH1 0xE5 SHL DUP2 MSTORE PUSH1 0x20 PUSH1 0x4 DUP3 ADD MSTORE PUSH1 0x25 PUSH1 0x24 DUP3 ADD MSTORE PUSH32 0x45524332303A2064656372656173656420616C6C6F77616E63652062656C6F77 PUSH1 0x44 DUP3 ADD MSTORE PUSH32 0x207A65726F000000000000000000000000000000000000000000000000000000 PUSH1 0x64 DUP3 ADD MSTORE PUSH1 0x84 SWAP1 REVERT JUMPDEST PUSH2 0x617 SWAP2 PUSH2 0x6C6 CALLER SWAP2 PUSH2 0x7CE DUP5 DUP5 PUSH2 0x97A JUMP JUMPDEST SWAP3 PUSH2 0x7E4 DUP3 DUP6 PUSH2 0x7DD JUMP JUMPDEST SWAP2 SWAP1 JUMP JUMPDEST LT ISZERO PUSH2 0x749 JUMP JUMPDEST SWAP4 SWAP3 SUB SWAP1 JUMP JUMPDEST PUSH2 0x1BF PUSH2 0x191 PUSH2 0x191 SWAP3 SWAP1 JUMP JUMPDEST PUSH2 0x191 SWAP1 PUSH2 0x7EA JUMP JUMPDEST ISZERO PUSH2 0x807 JUMPI JUMP JUMPDEST PUSH1 0x40 MLOAD PUSH3 0x461BCD PUSH1 0xE5 SHL DUP2 MSTORE PUSH1 0x20 PUSH1 0x4 DUP3 ADD MSTORE PUSH1 0x1C PUSH1 0x24 DUP3 ADD MSTORE PUSH32 0x5472616E7366657220746F20746865207A65726F206164647265737300000000 PUSH1 0x44 DUP3 ADD MSTORE PUSH1 0x64 SWAP1 REVERT JUMPDEST ISZERO PUSH2 0x853 JUMPI JUMP JUMPDEST PUSH1 0x40 MLOAD PUSH3 0x461BCD PUSH1 0xE5 SHL DUP2 MSTORE PUSH1 0x20 PUSH1 0x4 DUP3 ADD MSTORE PUSH1 0x29 PUSH1 0x24 DUP3 ADD MSTORE PUSH32 0x5472616E7366657220616D6F756E74206D757374206265206772656174657220 PUSH1 0x44 DUP3 ADD MSTORE PUSH32 0x7468616E207A65726F0000000000000000000000000000000000000000000000 PUSH1 0x64 DUP3 ADD MSTORE PUSH1 0x84 SWAP1 REVERT JUMPDEST ISZERO PUSH2 0x8C5 JUMPI JUMP JUMPDEST PUSH1 0x40 MLOAD PUSH3 0x461BCD PUSH1 0xE5 SHL DUP2 MSTORE PUSH1 0x20 PUSH1 0x4 DUP3 ADD MSTORE PUSH1 0x14 PUSH1 0x24 DUP3 ADD MSTORE PUSH32 0x496E73756666696369656E742062616C616E6365000000000000000000000000 PUSH1 0x44 DUP3 ADD MSTORE PUSH1 0x64 SWAP1 REVERT JUMPDEST PUSH2 0x191 SWAP2 SWAP1 PUSH2 0x944 DUP2 PUSH2 0x93D PUSH2 0x923 PUSH2 0x1BF PUSH1 0x0 PUSH2 0x7F7 JUMP JUMPDEST SWAP2 PUSH20 0xFFFFFFFFFFFFFFFFFFFFFFFFFFFFFFFFFFFFFFFF AND SWAP1 JUMP JUMPDEST EQ ISZERO PUSH2 0x800 JUMP JUMPDEST PUSH2 0x95B DUP3 PUSH2 0x955 PUSH2 0x7D9 PUSH1 0x0 PUSH2 0x2E2 JUMP JUMPDEST GT PUSH2 0x84C JUMP JUMPDEST PUSH2 0x975 DUP3 PUSH2 0x96E PUSH2 0x7D9 PUSH2 0x191 CALLER PUSH2 0x723 JUMP JUMPDEST GT ISZERO PUSH2 0x8BE JUMP JUMPDEST PUSH2 0xE83 JUMP JUMPDEST PUSH2 0x191 SWAP2 PUSH2 0x995 PUSH2 0x73A SWAP3 PUSH2 0x98D PUSH1 0x0 SWAP1 JUMP JUMPDEST POP PUSH1 0x1 PUSH2 0x70B JUMP JUMPDEST PUSH2 0x70B JUMP JUMPDEST ISZERO PUSH2 0x9A1 JUMPI JUMP JUMPDEST PUSH1 0x40 MLOAD PUSH3 0x461BCD PUSH1 0xE5 SHL DUP2 MSTORE PUSH1 0x20 PUSH1 0x4 DUP3 ADD MSTORE PUSH1 0x24 DUP1 DUP3 ADD MSTORE PUSH32 0x45524332303A20617070726F76652066726F6D20746865207A65726F20616464 PUSH1 0x44 DUP3 ADD MSTORE PUSH32 0x7265737300000000000000000000000000000000000000000000000000000000 PUSH1 0x64 DUP3 ADD MSTORE PUSH1 0x84 SWAP1 REVERT JUMPDEST ISZERO PUSH2 0xA12 JUMPI JUMP JUMPDEST PUSH1 0x40 MLOAD PUSH3 0x461BCD PUSH1 0xE5 SHL DUP2 MSTORE PUSH1 0x20 PUSH1 0x4 DUP3 ADD MSTORE PUSH1 0x22 PUSH1 0x24 DUP3 ADD MSTORE PUSH32 0x45524332303A20617070726F766520746F20746865207A65726F206164647265 PUSH1 0x44 DUP3 ADD MSTORE PUSH32 0x7373000000000000000000000000000000000000000000000000000000000000 PUSH1 0x64 DUP3 ADD MSTORE PUSH1 0x84 SWAP1 REVERT JUMPDEST SWAP1 PUSH2 0x191 PUSH2 0x191 PUSH2 0xA8D SWAP3 PUSH2 0x2E2 JUMP JUMPDEST SWAP1 SSTORE JUMP JUMPDEST SWAP2 SWAP1 SWAP2 PUSH2 0xAAF DUP2 PUSH2 0xAA8 PUSH2 0x923 PUSH2 0x1BF PUSH1 0x0 PUSH2 0x7F7 JUMP JUMPDEST EQ ISZERO PUSH2 0x99A JUMP JUMPDEST PUSH2 0xACA DUP4 PUSH2 0xAC3 PUSH2 0x923 PUSH2 0x1BF PUSH1 0x0 PUSH2 0x7F7 JUMP JUMPDEST EQ ISZERO PUSH2 0xA0B JUMP JUMPDEST PUSH2 0xAE8 DUP3 PUSH2 0xAE3 PUSH2 0xADC DUP5 PUSH1 0x1 PUSH2 0x70B JUMP JUMPDEST DUP7 SWAP1 PUSH2 0x70B JUMP JUMPDEST PUSH2 0xA7D JUMP JUMPDEST SWAP2 SWAP1 SWAP2 PUSH2 0xB2B PUSH2 0xB21 PUSH2 0xB1B PUSH32 0x8C5BE1E5EBEC7D5BD14F71427D1E84F3DD0314C0F7B2291E5B200AC8C7C3B925 SWAP4 PUSH2 0x702 JUMP JUMPDEST SWAP4 PUSH2 0x702 JUMP JUMPDEST SWAP4 PUSH2 0x289 PUSH1 0x40 MLOAD SWAP1 JUMP JUMPDEST SUB SWAP1 LOG3 JUMP JUMPDEST ISZERO PUSH2 0xB37 JUMPI JUMP JUMPDEST PUSH1 0x40 MLOAD PUSH3 0x461BCD PUSH1 0xE5 SHL DUP2 MSTORE PUSH1 0x20 PUSH1 0x4 DUP3 ADD MSTORE PUSH1 0x1D PUSH1 0x24 DUP3 ADD MSTORE PUSH32 0x45524332303A20696E73756666696369656E7420616C6C6F77616E6365000000 PUSH1 0x44 DUP3 ADD MSTORE PUSH1 0x64 SWAP1 REVERT JUMPDEST PUSH2 0xB86 DUP3 DUP3 PUSH2 0x97A JUMP JUMPDEST SWAP1 PUSH32 0xFFFFFFFFFFFFFFFFFFFFFFFFFFFFFFFFFFFFFFFFFFFFFFFFFFFFFFFFFFFFFFFF DUP3 SUB PUSH2 0xBB5 JUMPI JUMPDEST POP POP POP POP JUMP JUMPDEST PUSH2 0xBC9 SWAP4 PUSH2 0x6C6 SWAP2 PUSH2 0x7E4 DUP3 DUP6 LT ISZERO PUSH2 0xB30 JUMP JUMPDEST CODESIZE DUP1 DUP1 DUP1 PUSH2 0xBAF JUMP JUMPDEST ISZERO PUSH2 0xBD9 JUMPI JUMP JUMPDEST PUSH1 0x40 MLOAD PUSH3 0x461BCD PUSH1 0xE5 SHL DUP2 MSTORE PUSH1 0x20 PUSH1 0x4 DUP3 ADD MSTORE PUSH1 0x25 PUSH1 0x24 DUP3 ADD MSTORE PUSH32 0x45524332303A207472616E736665722066726F6D20746865207A65726F206164 PUSH1 0x44 DUP3 ADD MSTORE PUSH32 0x6472657373000000000000000000000000000000000000000000000000000000 PUSH1 0x64 DUP3 ADD MSTORE PUSH1 0x84 SWAP1 REVERT JUMPDEST ISZERO PUSH2 0xC4B JUMPI JUMP JUMPDEST PUSH1 0x40 MLOAD PUSH3 0x461BCD PUSH1 0xE5 SHL DUP2 MSTORE PUSH1 0x20 PUSH1 0x4 DUP3 ADD MSTORE PUSH1 0x23 PUSH1 0x24 DUP3 ADD MSTORE PUSH32 0x45524332303A207472616E7366657220746F20746865207A65726F2061646472 PUSH1 0x44 DUP3 ADD MSTORE PUSH32 0x6573730000000000000000000000000000000000000000000000000000000000 PUSH1 0x64 DUP3 ADD MSTORE PUSH1 0x84 SWAP1 REVERT JUMPDEST ISZERO PUSH2 0xCBD JUMPI JUMP JUMPDEST PUSH1 0x40 MLOAD PUSH3 0x461BCD PUSH1 0xE5 SHL DUP2 MSTORE PUSH1 0x20 PUSH1 0x4 DUP3 ADD MSTORE PUSH1 0x26 PUSH1 0x24 DUP3 ADD MSTORE PUSH32 0x45524332303A207472616E7366657220616D6F756E7420657863656564732062 PUSH1 0x44 DUP3 ADD MSTORE PUSH32 0x616C616E63650000000000000000000000000000000000000000000000000000 PUSH1 0x64 DUP3 ADD MSTORE PUSH1 0x84 SWAP1 REVERT JUMPDEST SWAP2 SWAP1 SWAP2 PUSH2 0xD46 DUP2 PUSH2 0xD3F PUSH2 0x923 PUSH2 0x1BF PUSH1 0x0 PUSH2 0x7F7 JUMP JUMPDEST EQ ISZERO PUSH2 0xBD2 JUMP JUMPDEST PUSH2 0xD61 DUP4 PUSH2 0xD5A PUSH2 0x923 PUSH2 0x1BF PUSH1 0x0 PUSH2 0x7F7 JUMP JUMPDEST EQ ISZERO PUSH2 0xC44 JUMP JUMPDEST PUSH2 0xD92 PUSH2 0xD87 PUSH2 0xD75 PUSH2 0x73A DUP5 PUSH1 0x0 PUSH2 0x70B JUMP JUMPDEST PUSH2 0xD81 DUP6 DUP3 LT ISZERO PUSH2 0xCB6 JUMP JUMPDEST DUP5 SWAP1 SUB SWAP1 JUMP JUMPDEST PUSH2 0xAE3 DUP4 PUSH1 0x0 PUSH2 0x70B JUMP JUMPDEST PUSH2 0xDB4 DUP3 PUSH2 0xDAE PUSH2 0xDA4 DUP7 PUSH1 0x0 PUSH2 0x70B JUMP JUMPDEST SWAP2 PUSH2 0x17C DUP4 PUSH2 0x623 JUMP JUMPDEST SWAP1 PUSH2 0xA7D JUMP JUMPDEST SWAP2 SWAP1 SWAP2 PUSH2 0xB2B PUSH2 0xB21 PUSH2 0xB1B PUSH32 0xDDF252AD1BE2C89B69C2B068FC378DAA952BA7F163C4A11628F55A4DF523B3EF SWAP4 PUSH2 0x702 JUMP JUMPDEST ISZERO PUSH2 0xDEE JUMPI JUMP JUMPDEST PUSH1 0x40 MLOAD PUSH3 0x461BCD PUSH1 0xE5 SHL DUP2 MSTORE PUSH1 0x20 PUSH1 0x4 DUP3 ADD MSTORE PUSH1 0x1F PUSH1 0x24 DUP3 ADD MSTORE PUSH32 0x45524332303A206D696E7420746F20746865207A65726F206164647265737300 PUSH1 0x44 DUP3 ADD MSTORE PUSH1 0x64 SWAP1 REVERT JUMPDEST SWAP1 PUSH2 0xE4F DUP3 PUSH2 0xE48 PUSH2 0x923 PUSH2 0x1BF PUSH1 0x0 PUSH2 0x7F7 JUMP JUMPDEST EQ ISZERO PUSH2 0xDE7 JUMP JUMPDEST PUSH2 0xE67 PUSH2 0xE60 DUP3 PUSH2 0x6C1 PUSH1 0x2 PUSH2 0x623 JUMP JUMPDEST PUSH1 0x2 PUSH2 0xA7D JUMP JUMPDEST PUSH2 0xE79 DUP2 PUSH2 0xDAE PUSH2 0xDA4 DUP6 PUSH1 0x0 PUSH2 0x70B JUMP JUMPDEST PUSH2 0xDB4 PUSH1 0x0 PUSH2 0x7F7 JUMP JUMPDEST PUSH2 0x617 SWAP2 CALLER PUSH2 0x647 JUMP INVALID LOG2 PUSH5 0x6970667358 0x22 SLT KECCAK256 BLOBHASH 0xB4 0xAB 0xD9 0x4D MOD STOP DUP8 PUSH1 0xF 0xFC 0x4C PUSH19 0xA51E949C79E2E28AEB5BA36D760EF0E575F92B PUSH5 0x736F6C6343 STOP ADDMOD XOR STOP CALLER "},"methodIdentifiers":{"INITIAL_SUPPLY()":"2ff2e9dc","MAX_SUPPLY()":"32cb6b0c","allowance(address,address)":"dd62ed3e","approve(address,uint256)":"095ea7b3","balanceOf(address)":"70a08231","decimals()":"313ce567","decreaseAllowance(address,uint256)":"a457c2d7","increaseAllowance(address,uint256)":"39509351","mint(address,uint256)":"40c10f19","name()":"06fdde03","symbol()":"95d89b41","totalSupply()":"18160ddd","transfer(address,uint256)":"a9059cbb","transferFrom(address,address,uint256)":"23b872dd"}}}}}