{
  "_format": "hh-sol-artifact-1",
  "contractName": "Add_Swap_Contract",
  "sourceName": "contracts/Add_Swap_Contract.sol",
  "abi": [
    {
      "inputs": [
        {
          "internalType": "address",
          "name": "_swapRouter",
          "type": "address"
        },
        {
          "internalType": "address",
          "name": "_positionManager",
          "type": "address"
        },
        {
          "internalType": "address",
          "name": "_token0",
          "type": "address"
        },
        {
          "internalType": "address",
          "name": "_token1",
          "type": "address"
        }
      ],
      "stateMutability": "nonpayable",
      "type": "constructor"
    },
    {
      "inputs": [
        {
          "internalType": "uint256",
          "name": "amount0Desired",
          "type": "uint256"
        },
        {
          "internalType": "uint256",
          "name": "amount1Desired",
          "type": "uint256"
        }
      ],
      "name": "addLiquidity",
      "outputs": [
        {
          "internalType": "uint256",
          "name": "tokenId",
          "type": "uint256"
        }
      ],
      "stateMutability": "nonpayable",
      "type": "function"
    },
    {
      "inputs": [],
      "name": "fee",
      "outputs": [
        {
          "internalType": "uint24",
          "name": "",
          "type": "uint24"
        }
      ],
      "stateMutability": "view",
      "type": "function"
    },
    {
      "inputs": [
        {
          "internalType": "address",
          "name": "pool",
          "type": "address"
        }
      ],
      "name": "getPoolBalances",
      "outputs": [
        {
          "internalType": "uint256",
          "name": "bal0",
          "type": "uint256"
        },
        {
          "internalType": "uint256",
          "name": "bal1",
          "type": "uint256"
        }
      ],
      "stateMutability": "view",
      "type": "function"
    },
    {
      "inputs": [
        {
          "internalType": "address",
          "name": "pool",
          "type": "address"
        }
      ],
      "name": "getPoolInfo",
      "outputs": [
        {
          "internalType": "uint160",
          "name": "sqrtPriceX96",
          "type": "uint160"
        },
        {
          "internalType": "int24",
          "name": "tick",
          "type": "int24"
        },
        {
          "internalType": "uint128",
          "name": "liquidity",
          "type": "uint128"
        }
      ],
      "stateMutability": "view",
      "type": "function"
    },
    {
      "inputs": [
        {
          "internalType": "uint256",
          "name": "tokenId",
          "type": "uint256"
        }
      ],
      "name": "getPosition",
      "outputs": [
        {
          "internalType": "uint128",
          "name": "liquidity",
          "type": "uint128"
        }
      ],
      "stateMutability": "view",
      "type": "function"
    },
    {
      "inputs": [
        {
          "internalType": "address",
          "name": "pool",
          "type": "address"
        }
      ],
      "name": "getTokenPrice",
      "outputs": [
        {
          "internalType": "uint256",
          "name": "price",
          "type": "uint256"
        }
      ],
      "stateMutability": "view",
      "type": "function"
    },
    {
      "inputs": [],
      "name": "positionManager",
      "outputs": [
        {
          "internalType": "contract INonfungiblePositionManager",
          "name": "",
          "type": "address"
        }
      ],
      "stateMutability": "view",
      "type": "function"
    },
    {
      "inputs": [
        {
          "internalType": "address",
          "name": "inputToken",
          "type": "address"
        },
        {
          "internalType": "address",
          "name": "outputToken",
          "type": "address"
        },
        {
          "internalType": "uint256",
          "name": "amountIn",
          "type": "uint256"
        }
      ],
      "name": "swapExactInputSingle",
      "outputs": [
        {
          "internalType": "uint256",
          "name": "amountOut",
          "type": "uint256"
        }
      ],
      "stateMutability": "nonpayable",
      "type": "function"
    },
    {
      "inputs": [],
      "name": "swapRouter",
      "outputs": [
        {
          "internalType": "contract ISwapRouter",
          "name": "",
          "type": "address"
        }
      ],
      "stateMutability": "view",
      "type": "function"
    },
    {
      "inputs": [],
      "name": "token0",
      "outputs": [
        {
          "internalType": "address",
          "name": "",
          "type": "address"
        }
      ],
      "stateMutability": "view",
      "type": "function"
    },
    {
      "inputs": [],
      "name": "token1",
      "outputs": [
        {
          "internalType": "address",
          "name": "",
          "type": "address"
        }
      ],
      "stateMutability": "view",
      "type": "function"
    }
  ],
  "bytecode": "0x60c0604052346200007057620000226200001862000141565b9291909162000211565b60405161132d62000257823960805181818161032801528181610ec10152610fa3015260a05181818161024401528181610ade01528181610b5b01528181610c990152611266015261132d90f35b600080fd5b634e487b7160e01b600052604160045260246000fd5b90601f01601f191681019081106001600160401b03821117620000ad57604052565b62000075565b90620000ca620000c260405190565b92836200008b565b565b6001600160a01b031690565b90565b6001600160a01b038116036200007057565b90505190620000ca82620000db565b6080818303126200007057620001138282620000ed565b92620000d8620001278460208501620000ed565b93620001378160408601620000ed565b93606001620000ed565b6200016462001584803803806200015881620000b3565b928339810190620000fc565b90919293565b9062ffffff60a01b9060a01b5b9181191691161790565b62000191620000d8620000d89290565b62ffffff1690565b90620001ad620000d8620001b59262000181565b82546200016a565b9055565b620000d890620000cc906001600160a01b031682565b620000d890620001b9565b620000d890620001cf565b906001600160a01b039062000177565b9062000209620000d8620001b592620001da565b8254620001e5565b91620002436200024e926200023a620000ca9695620002346101f4600162000199565b620001da565b608052620001da565b60a0526000620001f5565b6001620001f556fe6080604052600436101561001257600080fd5b60003560e01c806306bfa938146100c25780630dfe1681146100bd578063791b98bc146100b85780637b50f8c5146100b35780639cd441da146100ae578063c31c9c07146100a9578063ceb92012146100a4578063d02641a01461009f578063d21220a71461009a578063ddca3f43146100955763eb02c301036100e857610447565b610402565b6103bf565b610398565b61037c565b610313565b6102e7565b610283565b61022f565b6101b9565b610156565b6001600160a01b031690565b90565b6001600160a01b0381165b036100e857565b600080fd5b905035906100fa826100d6565b565b906020828203126100e8576100d3916100ed565b9052565b6001600160a01b0390911681526060810193926100fa92909160409161013e9060020b6020830152565b01906fffffffffffffffffffffffffffffffff169052565b346100e85761018061017161016c3660046100fc565b610619565b60405191939193849384610114565b0390f35b60009103126100e857565b6100d3916008021c6001600160a01b031690565b906100d3915461018f565b6100d36000806101a3565b346100e8576101c9366004610184565b6101806101d46101ae565b604051918291826001600160a01b03909116815260200190565b6100c76100d36100d3926001600160a01b031690565b6100d3906101ee565b6100d390610204565b6101109061020d565b6020810192916100fa9190610216565b346100e85761023f366004610184565b6101807f00000000000000000000000000000000000000000000000000000000000000005b6040519182918261021f565b9081526040810192916100fa9160200152565b346100e85761029b6102963660046100fc565b610751565b906101806102a860405190565b92839283610270565b806100e1565b905035906100fa826102b1565b91906040838203126100e8576100d3906102de81856102b7565b936020016102b7565b346100e8576101806103036102fd3660046102c4565b90610a1c565b6040519182918290815260200190565b346100e857610323366004610184565b6101807f0000000000000000000000000000000000000000000000000000000000000000610264565b90916060828403126100e8576100d361036584846100ed565b9361037381602086016100ed565b936040016102b7565b346100e85761018061030361039236600461034c565b91610e63565b346100e8576101806103036103ae3660046100fc565b6110ac565b6100d3600060016101a3565b346100e8576103cf366004610184565b6101806101d46103b3565b6100d3916008021c5b62ffffff1690565b906100d391546103da565b6100d3601460016103eb565b346100e857610412366004610184565b61018061041d6103f6565b6040519182918262ffffff909116815260200190565b906020828203126100e8576100d3916102b7565b346100e85761018061046261045d366004610433565b611251565b604051918291826fffffffffffffffffffffffffffffffff909116815260200190565b7f4e487b7100000000000000000000000000000000000000000000000000000000600052604160045260246000fd5b90601f017fffffffffffffffffffffffffffffffffffffffffffffffffffffffffffffffe016810190811067ffffffffffffffff8211176104f457604052565b610485565b6001600160a01b0381166100e1565b905051906100fa826104f9565b6100e18160020b90565b905051906100fa82610515565b61ffff81166100e1565b905051906100fa8261052c565b60ff81166100e1565b905051906100fa82610543565b8015156100e1565b905051906100fa82610559565b60e0818303126100e8576105828282610508565b92610590836020840161051f565b9261059e8160408501610536565b926105ac8260608301610536565b926100d36105bd8460808501610536565b936105cb8160a0860161054c565b9360c001610561565b6040513d6000823e3d90fd5b6fffffffffffffffffffffffffffffffff81166100e1565b905051906100fa826105e0565b906020828203126100e8576100d3916105f8565b906106499060e061063161062c8561020d565b61020d565b633850c7bd9061064060405190565b94859260e01b90565b825260049082905afa9182156106d3576000809190936106d8575b50602061067861062c61069093959661020d565b631a6865029061068760405190565b93849260e01b90565b825260049082905afa9081156106d3576000916106ab575090565b6100d3915060203d81116106cc575b6106c481836104b4565b810190610605565b503d6106ba565b6105d4565b61062c9350610690915061067861070760209260e03d8111610716575b6106ff81836104b4565b81019061056e565b50505050509350945050610664565b503d6106f5565b6100d3906100c7565b6100d3905461071d565b905051906100fa826102b1565b906020828203126100e8576100d391610730565b9061079f602061076761062c61062c6000610726565b6370a0823190610788869261077b60405190565b9586948593849360e01b90565b83526001600160a01b031660048301526024820190565b03915afa9081156106d3576107dc9160209160009161081a575b50936107cb61062c61062c6001610726565b6107886370a0823161077b60405190565b03915afa9081156106d3576000916107f2575090565b6100d3915060203d8111610813575b61080b81836104b4565b81019061073d565b503d610801565b6108319150823d81116108135761080b81836104b4565b386107b9565b906020828203126100e8576100d391610561565b6001600160a01b039182168152911660208201526060810192916100fa9160400152565b6001600160a01b0390911681526040810192916100fa9160200152565b6100d39060a01c6103e3565b6100d3905461088c565b6100d36100d36100d39290565b7f4e487b7100000000000000000000000000000000000000000000000000000000600052601160045260246000fd5b919082018092116108eb57565b6108af565b906100fa6108fd60405190565b92836104b4565b6100d36101606108f0565b61091c6100d36100d39290565b60020b90565b6080818303126100e8576109368282610730565b926100d361094784602085016105f8565b936109558160408601610730565b93606001610730565b80516001600160a01b031682526100fa91906101409081906020818101516001600160a01b03169085015260408181015162ffffff169085015260608181015160020b9085015260808181015160020b908501526109c160a082015160a0860152565b6109d060c082015160c0860152565b6109df60e082015160e0860152565b6109f0610100820151610100860152565b610120818101516001600160a01b0316908501520151910152565b610160810192916100fa919061095e565b90610a2d61062c61062c6000610726565b60206323b872dd913390610a606000610a453061020d565b95610a6b89610a5360405190565b9889978896879560e01b90565b85526004850161084b565b03925af180156106d357610d95575b50610a8b61062c61062c6001610726565b60206323b872dd913390610a606000610aa33061020d565b95610ab188610a5360405190565b03925af180156106d357610d79575b50610ad161062c61062c6000610726565b602063095ea7b391610b027f000000000000000000000000000000000000000000000000000000000000000061020d565b90610b2360008795610b2e610b1660405190565b9788968795869460e01b90565b84526004840161086f565b03925af180156106d357610d5d575b50610b4e61062c61062c6001610726565b602063095ea7b391610b7f7f000000000000000000000000000000000000000000000000000000000000000061020d565b90610b2360008695610b93610b1660405190565b03925af180156106d357610d31575b50610bad6000610726565b91610bb86001610726565b91610bc36001610898565b917ffffffffffffffffffffffffffffffffffffffffffffffffffffffffffff2764c91620d89b4916000926000943396426078610bff906108a2565b610c08916108de565b98610c11610904565b6001600160a01b03909b168b526001600160a01b031660208b015262ffffff1660408a0152610c3f9061090f565b60020b6060890152610c509061090f565b60020b608088015260a087015260c0860152610c6b906108a2565b60e0850152610c79906108a2565b6101008401526001600160a01b0316610120830152610140820152610cbd7f000000000000000000000000000000000000000000000000000000000000000061020d565b6388316456610ccb60405190565b8093610cd8829360e01b90565b8252610ce79060048301610a0b565b03815a608094600091f19081156106d357600091610d03575090565b610d24915060803d8111610d2a575b610d1c81836104b4565b810190610922565b50505090565b503d610d12565b610d519060203d8111610d56575b610d4981836104b4565b810190610837565b610ba2565b503d610d3f565b610d749060203d8111610d5657610d4981836104b4565b610b3d565b610d909060203d8111610d5657610d4981836104b4565b610ac0565b610dac9060203d8111610d5657610d4981836104b4565b610a7a565b6100d36101006108f0565b6100c76100d36100d39290565b80516001600160a01b031682526100fa919060e09081906020818101516001600160a01b03169085015260408181015162ffffff16908501526060808201516001600160a01b031690850152610e2460808201516080860152565b610e3360a082015160a0860152565b610e4260c082015160c0860152565b01516001600160a01b0316910152565b610100810192916100fa9190610dc9565b909190610e7261062c8261020d565b60206323b872dd913390610a606000610e8a3061020d565b95610e9889610a5360405190565b03925af180156106d357611029575b50610eb461062c8261020d565b602063095ea7b391610ee57f000000000000000000000000000000000000000000000000000000000000000061020d565b90610b2360008795610ef9610b1660405190565b03925af180156106d35761100d575b509190610f156001610898565b90339042610f23603c6108a2565b610f2c916108de565b9091600093600095610f3c610db1565b6001600160a01b0390981688526001600160a01b0316602088015262ffffff1660408701526001600160a01b03166060860152608085015260a0840152610f82906108a2565b60c0830152610f9090610dbc565b6001600160a01b031660e0820152610fc77f000000000000000000000000000000000000000000000000000000000000000061020d565b63414bf389610fd560405190565b8093610fe2829360e01b90565b8252610ff19060048301610e52565b03815a602094600091f19081156106d3576000916107f2575090565b6110249060203d8111610d5657610d4981836104b4565b610f08565b6110409060203d8111610d5657610d4981836104b4565b610ea7565b6100d36100d36100d3926001600160a01b031690565b818102929181159184041417156108eb57565b7f4e487b7100000000000000000000000000000000000000000000000000000000600052601260045260246000fd5b81156110a7570490565b61106e565b60e06110c661062c6110d5936110c0600090565b5061020d565b633850c7bd9061068760405190565b825260049082905afa9081156106d3576100d39161110e91600091611136575b5061110861110282611045565b91611045565b9061105b565b61113078010000000000000000000000000000000000000000000000006108a2565b9061109d565b61114e915060e03d8111610716576106ff81836104b4565b50505050506110f5565b6bffffffffffffffffffffffff81166100e1565b905051906100fa82611158565b905051906100fa826100d6565b62ffffff81166100e1565b905051906100fa82611186565b9091610180828403126100e8576111b5838361116c565b926111c38160208501611179565b926111d18260408301611179565b926111df8360608401611179565b926111ed8160808501611191565b926111fb8260a0830161051f565b926112098360c0840161051f565b926112178160e085016105f8565b92611226826101008301610730565b926100d3611238846101208501610730565b936112478161014086016105f8565b93610160016105f8565b6101806112a991611260600090565b5061128a7f000000000000000000000000000000000000000000000000000000000000000061020d565b61129b6399fbab8861077b60405190565b835260048301526024820190565b03915afa9081156106d3576000916112bf575090565b6112e191506101803d81116112f0575b6112d981836104b4565b81019061119e565b50505050965050505050505090565b503d6112cf56fea2646970667358221220f17a6f396bc7623a886bb9d821f01c3461265ec2fd885f0d24e5af770ae9d77264736f6c63430008180033",
  "linkReferences": {},
  "deployedLinkReferences": {}
}