{
  "_format": "hh-sol-artifact-1",
  "contractName": "Add_Swap_Contract",
  "sourceName": "contracts/Add_Swap_Contract.sol",
  "abi": [
    {
      "inputs": [
        {
          "internalType": "address",
          "name": "_swapRouter",
          "type": "address"
        },
        {
          "internalType": "address",
          "name": "_positionManager",
          "type": "address"
        },
        {
          "internalType": "address",
          "name": "_pool",
          "type": "address"
        }
      ],
      "stateMutability": "nonpayable",
      "type": "constructor"
    },
    {
      "anonymous": false,
      "inputs": [
        {
          "indexed": true,
          "internalType": "uint256",
          "name": "id",
          "type": "uint256"
        },
        {
          "indexed": true,
          "internalType": "enum Add_Swap_Contract.TransactionType",
          "name": "transactionType",
          "type": "uint8"
        },
        {
          "indexed": false,
          "internalType": "bytes32",
          "name": "txHash",
          "type": "bytes32"
        },
        {
          "indexed": true,
          "internalType": "address",
          "name": "user",
          "type": "address"
        }
      ],
      "name": "TransactionAdded",
      "type": "event"
    },
    {
      "inputs": [
        {
          "internalType": "uint256",
          "name": "amount0Desired",
          "type": "uint256"
        },
        {
          "internalType": "uint256",
          "name": "amount1Desired",
          "type": "uint256"
        }
      ],
      "name": "addLiquidity",
      "outputs": [
        {
          "internalType": "uint256",
          "name": "tokenId",
          "type": "uint256"
        }
      ],
      "stateMutability": "nonpayable",
      "type": "function"
    },
    {
      "inputs": [
        {
          "internalType": "uint256",
          "name": "amount0Desired",
          "type": "uint256"
        },
        {
          "internalType": "uint256",
          "name": "amount1Desired",
          "type": "uint256"
        },
        {
          "internalType": "int24",
          "name": "tickLower",
          "type": "int24"
        },
        {
          "internalType": "int24",
          "name": "tickUpper",
          "type": "int24"
        }
      ],
      "name": "addLiquidityWithRange",
      "outputs": [
        {
          "internalType": "uint256",
          "name": "tokenId",
          "type": "uint256"
        }
      ],
      "stateMutability": "nonpayable",
      "type": "function"
    },
    {
      "inputs": [
        {
          "internalType": "enum Add_Swap_Contract.TransactionType",
          "name": "transactionType",
          "type": "uint8"
        },
        {
          "internalType": "string",
          "name": "fromToken",
          "type": "string"
        },
        {
          "internalType": "string",
          "name": "toToken",
          "type": "string"
        },
        {
          "internalType": "uint256",
          "name": "fromAmount",
          "type": "uint256"
        },
        {
          "internalType": "uint256",
          "name": "toAmount",
          "type": "uint256"
        },
        {
          "internalType": "bytes32",
          "name": "txHash",
          "type": "bytes32"
        }
      ],
      "name": "addTransactionToHistory",
      "outputs": [],
      "stateMutability": "nonpayable",
      "type": "function"
    },
    {
      "inputs": [
        {
          "internalType": "uint256",
          "name": "",
          "type": "uint256"
        }
      ],
      "name": "allTransactions",
      "outputs": [
        {
          "internalType": "uint256",
          "name": "id",
          "type": "uint256"
        },
        {
          "internalType": "enum Add_Swap_Contract.TransactionType",
          "name": "transactionType",
          "type": "uint8"
        },
        {
          "internalType": "string",
          "name": "fromToken",
          "type": "string"
        },
        {
          "internalType": "string",
          "name": "toToken",
          "type": "string"
        },
        {
          "internalType": "uint256",
          "name": "fromAmount",
          "type": "uint256"
        },
        {
          "internalType": "uint256",
          "name": "toAmount",
          "type": "uint256"
        },
        {
          "internalType": "uint256",
          "name": "timestamp",
          "type": "uint256"
        },
        {
          "internalType": "bytes32",
          "name": "hash",
          "type": "bytes32"
        },
        {
          "internalType": "string",
          "name": "status",
          "type": "string"
        }
      ],
      "stateMutability": "view",
      "type": "function"
    },
    {
      "inputs": [
        {
          "internalType": "uint256",
          "name": "tokenId",
          "type": "uint256"
        }
      ],
      "name": "approvePositionManager",
      "outputs": [],
      "stateMutability": "nonpayable",
      "type": "function"
    },
    {
      "inputs": [
        {
          "internalType": "uint256",
          "name": "tokenId",
          "type": "uint256"
        }
      ],
      "name": "collectFees",
      "outputs": [
        {
          "internalType": "uint256",
          "name": "amount0",
          "type": "uint256"
        },
        {
          "internalType": "uint256",
          "name": "amount1",
          "type": "uint256"
        }
      ],
      "stateMutability": "nonpayable",
      "type": "function"
    },
    {
      "inputs": [],
      "name": "fee",
      "outputs": [
        {
          "internalType": "uint24",
          "name": "",
          "type": "uint24"
        }
      ],
      "stateMutability": "view",
      "type": "function"
    },
    {
      "inputs": [],
      "name": "getAllTransactionHistory",
      "outputs": [
        {
          "components": [
            {
              "internalType": "uint256",
              "name": "id",
              "type": "uint256"
            },
            {
              "internalType": "enum Add_Swap_Contract.TransactionType",
              "name": "transactionType",
              "type": "uint8"
            },
            {
              "internalType": "string",
              "name": "fromToken",
              "type": "string"
            },
            {
              "internalType": "string",
              "name": "toToken",
              "type": "string"
            },
            {
              "internalType": "uint256",
              "name": "fromAmount",
              "type": "uint256"
            },
            {
              "internalType": "uint256",
              "name": "toAmount",
              "type": "uint256"
            },
            {
              "internalType": "uint256",
              "name": "timestamp",
              "type": "uint256"
            },
            {
              "internalType": "bytes32",
              "name": "hash",
              "type": "bytes32"
            },
            {
              "internalType": "string",
              "name": "status",
              "type": "string"
            }
          ],
          "internalType": "struct Add_Swap_Contract.Transaction[]",
          "name": "",
          "type": "tuple[]"
        }
      ],
      "stateMutability": "view",
      "type": "function"
    },
    {
      "inputs": [],
      "name": "getCurrentTick",
      "outputs": [
        {
          "internalType": "int24",
          "name": "tick",
          "type": "int24"
        }
      ],
      "stateMutability": "view",
      "type": "function"
    },
    {
      "inputs": [],
      "name": "getPool",
      "outputs": [
        {
          "internalType": "address",
          "name": "",
          "type": "address"
        }
      ],
      "stateMutability": "view",
      "type": "function"
    },
    {
      "inputs": [],
      "name": "getPoolBalances",
      "outputs": [
        {
          "internalType": "uint256",
          "name": "bal0",
          "type": "uint256"
        },
        {
          "internalType": "uint256",
          "name": "bal1",
          "type": "uint256"
        }
      ],
      "stateMutability": "view",
      "type": "function"
    },
    {
      "inputs": [],
      "name": "getPoolInfo",
      "outputs": [
        {
          "internalType": "uint160",
          "name": "sqrtPriceX96",
          "type": "uint160"
        },
        {
          "internalType": "int24",
          "name": "tick",
          "type": "int24"
        },
        {
          "internalType": "uint128",
          "name": "liquidity",
          "type": "uint128"
        }
      ],
      "stateMutability": "view",
      "type": "function"
    },
    {
      "inputs": [
        {
          "internalType": "uint256",
          "name": "tokenId",
          "type": "uint256"
        }
      ],
      "name": "getPosition",
      "outputs": [
        {
          "internalType": "uint128",
          "name": "liquidity",
          "type": "uint128"
        }
      ],
      "stateMutability": "view",
      "type": "function"
    },
    {
      "inputs": [
        {
          "internalType": "uint256",
          "name": "tokenId",
          "type": "uint256"
        }
      ],
      "name": "getPositionDetails",
      "outputs": [
        {
          "internalType": "address",
          "name": "positionToken0",
          "type": "address"
        },
        {
          "internalType": "address",
          "name": "positionToken1",
          "type": "address"
        },
        {
          "internalType": "uint128",
          "name": "liquidity",
          "type": "uint128"
        },
        {
          "internalType": "uint256",
          "name": "feeGrowthInside0LastX128",
          "type": "uint256"
        },
        {
          "internalType": "uint256",
          "name": "feeGrowthInside1LastX128",
          "type": "uint256"
        },
        {
          "internalType": "uint128",
          "name": "tokensOwed0",
          "type": "uint128"
        },
        {
          "internalType": "uint128",
          "name": "tokensOwed1",
          "type": "uint128"
        }
      ],
      "stateMutability": "view",
      "type": "function"
    },
    {
      "inputs": [
        {
          "internalType": "uint256",
          "name": "tokenId",
          "type": "uint256"
        }
      ],
      "name": "getPositionFees",
      "outputs": [
        {
          "internalType": "uint256",
          "name": "fees0",
          "type": "uint256"
        },
        {
          "internalType": "uint256",
          "name": "fees1",
          "type": "uint256"
        }
      ],
      "stateMutability": "view",
      "type": "function"
    },
    {
      "inputs": [],
      "name": "getTokenPrice",
      "outputs": [
        {
          "internalType": "uint256",
          "name": "price",
          "type": "uint256"
        }
      ],
      "stateMutability": "view",
      "type": "function"
    },
    {
      "inputs": [],
      "name": "getUserPositions",
      "outputs": [
        {
          "internalType": "uint256[]",
          "name": "",
          "type": "uint256[]"
        }
      ],
      "stateMutability": "view",
      "type": "function"
    },
    {
      "inputs": [],
      "name": "getUserTransactionHistory",
      "outputs": [
        {
          "components": [
            {
              "internalType": "uint256",
              "name": "id",
              "type": "uint256"
            },
            {
              "internalType": "enum Add_Swap_Contract.TransactionType",
              "name": "transactionType",
              "type": "uint8"
            },
            {
              "internalType": "string",
              "name": "fromToken",
              "type": "string"
            },
            {
              "internalType": "string",
              "name": "toToken",
              "type": "string"
            },
            {
              "internalType": "uint256",
              "name": "fromAmount",
              "type": "uint256"
            },
            {
              "internalType": "uint256",
              "name": "toAmount",
              "type": "uint256"
            },
            {
              "internalType": "uint256",
              "name": "timestamp",
              "type": "uint256"
            },
            {
              "internalType": "bytes32",
              "name": "hash",
              "type": "bytes32"
            },
            {
              "internalType": "string",
              "name": "status",
              "type": "string"
            }
          ],
          "internalType": "struct Add_Swap_Contract.Transaction[]",
          "name": "",
          "type": "tuple[]"
        }
      ],
      "stateMutability": "view",
      "type": "function"
    },
    {
      "inputs": [
        {
          "internalType": "address",
          "name": "user",
          "type": "address"
        },
        {
          "internalType": "uint256",
          "name": "tokenId",
          "type": "uint256"
        }
      ],
      "name": "ownsPosition",
      "outputs": [
        {
          "internalType": "bool",
          "name": "",
          "type": "bool"
        }
      ],
      "stateMutability": "view",
      "type": "function"
    },
    {
      "inputs": [],
      "name": "pool",
      "outputs": [
        {
          "internalType": "contract IUniswapV3Pool",
          "name": "",
          "type": "address"
        }
      ],
      "stateMutability": "view",
      "type": "function"
    },
    {
      "inputs": [],
      "name": "positionManager",
      "outputs": [
        {
          "internalType": "contract INonfungiblePositionManager",
          "name": "",
          "type": "address"
        }
      ],
      "stateMutability": "view",
      "type": "function"
    },
    {
      "inputs": [
        {
          "internalType": "uint256",
          "name": "tokenId",
          "type": "uint256"
        },
        {
          "internalType": "uint128",
          "name": "liquidity",
          "type": "uint128"
        }
      ],
      "name": "removeLiquidity",
      "outputs": [
        {
          "internalType": "uint256",
          "name": "amount0",
          "type": "uint256"
        },
        {
          "internalType": "uint256",
          "name": "amount1",
          "type": "uint256"
        }
      ],
      "stateMutability": "nonpayable",
      "type": "function"
    },
    {
      "inputs": [
        {
          "internalType": "address",
          "name": "inputToken",
          "type": "address"
        },
        {
          "internalType": "address",
          "name": "outputToken",
          "type": "address"
        },
        {
          "internalType": "uint256",
          "name": "amountIn",
          "type": "uint256"
        }
      ],
      "name": "swapExactInputSingle",
      "outputs": [
        {
          "internalType": "uint256",
          "name": "amountOut",
          "type": "uint256"
        }
      ],
      "stateMutability": "nonpayable",
      "type": "function"
    },
    {
      "inputs": [],
      "name": "swapRouter",
      "outputs": [
        {
          "internalType": "contract ISwapRouter",
          "name": "",
          "type": "address"
        }
      ],
      "stateMutability": "view",
      "type": "function"
    },
    {
      "inputs": [],
      "name": "token0",
      "outputs": [
        {
          "internalType": "address",
          "name": "",
          "type": "address"
        }
      ],
      "stateMutability": "view",
      "type": "function"
    },
    {
      "inputs": [],
      "name": "token1",
      "outputs": [
        {
          "internalType": "address",
          "name": "",
          "type": "address"
        }
      ],
      "stateMutability": "view",
      "type": "function"
    }
  ],
  "bytecode": "0x60e06040523462000102576200001f62000018620001c6565b9162000357565b604051613c406200052c8239608051818181610a520152818161303f0152613120015260a05181818161082c015281816118a80152818161192201528181611c8001528181611d6101528181611fae0152818161252c015281816127b1015281816128a901528181612b2401528181612b7101528181612c5501528181612cd5015281816134d6015281816135d101526136b9015260c0518181816102b001528181610eaa0152818161149e015281816115ce015281816116b00152818161173c015281816117880152818161200d0152818161206401526138030152613c4090f35b600080fd5b634e487b7160e01b600052604160045260246000fd5b90601f01601f191681019081106001600160401b038211176200013f57604052565b62000107565b906200015c6200015460405190565b92836200011d565b565b6001600160a01b031690565b90565b6001600160a01b0381165b036200010257565b905051906200015c826200016d565b909160608284031262000102576200016a620001ac848462000180565b93620001bc816020860162000180565b9360400162000180565b620001e96200416c80380380620001dd8162000145565b9283398101906200018f565b909192565b9062ffffff60a01b9060a01b5b9181191691161790565b620002156200016a6200016a9290565b62ffffff1690565b90620002316200016a620002399262000205565b8254620001ee565b9055565b6200016a906200015e906001600160a01b031682565b6200016a906200023d565b6200016a9062000253565b516001600160a01b031690565b9060208282031262000102576200016a9162000180565b6040513d6000823e3d90fd5b906001600160a01b0390620001fb565b90620002bd6200016a62000239926200025e565b825462000299565b62ffffff811662000178565b905051906200015c82620002c5565b9060208282031262000102576200016a91620002d1565b620002156200016a6200016a9262ffffff1690565b90620002316200016a6200023992620002f7565b6200016a6200016a6200016a9290565b9060001990620001fb565b906200034f6200016a620002399262000320565b825462000330565b6200038d92916200037b6200038492620003756101f460016200021d565b6200025e565b6080526200025e565b60a0526200025e565b60c052620003bf6020620003a66200037560c062000269565b630dfe168190620003b660405190565b93849260e01b90565b825260049082905afa8015620004cd57620003e69160009162000508575b506000620002a9565b6200040c6020620003fc6200037560c062000269565b63d21220a790620003b660405190565b825260049082905afa8015620004cd576200043391600091620004d3575b506001620002a9565b620004596020620004496200037560c062000269565b63ddca3f4390620003b660405190565b825260049082905afa8015620004cd57620004809160009162000498575b5060016200030c565b6200015c62000490600162000320565b60046200033b565b620004be915060203d8111620004c5575b620004b581836200011d565b810190620002e0565b3862000477565b503d620004a9565b6200028d565b620004f9915060203d811162000500575b620004f081836200011d565b81019062000276565b386200042a565b503d620004e4565b62000524915060203d81116200050057620004f081836200011d565b38620003dd56fe6080604052600436101561001257600080fd5b60003560e01c8063026b1d5f146101b25780630dfe1681146101ad57806316f0115b146101a85780634abf5dc1146101a35780634b94f50e1461019e57806352375bb11461019957806353aad1d91461019457806360246c881461018f578063630797031461018a57806365e34c0914610185578063784394bc14610180578063791b98bc1461017b578063911757ba14610176578063972960c5146101715780639cd441da1461016c5780639ecceb5e14610167578063a3a8d0b614610162578063b17acdcd1461015d578063c31c9c0714610158578063c979affb14610153578063ceb920121461014e578063d21220a714610149578063d7ff071414610144578063ddca3f431461013f578063eb02c3011461013a5763fa1b8025036101c257610e86565b610df5565b610dc4565b610d65565b610ae9565b610ac1565b610a76565b610a3d565b610a25565b6109f7565b61098d565b6108ec565b6108b1565b610898565b610817565b6107f0565b610610565b610591565b610553565b6104e1565b6104b3565b610475565b610451565b61029b565b61023f565b6101dc565b60009103126101c257565b600080fd5b6001600160a01b031690565b90565b9052565b565b346101c2576101ec3660046101b7565b6102116101f7610ea5565b604051918291826001600160a01b03909116815260200190565b0390f35b6101d3916008021c6001600160a01b031690565b906101d39154610215565b6101d3600080610229565b346101c25761024f3660046101b7565b6102116101f7610234565b6101c76101d36101d3926001600160a01b031690565b6101d39061025a565b6101d390610270565b6101d690610279565b6020810192916101da9190610282565b346101c2576102ab3660046101b7565b6102117f00000000000000000000000000000000000000000000000000000000000000005b6040519182918261028b565b600211156101c257565b905035906101da826102dc565b634e487b7160e01b600052604160045260246000fd5b90601f01601f1916810190811067ffffffffffffffff82111761032b57604052565b6102f3565b906101da61033d60405190565b9283610309565b67ffffffffffffffff811161032b57602090601f01601f19160190565b0190565b90826000939282370152565b9092919261038661038182610344565b610330565b938185526020850190828401116101c2576101da92610365565b9080601f830112156101c2578160206101d393359101610371565b805b036101c257565b905035906101da826103bb565b909160c0828403126101c2576103e783836102e6565b92602083013567ffffffffffffffff81116101c257816104089185016103a0565b92604081013567ffffffffffffffff81116101c257826104299183016103a0565b926101d361043a84606085016103c4565b9361044881608086016103c4565b9360a0016103c4565b346101c2576104706104643660046103d1565b9493909392919261127c565b604051005b346101c2576104853660046101b7565b610211610490611494565b6040519182918290815260200190565b9081526040810192916101da9160200152565b346101c2576104c33660046101b7565b6104cb6115a6565b906102116104d860405190565b928392836104a0565b346101c2576104f13660046101b7565b6102116104fc6116a6565b6040519182918260029190910b815260200190565b6001600160a01b0390911681526060810193926101da92909160409161053b9060020b6020830152565b01906fffffffffffffffffffffffffffffffff169052565b346101c2576105633660046101b7565b61021161056e611732565b60405191939193849384610511565b906020828203126101c2576101d3916103c4565b346101c2576104706105a436600461057d565b61189e565b906105c96105c26105b8845190565b8084529260200190565b9260200190565b9060005b8181106105da5750505090565b9091926105f76105f06001928651815260200190565b9460200190565b9291016105cd565b60208082526101d3929101906105a9565b346101c2576106203660046101b7565b61021161062b611a66565b604051918291826105ff565b634e487b7160e01b600052602160045260246000fd5b6002111561065757565b610637565b906101da8261064d565b6101d39061065c565b6101d690610666565b60005b83811061068b5750506000910152565b818101518382015260200161067b565b6106bc6106c5602093610361936106b0815190565b80835293849260200190565b95869101610678565b601f01601f191690565b805182526101d39161010061071b61070961012084016106f76020870151602087019061066f565b6040860151858203604087015261069b565b6060850151848203606086015261069b565b9261072b60808201516080850152565b61073a60a082015160a0850152565b61074960c082015160c0850152565b61075860e082015160e0850152565b01519061010081840391015261069b565b906101d3916106cf565b9061078961077f835190565b8083529160200190565b908161079b6020830284019460200190565b926000915b8383106107af57505050505090565b909192939460206107d26107cb83856001950387528951610769565b9760200190565b93019301919392906107a0565b60208082526101d392910190610773565b346101c2576108003660046101b7565b61021161080b611bd1565b604051918291826107df565b346101c2576108273660046101b7565b6102117f00000000000000000000000000000000000000000000000000000000000000006102d0565b6fffffffffffffffffffffffffffffffff81166103bd565b905035906101da82610850565b91906040838203126101c2576101d39061088f81856103c4565b93602001610868565b346101c2576104cb6108ab366004610875565b90611c74565b346101c2576104cb6108c436600461057d565b611f95565b91906040838203126101c2576101d3906108e381856103c4565b936020016103c4565b346101c2576102116104906109023660046108c9565b9061241d565b949290979695939160e08601986000870161092a916001600160a01b03169052565b6001600160a01b031660208601526fffffffffffffffffffffffffffffffff166040850152606084015260808301526fffffffffffffffffffffffffffffffff1660a082015260c0016101da916fffffffffffffffffffffffffffffffff169052565b346101c2576102116109a86109a336600461057d565b612948565b936109b897959793919360405190565b97889788610908565b6001600160a01b0381166103bd565b905035906101da826109c1565b91906040838203126101c2576101d3906108e381856109d0565b346101c257610211610a13610a0d3660046109dd565b906129d2565b60405191829182901515815260200190565b346101c2576104cb610a3836600461057d565b612b1a565b346101c257610a4d3660046101b7565b6102117f00000000000000000000000000000000000000000000000000000000000000006102d0565b346101c257610a863660046101b7565b61021161080b612dad565b90916060828403126101c2576101d3610aaa84846109d0565b93610ab881602086016109d0565b936040016103c4565b346101c257610211610490610ad7366004610a91565b91612f80565b6101d360006001610229565b346101c257610af93660046101b7565b6102116101f7610add565b634e487b7160e01b600052603260045260246000fd5b8054821015610b3d57610b34600991600052602060002090565b91020190600090565b610b04565b6101d39081565b6101d39054610b42565b6101d3905b60ff1690565b6101d39054610b53565b634e487b7160e01b600052602260045260246000fd5b9060016002830492168015610b9e575b6020831014610b9957565b610b68565b91607f1691610b8e565b80546000939291610bc5610bbb83610b7e565b8085529360200190565b9160018116908115610c175750600114610bde57505050565b610bf19192939450600052602060002090565b916000925b818410610c035750500190565b805484840152602090930192600101610bf6565b92949550505060ff1916825215156020020190565b906101d391610ba8565b906101da610c5092610c4760405190565b93848092610c2c565b0383610309565b600590610c62825490565b8110156101c257610c7291610b1a565b50610c7c81610b49565b91610c8960018301610b5e565b91610c9660028201610c36565b91610ca360038301610c36565b91610cb060048201610b49565b91610cbd60058301610b49565b91610cca60068201610b49565b916101d36008610cdc60078501610b49565b9301610c36565b95610d42610d3a610d57979a96610d2c610d4995610d50986101d39f9d98610d1f9060208f610d186101208201966000830152565b019061066f565b8c820360408e015261069b565b908a820360608c015261069b565b996080890152565b60a0870152565b60c0850152565b60e0830152565b61010081840391015261069b565b346101c257610211610d80610d7b36600461057d565b610c57565b95610d9399979995919594929460405190565b998a998a610ce3565b6101d3916008021c5b62ffffff1690565b906101d39154610d9c565b6101d360146001610dad565b346101c257610dd43660046101b7565b610211610ddf610db8565b6040519182918262ffffff909116815260200190565b346101c257610211610e10610e0b36600461057d565b61330c565b604051918291826fffffffffffffffffffffffffffffffff909116815260200190565b6103bd8160020b90565b905035906101da82610e33565b6080818303126101c257610e5e82826103c4565b926101d3610e6f84602085016103c4565b93610e7d8160408601610e3d565b93606001610e3d565b346101c257610211610490610e9c366004610e4a565b929190916133a5565b6101d37f0000000000000000000000000000000000000000000000000000000000000000610279565b6101d3610120610330565b906101d69061065c565b90610ef061038183610344565b918252565b610eff6009610ee3565b7f636f6e6669726d65640000000000000000000000000000000000000000000000602082015290565b6101d3610ef5565b634e487b7160e01b600052600060045260246000fd5b90600019905b9181191691161790565b6101d36101d36101d39290565b90610f736101d3610f7a92610f56565b8254610f46565b9055565b6101d3905161065c565b9060ff90610f4c565b90610fa16101d3610f7a92610666565b8254610f88565b91906008610f4c910291610fbd600019841b90565b921b90565b9190610fd36101d3610f7a93610f56565b908354610fa8565b6101da91600091610fc2565b818110610ff2575050565b806110006000600193610fdb565b01610fe7565b9190601f811161101557505050565b6110276101da93600052602060002090565b906020601f840181900483019310611049575b6020601f909101040190610fe7565b909150819061103a565b9061105c815190565b9067ffffffffffffffff821161032b576110808261107a8554610b7e565b85611006565b602090601f83116001146110bb57610f7a9291600091836110b0575b5050600019600883021c1916906002021790565b01519050388061109c565b601f198316916110d085600052602060002090565b9260005b81811061110e575091600293918560019694106110f5575b50505002019055565b01516000196008601f8516021c191690553880806110ec565b919360206001819287870151815501950192016110d4565b906101da91611053565b90610f736101d3610f7a9290565b6101da919061118b90610100906008906111608161115a875190565b90610f63565b6111796001820161117360208801610f7e565b90610f91565b6111916002820161118b604088015190565b90611126565b6111a36003820161118b606088015190565b6111b56004820161115a608088015190565b6111c76005820161115a60a088015190565b6111d96006820161115a60c088015190565b6111f1600782016111eb60e088015190565b90611130565b0192015190565b9190611207576101da9161113e565b610f30565b908154916801000000000000000083101561032b57826112349160016101da95018155610b1a565b906111f8565b9061124490610279565b600052602052604060002090565b634e487b7160e01b600052601160045260246000fd5b60001981146112775760010190565b611252565b939291909161128b6004610b49565b9386934293919291908761129d610ece565b9788526112ad9060208901610ed9565b60408701526060860152608085015260a084015260c083015260e08201526112d3610f28565b6101008201526112e481600561120c565b6112ef33600261123a565b816112f99161120c565b6113036004610b49565b61130c90611268565b611317906004610f63565b519033917f19c7fb851f92c8d4f19411743a614909b5753cf16d0ef77d269c04e51eaa7f0e9061134690610f56565b9161135090610666565b9261135a90610279565b9361136460405190565b908152602090a4565b905051906101da826109c1565b905051906101da82610e33565b61ffff81166103bd565b905051906101da82611387565b60ff81166103bd565b905051906101da8261139e565b8015156103bd565b905051906101da826113b4565b60e0818303126101c2576113dd828261136d565b926113eb836020840161137a565b926113f98160408501611391565b926114078260608301611391565b926101d36114188460808501611391565b936114268160a086016113a7565b9360c0016113bc565b6040513d6000823e3d90fd5b6101d36101d36101d3926001600160a01b031690565b8181029291811591840414171561127757565b634e487b7160e01b600052601260045260246000fd5b90611484565b9190565b90811561148f570490565b611464565b6114da60e06114c27f0000000000000000000000000000000000000000000000000000000000000000610279565b633850c7bd906114d160405190565b93849260e01b90565b825260049082905afa90811561156d576101d3916115139160009161153b575b5061150d6115078261143b565b9161143b565b90611451565b6115357801000000000000000000000000000000000000000000000000610f56565b9061147a565b61155c915060e03d8111611566575b6115548183610309565b8101906113c9565b50505050506114fa565b503d61154a565b61142f565b6101d3906101c7565b6101d39054611572565b905051906101da826103bb565b906020828203126101c2576101d391611585565b61162060206115c06115bb6115bb600061157b565b610279565b6370a08231906116096115f27f0000000000000000000000000000000000000000000000000000000000000000610279565b926115fc60405190565b9586948593849360e01b90565b83526001600160a01b031660048301526024820190565b03915afa90811561156d57600091611688575b509061164a60206115c06115bb6115bb600161157b565b03915afa90811561156d57600091611660575090565b6101d3915060203d8111611681575b6116798183610309565b810190611592565b503d61166f565b6116a0915060203d8111611681576116798183610309565b38611633565b6116d460e06114c27f0000000000000000000000000000000000000000000000000000000000000000610279565b825260049082905afa90811561156d576000916116ef575090565b611707915060e03d8111611566576115548183610309565b5050505050905090565b905051906101da82610850565b906020828203126101c2576101d391611711565b61176060e06114c27f0000000000000000000000000000000000000000000000000000000000000000610279565b825260049082905afa90811561156d576000809190926117fe575b5090916117bb60206117ac7f0000000000000000000000000000000000000000000000000000000000000000610279565b631a686502906114d160405190565b825260049082905afa90811561156d576000916117d6575090565b6101d3915060203d81116117f7575b6117ef8183610309565b81019061171e565b503d6117e5565b9050611818915060e03d8111611566576115548183610309565b5050505061177b565b906020828203126101c2576101d39161136d565b1561183c57565b60405162461bcd60e51b815260206004820152601260248201527f4e6f7420706f736974696f6e206f776e657200000000000000000000000000006044820152606490fd5b6001600160a01b0390911681526040810192916101da9160200152565b6118ee60206118cc7f0000000000000000000000000000000000000000000000000000000000000000610279565b636352211e906118e085926115fc60405190565b835260048301526024820190565b03915afa801561156d5761191d916000916119b3575b50611917335b916001600160a01b031690565b14611835565b6119467f0000000000000000000000000000000000000000000000000000000000000000610279565b9063095ea7b39061195630610279565b9092803b156101c25761197f6000809461198a61197260405190565b9788968795869460e01b90565b845260048401611881565b03925af1801561156d5761199b5750565b6101da9060006119ab8183610309565b8101906101b7565b6119d4915060203d81116119da575b6119cc8183610309565b810190611821565b38611904565b503d6119c2565b906119fc6119f06105b8845490565b92600052602060002090565b9060005b818110611a0d5750505090565b909192611a31611a2a600192611a2287610b49565b815260200190565b9460010190565b929101611a00565b906101d3916119e1565b906101da610c5092611a5460405190565b93848092611a39565b6101d390611a43565b6101d3611a7433600361123a565b611a5d565b67ffffffffffffffff811161032b5760208091020190565b90610ef061038183611a79565b906101da611b626008611aaf610ece565b94611ac0611abc82610b49565b8752565b611ad8611acf60018301610b5e565b60208801610ed9565b611aee611ae760028301610c36565b6040880152565b611b04611afd60038301610c36565b6060880152565b611b1a611b1360048301610b49565b6080880152565b611b30611b2960058301610b49565b60a0880152565b611b46611b3f60068301610b49565b60c0880152565b611b5c611b5560078301610b49565b60e0880152565b01610c36565b610100840152565b6101d390611a9e565b90611b7c825490565b611b8581611a91565b92611b996020850191600052602060002090565b6000915b838310611baa5750505050565b60096020600192611bba85611b6a565b815201920192019190611b9d565b6101d390611b73565b6101d36005611bc8565b9190820180921161127757565b6101d360a0610330565b91906040838203126101c2576101d390611c0c8185611585565b93602001611585565b805182526101da919060809081906020818101516fffffffffffffffffffffffffffffffff1690850152611c4e60408201516040860152565b611c5d60608201516060860152565b0151910152565b60a0810192916101da9190611c15565b91611cc5916020611ca47f0000000000000000000000000000000000000000000000000000000000000000610279565b636352211e906118e08792611cb860405190565b9788948593849360e01b90565b03915afa90811561156d57611ceb604092611db0956000916119b357506119173361190a565b611d5c8591611d55611d4e6000611d43611d48600092611d43611d1942611d1361012c610f56565b90611bdb565b97611d2a611d25611be8565b9b8c52565b6fffffffffffffffffffffffffffffffff1660208b0152565b610f56565b88880152565b6060850152565b6080830152565b611d857f0000000000000000000000000000000000000000000000000000000000000000610279565b611da56000630c49ccbe611d9860405190565b9788958694859360e01b90565b835260048301611c64565b03925af191821561156d57600080919093611e34575b506040611df8919394611dd830610279565b6118e0600063b17acdcd611deb60405190565b9687958694859360e01b90565b03925af1801561156d57611e095750565b611e299060403d8111611e2d575b611e218183610309565b810190611bf2565b5050565b503d611e17565b60409350611df89150611e5390843d8111611e2d57611e218183610309565b915092611dc6565b6bffffffffffffffffffffffff81166103bd565b905051906101da82611e5b565b62ffffff81166103bd565b905051906101da82611e7c565b9091610180828403126101c257611eab8383611e6f565b92611eb9816020850161136d565b92611ec7826040830161136d565b92611ed5836060840161136d565b92611ee38160808501611e87565b92611ef18260a0830161137a565b92611eff8360c0840161137a565b92611f0d8160e08501611711565b92611f1c826101008301611585565b926101d3611f2e846101208501611585565b93611f3d816101408601611711565b9361016001611711565b6101d36101d36101d3926fffffffffffffffffffffffffffffffff1690565b611f736101d36101d39290565b6fffffffffffffffffffffffffffffffff1690565b9190820391821161127757565b610180611fe391611fa4600090565b5060005b50611fd27f0000000000000000000000000000000000000000000000000000000000000000610279565b6118e06399fbab886115fc60405190565b03915afa91821561156d5760009283928391829182916121bc575b509194909361204060206120317f0000000000000000000000000000000000000000000000000000000000000000610279565b63f3058399906114d160405190565b825260049082905afa90811561156d5760009161219e575b509561209760206120887f0000000000000000000000000000000000000000000000000000000000000000610279565b6346141319906114d160405190565b825260049082905afa801561156d576120b991600091612180575b5096611f47565b96846120de6120c86000611f66565b916fffffffffffffffffffffffffffffffff1690565b11612151575b50506120ef90611f47565b93826120fe6120c86000611f66565b1161210857505050565b61214761212d6101d395969461150d612127611d139661214c96611f88565b91611f47565b611535700100000000000000000000000000000000610f56565b611f66565b611f47565b96611d1361214c61214761212d61216f612178966120ef989d611f88565b61150d8a611f47565b9590386120e4565b612198915060203d8111611681576116798183610309565b386120b2565b6121b6915060203d8111611681576116798183610309565b38612058565b9395505050506121e491506101803d81116121f5575b6121dc8183610309565b810190611e94565b9a5096509997509550925050611ffe565b503d6121d2565b1561220357565b60405162461bcd60e51b815260206004820152601c60248201527f4d7573742070726f76696465206e6f6e2d7a65726f20616d6f756e74000000006044820152606490fd5b906020828203126101c2576101d3916113bc565b6001600160a01b039182168152911660208201526060810192916101da9160400152565b6101d39060a01c610da5565b6101d39054612280565b6101d3610160610330565b6080818303126101c2576122b58282611585565b926101d36122c68460208501611711565b936122d48160408601611585565b93606001611585565b80516001600160a01b031682526101da91906101409081906020818101516001600160a01b03169085015260408181015162ffffff169085015260608181015160020b9085015260808181015160020b9085015261234060a082015160a0860152565b61234f60c082015160c0860152565b61235e60e082015160e0860152565b61236f610100820151610100860152565b610120818101516001600160a01b031690850152611c5d565b610160810192916101da91906122dd565b8054821015610b3d57610b34600191600052602060002090565b908154916801000000000000000083101561032b57826123db9160016101da95018155612399565b90610fc2565b6101d6906001600160a01b031660601b90565b60206103619461241782809998959661241760148761241761241799869c6123e1565b01918252565b8061242b6114806000610f56565b11801561292e575b61243c906121fc565b8061244a6114806000610f56565b11612846575b8161245e6114806000610f56565b11612736575b61246c6137f9565b612476600061157b565b91612481600161157b565b9161248c600161228c565b339260009283928992899291426124a461012c610f56565b6124ad91611bdb565b986124b6612296565b6001600160a01b03909b168b526001600160a01b031660208b015262ffffff1660408a015260020b606089015260020b608088015260a087015260c08601526124fe90610f56565b60e085015261250c90610f56565b6101008401526001600160a01b03166101208301526101408201526125507f0000000000000000000000000000000000000000000000000000000000000000610279565b638831645661255e60405190565b809361256b829360e01b90565b825261257a9060048301612388565b03815a608094600091f190811561156d57600091612707575b50916125a033600361123a565b836125aa916123b3565b334283918386906125ba60405190565b9485946125ca94602087016123f4565b6020820181038252036125dd9082610309565b805190602001206125ee6004610b49565b926000926125fc600061157b565b61260590613948565b91612610600161157b565b61261990613948565b909192429495612627610ece565b9788526126379060208901610ed9565b60408701526060860152608085015260a084015260c083015260e082015261265d610f28565b61010082015261266e81600561120c565b61267933600261123a565b816126839161120c565b61268d6004610b49565b61269690611268565b6126a1906004610f63565b805160009160e0016126b1905190565b9133917f19c7fb851f92c8d4f19411743a614909b5753cf16d0ef77d269c04e51eaa7f0e906126df90610f56565b916126e990610666565b926126f390610279565b936126fd60405190565b908152602090a490565b612728915060803d811161272f575b6127208183610309565b8101906122a1565b5050612593565b503d612716565b6127466115bb6115bb600161157b565b60206323b872dd913390612779600061275e30610279565b956127848961276c60405190565b9889978896879560e01b90565b85526004850161225c565b03925af1801561156d5761282a575b506127a46115bb6115bb600161157b565b602063095ea7b3916127d57f0000000000000000000000000000000000000000000000000000000000000000610279565b9061197f600087956127e961197260405190565b03925af1801561156d576127fe575b50612464565b61281e9060203d8111612823575b6128168183610309565b810190612248565b6127f8565b503d61280c565b6128419060203d8111612823576128168183610309565b612793565b6128566115bb6115bb600061157b565b60206323b872dd913390612779600061286e30610279565b9561287c8861276c60405190565b03925af1801561156d57612912575b5061289c6115bb6115bb600061157b565b602063095ea7b3916128cd7f0000000000000000000000000000000000000000000000000000000000000000610279565b9061197f600086956128e161197260405190565b03925af1801561156d576128f6575b50612450565b61290d9060203d8111612823576128168183610309565b6128f0565b6129299060203d8111612823576128168183610309565b61288b565b5061243c826129406114806000610f56565b119050612433565b61018061295f91612957600090565b506000611fa4565b03915afa90811561156d57600091829182918291829182918291612988575b5090919293949596565b955050505050506129a891506101803d81116121f5576121dc8183610309565b945094509450949650949661297e565b906129c1825190565b811015610b3d576020809102010190565b611a746129e9916129e1600090565b50600361123a565b906129f46000610f56565b80612a036114806101d3865190565b1015612a3057612a1a612a1682856129b8565b5190565b8214612a28576001016129f4565b505050600190565b505050600090565b15612a3f57565b60405162461bcd60e51b815260206004820152602d60248201527f436f6e7472616374206e6f7420617070726f76656420746f206d616e6167652060448201527f7468697320706f736974696f6e000000000000000000000000000000000000006064820152608490fd5b6101d36080610330565b805182526020808201516001600160a01b0316908301526101da919060609081906040818101516fffffffffffffffffffffffffffffffff169085015201516fffffffffffffffffffffffffffffffff16910152565b6080810192916101da9190612ab4565b612b4860206118cc7f0000000000000000000000000000000000000000000000000000000000000000610279565b03915afa801561156d57612b67916000916119b357506119173361190a565b612ba96020612b957f0000000000000000000000000000000000000000000000000000000000000000610279565b63081812fc906118e085926115fc60405190565b03915afa90811561156d57600091612d8f575b50612bcc61190a6101c730610279565b148015612ccf575b612c9791612be3604092612a38565b612c506fffffffffffffffffffffffffffffffff612c3781612c1f33612c0f612c0a612aaa565b978852565b6001600160a01b03166020870152565b6fffffffffffffffffffffffffffffffff1684860152565b6fffffffffffffffffffffffffffffffff166060830152565b612c797f0000000000000000000000000000000000000000000000000000000000000000610279565b612c8c600063fc6f7865611deb60405190565b835260048301612b0a565b03925af190811561156d57600080919092612cb157509091565b9050612ccb915060403d8111611e2d57611e218183610309565b9091565b50612cf97f0000000000000000000000000000000000000000000000000000000000000000610279565b90602063e985e9c5923390612d2a612d1030610279565b95612d49612d1d60405190565b9788958694859460e01b90565b84526001600160a01b0390811660048501521660248301526044820190565b03915afa90811561156d57612be3604092612c9794600091612d71575b509250509150612bd4565b612d89915060203d8111612823576128168183610309565b38612d66565b612da7915060203d81116119da576119cc8183610309565b38612bbc565b6101d3612dbb33600261123a565b611bc8565b15612dc757565b60405162461bcd60e51b815260206004820152601360248201527f496e76616c696420696e70757420746f6b656e000000000000000000000000006044820152606490fd5b15612e1357565b60405162461bcd60e51b815260206004820152601460248201527f496e76616c6964206f757470757420746f6b656e0000000000000000000000006044820152606490fd5b15612e5f57565b60405162461bcd60e51b815260206004820152601660248201527f43616e6e6f7420737761702073616d6520746f6b656e000000000000000000006044820152606490fd5b6101d3610100610330565b6101c76101d36101d39290565b80516001600160a01b031682526101da919060e09081906020818101516001600160a01b03169085015260408181015162ffffff16908501526060808201516001600160a01b031690850152612f1760808201516080860152565b612f2660a082015160a0860152565b612f3560c082015160c0860152565b01516001600160a01b0316910152565b610100810192916101da9190612ebc565b601461036194612f7860208396612f78858761241761241799869f9e9b6123e1565b0180926123e1565b90919080612f9461190a6101c7600061157b565b1480156132ef575b612fa590612dc0565b82612fb661190a6101c7600061157b565b1480156132d2575b612fc790612e0c565b612fe481612fdd6001600160a01b03861661190a565b1415612e58565b612ff06115bb82610279565b60206323b872dd913390612779600061300830610279565b956130168961276c60405190565b03925af1801561156d576132b6575b506130326115bb82610279565b602063095ea7b3916130637f0000000000000000000000000000000000000000000000000000000000000000610279565b9061197f6000879561307761197260405190565b03925af1801561156d5761329a575b508083613093600161228c565b33426130a061012c610f56565b6130a991611bdb565b86916000936000956130b9612ea4565b6001600160a01b0390981688526001600160a01b0316602088015262ffffff1660408701526001600160a01b03166060860152608085015260a08401526130ff90610f56565b60c083015261310d90612eaf565b6001600160a01b031660e08201526131447f0000000000000000000000000000000000000000000000000000000000000000610279565b63414bf38961315260405190565b809361315f829360e01b90565b825261316e9060048301612f45565b03815a602094600091f190811561156d5760009161327c575b50923342839183869061319960405190565b9485946131a99460208701612f56565b6020820181038252036131bc9082610309565b80519060200120906131ce6004610b49565b936001936131db90613948565b916131e590613948565b86924294956131f2610ece565b9788526132029060208901610ed9565b60408701526060860152608085015260a084015260c083015260e0820152613228610f28565b61010082015261323981600561120c565b61324433600261123a565b8161324e9161120c565b6132586004610b49565b61326190611268565b61326c906004610f63565b805160019160e0016126b1905190565b613294915060203d8111611681576116798183610309565b38613187565b6132b19060203d8111612823576128168183610309565b613086565b6132cd9060203d8111612823576128168183610309565b613025565b50612fc7836132e761190a6101c7600161157b565b149050612fbe565b50612fa58161330461190a6101c7600161157b565b149050612f9c565b61018061331b91611fa8600090565b03915afa90811561156d57600091613331575090565b61334a91506101803d81116121f5576121dc8183610309565b50505050965050505050505090565b1561336057565b60405162461bcd60e51b815260206004820152601260248201527f496e76616c6964207469636b2072616e676500000000000000000000000000006044820152606490fd5b9190926133b0600090565b50826133bf6114806000610f56565b11801561373e575b6133d0906121fc565b6133ee826133e86133e18460020b90565b9160020b90565b12613359565b826133fc6114806000610f56565b11613656575b836134106114806000610f56565b1161356e575b613420600061157b565b9161342b600161157b565b91613436600161228c565b3392600092839289928992914261344e61012c610f56565b61345791611bdb565b98613460612296565b6001600160a01b03909b168b526001600160a01b031660208b015262ffffff1660408a015260020b606089015260020b608088015260a087015260c08601526134a890610f56565b60e08501526134b690610f56565b6101008401526001600160a01b03166101208301526101408201526134fa7f0000000000000000000000000000000000000000000000000000000000000000610279565b638831645661350860405190565b8093613515829360e01b90565b82526135249060048301612388565b03815a608094600091f190811561156d5760009161354f575b5091334283918386906125ba60405190565b613567915060803d811161272f576127208183610309565b505061353d565b61357e6115bb6115bb600161157b565b60206323b872dd913390612779600061359630610279565b956135a48b61276c60405190565b03925af1801561156d5761363a575b506135c46115bb6115bb600161157b565b602063095ea7b3916135f57f0000000000000000000000000000000000000000000000000000000000000000610279565b9061197f6000899561360961197260405190565b03925af1801561156d5761361e575b50613416565b6136359060203d8111612823576128168183610309565b613618565b6136519060203d8111612823576128168183610309565b6135b3565b6136666115bb6115bb600061157b565b60206323b872dd913390612779600061367e30610279565b9561368c8a61276c60405190565b03925af1801561156d57613722575b506136ac6115bb6115bb600061157b565b602063095ea7b3916136dd7f0000000000000000000000000000000000000000000000000000000000000000610279565b9061197f600088956136f161197260405190565b03925af1801561156d57613706575b50613402565b61371d9060203d8111612823576128168183610309565b613700565b6137399060203d8111612823576128168183610309565b61369b565b506133d0846137506114806000610f56565b1190506133c7565b6137656101d36101d39290565b60020b90565b6137779060020b6133e1565b900390627fffff8213627fffff1983121761127757565b61379a9060020b6133e1565b90811561148f57627fffff198114600019831416611277570590565b6137c29060020b6133e1565b02906137ce8260020b90565b91820361127757565b6137e39060020b6133e1565b0190627fffff198212627fffff83131761127757565b61382760e06114c27f0000000000000000000000000000000000000000000000000000000000000000610279565b825260049082905afa90811561156d57600091613919575b509061388f61384e600a613758565b61388a61388361385f610fa0613758565b61387d61387661386f838a61376b565b869061378e565b85906137b6565b966137d7565b829061378e565b6137b6565b90826138bd6133e17ffffffffffffffffffffffffffffffffffffffffffffffffffffffffffff2764c613758565b126138e8575b816138d36133e1620d89b4613758565b136138da57565b90506101d3620d89b4613758565b91506139137ffffffffffffffffffffffffffffffffffffffffffffffffffffffffffff2764c613758565b916138c3565b613931915060e03d8111611566576115548183610309565b50505050509061383f565b610361816014936123e1565b61396a6139796101d39261395a606090565b506040519283916020830161393c565b60208201810382520382610309565b613aaa565b6139886010610ee3565b7f3031323334353637383961626364656600000000000000000000000000000000602082015290565b6101d361397e565b369037565b906101da6139cb83610ee3565b926020806139d98693610344565b92019103906139b9565b906139ec825190565b811015610b3d570160200190565b610b586101d36101d39290565b613a4690613a41613a1b6101d39460ff1690565b917fff000000000000000000000000000000000000000000000000000000000000001690565b901c90565b7fff000000000000000000000000000000000000000000000000000000000000001690565b610b586101d36101d39260ff1690565b6101d39060f81c613a6b565b6101d36101d36101d39260ff1690565b613a46613aa46101d39290565b60f81b90565b90613ab36139b1565b613ae3613ade6002613ad9613ad3613ac9885190565b61150d6002610f56565b91610f56565b611bdb565b6139be565b906030613afa83613af46000610f56565b906139e3565b536078613b0b83613af46001610f56565b53613b166000610f56565b80613b256114806101d3885190565b1015613bff57613bfa90613b8a613b4a84613af4613b85613b80613b7085888e6139e3565b517fff000000000000000000000000000000000000000000000000000000000000001690565b613b7a60046139fa565b90613a07565b613a7b565b613a87565b613baf8591613ba56002613ad9613ad38761150d6002610f56565b9060001a926139e3565b53613bd8613b4a84613af4613b85613bc884878d6139e3565b613bd2600f613a97565b16613a7b565b613bf38591613ba56003613ad9613ad38761150d6002610f56565b5360010190565b613b16565b50506101d39192509056fea26469706673582212200b946333cabce15ed6dbb102069a08c261a2212b845bd5c1bcb95eefea62ba7264736f6c63430008180033",
  "linkReferences": {},
  "deployedLinkReferences": {}
}