{
  "_format": "hh-sol-artifact-1",
  "contractName": "Add_Swap_Contract",
  "sourceName": "contracts/Add_Swap_Contract.sol",
  "abi": [
    {
      "inputs": [
        {
          "internalType": "address",
          "name": "_swapRouter",
          "type": "address"
        },
        {
          "internalType": "address",
          "name": "_positionManager",
          "type": "address"
        },
        {
          "internalType": "address",
          "name": "_token0",
          "type": "address"
        },
        {
          "internalType": "address",
          "name": "_token1",
          "type": "address"
        }
      ],
      "stateMutability": "nonpayable",
      "type": "constructor"
    },
    {
      "anonymous": false,
      "inputs": [
        {
          "indexed": true,
          "internalType": "uint256",
          "name": "id",
          "type": "uint256"
        },
        {
          "indexed": true,
          "internalType": "enum Add_Swap_Contract.TransactionType",
          "name": "transactionType",
          "type": "uint8"
        },
        {
          "indexed": false,
          "internalType": "bytes32",
          "name": "txHash",
          "type": "bytes32"
        }
      ],
      "name": "TransactionAdded",
      "type": "event"
    },
    {
      "inputs": [
        {
          "internalType": "uint256",
          "name": "amount0Desired",
          "type": "uint256"
        },
        {
          "internalType": "uint256",
          "name": "amount1Desired",
          "type": "uint256"
        }
      ],
      "name": "addLiquidity",
      "outputs": [
        {
          "internalType": "uint256",
          "name": "tokenId",
          "type": "uint256"
        }
      ],
      "stateMutability": "nonpayable",
      "type": "function"
    },
    {
      "inputs": [
        {
          "internalType": "enum Add_Swap_Contract.TransactionType",
          "name": "transactionType",
          "type": "uint8"
        },
        {
          "internalType": "string",
          "name": "fromToken",
          "type": "string"
        },
        {
          "internalType": "string",
          "name": "toToken",
          "type": "string"
        },
        {
          "internalType": "uint256",
          "name": "fromAmount",
          "type": "uint256"
        },
        {
          "internalType": "uint256",
          "name": "toAmount",
          "type": "uint256"
        },
        {
          "internalType": "bytes32",
          "name": "txHash",
          "type": "bytes32"
        }
      ],
      "name": "addTransactionToHistory",
      "outputs": [],
      "stateMutability": "nonpayable",
      "type": "function"
    },
    {
      "inputs": [],
      "name": "fee",
      "outputs": [
        {
          "internalType": "uint24",
          "name": "",
          "type": "uint24"
        }
      ],
      "stateMutability": "view",
      "type": "function"
    },
    {
      "inputs": [
        {
          "internalType": "address",
          "name": "pool",
          "type": "address"
        }
      ],
      "name": "getPoolBalances",
      "outputs": [
        {
          "internalType": "uint256",
          "name": "bal0",
          "type": "uint256"
        },
        {
          "internalType": "uint256",
          "name": "bal1",
          "type": "uint256"
        }
      ],
      "stateMutability": "view",
      "type": "function"
    },
    {
      "inputs": [
        {
          "internalType": "address",
          "name": "pool",
          "type": "address"
        }
      ],
      "name": "getPoolInfo",
      "outputs": [
        {
          "internalType": "uint160",
          "name": "sqrtPriceX96",
          "type": "uint160"
        },
        {
          "internalType": "int24",
          "name": "tick",
          "type": "int24"
        },
        {
          "internalType": "uint128",
          "name": "liquidity",
          "type": "uint128"
        }
      ],
      "stateMutability": "view",
      "type": "function"
    },
    {
      "inputs": [
        {
          "internalType": "uint256",
          "name": "tokenId",
          "type": "uint256"
        }
      ],
      "name": "getPosition",
      "outputs": [
        {
          "internalType": "uint128",
          "name": "liquidity",
          "type": "uint128"
        }
      ],
      "stateMutability": "view",
      "type": "function"
    },
    {
      "inputs": [
        {
          "internalType": "address",
          "name": "pool",
          "type": "address"
        }
      ],
      "name": "getTokenPrice",
      "outputs": [
        {
          "internalType": "uint256",
          "name": "price",
          "type": "uint256"
        }
      ],
      "stateMutability": "view",
      "type": "function"
    },
    {
      "inputs": [],
      "name": "getTransactionHistory",
      "outputs": [
        {
          "components": [
            {
              "internalType": "uint256",
              "name": "id",
              "type": "uint256"
            },
            {
              "internalType": "enum Add_Swap_Contract.TransactionType",
              "name": "transactionType",
              "type": "uint8"
            },
            {
              "internalType": "string",
              "name": "fromToken",
              "type": "string"
            },
            {
              "internalType": "string",
              "name": "toToken",
              "type": "string"
            },
            {
              "internalType": "uint256",
              "name": "fromAmount",
              "type": "uint256"
            },
            {
              "internalType": "uint256",
              "name": "toAmount",
              "type": "uint256"
            },
            {
              "internalType": "uint256",
              "name": "timestamp",
              "type": "uint256"
            },
            {
              "internalType": "bytes32",
              "name": "hash",
              "type": "bytes32"
            },
            {
              "internalType": "string",
              "name": "status",
              "type": "string"
            }
          ],
          "internalType": "struct Add_Swap_Contract.Transaction[]",
          "name": "",
          "type": "tuple[]"
        }
      ],
      "stateMutability": "view",
      "type": "function"
    },
    {
      "inputs": [],
      "name": "positionManager",
      "outputs": [
        {
          "internalType": "contract INonfungiblePositionManager",
          "name": "",
          "type": "address"
        }
      ],
      "stateMutability": "view",
      "type": "function"
    },
    {
      "inputs": [
        {
          "internalType": "address",
          "name": "inputToken",
          "type": "address"
        },
        {
          "internalType": "address",
          "name": "outputToken",
          "type": "address"
        },
        {
          "internalType": "uint256",
          "name": "amountIn",
          "type": "uint256"
        }
      ],
      "name": "swapExactInputSingle",
      "outputs": [
        {
          "internalType": "uint256",
          "name": "amountOut",
          "type": "uint256"
        }
      ],
      "stateMutability": "nonpayable",
      "type": "function"
    },
    {
      "inputs": [],
      "name": "swapRouter",
      "outputs": [
        {
          "internalType": "contract ISwapRouter",
          "name": "",
          "type": "address"
        }
      ],
      "stateMutability": "view",
      "type": "function"
    },
    {
      "inputs": [],
      "name": "token0",
      "outputs": [
        {
          "internalType": "address",
          "name": "",
          "type": "address"
        }
      ],
      "stateMutability": "view",
      "type": "function"
    },
    {
      "inputs": [],
      "name": "token1",
      "outputs": [
        {
          "internalType": "address",
          "name": "",
          "type": "address"
        }
      ],
      "stateMutability": "view",
      "type": "function"
    },
    {
      "inputs": [
        {
          "internalType": "uint256",
          "name": "",
          "type": "uint256"
        }
      ],
      "name": "txHistory",
      "outputs": [
        {
          "internalType": "uint256",
          "name": "id",
          "type": "uint256"
        },
        {
          "internalType": "enum Add_Swap_Contract.TransactionType",
          "name": "transactionType",
          "type": "uint8"
        },
        {
          "internalType": "string",
          "name": "fromToken",
          "type": "string"
        },
        {
          "internalType": "string",
          "name": "toToken",
          "type": "string"
        },
        {
          "internalType": "uint256",
          "name": "fromAmount",
          "type": "uint256"
        },
        {
          "internalType": "uint256",
          "name": "toAmount",
          "type": "uint256"
        },
        {
          "internalType": "uint256",
          "name": "timestamp",
          "type": "uint256"
        },
        {
          "internalType": "bytes32",
          "name": "hash",
          "type": "bytes32"
        },
        {
          "internalType": "string",
          "name": "status",
          "type": "string"
        }
      ],
      "stateMutability": "view",
      "type": "function"
    }
  ],
  "bytecode": "0x60c0604052346200007057620000226200001862000141565b9291909162000211565b604051611e16620002578239608051818181610954015281816119c30152611aa5015260a05181818161073b0152818161147c015281816114f9015281816116370152611d4f0152611e1690f35b600080fd5b634e487b7160e01b600052604160045260246000fd5b90601f01601f191681019081106001600160401b03821117620000ad57604052565b62000075565b90620000ca620000c260405190565b92836200008b565b565b6001600160a01b031690565b90565b6001600160a01b038116036200007057565b90505190620000ca82620000db565b6080818303126200007057620001138282620000ed565b92620000d8620001278460208501620000ed565b93620001378160408601620000ed565b93606001620000ed565b620001646200206d803803806200015881620000b3565b928339810190620000fc565b90919293565b9062ffffff60a01b9060a01b5b9181191691161790565b62000191620000d8620000d89290565b62ffffff1690565b90620001ad620000d8620001b59262000181565b82546200016a565b9055565b620000d890620000cc906001600160a01b031682565b620000d890620001b9565b620000d890620001cf565b906001600160a01b039062000177565b9062000209620000d8620001b592620001da565b8254620001e5565b91620002436200024e926200023a620000ca9695620002346101f4600162000199565b620001da565b608052620001da565b60a0526000620001f5565b6001620001f556fe6080604052600436101561001257600080fd5b60003560e01c806306bfa938146100f25780630dfe1681146100ed5780634abf5dc1146100e857806375fcbd86146100e3578063791b98bc146100de5780637b50f8c5146100d95780639cd441da146100d4578063b76d4fc3146100cf578063c31c9c07146100ca578063ceb92012146100c5578063d02641a0146100c0578063d21220a7146100bb578063ddca3f43146100b65763eb02c3010361011857610a5f565b610a2e565b6109eb565b6109c4565b6109a8565b61093f565b610918565b6107cb565b61077a565b610726565b6106ae565b610390565b6101e9565b610186565b6001600160a01b031690565b90565b6001600160a01b0381165b0361011857565b600080fd5b9050359061012a82610106565b565b90602082820312610118576101039161011d565b9052565b6001600160a01b03909116815260608101939261012a92909160409161016e9060020b6020830152565b01906fffffffffffffffffffffffffffffffff169052565b34610118576101b06101a161019c36600461012c565b610bbd565b60405191939193849384610144565b0390f35b600091031261011857565b610103916008021c6001600160a01b031690565b9061010391546101bf565b6101036000806101d3565b34610118576101f93660046101b4565b6101b06102046101de565b604051918291826001600160a01b03909116815260200190565b6002111561011857565b9050359061012a8261021e565b634e487b7160e01b600052604160045260246000fd5b90601f01601f1916810190811067ffffffffffffffff82111761026d57604052565b610235565b9061012a61027f60405190565b928361024b565b67ffffffffffffffff811161026d57602090601f01601f19160190565b0190565b90826000939282370152565b909291926102c86102c382610286565b610272565b938185526020850190828401116101185761012a926102a7565b9080601f8301121561011857816020610103933591016102b3565b80610111565b9050359061012a826102fd565b909160c082840312610118576103268383610228565b92602083013567ffffffffffffffff811161011857816103479185016102e2565b92604081013567ffffffffffffffff811161011857826103689183016102e2565b926101036103798460608501610303565b936103878160808601610303565b9360a001610303565b34610118576103af6103a3366004610310565b94939093929192611055565b604051005b906020828203126101185761010391610303565b634e487b7160e01b600052603260045260246000fd5b8054821015610401576103f8600991600052602060002090565b91020190600090565b6103c8565b6101039081565b6101039054610406565b634e487b7160e01b600052602260045260246000fd5b906001600283049216801561044d575b602083101461044857565b610417565b91607f169161043d565b8054600093929161047461046a8361042d565b8085529360200190565b91600181169081156104c6575060011461048d57505050565b6104a09192939450600052602060002090565b916000925b8184106104b25750500190565b8054848401526020909301926001016104a5565b92949550505060ff1916825215156020020190565b9061010391610457565b9061012a6104ff926104f660405190565b938480926104db565b038361024b565b600290610511825490565b81101561011857610521916103de565b5061052b8161040d565b9161053a600183015460ff1690565b91610547600282016104e5565b91610554600383016104e5565b916105616004820161040d565b9161056e6005830161040d565b9161057b6006820161040d565b91610103600861058d6007850161040d565b93016104e5565b634e487b7160e01b600052602160045260246000fd5b600211156105b457565b610594565b9061012a826105aa565b610103906105b9565b610140906105c3565b60005b8381106105e85750506000910152565b81810151838201526020016105d8565b6106196106226020936102a39361060d815190565b80835293849260200190565b958691016105d5565b601f01601f191690565b9561068b6106836106a0979a9661067561069295610699986101039f9d986106689060208f6106616101208201966000830152565b01906105cc565b8c820360408e01526105f8565b908a820360608c01526105f8565b996080890152565b60a0870152565b60c0850152565b60e0830152565b6101008184039101526105f8565b34610118576101b06106c96106c43660046103b4565b610506565b956106dc99979995919594929460405190565b998a998a61062c565b6100f7610103610103926001600160a01b031690565b610103906106e5565b610103906106fb565b61014090610704565b60208101929161012a919061070d565b34610118576107363660046101b4565b6101b07f00000000000000000000000000000000000000000000000000000000000000005b60405191829182610716565b90815260408101929161012a9160200152565b346101185761079261078d36600461012c565b611151565b906101b061079f60405190565b92839283610767565b919060408382031261011857610103906107c28185610303565b93602001610303565b34610118576101b06107e76107e13660046107a8565b906113ba565b6040519182918290815260200190565b8051825261010391610100610843610831610120840161081f602087015160208701906105cc565b604086015185820360408701526105f8565b606085015184820360608601526105f8565b9261085360808201516080850152565b61086260a082015160a0850152565b61087160c082015160c0850152565b61088060e082015160e0850152565b0151906101008184039101526105f8565b90610103916107f7565b906108b16108a7835190565b8083529160200190565b90816108c36020830284019460200190565b926000915b8383106108d757505050505090565b909192939460206108fa6108f383856001950387528951610891565b9760200190565b93019301919392906108c8565b60208082526101039291019061089b565b34610118576109283660046101b4565b6101b06109336118a9565b60405191829182610907565b346101185761094f3660046101b4565b6101b07f000000000000000000000000000000000000000000000000000000000000000061075b565b909160608284031261011857610103610991848461011d565b9361099f816020860161011d565b93604001610303565b34610118576101b06107e76109be366004610978565b91611965565b34610118576101b06107e76109da36600461012c565b611b95565b610103600060016101d3565b34610118576109fb3660046101b4565b6101b06102046109df565b610103916008021c5b62ffffff1690565b906101039154610a06565b61010360146001610a17565b3461011857610a3e3660046101b4565b6101b0610a49610a22565b6040519182918262ffffff909116815260200190565b34610118576101b0610a7a610a753660046103b4565b611d3a565b604051918291826fffffffffffffffffffffffffffffffff909116815260200190565b6001600160a01b038116610111565b9050519061012a82610a9d565b6101118160020b90565b9050519061012a82610ab9565b61ffff8116610111565b9050519061012a82610ad0565b60ff8116610111565b9050519061012a82610ae7565b801515610111565b9050519061012a82610afd565b60e08183031261011857610b268282610aac565b92610b348360208401610ac3565b92610b428160408501610ada565b92610b508260608301610ada565b92610103610b618460808501610ada565b93610b6f8160a08601610af0565b9360c001610b05565b6040513d6000823e3d90fd5b6fffffffffffffffffffffffffffffffff8116610111565b9050519061012a82610b84565b906020828203126101185761010391610b9c565b90610bed9060e0610bd5610bd085610704565b610704565b633850c7bd90610be460405190565b94859260e01b90565b825260049082905afa918215610c7757600080919093610c7c575b506020610c1c610bd0610c34939596610704565b631a68650290610c2b60405190565b93849260e01b90565b825260049082905afa908115610c7757600091610c4f575090565b610103915060203d8111610c70575b610c68818361024b565b810190610ba9565b503d610c5e565b610b78565b610bd09350610c349150610c1c610cab60209260e03d8111610cba575b610ca3818361024b565b810190610b12565b50505050509350945050610c08565b503d610c99565b6101036101036101039290565b634e487b7160e01b600052601160045260246000fd5b91908201809211610cf157565b610cce565b610103610120610272565b90610140906105b9565b90610d186102c383610286565b918252565b610d276009610d0b565b7f636f6e6669726d65640000000000000000000000000000000000000000000000602082015290565b610103610d1d565b634e487b7160e01b600052600060045260246000fd5b90600019905b9181191691161790565b90610d8e610103610d9592610cc1565b8254610d6e565b9055565b61010390516105b9565b9060ff90610d74565b90610dbc610103610d95926105c3565b8254610da3565b91906008610d74910291610dd8600019841b90565b921b90565b9190610dee610103610d9593610cc1565b908354610dc3565b61012a91600091610ddd565b818110610e0d575050565b80610e1b6000600193610df6565b01610e02565b9190601f8111610e3057505050565b610e4261012a93600052602060002090565b906020601f840181900483019310610e64575b6020601f909101040190610e02565b9091508190610e55565b90610e77815190565b9067ffffffffffffffff821161026d57610e9b82610e95855461042d565b85610e21565b602090601f8311600114610ed657610d95929160009183610ecb575b5050600019600883021c1916906002021790565b015190503880610eb7565b601f19831691610eeb85600052602060002090565b9260005b818110610f2957509160029391856001969410610f10575b50505002019055565b01516000196008601f8516021c19169055388080610f07565b91936020600181928787015181550195019201610eef565b9061012a91610e6e565b90610d8e610103610d959290565b61012a9190610fa69061010090600890610f7b81610f75875190565b90610d7e565b610f9460018201610f8e60208801610d99565b90610dac565b610fac60028201610fa6604088015190565b90610f41565b610fbe60038201610fa6606088015190565b610fd060048201610f75608088015190565b610fe260058201610f7560a088015190565b610ff460068201610f7560c088015190565b61100c6007820161100660e088015190565b90610f4b565b0192015190565b91906110225761012a91610f59565b610d58565b908154916801000000000000000083101561026d578261104f91600161012a950181556103de565b90611013565b9493929190916002611065905490565b61106f6001610cc1565b61107891610ce4565b9385934293919291908861108a610cf6565b97885261109a9060208901610d01565b60408701526060860152608085015260a084015260c083015260e08201526110c0610d50565b6101008201526110d1816002611027565b519190917ffe755374e5bb9887176d0b41dba6062dcf4e8e75ba911bf77fb74c759ae05b9e9061110090610cc1565b9161110a906105c3565b9261111460405190565b908152602090a3565b610103906100f7565b610103905461111d565b9050519061012a826102fd565b906020828203126101185761010391611130565b9061119f6020611167610bd0610bd06000611126565b6370a0823190611188869261117b60405190565b9586948593849360e01b90565b83526001600160a01b031660048301526024820190565b03915afa908115610c77576111dc9160209160009161121a575b50936111cb610bd0610bd06001611126565b6111886370a0823161117b60405190565b03915afa908115610c77576000916111f2575090565b610103915060203d8111611213575b61120b818361024b565b81019061113d565b503d611201565b6112319150823d81116112135761120b818361024b565b386111b9565b906020828203126101185761010391610b05565b6001600160a01b0391821681529116602082015260608101929161012a9160400152565b6001600160a01b03909116815260408101929161012a9160200152565b6101039060a01c610a0f565b610103905461128c565b610103610160610272565b6112ba6101036101039290565b60020b90565b608081830312610118576112d48282611130565b926101036112e58460208501610b9c565b936112f38160408601611130565b93606001611130565b80516001600160a01b0316825261012a91906101409081906020818101516001600160a01b03169085015260408181015162ffffff169085015260608181015160020b9085015260808181015160020b9085015261135f60a082015160a0860152565b61136e60c082015160c0860152565b61137d60e082015160e0860152565b61138e610100820151610100860152565b610120818101516001600160a01b0316908501520151910152565b6101608101929161012a91906112fc565b906113cb610bd0610bd06000611126565b60206323b872dd9133906113fe60006113e330610704565b95611409896113f160405190565b9889978896879560e01b90565b85526004850161124b565b03925af18015610c7757611733575b50611429610bd0610bd06001611126565b60206323b872dd9133906113fe600061144130610704565b9561144f886113f160405190565b03925af18015610c7757611717575b5061146f610bd0610bd06000611126565b602063095ea7b3916114a07f0000000000000000000000000000000000000000000000000000000000000000610704565b906114c1600087956114cc6114b460405190565b9788968795869460e01b90565b84526004840161126f565b03925af18015610c77576116fb575b506114ec610bd0610bd06001611126565b602063095ea7b39161151d7f0000000000000000000000000000000000000000000000000000000000000000610704565b906114c1600086956115316114b460405190565b03925af18015610c77576116cf575b5061154b6000611126565b916115566001611126565b916115616001611298565b917ffffffffffffffffffffffffffffffffffffffffffffffffffffffffffff2764c91620d89b491600092600094339642607861159d90610cc1565b6115a691610ce4565b986115af6112a2565b6001600160a01b03909b168b526001600160a01b031660208b015262ffffff1660408a01526115dd906112ad565b60020b60608901526115ee906112ad565b60020b608088015260a087015260c086015261160990610cc1565b60e085015261161790610cc1565b6101008401526001600160a01b031661012083015261014082015261165b7f0000000000000000000000000000000000000000000000000000000000000000610704565b638831645661166960405190565b8093611676829360e01b90565b825261168590600483016113a9565b03815a608094600091f1908115610c77576000916116a1575090565b6116c2915060803d81116116c8575b6116ba818361024b565b8101906112c0565b50505090565b503d6116b0565b6116ef9060203d81116116f4575b6116e7818361024b565b810190611237565b611540565b503d6116dd565b6117129060203d81116116f4576116e7818361024b565b6114db565b61172e9060203d81116116f4576116e7818361024b565b61145e565b61174a9060203d81116116f4576116e7818361024b565b611418565b67ffffffffffffffff811161026d5760208091020190565b90610d186102c38361174f565b9061012a61183a6008611785610cf6565b946117966117928261040d565b8752565b6117b06117a7600183015460ff1690565b60208801610d01565b6117c66117bf600283016104e5565b6040880152565b6117dc6117d5600383016104e5565b6060880152565b6117f26117eb6004830161040d565b6080880152565b6118086118016005830161040d565b60a0880152565b61181e6118176006830161040d565b60c0880152565b61183461182d6007830161040d565b60e0880152565b016104e5565b610100840152565b61010390611774565b90611854825490565b61185d81611767565b926118716020850191600052602060002090565b6000915b8383106118825750505050565b6009602060019261189285611842565b815201920192019190611875565b6101039061184b565b61010360026118a0565b610103610100610272565b6100f76101036101039290565b80516001600160a01b0316825261012a919060e09081906020818101516001600160a01b03169085015260408181015162ffffff16908501526060808201516001600160a01b03169085015261192660808201516080860152565b61193560a082015160a0860152565b61194460c082015160c0860152565b01516001600160a01b0316910152565b6101008101929161012a91906118cb565b909190611974610bd082610704565b60206323b872dd9133906113fe600061198c30610704565b9561199a896113f160405190565b03925af18015610c7757611b2b575b506119b6610bd082610704565b602063095ea7b3916119e77f0000000000000000000000000000000000000000000000000000000000000000610704565b906114c1600087956119fb6114b460405190565b03925af18015610c7757611b0f575b509190611a176001611298565b90339042611a25603c610cc1565b611a2e91610ce4565b9091600093600095611a3e6118b3565b6001600160a01b0390981688526001600160a01b0316602088015262ffffff1660408701526001600160a01b03166060860152608085015260a0840152611a8490610cc1565b60c0830152611a92906118be565b6001600160a01b031660e0820152611ac97f0000000000000000000000000000000000000000000000000000000000000000610704565b63414bf389611ad760405190565b8093611ae4829360e01b90565b8252611af39060048301611954565b03815a602094600091f1908115610c77576000916111f2575090565b611b269060203d81116116f4576116e7818361024b565b611a0a565b611b429060203d81116116f4576116e7818361024b565b6119a9565b610103610103610103926001600160a01b031690565b81810292918115918404141715610cf157565b634e487b7160e01b600052601260045260246000fd5b8115611b90570490565b611b70565b60e0611baf610bd0611bbe93611ba9600090565b50610704565b633850c7bd90610c2b60405190565b825260049082905afa908115610c775761010391611bf791600091611c1f575b50611bf1611beb82611b47565b91611b47565b90611b5d565b611c197801000000000000000000000000000000000000000000000000610cc1565b90611b86565b611c37915060e03d8111610cba57610ca3818361024b565b5050505050611bde565b6bffffffffffffffffffffffff8116610111565b9050519061012a82611c41565b9050519061012a82610106565b62ffffff8116610111565b9050519061012a82611c6f565b90916101808284031261011857611c9e8383611c55565b92611cac8160208501611c62565b92611cba8260408301611c62565b92611cc88360608401611c62565b92611cd68160808501611c7a565b92611ce48260a08301610ac3565b92611cf28360c08401610ac3565b92611d008160e08501610b9c565b92611d0f826101008301611130565b92610103611d21846101208501611130565b93611d30816101408601610b9c565b9361016001610b9c565b610180611d9291611d49600090565b50611d737f0000000000000000000000000000000000000000000000000000000000000000610704565b611d846399fbab8861117b60405190565b835260048301526024820190565b03915afa908115610c7757600091611da8575090565b611dca91506101803d8111611dd9575b611dc2818361024b565b810190611c87565b50505050965050505050505090565b503d611db856fea264697066735822122026c36943733957f9bfb450f8a42aac85857d271acc68a332e6f90df383d9f8dc64736f6c63430008180033",
  "linkReferences": {},
  "deployedLinkReferences": {}
}