{
  "_format": "hh-sol-artifact-1",
  "contractName": "Add_Swap_Contract",
  "sourceName": "contracts/Add_Swap_Contract.sol",
  "abi": [
    {
      "inputs": [
        {
          "internalType": "address",
          "name": "_swapRouter",
          "type": "address"
        },
        {
          "internalType": "address",
          "name": "_positionManager",
          "type": "address"
        },
        {
          "internalType": "address",
          "name": "_pool",
          "type": "address"
        }
      ],
      "stateMutability": "nonpayable",
      "type": "constructor"
    },
    {
      "anonymous": false,
      "inputs": [
        {
          "indexed": true,
          "internalType": "uint256",
          "name": "id",
          "type": "uint256"
        },
        {
          "indexed": true,
          "internalType": "enum Add_Swap_Contract.TransactionType",
          "name": "transactionType",
          "type": "uint8"
        },
        {
          "indexed": false,
          "internalType": "bytes32",
          "name": "txHash",
          "type": "bytes32"
        },
        {
          "indexed": true,
          "internalType": "address",
          "name": "user",
          "type": "address"
        }
      ],
      "name": "TransactionAdded",
      "type": "event"
    },
    {
      "inputs": [
        {
          "internalType": "uint256",
          "name": "amount0Desired",
          "type": "uint256"
        },
        {
          "internalType": "uint256",
          "name": "amount1Desired",
          "type": "uint256"
        }
      ],
      "name": "addLiquidity",
      "outputs": [
        {
          "internalType": "uint256",
          "name": "tokenId",
          "type": "uint256"
        }
      ],
      "stateMutability": "nonpayable",
      "type": "function"
    },
    {
      "inputs": [
        {
          "internalType": "uint256",
          "name": "amount0Desired",
          "type": "uint256"
        },
        {
          "internalType": "uint256",
          "name": "amount1Desired",
          "type": "uint256"
        },
        {
          "internalType": "int24",
          "name": "tickLower",
          "type": "int24"
        },
        {
          "internalType": "int24",
          "name": "tickUpper",
          "type": "int24"
        }
      ],
      "name": "addLiquidityWithRange",
      "outputs": [
        {
          "internalType": "uint256",
          "name": "tokenId",
          "type": "uint256"
        }
      ],
      "stateMutability": "nonpayable",
      "type": "function"
    },
    {
      "inputs": [
        {
          "internalType": "enum Add_Swap_Contract.TransactionType",
          "name": "transactionType",
          "type": "uint8"
        },
        {
          "internalType": "string",
          "name": "fromToken",
          "type": "string"
        },
        {
          "internalType": "string",
          "name": "toToken",
          "type": "string"
        },
        {
          "internalType": "uint256",
          "name": "fromAmount",
          "type": "uint256"
        },
        {
          "internalType": "uint256",
          "name": "toAmount",
          "type": "uint256"
        },
        {
          "internalType": "bytes32",
          "name": "txHash",
          "type": "bytes32"
        }
      ],
      "name": "addTransactionToHistory",
      "outputs": [],
      "stateMutability": "nonpayable",
      "type": "function"
    },
    {
      "inputs": [
        {
          "internalType": "uint256",
          "name": "",
          "type": "uint256"
        }
      ],
      "name": "allTransactions",
      "outputs": [
        {
          "internalType": "uint256",
          "name": "id",
          "type": "uint256"
        },
        {
          "internalType": "enum Add_Swap_Contract.TransactionType",
          "name": "transactionType",
          "type": "uint8"
        },
        {
          "internalType": "string",
          "name": "fromToken",
          "type": "string"
        },
        {
          "internalType": "string",
          "name": "toToken",
          "type": "string"
        },
        {
          "internalType": "uint256",
          "name": "fromAmount",
          "type": "uint256"
        },
        {
          "internalType": "uint256",
          "name": "toAmount",
          "type": "uint256"
        },
        {
          "internalType": "uint256",
          "name": "timestamp",
          "type": "uint256"
        },
        {
          "internalType": "bytes32",
          "name": "hash",
          "type": "bytes32"
        },
        {
          "internalType": "string",
          "name": "status",
          "type": "string"
        }
      ],
      "stateMutability": "view",
      "type": "function"
    },
    {
      "inputs": [
        {
          "internalType": "uint256",
          "name": "tokenId",
          "type": "uint256"
        }
      ],
      "name": "approvePositionManager",
      "outputs": [],
      "stateMutability": "nonpayable",
      "type": "function"
    },
    {
      "inputs": [
        {
          "internalType": "uint256",
          "name": "tokenId",
          "type": "uint256"
        }
      ],
      "name": "collectFees",
      "outputs": [
        {
          "internalType": "uint256",
          "name": "amount0",
          "type": "uint256"
        },
        {
          "internalType": "uint256",
          "name": "amount1",
          "type": "uint256"
        }
      ],
      "stateMutability": "nonpayable",
      "type": "function"
    },
    {
      "inputs": [],
      "name": "fee",
      "outputs": [
        {
          "internalType": "uint24",
          "name": "",
          "type": "uint24"
        }
      ],
      "stateMutability": "view",
      "type": "function"
    },
    {
      "inputs": [],
      "name": "getAllTransactionHistory",
      "outputs": [
        {
          "components": [
            {
              "internalType": "uint256",
              "name": "id",
              "type": "uint256"
            },
            {
              "internalType": "enum Add_Swap_Contract.TransactionType",
              "name": "transactionType",
              "type": "uint8"
            },
            {
              "internalType": "string",
              "name": "fromToken",
              "type": "string"
            },
            {
              "internalType": "string",
              "name": "toToken",
              "type": "string"
            },
            {
              "internalType": "uint256",
              "name": "fromAmount",
              "type": "uint256"
            },
            {
              "internalType": "uint256",
              "name": "toAmount",
              "type": "uint256"
            },
            {
              "internalType": "uint256",
              "name": "timestamp",
              "type": "uint256"
            },
            {
              "internalType": "bytes32",
              "name": "hash",
              "type": "bytes32"
            },
            {
              "internalType": "string",
              "name": "status",
              "type": "string"
            }
          ],
          "internalType": "struct Add_Swap_Contract.Transaction[]",
          "name": "",
          "type": "tuple[]"
        }
      ],
      "stateMutability": "view",
      "type": "function"
    },
    {
      "inputs": [],
      "name": "getCurrentTick",
      "outputs": [
        {
          "internalType": "int24",
          "name": "tick",
          "type": "int24"
        }
      ],
      "stateMutability": "view",
      "type": "function"
    },
    {
      "inputs": [],
      "name": "getPool",
      "outputs": [
        {
          "internalType": "address",
          "name": "",
          "type": "address"
        }
      ],
      "stateMutability": "view",
      "type": "function"
    },
    {
      "inputs": [],
      "name": "getPoolBalances",
      "outputs": [
        {
          "internalType": "uint256",
          "name": "bal0",
          "type": "uint256"
        },
        {
          "internalType": "uint256",
          "name": "bal1",
          "type": "uint256"
        }
      ],
      "stateMutability": "view",
      "type": "function"
    },
    {
      "inputs": [],
      "name": "getPoolInfo",
      "outputs": [
        {
          "internalType": "uint160",
          "name": "sqrtPriceX96",
          "type": "uint160"
        },
        {
          "internalType": "int24",
          "name": "tick",
          "type": "int24"
        },
        {
          "internalType": "uint128",
          "name": "liquidity",
          "type": "uint128"
        }
      ],
      "stateMutability": "view",
      "type": "function"
    },
    {
      "inputs": [
        {
          "internalType": "uint256",
          "name": "tokenId",
          "type": "uint256"
        }
      ],
      "name": "getPosition",
      "outputs": [
        {
          "internalType": "uint128",
          "name": "liquidity",
          "type": "uint128"
        }
      ],
      "stateMutability": "view",
      "type": "function"
    },
    {
      "inputs": [
        {
          "internalType": "uint256",
          "name": "tokenId",
          "type": "uint256"
        }
      ],
      "name": "getPositionDetails",
      "outputs": [
        {
          "internalType": "address",
          "name": "positionToken0",
          "type": "address"
        },
        {
          "internalType": "address",
          "name": "positionToken1",
          "type": "address"
        },
        {
          "internalType": "uint128",
          "name": "liquidity",
          "type": "uint128"
        },
        {
          "internalType": "uint256",
          "name": "feeGrowthInside0LastX128",
          "type": "uint256"
        },
        {
          "internalType": "uint256",
          "name": "feeGrowthInside1LastX128",
          "type": "uint256"
        },
        {
          "internalType": "uint128",
          "name": "tokensOwed0",
          "type": "uint128"
        },
        {
          "internalType": "uint128",
          "name": "tokensOwed1",
          "type": "uint128"
        }
      ],
      "stateMutability": "view",
      "type": "function"
    },
    {
      "inputs": [
        {
          "internalType": "uint256",
          "name": "tokenId",
          "type": "uint256"
        }
      ],
      "name": "getPositionFees",
      "outputs": [
        {
          "internalType": "uint256",
          "name": "fees0",
          "type": "uint256"
        },
        {
          "internalType": "uint256",
          "name": "fees1",
          "type": "uint256"
        }
      ],
      "stateMutability": "view",
      "type": "function"
    },
    {
      "inputs": [],
      "name": "getTokenPrice",
      "outputs": [
        {
          "internalType": "uint256",
          "name": "price",
          "type": "uint256"
        }
      ],
      "stateMutability": "view",
      "type": "function"
    },
    {
      "inputs": [],
      "name": "getUserPositions",
      "outputs": [
        {
          "internalType": "uint256[]",
          "name": "",
          "type": "uint256[]"
        }
      ],
      "stateMutability": "view",
      "type": "function"
    },
    {
      "inputs": [
        {
          "internalType": "address",
          "name": "_user",
          "type": "address"
        }
      ],
      "name": "getUserTransactionHistory",
      "outputs": [
        {
          "components": [
            {
              "internalType": "uint256",
              "name": "id",
              "type": "uint256"
            },
            {
              "internalType": "enum Add_Swap_Contract.TransactionType",
              "name": "transactionType",
              "type": "uint8"
            },
            {
              "internalType": "string",
              "name": "fromToken",
              "type": "string"
            },
            {
              "internalType": "string",
              "name": "toToken",
              "type": "string"
            },
            {
              "internalType": "uint256",
              "name": "fromAmount",
              "type": "uint256"
            },
            {
              "internalType": "uint256",
              "name": "toAmount",
              "type": "uint256"
            },
            {
              "internalType": "uint256",
              "name": "timestamp",
              "type": "uint256"
            },
            {
              "internalType": "bytes32",
              "name": "hash",
              "type": "bytes32"
            },
            {
              "internalType": "string",
              "name": "status",
              "type": "string"
            }
          ],
          "internalType": "struct Add_Swap_Contract.Transaction[]",
          "name": "",
          "type": "tuple[]"
        }
      ],
      "stateMutability": "view",
      "type": "function"
    },
    {
      "inputs": [
        {
          "internalType": "address",
          "name": "user",
          "type": "address"
        },
        {
          "internalType": "uint256",
          "name": "tokenId",
          "type": "uint256"
        }
      ],
      "name": "ownsPosition",
      "outputs": [
        {
          "internalType": "bool",
          "name": "",
          "type": "bool"
        }
      ],
      "stateMutability": "view",
      "type": "function"
    },
    {
      "inputs": [],
      "name": "pool",
      "outputs": [
        {
          "internalType": "contract IUniswapV3Pool",
          "name": "",
          "type": "address"
        }
      ],
      "stateMutability": "view",
      "type": "function"
    },
    {
      "inputs": [],
      "name": "positionManager",
      "outputs": [
        {
          "internalType": "contract INonfungiblePositionManager",
          "name": "",
          "type": "address"
        }
      ],
      "stateMutability": "view",
      "type": "function"
    },
    {
      "inputs": [
        {
          "internalType": "uint256",
          "name": "tokenId",
          "type": "uint256"
        },
        {
          "internalType": "uint128",
          "name": "liquidity",
          "type": "uint128"
        }
      ],
      "name": "removeLiquidity",
      "outputs": [
        {
          "internalType": "uint256",
          "name": "amount0",
          "type": "uint256"
        },
        {
          "internalType": "uint256",
          "name": "amount1",
          "type": "uint256"
        }
      ],
      "stateMutability": "nonpayable",
      "type": "function"
    },
    {
      "inputs": [
        {
          "internalType": "address",
          "name": "inputToken",
          "type": "address"
        },
        {
          "internalType": "address",
          "name": "outputToken",
          "type": "address"
        },
        {
          "internalType": "uint256",
          "name": "amountIn",
          "type": "uint256"
        }
      ],
      "name": "swapExactInputSingle",
      "outputs": [
        {
          "internalType": "uint256",
          "name": "amountOut",
          "type": "uint256"
        }
      ],
      "stateMutability": "nonpayable",
      "type": "function"
    },
    {
      "inputs": [],
      "name": "swapRouter",
      "outputs": [
        {
          "internalType": "contract ISwapRouter",
          "name": "",
          "type": "address"
        }
      ],
      "stateMutability": "view",
      "type": "function"
    },
    {
      "inputs": [],
      "name": "token0",
      "outputs": [
        {
          "internalType": "address",
          "name": "",
          "type": "address"
        }
      ],
      "stateMutability": "view",
      "type": "function"
    },
    {
      "inputs": [],
      "name": "token1",
      "outputs": [
        {
          "internalType": "address",
          "name": "",
          "type": "address"
        }
      ],
      "stateMutability": "view",
      "type": "function"
    }
  ],
  "bytecode": "0x60e06040523462000102576200001f62000018620001c6565b9162000357565b604051613c5d6200052c8239608051818181610a520152818161305c015261313d015260a05181818161082c015281816118bc0152818161193601528181611c9401528181611d7501528181611fc201528181612540015281816127c5015281816128bd01528181612b3801528181612b8501528181612c6901528181612ce9015281816134f3015281816135ee01526136d6015260c0518181816102b001528181610ebe015281816114b2015281816115e2015281816116c4015281816117500152818161179c015281816120210152818161207801526138200152613c5d90f35b600080fd5b634e487b7160e01b600052604160045260246000fd5b90601f01601f191681019081106001600160401b038211176200013f57604052565b62000107565b906200015c6200015460405190565b92836200011d565b565b6001600160a01b031690565b90565b6001600160a01b0381165b036200010257565b905051906200015c826200016d565b909160608284031262000102576200016a620001ac848462000180565b93620001bc816020860162000180565b9360400162000180565b620001e96200418980380380620001dd8162000145565b9283398101906200018f565b909192565b9062ffffff60a01b9060a01b5b9181191691161790565b620002156200016a6200016a9290565b62ffffff1690565b90620002316200016a620002399262000205565b8254620001ee565b9055565b6200016a906200015e906001600160a01b031682565b6200016a906200023d565b6200016a9062000253565b516001600160a01b031690565b9060208282031262000102576200016a9162000180565b6040513d6000823e3d90fd5b906001600160a01b0390620001fb565b90620002bd6200016a62000239926200025e565b825462000299565b62ffffff811662000178565b905051906200015c82620002c5565b9060208282031262000102576200016a91620002d1565b620002156200016a6200016a9262ffffff1690565b90620002316200016a6200023992620002f7565b6200016a6200016a6200016a9290565b9060001990620001fb565b906200034f6200016a620002399262000320565b825462000330565b6200038d92916200037b6200038492620003756101f460016200021d565b6200025e565b6080526200025e565b60a0526200025e565b60c052620003bf6020620003a66200037560c062000269565b630dfe168190620003b660405190565b93849260e01b90565b825260049082905afa8015620004cd57620003e69160009162000508575b506000620002a9565b6200040c6020620003fc6200037560c062000269565b63d21220a790620003b660405190565b825260049082905afa8015620004cd576200043391600091620004d3575b506001620002a9565b620004596020620004496200037560c062000269565b63ddca3f4390620003b660405190565b825260049082905afa8015620004cd57620004809160009162000498575b5060016200030c565b6200015c62000490600162000320565b60046200033b565b620004be915060203d8111620004c5575b620004b581836200011d565b810190620002e0565b3862000477565b503d620004a9565b6200028d565b620004f9915060203d811162000500575b620004f081836200011d565b81019062000276565b386200042a565b503d620004e4565b62000524915060203d81116200050057620004f081836200011d565b38620003dd56fe6080604052600436101561001257600080fd5b60003560e01c8063026b1d5f146101b25780630dfe1681146101ad57806316f0115b146101a85780634abf5dc1146101a35780634b94f50e1461019e57806352375bb11461019957806353aad1d91461019457806360246c881461018f578063630797031461018a57806365e34c0914610185578063784394bc14610180578063791b98bc1461017b578063911757ba14610176578063972960c5146101715780639cd441da1461016c5780639ecceb5e14610167578063a3a8d0b614610162578063b17acdcd1461015d578063c31c9c0714610158578063c51309db14610153578063ceb920121461014e578063d21220a714610149578063d7ff071414610144578063ddca3f431461013f578063eb02c3011461013a5763fa1b8025036101c257610e9a565b610e09565b610dd8565b610d79565b610afd565b610ad5565b610a8a565b610a3d565b610a25565b6109f7565b61098d565b6108ec565b6108b1565b610898565b610817565b6107f0565b610610565b610591565b610553565b6104e1565b6104b3565b610475565b610451565b61029b565b61023f565b6101dc565b60009103126101c257565b600080fd5b6001600160a01b031690565b90565b9052565b565b346101c2576101ec3660046101b7565b6102116101f7610eb9565b604051918291826001600160a01b03909116815260200190565b0390f35b6101d3916008021c6001600160a01b031690565b906101d39154610215565b6101d3600080610229565b346101c25761024f3660046101b7565b6102116101f7610234565b6101c76101d36101d3926001600160a01b031690565b6101d39061025a565b6101d390610270565b6101d690610279565b6020810192916101da9190610282565b346101c2576102ab3660046101b7565b6102117f00000000000000000000000000000000000000000000000000000000000000005b6040519182918261028b565b600211156101c257565b905035906101da826102dc565b634e487b7160e01b600052604160045260246000fd5b90601f01601f1916810190811067ffffffffffffffff82111761032b57604052565b6102f3565b906101da61033d60405190565b9283610309565b67ffffffffffffffff811161032b57602090601f01601f19160190565b0190565b90826000939282370152565b9092919261038661038182610344565b610330565b938185526020850190828401116101c2576101da92610365565b9080601f830112156101c2578160206101d393359101610371565b805b036101c257565b905035906101da826103bb565b909160c0828403126101c2576103e783836102e6565b92602083013567ffffffffffffffff81116101c257816104089185016103a0565b92604081013567ffffffffffffffff81116101c257826104299183016103a0565b926101d361043a84606085016103c4565b9361044881608086016103c4565b9360a0016103c4565b346101c2576104706104643660046103d1565b94939093929192611290565b604051005b346101c2576104853660046101b7565b6102116104906114a8565b6040519182918290815260200190565b9081526040810192916101da9160200152565b346101c2576104c33660046101b7565b6104cb6115ba565b906102116104d860405190565b928392836104a0565b346101c2576104f13660046101b7565b6102116104fc6116ba565b6040519182918260029190910b815260200190565b6001600160a01b0390911681526060810193926101da92909160409161053b9060020b6020830152565b01906fffffffffffffffffffffffffffffffff169052565b346101c2576105633660046101b7565b61021161056e611746565b60405191939193849384610511565b906020828203126101c2576101d3916103c4565b346101c2576104706105a436600461057d565b6118b2565b906105c96105c26105b8845190565b8084529260200190565b9260200190565b9060005b8181106105da5750505090565b9091926105f76105f06001928651815260200190565b9460200190565b9291016105cd565b60208082526101d3929101906105a9565b346101c2576106203660046101b7565b61021161062b611a7a565b604051918291826105ff565b634e487b7160e01b600052602160045260246000fd5b6002111561065757565b610637565b906101da8261064d565b6101d39061065c565b6101d690610666565b60005b83811061068b5750506000910152565b818101518382015260200161067b565b6106bc6106c5602093610361936106b0815190565b80835293849260200190565b95869101610678565b601f01601f191690565b805182526101d39161010061071b61070961012084016106f76020870151602087019061066f565b6040860151858203604087015261069b565b6060850151848203606086015261069b565b9261072b60808201516080850152565b61073a60a082015160a0850152565b61074960c082015160c0850152565b61075860e082015160e0850152565b01519061010081840391015261069b565b906101d3916106cf565b9061078961077f835190565b8083529160200190565b908161079b6020830284019460200190565b926000915b8383106107af57505050505090565b909192939460206107d26107cb83856001950387528951610769565b9760200190565b93019301919392906107a0565b60208082526101d392910190610773565b346101c2576108003660046101b7565b61021161080b611be5565b604051918291826107df565b346101c2576108273660046101b7565b6102117f00000000000000000000000000000000000000000000000000000000000000006102d0565b6fffffffffffffffffffffffffffffffff81166103bd565b905035906101da82610850565b91906040838203126101c2576101d39061088f81856103c4565b93602001610868565b346101c2576104cb6108ab366004610875565b90611c88565b346101c2576104cb6108c436600461057d565b611fa9565b91906040838203126101c2576101d3906108e381856103c4565b936020016103c4565b346101c2576102116104906109023660046108c9565b90612431565b949290979695939160e08601986000870161092a916001600160a01b03169052565b6001600160a01b031660208601526fffffffffffffffffffffffffffffffff166040850152606084015260808301526fffffffffffffffffffffffffffffffff1660a082015260c0016101da916fffffffffffffffffffffffffffffffff169052565b346101c2576102116109a86109a336600461057d565b61295c565b936109b897959793919360405190565b97889788610908565b6001600160a01b0381166103bd565b905035906101da826109c1565b91906040838203126101c2576101d3906108e381856109d0565b346101c257610211610a13610a0d3660046109dd565b906129e6565b60405191829182901515815260200190565b346101c2576104cb610a3836600461057d565b612b2e565b346101c257610a4d3660046101b7565b6102117f00000000000000000000000000000000000000000000000000000000000000006102d0565b906020828203126101c2576101d3916109d0565b346101c25761021161080b610aa0366004610a76565b612dc1565b90916060828403126101c2576101d3610abe84846109d0565b93610acc81602086016109d0565b936040016103c4565b346101c257610211610490610aeb366004610aa5565b91612f9d565b6101d360006001610229565b346101c257610b0d3660046101b7565b6102116101f7610af1565b634e487b7160e01b600052603260045260246000fd5b8054821015610b5157610b48600991600052602060002090565b91020190600090565b610b18565b6101d39081565b6101d39054610b56565b6101d3905b60ff1690565b6101d39054610b67565b634e487b7160e01b600052602260045260246000fd5b9060016002830492168015610bb2575b6020831014610bad57565b610b7c565b91607f1691610ba2565b80546000939291610bd9610bcf83610b92565b8085529360200190565b9160018116908115610c2b5750600114610bf257505050565b610c059192939450600052602060002090565b916000925b818410610c175750500190565b805484840152602090930192600101610c0a565b92949550505060ff1916825215156020020190565b906101d391610bbc565b906101da610c6492610c5b60405190565b93848092610c40565b0383610309565b600590610c76825490565b8110156101c257610c8691610b2e565b50610c9081610b5d565b91610c9d60018301610b72565b91610caa60028201610c4a565b91610cb760038301610c4a565b91610cc460048201610b5d565b91610cd160058301610b5d565b91610cde60068201610b5d565b916101d36008610cf060078501610b5d565b9301610c4a565b95610d56610d4e610d6b979a96610d40610d5d95610d64986101d39f9d98610d339060208f610d2c6101208201966000830152565b019061066f565b8c820360408e015261069b565b908a820360608c015261069b565b996080890152565b60a0870152565b60c0850152565b60e0830152565b61010081840391015261069b565b346101c257610211610d94610d8f36600461057d565b610c6b565b95610da799979995919594929460405190565b998a998a610cf7565b6101d3916008021c5b62ffffff1690565b906101d39154610db0565b6101d360146001610dc1565b346101c257610de83660046101b7565b610211610df3610dcc565b6040519182918262ffffff909116815260200190565b346101c257610211610e24610e1f36600461057d565b613329565b604051918291826fffffffffffffffffffffffffffffffff909116815260200190565b6103bd8160020b90565b905035906101da82610e47565b6080818303126101c257610e7282826103c4565b926101d3610e8384602085016103c4565b93610e918160408601610e51565b93606001610e51565b346101c257610211610490610eb0366004610e5e565b929190916133c2565b6101d37f0000000000000000000000000000000000000000000000000000000000000000610279565b6101d3610120610330565b906101d69061065c565b90610f0461038183610344565b918252565b610f136009610ef7565b7f636f6e6669726d65640000000000000000000000000000000000000000000000602082015290565b6101d3610f09565b634e487b7160e01b600052600060045260246000fd5b90600019905b9181191691161790565b6101d36101d36101d39290565b90610f876101d3610f8e92610f6a565b8254610f5a565b9055565b6101d3905161065c565b9060ff90610f60565b90610fb56101d3610f8e92610666565b8254610f9c565b91906008610f60910291610fd1600019841b90565b921b90565b9190610fe76101d3610f8e93610f6a565b908354610fbc565b6101da91600091610fd6565b818110611006575050565b806110146000600193610fef565b01610ffb565b9190601f811161102957505050565b61103b6101da93600052602060002090565b906020601f84018190048301931061105d575b6020601f909101040190610ffb565b909150819061104e565b90611070815190565b9067ffffffffffffffff821161032b576110948261108e8554610b92565b8561101a565b602090601f83116001146110cf57610f8e9291600091836110c4575b5050600019600883021c1916906002021790565b0151905038806110b0565b601f198316916110e485600052602060002090565b9260005b81811061112257509160029391856001969410611109575b50505002019055565b01516000196008601f8516021c19169055388080611100565b919360206001819287870151815501950192016110e8565b906101da91611067565b90610f876101d3610f8e9290565b6101da919061119f90610100906008906111748161116e875190565b90610f77565b61118d6001820161118760208801610f92565b90610fa5565b6111a56002820161119f604088015190565b9061113a565b6111b76003820161119f606088015190565b6111c96004820161116e608088015190565b6111db6005820161116e60a088015190565b6111ed6006820161116e60c088015190565b611205600782016111ff60e088015190565b90611144565b0192015190565b919061121b576101da91611152565b610f44565b908154916801000000000000000083101561032b57826112489160016101da95018155610b2e565b9061120c565b9061125890610279565b600052602052604060002090565b634e487b7160e01b600052601160045260246000fd5b600019811461128b5760010190565b611266565b939291909161129f6004610b5d565b938693429391929190876112b1610ee2565b9788526112c19060208901610eed565b60408701526060860152608085015260a084015260c083015260e08201526112e7610f3c565b6101008201526112f8816005611220565b61130333600261124e565b8161130d91611220565b6113176004610b5d565b6113209061127c565b61132b906004610f77565b519033917f19c7fb851f92c8d4f19411743a614909b5753cf16d0ef77d269c04e51eaa7f0e9061135a90610f6a565b9161136490610666565b9261136e90610279565b9361137860405190565b908152602090a4565b905051906101da826109c1565b905051906101da82610e47565b61ffff81166103bd565b905051906101da8261139b565b60ff81166103bd565b905051906101da826113b2565b8015156103bd565b905051906101da826113c8565b60e0818303126101c2576113f18282611381565b926113ff836020840161138e565b9261140d81604085016113a5565b9261141b82606083016113a5565b926101d361142c84608085016113a5565b9361143a8160a086016113bb565b9360c0016113d0565b6040513d6000823e3d90fd5b6101d36101d36101d3926001600160a01b031690565b8181029291811591840414171561128b57565b634e487b7160e01b600052601260045260246000fd5b90611498565b9190565b9081156114a3570490565b611478565b6114ee60e06114d67f0000000000000000000000000000000000000000000000000000000000000000610279565b633850c7bd906114e560405190565b93849260e01b90565b825260049082905afa908115611581576101d3916115279160009161154f575b5061152161151b8261144f565b9161144f565b90611465565b6115497801000000000000000000000000000000000000000000000000610f6a565b9061148e565b611570915060e03d811161157a575b6115688183610309565b8101906113dd565b505050505061150e565b503d61155e565b611443565b6101d3906101c7565b6101d39054611586565b905051906101da826103bb565b906020828203126101c2576101d391611599565b61163460206115d46115cf6115cf600061158f565b610279565b6370a082319061161d6116067f0000000000000000000000000000000000000000000000000000000000000000610279565b9261161060405190565b9586948593849360e01b90565b83526001600160a01b031660048301526024820190565b03915afa9081156115815760009161169c575b509061165e60206115d46115cf6115cf600161158f565b03915afa90811561158157600091611674575090565b6101d3915060203d8111611695575b61168d8183610309565b8101906115a6565b503d611683565b6116b4915060203d81116116955761168d8183610309565b38611647565b6116e860e06114d67f0000000000000000000000000000000000000000000000000000000000000000610279565b825260049082905afa90811561158157600091611703575090565b61171b915060e03d811161157a576115688183610309565b5050505050905090565b905051906101da82610850565b906020828203126101c2576101d391611725565b61177460e06114d67f0000000000000000000000000000000000000000000000000000000000000000610279565b825260049082905afa90811561158157600080919092611812575b5090916117cf60206117c07f0000000000000000000000000000000000000000000000000000000000000000610279565b631a686502906114e560405190565b825260049082905afa908115611581576000916117ea575090565b6101d3915060203d811161180b575b6118038183610309565b810190611732565b503d6117f9565b905061182c915060e03d811161157a576115688183610309565b5050505061178f565b906020828203126101c2576101d391611381565b1561185057565b60405162461bcd60e51b815260206004820152601260248201527f4e6f7420706f736974696f6e206f776e657200000000000000000000000000006044820152606490fd5b6001600160a01b0390911681526040810192916101da9160200152565b61190260206118e07f0000000000000000000000000000000000000000000000000000000000000000610279565b636352211e906118f4859261161060405190565b835260048301526024820190565b03915afa801561158157611931916000916119c7575b5061192b335b916001600160a01b031690565b14611849565b61195a7f0000000000000000000000000000000000000000000000000000000000000000610279565b9063095ea7b39061196a30610279565b9092803b156101c2576119936000809461199e61198660405190565b9788968795869460e01b90565b845260048401611895565b03925af18015611581576119af5750565b6101da9060006119bf8183610309565b8101906101b7565b6119e8915060203d81116119ee575b6119e08183610309565b810190611835565b38611918565b503d6119d6565b90611a10611a046105b8845490565b92600052602060002090565b9060005b818110611a215750505090565b909192611a45611a3e600192611a3687610b5d565b815260200190565b9460010190565b929101611a14565b906101d3916119f5565b906101da610c6492611a6860405190565b93848092611a4d565b6101d390611a57565b6101d3611a8833600361124e565b611a71565b67ffffffffffffffff811161032b5760208091020190565b90610f0461038183611a8d565b906101da611b766008611ac3610ee2565b94611ad4611ad082610b5d565b8752565b611aec611ae360018301610b72565b60208801610eed565b611b02611afb60028301610c4a565b6040880152565b611b18611b1160038301610c4a565b6060880152565b611b2e611b2760048301610b5d565b6080880152565b611b44611b3d60058301610b5d565b60a0880152565b611b5a611b5360068301610b5d565b60c0880152565b611b70611b6960078301610b5d565b60e0880152565b01610c4a565b610100840152565b6101d390611ab2565b90611b90825490565b611b9981611aa5565b92611bad6020850191600052602060002090565b6000915b838310611bbe5750505050565b60096020600192611bce85611b7e565b815201920192019190611bb1565b6101d390611b87565b6101d36005611bdc565b9190820180921161128b57565b6101d360a0610330565b91906040838203126101c2576101d390611c208185611599565b93602001611599565b805182526101da919060809081906020818101516fffffffffffffffffffffffffffffffff1690850152611c6260408201516040860152565b611c7160608201516060860152565b0151910152565b60a0810192916101da9190611c29565b91611cd9916020611cb87f0000000000000000000000000000000000000000000000000000000000000000610279565b636352211e906118f48792611ccc60405190565b9788948593849360e01b90565b03915afa90811561158157611cff604092611dc4956000916119c7575061192b3361191e565b611d708591611d69611d626000611d57611d5c600092611d57611d2d42611d2761012c610f6a565b90611bef565b97611d3e611d39611bfc565b9b8c52565b6fffffffffffffffffffffffffffffffff1660208b0152565b610f6a565b88880152565b6060850152565b6080830152565b611d997f0000000000000000000000000000000000000000000000000000000000000000610279565b611db96000630c49ccbe611dac60405190565b9788958694859360e01b90565b835260048301611c78565b03925af191821561158157600080919093611e48575b506040611e0c919394611dec30610279565b6118f4600063b17acdcd611dff60405190565b9687958694859360e01b90565b03925af1801561158157611e1d5750565b611e3d9060403d8111611e41575b611e358183610309565b810190611c06565b5050565b503d611e2b565b60409350611e0c9150611e6790843d8111611e4157611e358183610309565b915092611dda565b6bffffffffffffffffffffffff81166103bd565b905051906101da82611e6f565b62ffffff81166103bd565b905051906101da82611e90565b9091610180828403126101c257611ebf8383611e83565b92611ecd8160208501611381565b92611edb8260408301611381565b92611ee98360608401611381565b92611ef78160808501611e9b565b92611f058260a0830161138e565b92611f138360c0840161138e565b92611f218160e08501611725565b92611f30826101008301611599565b926101d3611f42846101208501611599565b93611f51816101408601611725565b9361016001611725565b6101d36101d36101d3926fffffffffffffffffffffffffffffffff1690565b611f876101d36101d39290565b6fffffffffffffffffffffffffffffffff1690565b9190820391821161128b57565b610180611ff791611fb8600090565b5060005b50611fe67f0000000000000000000000000000000000000000000000000000000000000000610279565b6118f46399fbab8861161060405190565b03915afa9182156115815760009283928391829182916121d0575b509194909361205460206120457f0000000000000000000000000000000000000000000000000000000000000000610279565b63f3058399906114e560405190565b825260049082905afa908115611581576000916121b2575b50956120ab602061209c7f0000000000000000000000000000000000000000000000000000000000000000610279565b6346141319906114e560405190565b825260049082905afa8015611581576120cd91600091612194575b5096611f5b565b96846120f26120dc6000611f7a565b916fffffffffffffffffffffffffffffffff1690565b11612165575b505061210390611f5b565b93826121126120dc6000611f7a565b1161211c57505050565b61215b6121416101d395969461152161213b611d279661216096611f9c565b91611f5b565b611549700100000000000000000000000000000000610f6a565b611f7a565b611f5b565b96611d2761216061215b61214161218361218c96612103989d611f9c565b6115218a611f5b565b9590386120f8565b6121ac915060203d81116116955761168d8183610309565b386120c6565b6121ca915060203d81116116955761168d8183610309565b3861206c565b9395505050506121f891506101803d8111612209575b6121f08183610309565b810190611ea8565b9a5096509997509550925050612012565b503d6121e6565b1561221757565b60405162461bcd60e51b815260206004820152601c60248201527f4d7573742070726f76696465206e6f6e2d7a65726f20616d6f756e74000000006044820152606490fd5b906020828203126101c2576101d3916113d0565b6001600160a01b039182168152911660208201526060810192916101da9160400152565b6101d39060a01c610db9565b6101d39054612294565b6101d3610160610330565b6080818303126101c2576122c98282611599565b926101d36122da8460208501611725565b936122e88160408601611599565b93606001611599565b80516001600160a01b031682526101da91906101409081906020818101516001600160a01b03169085015260408181015162ffffff169085015260608181015160020b9085015260808181015160020b9085015261235460a082015160a0860152565b61236360c082015160c0860152565b61237260e082015160e0860152565b612383610100820151610100860152565b610120818101516001600160a01b031690850152611c71565b610160810192916101da91906122f1565b8054821015610b5157610b48600191600052602060002090565b908154916801000000000000000083101561032b57826123ef9160016101da950181556123ad565b90610fd6565b6101d6906001600160a01b031660601b90565b60206103619461242b82809998959661242b60148761242b61242b99869c6123f5565b01918252565b8061243f6114946000610f6a565b118015612942575b61245090612210565b8061245e6114946000610f6a565b1161285a575b816124726114946000610f6a565b1161274a575b612480613816565b61248a600061158f565b91612495600161158f565b916124a060016122a0565b339260009283928992899291426124b861012c610f6a565b6124c191611bef565b986124ca6122aa565b6001600160a01b03909b168b526001600160a01b031660208b015262ffffff1660408a015260020b606089015260020b608088015260a087015260c086015261251290610f6a565b60e085015261252090610f6a565b6101008401526001600160a01b03166101208301526101408201526125647f0000000000000000000000000000000000000000000000000000000000000000610279565b638831645661257260405190565b809361257f829360e01b90565b825261258e906004830161239c565b03815a608094600091f19081156115815760009161271b575b50916125b433600361124e565b836125be916123c7565b334283918386906125ce60405190565b9485946125de9460208701612408565b6020820181038252036125f19082610309565b805190602001206126026004610b5d565b92600092612610600061158f565b61261990613965565b91612624600161158f565b61262d90613965565b90919242949561263b610ee2565b97885261264b9060208901610eed565b60408701526060860152608085015260a084015260c083015260e0820152612671610f3c565b610100820152612682816005611220565b61268d33600261124e565b8161269791611220565b6126a16004610b5d565b6126aa9061127c565b6126b5906004610f77565b805160009160e0016126c5905190565b9133917f19c7fb851f92c8d4f19411743a614909b5753cf16d0ef77d269c04e51eaa7f0e906126f390610f6a565b916126fd90610666565b9261270790610279565b9361271160405190565b908152602090a490565b61273c915060803d8111612743575b6127348183610309565b8101906122b5565b50506125a7565b503d61272a565b61275a6115cf6115cf600161158f565b60206323b872dd91339061278d600061277230610279565b956127988961278060405190565b9889978896879560e01b90565b855260048501612270565b03925af180156115815761283e575b506127b86115cf6115cf600161158f565b602063095ea7b3916127e97f0000000000000000000000000000000000000000000000000000000000000000610279565b90611993600087956127fd61198660405190565b03925af1801561158157612812575b50612478565b6128329060203d8111612837575b61282a8183610309565b81019061225c565b61280c565b503d612820565b6128559060203d81116128375761282a8183610309565b6127a7565b61286a6115cf6115cf600061158f565b60206323b872dd91339061278d600061288230610279565b956128908861278060405190565b03925af1801561158157612926575b506128b06115cf6115cf600061158f565b602063095ea7b3916128e17f0000000000000000000000000000000000000000000000000000000000000000610279565b90611993600086956128f561198660405190565b03925af180156115815761290a575b50612464565b6129219060203d81116128375761282a8183610309565b612904565b61293d9060203d81116128375761282a8183610309565b61289f565b50612450826129546114946000610f6a565b119050612447565b6101806129739161296b600090565b506000611fb8565b03915afa9081156115815760009182918291829182918291829161299c575b5090919293949596565b955050505050506129bc91506101803d8111612209576121f08183610309565b9450945094509496509496612992565b906129d5825190565b811015610b51576020809102010190565b611a886129fd916129f5600090565b50600361124e565b90612a086000610f6a565b80612a176114946101d3865190565b1015612a4457612a2e612a2a82856129cc565b5190565b8214612a3c57600101612a08565b505050600190565b505050600090565b15612a5357565b60405162461bcd60e51b815260206004820152602d60248201527f436f6e7472616374206e6f7420617070726f76656420746f206d616e6167652060448201527f7468697320706f736974696f6e000000000000000000000000000000000000006064820152608490fd5b6101d36080610330565b805182526020808201516001600160a01b0316908301526101da919060609081906040818101516fffffffffffffffffffffffffffffffff169085015201516fffffffffffffffffffffffffffffffff16910152565b6080810192916101da9190612ac8565b612b5c60206118e07f0000000000000000000000000000000000000000000000000000000000000000610279565b03915afa801561158157612b7b916000916119c7575061192b3361191e565b612bbd6020612ba97f0000000000000000000000000000000000000000000000000000000000000000610279565b63081812fc906118f4859261161060405190565b03915afa90811561158157600091612da3575b50612be061191e6101c730610279565b148015612ce3575b612cab91612bf7604092612a4c565b612c646fffffffffffffffffffffffffffffffff612c4b81612c3333612c23612c1e612abe565b978852565b6001600160a01b03166020870152565b6fffffffffffffffffffffffffffffffff1684860152565b6fffffffffffffffffffffffffffffffff166060830152565b612c8d7f0000000000000000000000000000000000000000000000000000000000000000610279565b612ca0600063fc6f7865611dff60405190565b835260048301612b1e565b03925af190811561158157600080919092612cc557509091565b9050612cdf915060403d8111611e4157611e358183610309565b9091565b50612d0d7f0000000000000000000000000000000000000000000000000000000000000000610279565b90602063e985e9c5923390612d3e612d2430610279565b95612d5d612d3160405190565b9788958694859460e01b90565b84526001600160a01b0390811660048501521660248301526044820190565b03915afa90811561158157612bf7604092612cab94600091612d85575b509250509150612be8565b612d9d915060203d81116128375761282a8183610309565b38612d7a565b612dbb915060203d81116119ee576119e08183610309565b38612bd0565b612dd86101d391612dd0606090565b50600261124e565b611bdc565b15612de457565b60405162461bcd60e51b815260206004820152601360248201527f496e76616c696420696e70757420746f6b656e000000000000000000000000006044820152606490fd5b15612e3057565b60405162461bcd60e51b815260206004820152601460248201527f496e76616c6964206f757470757420746f6b656e0000000000000000000000006044820152606490fd5b15612e7c57565b60405162461bcd60e51b815260206004820152601660248201527f43616e6e6f7420737761702073616d6520746f6b656e000000000000000000006044820152606490fd5b6101d3610100610330565b6101c76101d36101d39290565b80516001600160a01b031682526101da919060e09081906020818101516001600160a01b03169085015260408181015162ffffff16908501526060808201516001600160a01b031690850152612f3460808201516080860152565b612f4360a082015160a0860152565b612f5260c082015160c0860152565b01516001600160a01b0316910152565b610100810192916101da9190612ed9565b601461036194612f9560208396612f95858761242b61242b99869f9e9b6123f5565b0180926123f5565b90919080612fb161191e6101c7600061158f565b14801561330c575b612fc290612ddd565b82612fd361191e6101c7600061158f565b1480156132ef575b612fe490612e29565b61300181612ffa6001600160a01b03861661191e565b1415612e75565b61300d6115cf82610279565b60206323b872dd91339061278d600061302530610279565b956130338961278060405190565b03925af18015611581576132d3575b5061304f6115cf82610279565b602063095ea7b3916130807f0000000000000000000000000000000000000000000000000000000000000000610279565b906119936000879561309461198660405190565b03925af18015611581576132b7575b5080836130b060016122a0565b33426130bd61012c610f6a565b6130c691611bef565b86916000936000956130d6612ec1565b6001600160a01b0390981688526001600160a01b0316602088015262ffffff1660408701526001600160a01b03166060860152608085015260a084015261311c90610f6a565b60c083015261312a90612ecc565b6001600160a01b031660e08201526131617f0000000000000000000000000000000000000000000000000000000000000000610279565b63414bf38961316f60405190565b809361317c829360e01b90565b825261318b9060048301612f62565b03815a602094600091f190811561158157600091613299575b5092334283918386906131b660405190565b9485946131c69460208701612f73565b6020820181038252036131d99082610309565b80519060200120906131eb6004610b5d565b936001936131f890613965565b9161320290613965565b869242949561320f610ee2565b97885261321f9060208901610eed565b60408701526060860152608085015260a084015260c083015260e0820152613245610f3c565b610100820152613256816005611220565b61326133600261124e565b8161326b91611220565b6132756004610b5d565b61327e9061127c565b613289906004610f77565b805160019160e0016126c5905190565b6132b1915060203d81116116955761168d8183610309565b386131a4565b6132ce9060203d81116128375761282a8183610309565b6130a3565b6132ea9060203d81116128375761282a8183610309565b613042565b50612fe48361330461191e6101c7600161158f565b149050612fdb565b50612fc28161332161191e6101c7600161158f565b149050612fb9565b61018061333891611fbc600090565b03915afa9081156115815760009161334e575090565b61336791506101803d8111612209576121f08183610309565b50505050965050505050505090565b1561337d57565b60405162461bcd60e51b815260206004820152601260248201527f496e76616c6964207469636b2072616e676500000000000000000000000000006044820152606490fd5b9190926133cd600090565b50826133dc6114946000610f6a565b11801561375b575b6133ed90612210565b61340b826134056133fe8460020b90565b9160020b90565b12613376565b826134196114946000610f6a565b11613673575b8361342d6114946000610f6a565b1161358b575b61343d600061158f565b91613448600161158f565b9161345360016122a0565b3392600092839289928992914261346b61012c610f6a565b61347491611bef565b9861347d6122aa565b6001600160a01b03909b168b526001600160a01b031660208b015262ffffff1660408a015260020b606089015260020b608088015260a087015260c08601526134c590610f6a565b60e08501526134d390610f6a565b6101008401526001600160a01b03166101208301526101408201526135177f0000000000000000000000000000000000000000000000000000000000000000610279565b638831645661352560405190565b8093613532829360e01b90565b8252613541906004830161239c565b03815a608094600091f19081156115815760009161356c575b5091334283918386906125ce60405190565b613584915060803d8111612743576127348183610309565b505061355a565b61359b6115cf6115cf600161158f565b60206323b872dd91339061278d60006135b330610279565b956135c18b61278060405190565b03925af1801561158157613657575b506135e16115cf6115cf600161158f565b602063095ea7b3916136127f0000000000000000000000000000000000000000000000000000000000000000610279565b906119936000899561362661198660405190565b03925af180156115815761363b575b50613433565b6136529060203d81116128375761282a8183610309565b613635565b61366e9060203d81116128375761282a8183610309565b6135d0565b6136836115cf6115cf600061158f565b60206323b872dd91339061278d600061369b30610279565b956136a98a61278060405190565b03925af180156115815761373f575b506136c96115cf6115cf600061158f565b602063095ea7b3916136fa7f0000000000000000000000000000000000000000000000000000000000000000610279565b906119936000889561370e61198660405190565b03925af1801561158157613723575b5061341f565b61373a9060203d81116128375761282a8183610309565b61371d565b6137569060203d81116128375761282a8183610309565b6136b8565b506133ed8461376d6114946000610f6a565b1190506133e4565b6137826101d36101d39290565b60020b90565b6137949060020b6133fe565b900390627fffff8213627fffff1983121761128b57565b6137b79060020b6133fe565b9081156114a357627fffff19811460001983141661128b570590565b6137df9060020b6133fe565b02906137eb8260020b90565b91820361128b57565b6138009060020b6133fe565b0190627fffff198212627fffff83131761128b57565b61384460e06114d67f0000000000000000000000000000000000000000000000000000000000000000610279565b825260049082905afa90811561158157600091613936575b50906138ac61386b600a613775565b6138a76138a061387c610fa0613775565b61389a61389361388c838a613788565b86906137ab565b85906137d3565b966137f4565b82906137ab565b6137d3565b90826138da6133fe7ffffffffffffffffffffffffffffffffffffffffffffffffffffffffffff2764c613775565b12613905575b816138f06133fe620d89b4613775565b136138f757565b90506101d3620d89b4613775565b91506139307ffffffffffffffffffffffffffffffffffffffffffffffffffffffffffff2764c613775565b916138e0565b61394e915060e03d811161157a576115688183610309565b50505050509061385c565b610361816014936123f5565b6139876139966101d392613977606090565b5060405192839160208301613959565b60208201810382520382610309565b613ac7565b6139a56010610ef7565b7f3031323334353637383961626364656600000000000000000000000000000000602082015290565b6101d361399b565b369037565b906101da6139e883610ef7565b926020806139f68693610344565b92019103906139d6565b90613a09825190565b811015610b51570160200190565b610b6c6101d36101d39290565b613a6390613a5e613a386101d39460ff1690565b917fff000000000000000000000000000000000000000000000000000000000000001690565b901c90565b7fff000000000000000000000000000000000000000000000000000000000000001690565b610b6c6101d36101d39260ff1690565b6101d39060f81c613a88565b6101d36101d36101d39260ff1690565b613a63613ac16101d39290565b60f81b90565b90613ad06139ce565b613b00613afb6002613af6613af0613ae6885190565b6115216002610f6a565b91610f6a565b611bef565b6139db565b906030613b1783613b116000610f6a565b90613a00565b536078613b2883613b116001610f6a565b53613b336000610f6a565b80613b426114946101d3885190565b1015613c1c57613c1790613ba7613b6784613b11613ba2613b9d613b8d85888e613a00565b517fff000000000000000000000000000000000000000000000000000000000000001690565b613b976004613a17565b90613a24565b613a98565b613aa4565b613bcc8591613bc26002613af6613af0876115216002610f6a565b9060001a92613a00565b53613bf5613b6784613b11613ba2613be584878d613a00565b613bef600f613ab4565b16613a98565b613c108591613bc26003613af6613af0876115216002610f6a565b5360010190565b613b33565b50506101d39192509056fea26469706673582212201ba702a93a8bf0b3461552ee614fc7bb512e3bfb131203b41cf10ad6a751301064736f6c63430008180033",
  "linkReferences": {},
  "deployedLinkReferences": {}
}