{
  "_format": "hh-sol-artifact-1",
  "contractName": "Add_Swap_Contract",
  "sourceName": "contracts/Add_Swap_Contract.sol",
  "abi": [
    {
      "inputs": [
        {
          "internalType": "address",
          "name": "_swapRouter",
          "type": "address"
        },
        {
          "internalType": "address",
          "name": "_positionManager",
          "type": "address"
        },
        {
          "internalType": "address",
          "name": "_token0",
          "type": "address"
        },
        {
          "internalType": "address",
          "name": "_token1",
          "type": "address"
        }
      ],
      "stateMutability": "nonpayable",
      "type": "constructor"
    },
    {
      "anonymous": false,
      "inputs": [
        {
          "indexed": true,
          "internalType": "uint256",
          "name": "id",
          "type": "uint256"
        },
        {
          "indexed": true,
          "internalType": "enum Add_Swap_Contract.TransactionType",
          "name": "transactionType",
          "type": "uint8"
        },
        {
          "indexed": false,
          "internalType": "bytes32",
          "name": "txHash",
          "type": "bytes32"
        },
        {
          "indexed": true,
          "internalType": "address",
          "name": "user",
          "type": "address"
        }
      ],
      "name": "TransactionAdded",
      "type": "event"
    },
    {
      "inputs": [
        {
          "internalType": "uint256",
          "name": "amount0Desired",
          "type": "uint256"
        },
        {
          "internalType": "uint256",
          "name": "amount1Desired",
          "type": "uint256"
        }
      ],
      "name": "addLiquidity",
      "outputs": [
        {
          "internalType": "uint256",
          "name": "tokenId",
          "type": "uint256"
        }
      ],
      "stateMutability": "nonpayable",
      "type": "function"
    },
    {
      "inputs": [
        {
          "internalType": "enum Add_Swap_Contract.TransactionType",
          "name": "transactionType",
          "type": "uint8"
        },
        {
          "internalType": "string",
          "name": "fromToken",
          "type": "string"
        },
        {
          "internalType": "string",
          "name": "toToken",
          "type": "string"
        },
        {
          "internalType": "uint256",
          "name": "fromAmount",
          "type": "uint256"
        },
        {
          "internalType": "uint256",
          "name": "toAmount",
          "type": "uint256"
        },
        {
          "internalType": "bytes32",
          "name": "txHash",
          "type": "bytes32"
        }
      ],
      "name": "addTransactionToHistory",
      "outputs": [],
      "stateMutability": "nonpayable",
      "type": "function"
    },
    {
      "inputs": [
        {
          "internalType": "uint256",
          "name": "",
          "type": "uint256"
        }
      ],
      "name": "allTransactions",
      "outputs": [
        {
          "internalType": "uint256",
          "name": "id",
          "type": "uint256"
        },
        {
          "internalType": "enum Add_Swap_Contract.TransactionType",
          "name": "transactionType",
          "type": "uint8"
        },
        {
          "internalType": "string",
          "name": "fromToken",
          "type": "string"
        },
        {
          "internalType": "string",
          "name": "toToken",
          "type": "string"
        },
        {
          "internalType": "uint256",
          "name": "fromAmount",
          "type": "uint256"
        },
        {
          "internalType": "uint256",
          "name": "toAmount",
          "type": "uint256"
        },
        {
          "internalType": "uint256",
          "name": "timestamp",
          "type": "uint256"
        },
        {
          "internalType": "bytes32",
          "name": "hash",
          "type": "bytes32"
        },
        {
          "internalType": "string",
          "name": "status",
          "type": "string"
        }
      ],
      "stateMutability": "view",
      "type": "function"
    },
    {
      "inputs": [],
      "name": "fee",
      "outputs": [
        {
          "internalType": "uint24",
          "name": "",
          "type": "uint24"
        }
      ],
      "stateMutability": "view",
      "type": "function"
    },
    {
      "inputs": [],
      "name": "getAllTransactionHistory",
      "outputs": [
        {
          "components": [
            {
              "internalType": "uint256",
              "name": "id",
              "type": "uint256"
            },
            {
              "internalType": "enum Add_Swap_Contract.TransactionType",
              "name": "transactionType",
              "type": "uint8"
            },
            {
              "internalType": "string",
              "name": "fromToken",
              "type": "string"
            },
            {
              "internalType": "string",
              "name": "toToken",
              "type": "string"
            },
            {
              "internalType": "uint256",
              "name": "fromAmount",
              "type": "uint256"
            },
            {
              "internalType": "uint256",
              "name": "toAmount",
              "type": "uint256"
            },
            {
              "internalType": "uint256",
              "name": "timestamp",
              "type": "uint256"
            },
            {
              "internalType": "bytes32",
              "name": "hash",
              "type": "bytes32"
            },
            {
              "internalType": "string",
              "name": "status",
              "type": "string"
            }
          ],
          "internalType": "struct Add_Swap_Contract.Transaction[]",
          "name": "",
          "type": "tuple[]"
        }
      ],
      "stateMutability": "view",
      "type": "function"
    },
    {
      "inputs": [
        {
          "internalType": "address",
          "name": "pool",
          "type": "address"
        }
      ],
      "name": "getPoolBalances",
      "outputs": [
        {
          "internalType": "uint256",
          "name": "bal0",
          "type": "uint256"
        },
        {
          "internalType": "uint256",
          "name": "bal1",
          "type": "uint256"
        }
      ],
      "stateMutability": "view",
      "type": "function"
    },
    {
      "inputs": [
        {
          "internalType": "address",
          "name": "pool",
          "type": "address"
        }
      ],
      "name": "getPoolInfo",
      "outputs": [
        {
          "internalType": "uint160",
          "name": "sqrtPriceX96",
          "type": "uint160"
        },
        {
          "internalType": "int24",
          "name": "tick",
          "type": "int24"
        },
        {
          "internalType": "uint128",
          "name": "liquidity",
          "type": "uint128"
        }
      ],
      "stateMutability": "view",
      "type": "function"
    },
    {
      "inputs": [
        {
          "internalType": "uint256",
          "name": "tokenId",
          "type": "uint256"
        }
      ],
      "name": "getPosition",
      "outputs": [
        {
          "internalType": "uint128",
          "name": "liquidity",
          "type": "uint128"
        }
      ],
      "stateMutability": "view",
      "type": "function"
    },
    {
      "inputs": [
        {
          "internalType": "address",
          "name": "pool",
          "type": "address"
        }
      ],
      "name": "getTokenPrice",
      "outputs": [
        {
          "internalType": "uint256",
          "name": "price",
          "type": "uint256"
        }
      ],
      "stateMutability": "view",
      "type": "function"
    },
    {
      "inputs": [],
      "name": "getUserTransactionHistory",
      "outputs": [
        {
          "components": [
            {
              "internalType": "uint256",
              "name": "id",
              "type": "uint256"
            },
            {
              "internalType": "enum Add_Swap_Contract.TransactionType",
              "name": "transactionType",
              "type": "uint8"
            },
            {
              "internalType": "string",
              "name": "fromToken",
              "type": "string"
            },
            {
              "internalType": "string",
              "name": "toToken",
              "type": "string"
            },
            {
              "internalType": "uint256",
              "name": "fromAmount",
              "type": "uint256"
            },
            {
              "internalType": "uint256",
              "name": "toAmount",
              "type": "uint256"
            },
            {
              "internalType": "uint256",
              "name": "timestamp",
              "type": "uint256"
            },
            {
              "internalType": "bytes32",
              "name": "hash",
              "type": "bytes32"
            },
            {
              "internalType": "string",
              "name": "status",
              "type": "string"
            }
          ],
          "internalType": "struct Add_Swap_Contract.Transaction[]",
          "name": "",
          "type": "tuple[]"
        }
      ],
      "stateMutability": "view",
      "type": "function"
    },
    {
      "inputs": [],
      "name": "positionManager",
      "outputs": [
        {
          "internalType": "contract INonfungiblePositionManager",
          "name": "",
          "type": "address"
        }
      ],
      "stateMutability": "view",
      "type": "function"
    },
    {
      "inputs": [
        {
          "internalType": "address",
          "name": "inputToken",
          "type": "address"
        },
        {
          "internalType": "address",
          "name": "outputToken",
          "type": "address"
        },
        {
          "internalType": "uint256",
          "name": "amountIn",
          "type": "uint256"
        }
      ],
      "name": "swapExactInputSingle",
      "outputs": [
        {
          "internalType": "uint256",
          "name": "amountOut",
          "type": "uint256"
        }
      ],
      "stateMutability": "nonpayable",
      "type": "function"
    },
    {
      "inputs": [],
      "name": "swapRouter",
      "outputs": [
        {
          "internalType": "contract ISwapRouter",
          "name": "",
          "type": "address"
        }
      ],
      "stateMutability": "view",
      "type": "function"
    },
    {
      "inputs": [],
      "name": "token0",
      "outputs": [
        {
          "internalType": "address",
          "name": "",
          "type": "address"
        }
      ],
      "stateMutability": "view",
      "type": "function"
    },
    {
      "inputs": [],
      "name": "token1",
      "outputs": [
        {
          "internalType": "address",
          "name": "",
          "type": "address"
        }
      ],
      "stateMutability": "view",
      "type": "function"
    }
  ],
  "bytecode": "0x60c0604052346200007057620000226200001862000141565b9291909162000248565b604051611ea4620002a682396080518181816106cb01528181611a510152611b33015260a0518181816105fa0152818161165b015281816116d8015281816118160152611ddd0152611ea490f35b600080fd5b634e487b7160e01b600052604160045260246000fd5b90601f01601f191681019081106001600160401b03821117620000ad57604052565b62000075565b90620000ca620000c260405190565b92836200008b565b565b6001600160a01b031690565b90565b6001600160a01b038116036200007057565b90505190620000ca82620000db565b6080818303126200007057620001138282620000ed565b92620000d8620001278460208501620000ed565b93620001378160408601620000ed565b93606001620000ed565b620001646200214a803803806200015881620000b3565b928339810190620000fc565b90919293565b9062ffffff60a01b9060a01b5b9181191691161790565b62000191620000d8620000d89290565b62ffffff1690565b90620001ad620000d8620001b59262000181565b82546200016a565b9055565b620000d890620000cc906001600160a01b031682565b620000d890620001b9565b620000d890620001cf565b906001600160a01b039062000177565b9062000209620000d8620001b592620001da565b8254620001e5565b620000d8620000d8620000d89290565b906000199062000177565b9062000240620000d8620001b59262000211565b825462000221565b916200027a6200028592620002716200028d96956200026b6101f4600162000199565b620001da565b608052620001da565b60a0526000620001f5565b6001620001f5565b620000ca6200029d600162000211565b60036200022c56fe6080604052600436101561001257600080fd5b60003560e01c806306bfa938146101025780630dfe1681146100fd5780634abf5dc1146100f8578063784394bc146100f3578063791b98bc146100ee5780637b50f8c5146100e95780639cd441da146100e4578063c31c9c07146100df578063c979affb146100da578063ceb92012146100d5578063d02641a0146100d0578063d21220a7146100cb578063d7ff0714146100c6578063ddca3f43146100c15763eb02c3010361012857610a8a565b610a59565b6109fa565b61077d565b610756565b61073a565b6106ef565b6106b6565b61068a565b610639565b6105e5565b61057d565b6103a0565b6101f9565b610196565b6001600160a01b031690565b90565b6001600160a01b0381165b0361012857565b600080fd5b9050359061013a82610116565b565b90602082820312610128576101139161012d565b9052565b6001600160a01b03909116815260608101939261013a92909160409161017e9060020b6020830152565b01906fffffffffffffffffffffffffffffffff169052565b34610128576101c06101b16101ac36600461013c565b610be8565b60405191939193849384610154565b0390f35b600091031261012857565b610113916008021c6001600160a01b031690565b9061011391546101cf565b6101136000806101e3565b34610128576102093660046101c4565b6101c06102146101ee565b604051918291826001600160a01b03909116815260200190565b6002111561012857565b9050359061013a8261022e565b634e487b7160e01b600052604160045260246000fd5b90601f01601f1916810190811067ffffffffffffffff82111761027d57604052565b610245565b9061013a61028f60405190565b928361025b565b67ffffffffffffffff811161027d57602090601f01601f19160190565b0190565b90826000939282370152565b909291926102d86102d382610296565b610282565b938185526020850190828401116101285761013a926102b7565b9080601f8301121561012857816020610113933591016102c3565b80610121565b9050359061013a8261030d565b909160c082840312610128576103368383610238565b92602083013567ffffffffffffffff811161012857816103579185016102f2565b92604081013567ffffffffffffffff811161012857826103789183016102f2565b926101136103898460608501610313565b936103978160808601610313565b9360a001610313565b34610128576103bf6103b3366004610320565b9493909392919261109a565b604051005b634e487b7160e01b600052602160045260246000fd5b600211156103e457565b6103c4565b9061013a826103da565b610113906103e9565b610150906103f3565b60005b8381106104185750506000910152565b8181015183820152602001610408565b6104496104526020936102b39361043d815190565b80835293849260200190565b95869101610405565b601f01601f191690565b80518252610113916101006104a86104966101208401610484602087015160208701906103fc565b60408601518582036040870152610428565b60608501518482036060860152610428565b926104b860808201516080850152565b6104c760a082015160a0850152565b6104d660c082015160c0850152565b6104e560e082015160e0850152565b015190610100818403910152610428565b906101139161045c565b9061051661050c835190565b8083529160200190565b90816105286020830284019460200190565b926000915b83831061053c57505050505090565b9091929394602061055f610558838560019503875289516104f6565b9760200190565b930193019193929061052d565b602080825261011392910190610500565b346101285761058d3660046101c4565b6101c06105986112e5565b6040519182918261056c565b610107610113610113926001600160a01b031690565b610113906105a4565b610113906105ba565b610150906105c3565b60208101929161013a91906105cc565b34610128576105f53660046101c4565b6101c07f00000000000000000000000000000000000000000000000000000000000000005b604051918291826105d5565b90815260408101929161013a9160200152565b346101285761065161064c36600461013c565b611323565b906101c061065e60405190565b92839283610626565b919060408382031261012857610113906106818185610313565b93602001610313565b34610128576101c06106a66106a0366004610667565b90611599565b6040519182918290815260200190565b34610128576106c63660046101c4565b6101c07f000000000000000000000000000000000000000000000000000000000000000061061a565b34610128576106ff3660046101c4565b6101c061059861192e565b909160608284031261012857610113610723848461012d565b93610731816020860161012d565b93604001610313565b34610128576101c06106a661075036600461070a565b916119f3565b34610128576101c06106a661076c36600461013c565b611c23565b610113600060016101e3565b346101285761078d3660046101c4565b6101c0610214610771565b906020828203126101285761011391610313565b634e487b7160e01b600052603260045260246000fd5b80548210156107e5576107dc600991600052602060002090565b91020190600090565b6107ac565b6101139081565b61011390546107ea565b634e487b7160e01b600052602260045260246000fd5b9060016002830492168015610831575b602083101461082c57565b6107fb565b91607f1691610821565b8054600093929161085861084e83610811565b8085529360200190565b91600181169081156108aa575060011461087157505050565b6108849192939450600052602060002090565b916000925b8184106108965750500190565b805484840152602090930192600101610889565b92949550505060ff1916825215156020020190565b906101139161083b565b9061013a6108e3926108da60405190565b938480926108bf565b038361025b565b6004906108f5825490565b81101561012857610905916107c2565b5061090f816107f1565b9161091e600183015460ff1690565b9161092b600282016108c9565b91610938600383016108c9565b91610945600482016107f1565b91610952600583016107f1565b9161095f600682016107f1565b916101136008610971600785016107f1565b93016108c9565b956109d76109cf6109ec979a966109c16109de956109e5986101139f9d986109b49060208f6109ad6101208201966000830152565b01906103fc565b8c820360408e0152610428565b908a820360608c0152610428565b996080890152565b60a0870152565b60c0850152565b60e0830152565b610100818403910152610428565b34610128576101c0610a15610a10366004610798565b6108ea565b95610a2899979995919594929460405190565b998a998a610978565b610113916008021c5b62ffffff1690565b906101139154610a31565b61011360146001610a42565b3461012857610a693660046101c4565b6101c0610a74610a4d565b6040519182918262ffffff909116815260200190565b34610128576101c0610aa5610aa0366004610798565b611dc8565b604051918291826fffffffffffffffffffffffffffffffff909116815260200190565b6001600160a01b038116610121565b9050519061013a82610ac8565b6101218160020b90565b9050519061013a82610ae4565b61ffff8116610121565b9050519061013a82610afb565b60ff8116610121565b9050519061013a82610b12565b801515610121565b9050519061013a82610b28565b60e08183031261012857610b518282610ad7565b92610b5f8360208401610aee565b92610b6d8160408501610b05565b92610b7b8260608301610b05565b92610113610b8c8460808501610b05565b93610b9a8160a08601610b1b565b9360c001610b30565b6040513d6000823e3d90fd5b6fffffffffffffffffffffffffffffffff8116610121565b9050519061013a82610baf565b906020828203126101285761011391610bc7565b90610c189060e0610c00610bfb856105c3565b6105c3565b633850c7bd90610c0f60405190565b94859260e01b90565b825260049082905afa918215610ca257600080919093610ca7575b506020610c47610bfb610c5f9395966105c3565b631a68650290610c5660405190565b93849260e01b90565b825260049082905afa908115610ca257600091610c7a575090565b610113915060203d8111610c9b575b610c93818361025b565b810190610bd4565b503d610c89565b610ba3565b610bfb9350610c5f9150610c47610cd660209260e03d8111610ce5575b610cce818361025b565b810190610b3d565b50505050509350945050610c33565b503d610cc4565b610113610120610282565b90610150906103e9565b90610d0e6102d383610296565b918252565b610d1d6009610d01565b7f636f6e6669726d65640000000000000000000000000000000000000000000000602082015290565b610113610d13565b634e487b7160e01b600052600060045260246000fd5b90600019905b9181191691161790565b6101136101136101139290565b90610d91610113610d9892610d74565b8254610d64565b9055565b61011390516103e9565b9060ff90610d6a565b90610dbf610113610d98926103f3565b8254610da6565b91906008610d6a910291610ddb600019841b90565b921b90565b9190610df1610113610d9893610d74565b908354610dc6565b61013a91600091610de0565b818110610e10575050565b80610e1e6000600193610df9565b01610e05565b9190601f8111610e3357505050565b610e4561013a93600052602060002090565b906020601f840181900483019310610e67575b6020601f909101040190610e05565b9091508190610e58565b90610e7a815190565b9067ffffffffffffffff821161027d57610e9e82610e988554610811565b85610e24565b602090601f8311600114610ed957610d98929160009183610ece575b5050600019600883021c1916906002021790565b015190503880610eba565b601f19831691610eee85600052602060002090565b9260005b818110610f2c57509160029391856001969410610f13575b50505002019055565b01516000196008601f8516021c19169055388080610f0a565b91936020600181928787015181550195019201610ef2565b9061013a91610e71565b90610d91610113610d989290565b61013a9190610fa99061010090600890610f7e81610f78875190565b90610d81565b610f9760018201610f9160208801610d9c565b90610daf565b610faf60028201610fa9604088015190565b90610f44565b610fc160038201610fa9606088015190565b610fd360048201610f78608088015190565b610fe560058201610f7860a088015190565b610ff760068201610f7860c088015190565b61100f6007820161100960e088015190565b90610f4e565b0192015190565b91906110255761013a91610f5c565b610d4e565b908154916801000000000000000083101561027d578261105291600161013a950181556107c2565b90611016565b90611062906105c3565b600052602052604060002090565b634e487b7160e01b600052601160045260246000fd5b60001981146110955760010190565b611070565b93929190916110a960036107f1565b938693429391929190876110bb610cec565b9788526110cb9060208901610cf7565b60408701526060860152608085015260a084015260c083015260e08201526110f1610d46565b61010082015261110281600461102a565b61110d336002611058565b816111179161102a565b61112160036107f1565b61112a90611086565b611135906003610d81565b519033917f19c7fb851f92c8d4f19411743a614909b5753cf16d0ef77d269c04e51eaa7f0e9061116490610d74565b9161116e906103f3565b92611178906105c3565b9361118260405190565b908152602090a4565b67ffffffffffffffff811161027d5760208091020190565b90610d0e6102d38361118b565b9061013a61127660086111c1610cec565b946111d26111ce826107f1565b8752565b6111ec6111e3600183015460ff1690565b60208801610cf7565b6112026111fb600283016108c9565b6040880152565b611218611211600383016108c9565b6060880152565b61122e611227600483016107f1565b6080880152565b61124461123d600583016107f1565b60a0880152565b61125a611253600683016107f1565b60c0880152565b611270611269600783016107f1565b60e0880152565b016108c9565b610100840152565b610113906111b0565b90611290825490565b611299816111a3565b926112ad6020850191600052602060002090565b6000915b8383106112be5750505050565b600960206001926112ce8561127e565b8152019201920191906112b1565b61011390611287565b61011360046112dc565b61011390610107565b61011390546112ef565b9050519061013a8261030d565b906020828203126101285761011391611302565b906113716020611339610bfb610bfb60006112f8565b6370a082319061135a869261134d60405190565b9586948593849360e01b90565b83526001600160a01b031660048301526024820190565b03915afa908115610ca2576113ae916020916000916113ec575b509361139d610bfb610bfb60016112f8565b61135a6370a0823161134d60405190565b03915afa908115610ca2576000916113c4575090565b610113915060203d81116113e5575b6113dd818361025b565b81019061130f565b503d6113d3565b6114039150823d81116113e5576113dd818361025b565b3861138b565b906020828203126101285761011391610b30565b6001600160a01b0391821681529116602082015260608101929161013a9160400152565b6001600160a01b03909116815260408101929161013a9160200152565b6101139060a01c610a3a565b610113905461145e565b9190820180921161109557565b610113610160610282565b6114996101136101139290565b60020b90565b608081830312610128576114b38282611302565b926101136114c48460208501610bc7565b936114d28160408601611302565b93606001611302565b80516001600160a01b0316825261013a91906101409081906020818101516001600160a01b03169085015260408181015162ffffff169085015260608181015160020b9085015260808181015160020b9085015261153e60a082015160a0860152565b61154d60c082015160c0860152565b61155c60e082015160e0860152565b61156d610100820151610100860152565b610120818101516001600160a01b0316908501520151910152565b6101608101929161013a91906114db565b906115aa610bfb610bfb60006112f8565b60206323b872dd9133906115dd60006115c2306105c3565b956115e8896115d060405190565b9889978896879560e01b90565b85526004850161141d565b03925af18015610ca257611912575b50611608610bfb610bfb60016112f8565b60206323b872dd9133906115dd6000611620306105c3565b9561162e886115d060405190565b03925af18015610ca2576118f6575b5061164e610bfb610bfb60006112f8565b602063095ea7b39161167f7f00000000000000000000000000000000000000000000000000000000000000006105c3565b906116a0600087956116ab61169360405190565b9788968795869460e01b90565b845260048401611441565b03925af18015610ca2576118da575b506116cb610bfb610bfb60016112f8565b602063095ea7b3916116fc7f00000000000000000000000000000000000000000000000000000000000000006105c3565b906116a06000869561171061169360405190565b03925af18015610ca2576118ae575b5061172a60006112f8565b9161173560016112f8565b91611740600161146a565b917ffffffffffffffffffffffffffffffffffffffffffffffffffffffffffff2764c91620d89b491600092600094339642607861177c90610d74565b61178591611474565b9861178e611481565b6001600160a01b03909b168b526001600160a01b031660208b015262ffffff1660408a01526117bc9061148c565b60020b60608901526117cd9061148c565b60020b608088015260a087015260c08601526117e890610d74565b60e08501526117f690610d74565b6101008401526001600160a01b031661012083015261014082015261183a7f00000000000000000000000000000000000000000000000000000000000000006105c3565b638831645661184860405190565b8093611855829360e01b90565b82526118649060048301611588565b03815a608094600091f1908115610ca257600091611880575090565b6118a1915060803d81116118a7575b611899818361025b565b81019061149f565b50505090565b503d61188f565b6118ce9060203d81116118d3575b6118c6818361025b565b810190611409565b61171f565b503d6118bc565b6118f19060203d81116118d3576118c6818361025b565b6116ba565b61190d9060203d81116118d3576118c6818361025b565b61163d565b6119299060203d81116118d3576118c6818361025b565b6115f7565b61011361193c336002611058565b6112dc565b610113610100610282565b6101076101136101139290565b80516001600160a01b0316825261013a919060e09081906020818101516001600160a01b03169085015260408181015162ffffff16908501526060808201516001600160a01b0316908501526119b460808201516080860152565b6119c360a082015160a0860152565b6119d260c082015160c0860152565b01516001600160a01b0316910152565b6101008101929161013a9190611959565b909190611a02610bfb826105c3565b60206323b872dd9133906115dd6000611a1a306105c3565b95611a28896115d060405190565b03925af18015610ca257611bb9575b50611a44610bfb826105c3565b602063095ea7b391611a757f00000000000000000000000000000000000000000000000000000000000000006105c3565b906116a060008795611a8961169360405190565b03925af18015610ca257611b9d575b509190611aa5600161146a565b90339042611ab3603c610d74565b611abc91611474565b9091600093600095611acc611941565b6001600160a01b0390981688526001600160a01b0316602088015262ffffff1660408701526001600160a01b03166060860152608085015260a0840152611b1290610d74565b60c0830152611b209061194c565b6001600160a01b031660e0820152611b577f00000000000000000000000000000000000000000000000000000000000000006105c3565b63414bf389611b6560405190565b8093611b72829360e01b90565b8252611b8190600483016119e2565b03815a602094600091f1908115610ca2576000916113c4575090565b611bb49060203d81116118d3576118c6818361025b565b611a98565b611bd09060203d81116118d3576118c6818361025b565b611a37565b610113610113610113926001600160a01b031690565b8181029291811591840414171561109557565b634e487b7160e01b600052601260045260246000fd5b8115611c1e570490565b611bfe565b60e0611c3d610bfb611c4c93611c37600090565b506105c3565b633850c7bd90610c5660405190565b825260049082905afa908115610ca25761011391611c8591600091611cad575b50611c7f611c7982611bd5565b91611bd5565b90611beb565b611ca77801000000000000000000000000000000000000000000000000610d74565b90611c14565b611cc5915060e03d8111610ce557610cce818361025b565b5050505050611c6c565b6bffffffffffffffffffffffff8116610121565b9050519061013a82611ccf565b9050519061013a82610116565b62ffffff8116610121565b9050519061013a82611cfd565b90916101808284031261012857611d2c8383611ce3565b92611d3a8160208501611cf0565b92611d488260408301611cf0565b92611d568360608401611cf0565b92611d648160808501611d08565b92611d728260a08301610aee565b92611d808360c08401610aee565b92611d8e8160e08501610bc7565b92611d9d826101008301611302565b92610113611daf846101208501611302565b93611dbe816101408601610bc7565b9361016001610bc7565b610180611e2091611dd7600090565b50611e017f00000000000000000000000000000000000000000000000000000000000000006105c3565b611e126399fbab8861134d60405190565b835260048301526024820190565b03915afa908115610ca257600091611e36575090565b611e5891506101803d8111611e67575b611e50818361025b565b810190611d15565b50505050965050505050505090565b503d611e4656fea2646970667358221220109bcc33c1208bc498ed2e4efc6e06a6319788ca5ab7ff1a575362828b0318bf64736f6c63430008180033",
  "linkReferences": {},
  "deployedLinkReferences": {}
}