{
  "_format": "hh-sol-artifact-1",
  "contractName": "Add_Swap_Contract",
  "sourceName": "contracts/Add_Swap_Contract.sol",
  "abi": [
    {
      "inputs": [
        {
          "internalType": "address",
          "name": "_swapRouter",
          "type": "address"
        },
        {
          "internalType": "address",
          "name": "_positionManager",
          "type": "address"
        },
        {
          "internalType": "address",
          "name": "_token0",
          "type": "address"
        },
        {
          "internalType": "address",
          "name": "_token1",
          "type": "address"
        }
      ],
      "stateMutability": "nonpayable",
      "type": "constructor"
    },
    {
      "inputs": [
        {
          "internalType": "uint256",
          "name": "amount0Desired",
          "type": "uint256"
        },
        {
          "internalType": "uint256",
          "name": "amount1Desired",
          "type": "uint256"
        }
      ],
      "name": "addLiquidity",
      "outputs": [
        {
          "internalType": "uint256",
          "name": "tokenId",
          "type": "uint256"
        }
      ],
      "stateMutability": "nonpayable",
      "type": "function"
    },
    {
      "inputs": [],
      "name": "fee",
      "outputs": [
        {
          "internalType": "uint24",
          "name": "",
          "type": "uint24"
        }
      ],
      "stateMutability": "view",
      "type": "function"
    },
    {
      "inputs": [],
      "name": "positionManager",
      "outputs": [
        {
          "internalType": "contract INonfungiblePositionManager",
          "name": "",
          "type": "address"
        }
      ],
      "stateMutability": "view",
      "type": "function"
    },
    {
      "inputs": [
        {
          "internalType": "address",
          "name": "inputToken",
          "type": "address"
        },
        {
          "internalType": "address",
          "name": "outputToken",
          "type": "address"
        },
        {
          "internalType": "uint256",
          "name": "amountIn",
          "type": "uint256"
        }
      ],
      "name": "swapExactInputSingle",
      "outputs": [
        {
          "internalType": "uint256",
          "name": "amountOut",
          "type": "uint256"
        }
      ],
      "stateMutability": "nonpayable",
      "type": "function"
    },
    {
      "inputs": [],
      "name": "swapRouter",
      "outputs": [
        {
          "internalType": "contract ISwapRouter",
          "name": "",
          "type": "address"
        }
      ],
      "stateMutability": "view",
      "type": "function"
    },
    {
      "inputs": [],
      "name": "token0",
      "outputs": [
        {
          "internalType": "address",
          "name": "",
          "type": "address"
        }
      ],
      "stateMutability": "view",
      "type": "function"
    },
    {
      "inputs": [],
      "name": "token1",
      "outputs": [
        {
          "internalType": "address",
          "name": "",
          "type": "address"
        }
      ],
      "stateMutability": "view",
      "type": "function"
    }
  ],
  "bytecode": "0x60c06040526001805462ffffff60a01b1916607d60a21b1790553480156200002657600080fd5b5060405162000eb738038062000eb78339810160408190526200004991620000c0565b6001600160a01b0393841660805291831660a052600080549184166001600160a01b0319928316179055600180549290931691161790556200012e565b60006001600160a01b0382165b92915050565b620000a48162000086565b8114620000b057600080fd5b50565b8051620000938162000099565b60008060008060808587031215620000db57620000db600080fd5b6000620000e98787620000b3565b9450506020620000fc87828801620000b3565b93505060406200010f87828801620000b3565b92505060606200012287828801620000b3565b91505092959194509250565b60805160a051610d41620001766000396000818160bd01528181610325015281816103e1015261054c015260008181610111015281816106b701526107d20152610d416000f3fe608060405234801561001057600080fd5b506004361061007d5760003560e01c8063c31c9c071161005b578063c31c9c071461010c578063ceb9201214610133578063d21220a714610146578063ddca3f431461016657600080fd5b80630dfe168114610082578063791b98bc146100b85780639cd441da146100ec575b600080fd5b6000546100a29073ffffffffffffffffffffffffffffffffffffffff1681565b6040516100af9190610897565b60405180910390f35b6100df7f000000000000000000000000000000000000000000000000000000000000000081565b6040516100af91906108e2565b6100ff6100fa36600461090b565b61019a565b6040516100af919061094e565b6100df7f000000000000000000000000000000000000000000000000000000000000000081565b6100ff610141366004610970565b6105d0565b6001546100a29073ffffffffffffffffffffffffffffffffffffffff1681565b60015461018d9074010000000000000000000000000000000000000000900462ffffff1681565b6040516100af91906109cb565b600080546040517f23b872dd00000000000000000000000000000000000000000000000000000000815273ffffffffffffffffffffffffffffffffffffffff909116906323b872dd906101f5903390309088906004016109d9565b6020604051808303816000875af1158015610214573d6000803e3d6000fd5b505050506040513d601f19601f820116820180604052508101906102389190610a1c565b506001546040517f23b872dd00000000000000000000000000000000000000000000000000000000815273ffffffffffffffffffffffffffffffffffffffff909116906323b872dd90610293903390309087906004016109d9565b6020604051808303816000875af11580156102b2573d6000803e3d6000fd5b505050506040513d601f19601f820116820180604052508101906102d69190610a1c565b506000546040517f095ea7b300000000000000000000000000000000000000000000000000000000815273ffffffffffffffffffffffffffffffffffffffff9091169063095ea7b39061034f907f0000000000000000000000000000000000000000000000000000000000000000908790600401610a3d565b6020604051808303816000875af115801561036e573d6000803e3d6000fd5b505050506040513d601f19601f820116820180604052508101906103929190610a1c565b506001546040517f095ea7b300000000000000000000000000000000000000000000000000000000815273ffffffffffffffffffffffffffffffffffffffff9091169063095ea7b39061040b907f0000000000000000000000000000000000000000000000000000000000000000908690600401610a3d565b6020604051808303816000875af115801561042a573d6000803e3d6000fd5b505050506040513d601f19601f8201168201806040525081019061044e9190610a1c565b5060408051610160810182526000805473ffffffffffffffffffffffffffffffffffffffff9081168352600154908116602084015274010000000000000000000000000000000000000000900462ffffff16928201929092527ffffffffffffffffffffffffffffffffffffffffffffffffffffffffffff2764c6060820152620d89b4608082015260a0810185905260c0810184905260e08101829052610100810182905233610120820152610140810161050a426078610a8e565b90526040517f8831645600000000000000000000000000000000000000000000000000000000815290915073ffffffffffffffffffffffffffffffffffffffff7f00000000000000000000000000000000000000000000000000000000000000001690638831645690610581908490600401610b87565b6080604051808303816000875af11580156105a0573d6000803e3d6000fd5b505050506040513d601f19601f820116820180604052508101906105c49190610bc4565b50919695505050505050565b6040517f23b872dd00000000000000000000000000000000000000000000000000000000815260009073ffffffffffffffffffffffffffffffffffffffff8516906323b872dd90610629903390309087906004016109d9565b6020604051808303816000875af1158015610648573d6000803e3d6000fd5b505050506040513d601f19601f8201168201806040525081019061066c9190610a1c565b506040517f095ea7b300000000000000000000000000000000000000000000000000000000815273ffffffffffffffffffffffffffffffffffffffff85169063095ea7b3906106e1907f0000000000000000000000000000000000000000000000000000000000000000908690600401610a3d565b6020604051808303816000875af1158015610700573d6000803e3d6000fd5b505050506040513d601f19601f820116820180604052508101906107249190610a1c565b50604080516101008101825273ffffffffffffffffffffffffffffffffffffffff86811682528516602082015260015474010000000000000000000000000000000000000000900462ffffff16918101919091523360608201526000906080810161079042603c610a8e565b81526020810185905260006040808301829052606090920152517f414bf3890000000000000000000000000000000000000000000000000000000081529091507f000000000000000000000000000000000000000000000000000000000000000073ffffffffffffffffffffffffffffffffffffffff169063414bf3899061081c908490600401610cdb565b6020604051808303816000875af115801561083b573d6000803e3d6000fd5b505050506040513d601f19601f8201168201806040525081019061085f9190610cea565b95945050505050565b600073ffffffffffffffffffffffffffffffffffffffff82165b92915050565b61089181610868565b82525050565b602081016108828284610888565b600073ffffffffffffffffffffffffffffffffffffffff8216610882565b6000610882826108a5565b6000610882826108c3565b610891816108ce565b6020810161088282846108d9565b805b81146108fd57600080fd5b50565b8035610882816108f0565b6000806040838503121561092157610921600080fd5b600061092d8585610900565b925050602061093e85828601610900565b9150509250929050565b80610891565b602081016108828284610948565b6108f281610868565b80356108828161095c565b60008060006060848603121561098857610988600080fd5b60006109948686610965565b93505060206109a586828701610965565b92505060406109b686828701610900565b9150509250925092565b62ffffff8116610891565b6020810161088282846109c0565b606081016109e78286610888565b6109f46020830185610888565b610a016040830184610948565b949350505050565b8015156108f2565b805161088281610a09565b600060208284031215610a3157610a31600080fd5b6000610a018484610a11565b60408101610a4b8285610888565b610a586020830184610948565b9392505050565b7f4e487b7100000000000000000000000000000000000000000000000000000000600052601160045260246000fd5b8082018082111561088257610882610a5f565b6108918160020b90565b8051610160830190610abd8482610888565b506020820151610ad06020850182610888565b506040820151610ae360408501826109c0565b506060820151610af66060850182610aa1565b506080820151610b096080850182610aa1565b5060a0820151610b1c60a0850182610948565b5060c0820151610b2f60c0850182610948565b5060e0820151610b4260e0850182610948565b50610100820151610b57610100850182610948565b50610120820151610b6c610120850182610888565b50610140820151610b81610140850182610948565b50505050565b61016081016108828284610aab565b8051610882816108f0565b6fffffffffffffffffffffffffffffffff81166108f2565b805161088281610ba1565b60008060008060808587031215610bdd57610bdd600080fd5b6000610be98787610b96565b9450506020610bfa87828801610bb9565b9350506040610c0b87828801610b96565b9250506060610c1c87828801610b96565b91505092959194509250565b73ffffffffffffffffffffffffffffffffffffffff8116610891565b8051610100830190610c568482610888565b506020820151610c696020850182610888565b506040820151610c7c60408501826109c0565b506060820151610c8f6060850182610888565b506080820151610ca26080850182610948565b5060a0820151610cb560a0850182610948565b5060c0820151610cc860c0850182610948565b5060e0820151610b8160e0850182610c28565b61010081016108828284610c44565b600060208284031215610cff57610cff600080fd5b6000610a018484610b9656fea264697066735822122085791fee759eed1bd69e83d58409252782c328d264fb5e262a67c29ebd6efbb464736f6c63430008180033",
  "linkReferences": {},
  "deployedLinkReferences": {}
}