{
  "_format": "hh-sol-artifact-1",
  "contractName": "UsdCoin",
  "sourceName": "contracts/UsdCoin.sol",
  "abi": [
    {
      "inputs": [],
      "stateMutability": "nonpayable",
      "type": "constructor"
    },
    {
      "anonymous": false,
      "inputs": [
        {
          "indexed": true,
          "internalType": "address",
          "name": "owner",
          "type": "address"
        },
        {
          "indexed": true,
          "internalType": "address",
          "name": "spender",
          "type": "address"
        },
        {
          "indexed": false,
          "internalType": "uint256",
          "name": "value",
          "type": "uint256"
        }
      ],
      "name": "Approval",
      "type": "event"
    },
    {
      "anonymous": false,
      "inputs": [
        {
          "indexed": true,
          "internalType": "address",
          "name": "from",
          "type": "address"
        },
        {
          "indexed": true,
          "internalType": "address",
          "name": "to",
          "type": "address"
        },
        {
          "indexed": false,
          "internalType": "uint256",
          "name": "value",
          "type": "uint256"
        }
      ],
      "name": "Transfer",
      "type": "event"
    },
    {
      "inputs": [],
      "name": "INITIAL_SUPPLY",
      "outputs": [
        {
          "internalType": "uint256",
          "name": "",
          "type": "uint256"
        }
      ],
      "stateMutability": "view",
      "type": "function"
    },
    {
      "inputs": [],
      "name": "MAX_SUPPLY",
      "outputs": [
        {
          "internalType": "uint256",
          "name": "",
          "type": "uint256"
        }
      ],
      "stateMutability": "view",
      "type": "function"
    },
    {
      "inputs": [
        {
          "internalType": "address",
          "name": "owner",
          "type": "address"
        },
        {
          "internalType": "address",
          "name": "spender",
          "type": "address"
        }
      ],
      "name": "allowance",
      "outputs": [
        {
          "internalType": "uint256",
          "name": "",
          "type": "uint256"
        }
      ],
      "stateMutability": "view",
      "type": "function"
    },
    {
      "inputs": [
        {
          "internalType": "address",
          "name": "spender",
          "type": "address"
        },
        {
          "internalType": "uint256",
          "name": "amount",
          "type": "uint256"
        }
      ],
      "name": "approve",
      "outputs": [
        {
          "internalType": "bool",
          "name": "",
          "type": "bool"
        }
      ],
      "stateMutability": "nonpayable",
      "type": "function"
    },
    {
      "inputs": [
        {
          "internalType": "address",
          "name": "account",
          "type": "address"
        }
      ],
      "name": "balanceOf",
      "outputs": [
        {
          "internalType": "uint256",
          "name": "",
          "type": "uint256"
        }
      ],
      "stateMutability": "view",
      "type": "function"
    },
    {
      "inputs": [],
      "name": "decimals",
      "outputs": [
        {
          "internalType": "uint8",
          "name": "",
          "type": "uint8"
        }
      ],
      "stateMutability": "view",
      "type": "function"
    },
    {
      "inputs": [
        {
          "internalType": "address",
          "name": "spender",
          "type": "address"
        },
        {
          "internalType": "uint256",
          "name": "subtractedValue",
          "type": "uint256"
        }
      ],
      "name": "decreaseAllowance",
      "outputs": [
        {
          "internalType": "bool",
          "name": "",
          "type": "bool"
        }
      ],
      "stateMutability": "nonpayable",
      "type": "function"
    },
    {
      "inputs": [
        {
          "internalType": "address",
          "name": "spender",
          "type": "address"
        },
        {
          "internalType": "uint256",
          "name": "addedValue",
          "type": "uint256"
        }
      ],
      "name": "increaseAllowance",
      "outputs": [
        {
          "internalType": "bool",
          "name": "",
          "type": "bool"
        }
      ],
      "stateMutability": "nonpayable",
      "type": "function"
    },
    {
      "inputs": [
        {
          "internalType": "address",
          "name": "to",
          "type": "address"
        },
        {
          "internalType": "uint256",
          "name": "amount",
          "type": "uint256"
        }
      ],
      "name": "mint",
      "outputs": [],
      "stateMutability": "nonpayable",
      "type": "function"
    },
    {
      "inputs": [],
      "name": "name",
      "outputs": [
        {
          "internalType": "string",
          "name": "",
          "type": "string"
        }
      ],
      "stateMutability": "view",
      "type": "function"
    },
    {
      "inputs": [],
      "name": "symbol",
      "outputs": [
        {
          "internalType": "string",
          "name": "",
          "type": "string"
        }
      ],
      "stateMutability": "view",
      "type": "function"
    },
    {
      "inputs": [],
      "name": "totalSupply",
      "outputs": [
        {
          "internalType": "uint256",
          "name": "",
          "type": "uint256"
        }
      ],
      "stateMutability": "view",
      "type": "function"
    },
    {
      "inputs": [
        {
          "internalType": "address",
          "name": "recipient",
          "type": "address"
        },
        {
          "internalType": "uint256",
          "name": "amount",
          "type": "uint256"
        }
      ],
      "name": "transfer",
      "outputs": [
        {
          "internalType": "bool",
          "name": "",
          "type": "bool"
        }
      ],
      "stateMutability": "nonpayable",
      "type": "function"
    },
    {
      "inputs": [
        {
          "internalType": "address",
          "name": "from",
          "type": "address"
        },
        {
          "internalType": "address",
          "name": "to",
          "type": "address"
        },
        {
          "internalType": "uint256",
          "name": "amount",
          "type": "uint256"
        }
      ],
      "name": "transferFrom",
      "outputs": [
        {
          "internalType": "bool",
          "name": "",
          "type": "bool"
        }
      ],
      "stateMutability": "nonpayable",
      "type": "function"
    }
  ],
  "bytecode": "0x60806040523462000026576200001462000195565b604051610ec3620006078239610ec390f35b600080fd5b634e487b7160e01b600052604160045260246000fd5b90601f01601f191681019081106001600160401b038211176200006357604052565b6200002b565b90620000806200007860405190565b928362000041565b565b6001600160401b0381116200006357602090601f01601f19160190565b90620000b5620000af8362000082565b62000069565b918252565b620000c660076200009f565b662ab9b221b7b4b760c91b602082015290565b620000e3620000ba565b90565b620000f260046200009f565b635553444360e01b602082015290565b620000e3620000e6565b620000e3620000e3620000e39290565b620000e364e8d4a510006200010c565b620000e366038d7ea4c680006200010c565b156200014657565b60405162461bcd60e51b815260206004820152602160248201527f496e697469616c20737570706c792065786365656473206d617820737570706c6044820152607960f81b6064820152608490fd5b620001b4620001a3620000d9565b620001ad62000102565b90620003e7565b620001e0620001c26200011c565b620001d8620001d4620000e36200012c565b9190565b11156200013e565b6200008033620001ef6200011c565b9062000520565b634e487b7160e01b600052602260045260246000fd5b90600160028304921680156200022f575b60208310146200022957565b620001f6565b91607f16916200021d565b9160001960089290920291821b911b5b9181191691161790565b919062000269620000e362000272936200010c565b9083546200023a565b9055565b620000809160009162000254565b81811062000290575050565b80620002a0600060019362000276565b0162000284565b9190601f8111620002b757505050565b620002cb6200008093600052602060002090565b906020601f840181900483019310620002ef575b6020601f90910104019062000284565b9091508190620002df565b9062000304815190565b906001600160401b03821162000063576200032c826200032585546200020c565b85620002a7565b602090601f83116001146200036b57620002729291600091836200035f575b5050600019600883021c1916906002021790565b0151905038806200034b565b601f198316916200038185600052602060002090565b9260005b818110620003c257509160029391856001969410620003a8575b50505002019055565b01516000196008601f8516021c191690553880806200039f565b9193602060018192878701518155019501920162000385565b906200008091620002fa565b90620003f962000080926003620003db565b6004620003db565b62000411620000e3620000e39290565b6001600160a01b031690565b620000e39062000401565b156200043057565b60405162461bcd60e51b815260206004820152601f60248201527f45524332303a206d696e7420746f20746865207a65726f2061646472657373006044820152606490fd5b620000e39081565b620000e3905462000475565b634e487b7160e01b600052601160045260246000fd5b91908201809211620004ad57565b62000489565b90600019906200024a565b90620004d2620000e362000272926200010c565b8254620004b3565b620000e39062000411906001600160a01b031682565b620000e390620004da565b620000e390620004f0565b906200051290620004fb565b600052602052604060002090565b906200054f8262000547620005406200053a60006200041d565b62000411565b9162000411565b141562000428565b620005726200056a826200056460026200047d565b6200049f565b6002620004be565b6200059f81620005986200058885600062000506565b9162000594836200047d565b0190565b90620004be565b620005ab60006200041d565b91909162000601620005e9620005e27fddf252ad1be2c89b69c2b068fc378daa952ba7f163c4a11628f55a4df523b3ef93620004fb565b93620004fb565b93620005f460405190565b9182918290815260200190565b0390a356fe6080604052600436101561001257600080fd5b60003560e01c806306fdde03146100f2578063095ea7b3146100ed57806318160ddd146100e857806323b872dd146100e35780632ff2e9dc146100de578063313ce567146100d957806332cb6b0c146100d457806339509351146100cf57806340c10f19146100ca57806370a08231146100c557806395d89b41146100c0578063a457c2d7146100bb578063a9059cbb146100b65763dd62ed3e0361010257610461565b610422565b610406565b6103eb565b6103d0565b61039e565b610382565b610367565b610320565b610305565b6102c6565b61026a565b61023c565b610194565b600091031261010257565b600080fd5b60005b83811061011a5750506000910152565b818101518382015260200161010a565b61014b61015460209361017c9361013f815190565b80835293849260200190565b95869101610107565b601f017fffffffffffffffffffffffffffffffffffffffffffffffffffffffffffffffe01690565b0190565b60208082526101919291019061012a565b90565b34610102576101a43660046100f7565b6101bb6101af610602565b60405191829182610180565b0390f35b73ffffffffffffffffffffffffffffffffffffffff1690565b73ffffffffffffffffffffffffffffffffffffffff81165b0361010257565b90503590610204826101d8565b565b806101f0565b9050359061020482610206565b9190604083820312610102576101919061023381856101f7565b9360200161020c565b34610102576101bb610258610252366004610219565b9061060c565b60405191829182901515815260200190565b346101025761027a3660046100f7565b6101bb61028561062d565b6040515b9182918290815260200190565b9091606082840312610102576101916102af84846101f7565b936102bd81602086016101f7565b9360400161020c565b34610102576101bb6102586102dc366004610296565b91610637565b6101916101916101919290565b61019164e8d4a510006102e2565b6101916102ef565b34610102576103153660046100f7565b6101bb6102856102fd565b34610102576103303660046100f7565b6101bb61033b610662565b6040519182918260ff909116815260200190565b61019166038d7ea4c680006102e2565b61019161034f565b34610102576103773660046100f7565b6101bb61028561035f565b34610102576101bb610258610398366004610219565b906106ad565b34610102576103b76103b1366004610219565b906106cc565b604051005b9060208282031261010257610191916101f7565b34610102576101bb6102856103e63660046103bc565b610723565b34610102576103fb3660046100f7565b6101bb6101af61073f565b34610102576101bb61025861041c366004610219565b906107bb565b34610102576101bb610258610438366004610219565b9061090a565b9190604083820312610102576101919061045881856101f7565b936020016101f7565b34610102576101bb61028561047736600461043e565b9061097a565b7f4e487b7100000000000000000000000000000000000000000000000000000000600052602260045260246000fd5b90600160028304921680156104cc575b60208310146104c757565b61047d565b91607f16916104bc565b805460009392916104f36104e9836104ac565b8085529360200190565b9160018116908115610545575060011461050c57505050565b61051f9192939450600052602060002090565b916000925b8184106105315750500190565b805484840152602090930192600101610524565b92949550505060ff1916825215156020020190565b90610191916104d6565b7f4e487b7100000000000000000000000000000000000000000000000000000000600052604160045260246000fd5b90601f017fffffffffffffffffffffffffffffffffffffffffffffffffffffffffffffffe016810190811067ffffffffffffffff8211176105d357604052565b610564565b906102046105f2926105e960405190565b9384809261055a565b0383610593565b610191906105d8565b61019160036105f9565b610617919033610a91565b600190565b6101919081565b610191905461061c565b6101916002610623565b6106179290610647823383610b7c565b919091610d28565b61065c6101916101919290565b60ff1690565b610191601261064f565b7f4e487b7100000000000000000000000000000000000000000000000000000000600052601160045260246000fd5b919082018092116106a857565b61066c565b610617916106c63392916106c1838561097a565b61069b565b91610a91565b9061020491610e33565b6101bf6101916101919273ffffffffffffffffffffffffffffffffffffffff1690565b610191906106d6565b610191906106f9565b9061071590610702565b600052602052604060002090565b61073a61019191610732600090565b50600061070b565b610623565b61019160046105f9565b1561075057565b60405162461bcd60e51b815260206004820152602560248201527f45524332303a2064656372656173656420616c6c6f77616e63652062656c6f7760448201527f207a65726f0000000000000000000000000000000000000000000000000000006064820152608490fd5b610617916106c633916107ce848461097a565b926107e482856107dd565b9190565b1015610749565b93920390565b6101bf6101916101919290565b610191906107ea565b1561080757565b60405162461bcd60e51b815260206004820152601c60248201527f5472616e7366657220746f20746865207a65726f2061646472657373000000006044820152606490fd5b1561085357565b60405162461bcd60e51b815260206004820152602960248201527f5472616e7366657220616d6f756e74206d75737420626520677265617465722060448201527f7468616e207a65726f00000000000000000000000000000000000000000000006064820152608490fd5b156108c557565b60405162461bcd60e51b815260206004820152601460248201527f496e73756666696369656e742062616c616e63650000000000000000000000006044820152606490fd5b61019191906109448161093d6109236101bf60006107f7565b9173ffffffffffffffffffffffffffffffffffffffff1690565b1415610800565b61095b826109556107d960006102e2565b1161084c565b6109758261096e6107d961019133610723565b11156108be565b610e83565b6101919161099561073a9261098d600090565b50600161070b565b61070b565b156109a157565b60405162461bcd60e51b8152602060048201526024808201527f45524332303a20617070726f76652066726f6d20746865207a65726f2061646460448201527f72657373000000000000000000000000000000000000000000000000000000006064820152608490fd5b15610a1257565b60405162461bcd60e51b815260206004820152602260248201527f45524332303a20617070726f766520746f20746865207a65726f20616464726560448201527f73730000000000000000000000000000000000000000000000000000000000006064820152608490fd5b90610191610191610a8d926102e2565b9055565b919091610aaf81610aa86109236101bf60006107f7565b141561099a565b610aca83610ac36109236101bf60006107f7565b1415610a0b565b610ae882610ae3610adc84600161070b565b869061070b565b610a7d565b919091610b2b610b21610b1b7f8c5be1e5ebec7d5bd14f71427d1e84f3dd0314c0f7b2291e5b200ac8c7c3b92593610702565b93610702565b9361028960405190565b0390a3565b15610b3757565b60405162461bcd60e51b815260206004820152601d60248201527f45524332303a20696e73756666696369656e7420616c6c6f77616e63650000006044820152606490fd5b610b86828261097a565b907fffffffffffffffffffffffffffffffffffffffffffffffffffffffffffffffff8203610bb5575b50505050565b610bc9936106c6916107e482851015610b30565b38808080610baf565b15610bd957565b60405162461bcd60e51b815260206004820152602560248201527f45524332303a207472616e736665722066726f6d20746865207a65726f20616460448201527f64726573730000000000000000000000000000000000000000000000000000006064820152608490fd5b15610c4b57565b60405162461bcd60e51b815260206004820152602360248201527f45524332303a207472616e7366657220746f20746865207a65726f206164647260448201527f65737300000000000000000000000000000000000000000000000000000000006064820152608490fd5b15610cbd57565b60405162461bcd60e51b815260206004820152602660248201527f45524332303a207472616e7366657220616d6f756e742065786365656473206260448201527f616c616e636500000000000000000000000000000000000000000000000000006064820152608490fd5b919091610d4681610d3f6109236101bf60006107f7565b1415610bd2565b610d6183610d5a6109236101bf60006107f7565b1415610c44565b610d92610d87610d7561073a84600061070b565b610d8185821015610cb6565b84900390565b610ae383600061070b565b610db482610dae610da486600061070b565b9161017c83610623565b90610a7d565b919091610b2b610b21610b1b7fddf252ad1be2c89b69c2b068fc378daa952ba7f163c4a11628f55a4df523b3ef93610702565b15610dee57565b60405162461bcd60e51b815260206004820152601f60248201527f45524332303a206d696e7420746f20746865207a65726f2061646472657373006044820152606490fd5b90610e4f82610e486109236101bf60006107f7565b1415610de7565b610e67610e60826106c16002610623565b6002610a7d565b610e7981610dae610da485600061070b565b610db460006107f7565b610617913361064756fea264697066735822122049b4abd94d060087600ffc4c72a51e949c79e2e28aeb5ba36d760ef0e575f92b64736f6c63430008180033",
  "linkReferences": {},
  "deployedLinkReferences": {}
}