{
  "_format": "hh-sol-artifact-1",
  "contractName": "UsdCoin",
  "sourceName": "contracts/UsdCoin.sol",
  "abi": [
    {
      "inputs": [],
      "stateMutability": "nonpayable",
      "type": "constructor"
    },
    {
      "anonymous": false,
      "inputs": [
        {
          "indexed": true,
          "internalType": "address",
          "name": "owner",
          "type": "address"
        },
        {
          "indexed": true,
          "internalType": "address",
          "name": "spender",
          "type": "address"
        },
        {
          "indexed": false,
          "internalType": "uint256",
          "name": "value",
          "type": "uint256"
        }
      ],
      "name": "Approval",
      "type": "event"
    },
    {
      "anonymous": false,
      "inputs": [
        {
          "indexed": true,
          "internalType": "address",
          "name": "from",
          "type": "address"
        },
        {
          "indexed": true,
          "internalType": "address",
          "name": "to",
          "type": "address"
        },
        {
          "indexed": false,
          "internalType": "uint256",
          "name": "value",
          "type": "uint256"
        }
      ],
      "name": "Transfer",
      "type": "event"
    },
    {
      "inputs": [],
      "name": "INITIAL_SUPPLY",
      "outputs": [
        {
          "internalType": "uint256",
          "name": "",
          "type": "uint256"
        }
      ],
      "stateMutability": "view",
      "type": "function"
    },
    {
      "inputs": [],
      "name": "MAX_SUPPLY",
      "outputs": [
        {
          "internalType": "uint256",
          "name": "",
          "type": "uint256"
        }
      ],
      "stateMutability": "view",
      "type": "function"
    },
    {
      "inputs": [
        {
          "internalType": "address",
          "name": "owner",
          "type": "address"
        },
        {
          "internalType": "address",
          "name": "spender",
          "type": "address"
        }
      ],
      "name": "allowance",
      "outputs": [
        {
          "internalType": "uint256",
          "name": "",
          "type": "uint256"
        }
      ],
      "stateMutability": "view",
      "type": "function"
    },
    {
      "inputs": [
        {
          "internalType": "address",
          "name": "spender",
          "type": "address"
        },
        {
          "internalType": "uint256",
          "name": "amount",
          "type": "uint256"
        }
      ],
      "name": "approve",
      "outputs": [
        {
          "internalType": "bool",
          "name": "",
          "type": "bool"
        }
      ],
      "stateMutability": "nonpayable",
      "type": "function"
    },
    {
      "inputs": [
        {
          "internalType": "address",
          "name": "account",
          "type": "address"
        }
      ],
      "name": "balanceOf",
      "outputs": [
        {
          "internalType": "uint256",
          "name": "",
          "type": "uint256"
        }
      ],
      "stateMutability": "view",
      "type": "function"
    },
    {
      "inputs": [],
      "name": "decimals",
      "outputs": [
        {
          "internalType": "uint8",
          "name": "",
          "type": "uint8"
        }
      ],
      "stateMutability": "view",
      "type": "function"
    },
    {
      "inputs": [
        {
          "internalType": "address",
          "name": "spender",
          "type": "address"
        },
        {
          "internalType": "uint256",
          "name": "subtractedValue",
          "type": "uint256"
        }
      ],
      "name": "decreaseAllowance",
      "outputs": [
        {
          "internalType": "bool",
          "name": "",
          "type": "bool"
        }
      ],
      "stateMutability": "nonpayable",
      "type": "function"
    },
    {
      "inputs": [
        {
          "internalType": "address",
          "name": "spender",
          "type": "address"
        },
        {
          "internalType": "uint256",
          "name": "addedValue",
          "type": "uint256"
        }
      ],
      "name": "increaseAllowance",
      "outputs": [
        {
          "internalType": "bool",
          "name": "",
          "type": "bool"
        }
      ],
      "stateMutability": "nonpayable",
      "type": "function"
    },
    {
      "inputs": [
        {
          "internalType": "address",
          "name": "to",
          "type": "address"
        },
        {
          "internalType": "uint256",
          "name": "amount",
          "type": "uint256"
        }
      ],
      "name": "mint",
      "outputs": [],
      "stateMutability": "nonpayable",
      "type": "function"
    },
    {
      "inputs": [],
      "name": "name",
      "outputs": [
        {
          "internalType": "string",
          "name": "",
          "type": "string"
        }
      ],
      "stateMutability": "view",
      "type": "function"
    },
    {
      "inputs": [],
      "name": "symbol",
      "outputs": [
        {
          "internalType": "string",
          "name": "",
          "type": "string"
        }
      ],
      "stateMutability": "view",
      "type": "function"
    },
    {
      "inputs": [],
      "name": "totalSupply",
      "outputs": [
        {
          "internalType": "uint256",
          "name": "",
          "type": "uint256"
        }
      ],
      "stateMutability": "view",
      "type": "function"
    },
    {
      "inputs": [
        {
          "internalType": "address",
          "name": "recipient",
          "type": "address"
        },
        {
          "internalType": "uint256",
          "name": "amount",
          "type": "uint256"
        }
      ],
      "name": "transfer",
      "outputs": [
        {
          "internalType": "bool",
          "name": "",
          "type": "bool"
        }
      ],
      "stateMutability": "nonpayable",
      "type": "function"
    },
    {
      "inputs": [
        {
          "internalType": "address",
          "name": "from",
          "type": "address"
        },
        {
          "internalType": "address",
          "name": "to",
          "type": "address"
        },
        {
          "internalType": "uint256",
          "name": "amount",
          "type": "uint256"
        }
      ],
      "name": "transferFrom",
      "outputs": [
        {
          "internalType": "bool",
          "name": "",
          "type": "bool"
        }
      ],
      "stateMutability": "nonpayable",
      "type": "function"
    }
  ],
  "bytecode": "0x6080604052346200002657620000146200019e565b604051610ecc620006108239610ecc90f35b600080fd5b634e487b7160e01b600052604160045260246000fd5b90601f01601f191681019081106001600160401b038211176200006357604052565b6200002b565b90620000806200007860405190565b928362000041565b565b6001600160401b0381116200006357602090601f01601f19160190565b90620000b5620000af8362000082565b62000069565b918252565b620000c660076200009f565b662ab9b221b7b4b760c91b602082015290565b620000e3620000ba565b90565b620000f260046200009f565b635553444360e01b602082015290565b620000e3620000e6565b620000e3620000e3620000e39290565b620000e369d3c21bcecceda10000006200010c565b620000e36a084595161401484a0000006200010c565b156200014f57565b60405162461bcd60e51b815260206004820152602160248201527f496e697469616c20737570706c792065786365656473206d617820737570706c6044820152607960f81b6064820152608490fd5b620001bd620001ac620000d9565b620001b662000102565b90620003f0565b620001e9620001cb6200011c565b620001e1620001dd620000e362000131565b9190565b111562000147565b6200008033620001f86200011c565b9062000529565b634e487b7160e01b600052602260045260246000fd5b906001600283049216801562000238575b60208310146200023257565b620001ff565b91607f169162000226565b9160001960089290920291821b911b5b9181191691161790565b919062000272620000e36200027b936200010c565b90835462000243565b9055565b62000080916000916200025d565b81811062000299575050565b80620002a960006001936200027f565b016200028d565b9190601f8111620002c057505050565b620002d46200008093600052602060002090565b906020601f840181900483019310620002f8575b6020601f9091010401906200028d565b9091508190620002e8565b906200030d815190565b906001600160401b038211620000635762000335826200032e855462000215565b85620002b0565b602090601f831160011462000374576200027b92916000918362000368575b5050600019600883021c1916906002021790565b01519050388062000354565b601f198316916200038a85600052602060002090565b9260005b818110620003cb57509160029391856001969410620003b1575b50505002019055565b01516000196008601f8516021c19169055388080620003a8565b919360206001819287870151815501950192016200038e565b90620000809162000303565b906200040262000080926003620003e4565b6004620003e4565b6200041a620000e3620000e39290565b6001600160a01b031690565b620000e3906200040a565b156200043957565b60405162461bcd60e51b815260206004820152601f60248201527f45524332303a206d696e7420746f20746865207a65726f2061646472657373006044820152606490fd5b620000e39081565b620000e390546200047e565b634e487b7160e01b600052601160045260246000fd5b91908201809211620004b657565b62000492565b906000199062000253565b90620004db620000e36200027b926200010c565b8254620004bc565b620000e3906200041a906001600160a01b031682565b620000e390620004e3565b620000e390620004f9565b906200051b9062000504565b600052602052604060002090565b906200055882620005506200054962000543600062000426565b6200041a565b916200041a565b141562000431565b6200057b62000573826200056d600262000486565b620004a8565b6002620004c7565b620005a881620005a1620005918560006200050f565b916200059d8362000486565b0190565b90620004c7565b620005b4600062000426565b9190916200060a620005f2620005eb7fddf252ad1be2c89b69c2b068fc378daa952ba7f163c4a11628f55a4df523b3ef9362000504565b9362000504565b93620005fd60405190565b9182918290815260200190565b0390a356fe6080604052600436101561001257600080fd5b60003560e01c806306fdde03146100f2578063095ea7b3146100ed57806318160ddd146100e857806323b872dd146100e35780632ff2e9dc146100de578063313ce567146100d957806332cb6b0c146100d457806339509351146100cf57806340c10f19146100ca57806370a08231146100c557806395d89b41146100c0578063a457c2d7146100bb578063a9059cbb146100b65763dd62ed3e036101025761046a565b61042b565b61040f565b6103f4565b6103d9565b6103a7565b61038b565b610370565b610325565b61030a565b6102c6565b61026a565b61023c565b610194565b600091031261010257565b600080fd5b60005b83811061011a5750506000910152565b818101518382015260200161010a565b61014b61015460209361017c9361013f815190565b80835293849260200190565b95869101610107565b601f017fffffffffffffffffffffffffffffffffffffffffffffffffffffffffffffffe01690565b0190565b60208082526101919291019061012a565b90565b34610102576101a43660046100f7565b6101bb6101af61060b565b60405191829182610180565b0390f35b73ffffffffffffffffffffffffffffffffffffffff1690565b73ffffffffffffffffffffffffffffffffffffffff81165b0361010257565b90503590610204826101d8565b565b806101f0565b9050359061020482610206565b9190604083820312610102576101919061023381856101f7565b9360200161020c565b34610102576101bb610258610252366004610219565b90610615565b60405191829182901515815260200190565b346101025761027a3660046100f7565b6101bb610285610636565b6040515b9182918290815260200190565b9091606082840312610102576101916102af84846101f7565b936102bd81602086016101f7565b9360400161020c565b34610102576101bb6102586102dc366004610296565b91610640565b6101916101916101919290565b61019169d3c21bcecceda10000006102e2565b6101916102ef565b346101025761031a3660046100f7565b6101bb610285610302565b34610102576103353660046100f7565b6101bb61034061066b565b6040519182918260ff909116815260200190565b6101916a084595161401484a0000006102e2565b610191610354565b34610102576103803660046100f7565b6101bb610285610368565b34610102576101bb6102586103a1366004610219565b906106b6565b34610102576103c06103ba366004610219565b906106d5565b604051005b9060208282031261010257610191916101f7565b34610102576101bb6102856103ef3660046103c5565b61072c565b34610102576104043660046100f7565b6101bb6101af610748565b34610102576101bb610258610425366004610219565b906107c4565b34610102576101bb610258610441366004610219565b90610913565b9190604083820312610102576101919061046181856101f7565b936020016101f7565b34610102576101bb610285610480366004610447565b90610983565b7f4e487b7100000000000000000000000000000000000000000000000000000000600052602260045260246000fd5b90600160028304921680156104d5575b60208310146104d057565b610486565b91607f16916104c5565b805460009392916104fc6104f2836104b5565b8085529360200190565b916001811690811561054e575060011461051557505050565b6105289192939450600052602060002090565b916000925b81841061053a5750500190565b80548484015260209093019260010161052d565b92949550505060ff1916825215156020020190565b90610191916104df565b7f4e487b7100000000000000000000000000000000000000000000000000000000600052604160045260246000fd5b90601f017fffffffffffffffffffffffffffffffffffffffffffffffffffffffffffffffe016810190811067ffffffffffffffff8211176105dc57604052565b61056d565b906102046105fb926105f260405190565b93848092610563565b038361059c565b610191906105e1565b6101916003610602565b610620919033610a9a565b600190565b6101919081565b6101919054610625565b610191600261062c565b6106209290610650823383610b85565b919091610d31565b6106656101916101919290565b60ff1690565b6101916012610658565b7f4e487b7100000000000000000000000000000000000000000000000000000000600052601160045260246000fd5b919082018092116106b157565b610675565b610620916106cf3392916106ca8385610983565b6106a4565b91610a9a565b9061020491610e3c565b6101bf6101916101919273ffffffffffffffffffffffffffffffffffffffff1690565b610191906106df565b61019190610702565b9061071e9061070b565b600052602052604060002090565b6107436101919161073b600090565b506000610714565b61062c565b6101916004610602565b1561075957565b60405162461bcd60e51b815260206004820152602560248201527f45524332303a2064656372656173656420616c6c6f77616e63652062656c6f7760448201527f207a65726f0000000000000000000000000000000000000000000000000000006064820152608490fd5b610620916106cf33916107d78484610983565b926107ed82856107e6565b9190565b1015610752565b93920390565b6101bf6101916101919290565b610191906107f3565b1561081057565b60405162461bcd60e51b815260206004820152601c60248201527f5472616e7366657220746f20746865207a65726f2061646472657373000000006044820152606490fd5b1561085c57565b60405162461bcd60e51b815260206004820152602960248201527f5472616e7366657220616d6f756e74206d75737420626520677265617465722060448201527f7468616e207a65726f00000000000000000000000000000000000000000000006064820152608490fd5b156108ce57565b60405162461bcd60e51b815260206004820152601460248201527f496e73756666696369656e742062616c616e63650000000000000000000000006044820152606490fd5b610191919061094d8161094661092c6101bf6000610800565b9173ffffffffffffffffffffffffffffffffffffffff1690565b1415610809565b6109648261095e6107e260006102e2565b11610855565b61097e826109776107e26101913361072c565b11156108c7565b610e8c565b6101919161099e61074392610996600090565b506001610714565b610714565b156109aa57565b60405162461bcd60e51b8152602060048201526024808201527f45524332303a20617070726f76652066726f6d20746865207a65726f2061646460448201527f72657373000000000000000000000000000000000000000000000000000000006064820152608490fd5b15610a1b57565b60405162461bcd60e51b815260206004820152602260248201527f45524332303a20617070726f766520746f20746865207a65726f20616464726560448201527f73730000000000000000000000000000000000000000000000000000000000006064820152608490fd5b90610191610191610a96926102e2565b9055565b919091610ab881610ab161092c6101bf6000610800565b14156109a3565b610ad383610acc61092c6101bf6000610800565b1415610a14565b610af182610aec610ae5846001610714565b8690610714565b610a86565b919091610b34610b2a610b247f8c5be1e5ebec7d5bd14f71427d1e84f3dd0314c0f7b2291e5b200ac8c7c3b9259361070b565b9361070b565b9361028960405190565b0390a3565b15610b4057565b60405162461bcd60e51b815260206004820152601d60248201527f45524332303a20696e73756666696369656e7420616c6c6f77616e63650000006044820152606490fd5b610b8f8282610983565b907fffffffffffffffffffffffffffffffffffffffffffffffffffffffffffffffff8203610bbe575b50505050565b610bd2936106cf916107ed82851015610b39565b38808080610bb8565b15610be257565b60405162461bcd60e51b815260206004820152602560248201527f45524332303a207472616e736665722066726f6d20746865207a65726f20616460448201527f64726573730000000000000000000000000000000000000000000000000000006064820152608490fd5b15610c5457565b60405162461bcd60e51b815260206004820152602360248201527f45524332303a207472616e7366657220746f20746865207a65726f206164647260448201527f65737300000000000000000000000000000000000000000000000000000000006064820152608490fd5b15610cc657565b60405162461bcd60e51b815260206004820152602660248201527f45524332303a207472616e7366657220616d6f756e742065786365656473206260448201527f616c616e636500000000000000000000000000000000000000000000000000006064820152608490fd5b919091610d4f81610d4861092c6101bf6000610800565b1415610bdb565b610d6a83610d6361092c6101bf6000610800565b1415610c4d565b610d9b610d90610d7e610743846000610714565b610d8a85821015610cbf565b84900390565b610aec836000610714565b610dbd82610db7610dad866000610714565b9161017c8361062c565b90610a86565b919091610b34610b2a610b247fddf252ad1be2c89b69c2b068fc378daa952ba7f163c4a11628f55a4df523b3ef9361070b565b15610df757565b60405162461bcd60e51b815260206004820152601f60248201527f45524332303a206d696e7420746f20746865207a65726f2061646472657373006044820152606490fd5b90610e5882610e5161092c6101bf6000610800565b1415610df0565b610e70610e69826106ca600261062c565b6002610a86565b610e8281610db7610dad856000610714565b610dbd6000610800565b610620913361065056fea26469706673582212204b39ac50a8e787c5204334c3af4e83c0e7f22e2acd30344e489458b5f3e005f764736f6c63430008180033",
  "linkReferences": {},
  "deployedLinkReferences": {}
}