{
  "_format": "hh-sol-artifact-1",
  "contractName": "ABYATKN",
  "sourceName": "contracts/ABYATKN.sol",
  "abi": [
    {
      "inputs": [],
      "stateMutability": "nonpayable",
      "type": "constructor"
    },
    {
      "anonymous": false,
      "inputs": [
        {
          "indexed": true,
          "internalType": "address",
          "name": "owner",
          "type": "address"
        },
        {
          "indexed": true,
          "internalType": "address",
          "name": "spender",
          "type": "address"
        },
        {
          "indexed": false,
          "internalType": "uint256",
          "name": "value",
          "type": "uint256"
        }
      ],
      "name": "Approval",
      "type": "event"
    },
    {
      "anonymous": false,
      "inputs": [
        {
          "indexed": true,
          "internalType": "address",
          "name": "from",
          "type": "address"
        },
        {
          "indexed": true,
          "internalType": "address",
          "name": "to",
          "type": "address"
        },
        {
          "indexed": false,
          "internalType": "uint256",
          "name": "value",
          "type": "uint256"
        }
      ],
      "name": "Transfer",
      "type": "event"
    },
    {
      "inputs": [],
      "name": "INITIAL_SUPPLY",
      "outputs": [
        {
          "internalType": "uint256",
          "name": "",
          "type": "uint256"
        }
      ],
      "stateMutability": "view",
      "type": "function"
    },
    {
      "inputs": [],
      "name": "MAX_SUPPLY",
      "outputs": [
        {
          "internalType": "uint256",
          "name": "",
          "type": "uint256"
        }
      ],
      "stateMutability": "view",
      "type": "function"
    },
    {
      "inputs": [
        {
          "internalType": "address",
          "name": "owner",
          "type": "address"
        },
        {
          "internalType": "address",
          "name": "spender",
          "type": "address"
        }
      ],
      "name": "allowance",
      "outputs": [
        {
          "internalType": "uint256",
          "name": "",
          "type": "uint256"
        }
      ],
      "stateMutability": "view",
      "type": "function"
    },
    {
      "inputs": [
        {
          "internalType": "address",
          "name": "spender",
          "type": "address"
        },
        {
          "internalType": "uint256",
          "name": "amount",
          "type": "uint256"
        }
      ],
      "name": "approve",
      "outputs": [
        {
          "internalType": "bool",
          "name": "",
          "type": "bool"
        }
      ],
      "stateMutability": "nonpayable",
      "type": "function"
    },
    {
      "inputs": [
        {
          "internalType": "address",
          "name": "account",
          "type": "address"
        }
      ],
      "name": "balanceOf",
      "outputs": [
        {
          "internalType": "uint256",
          "name": "",
          "type": "uint256"
        }
      ],
      "stateMutability": "view",
      "type": "function"
    },
    {
      "inputs": [
        {
          "internalType": "uint256",
          "name": "amount",
          "type": "uint256"
        }
      ],
      "name": "burn",
      "outputs": [],
      "stateMutability": "nonpayable",
      "type": "function"
    },
    {
      "inputs": [],
      "name": "decimals",
      "outputs": [
        {
          "internalType": "uint8",
          "name": "",
          "type": "uint8"
        }
      ],
      "stateMutability": "view",
      "type": "function"
    },
    {
      "inputs": [
        {
          "internalType": "address",
          "name": "spender",
          "type": "address"
        },
        {
          "internalType": "uint256",
          "name": "subtractedValue",
          "type": "uint256"
        }
      ],
      "name": "decreaseAllowance",
      "outputs": [
        {
          "internalType": "bool",
          "name": "",
          "type": "bool"
        }
      ],
      "stateMutability": "nonpayable",
      "type": "function"
    },
    {
      "inputs": [
        {
          "internalType": "address",
          "name": "spender",
          "type": "address"
        },
        {
          "internalType": "uint256",
          "name": "addedValue",
          "type": "uint256"
        }
      ],
      "name": "increaseAllowance",
      "outputs": [
        {
          "internalType": "bool",
          "name": "",
          "type": "bool"
        }
      ],
      "stateMutability": "nonpayable",
      "type": "function"
    },
    {
      "inputs": [
        {
          "internalType": "address",
          "name": "to",
          "type": "address"
        },
        {
          "internalType": "uint256",
          "name": "amount",
          "type": "uint256"
        }
      ],
      "name": "mint",
      "outputs": [],
      "stateMutability": "nonpayable",
      "type": "function"
    },
    {
      "inputs": [],
      "name": "name",
      "outputs": [
        {
          "internalType": "string",
          "name": "",
          "type": "string"
        }
      ],
      "stateMutability": "view",
      "type": "function"
    },
    {
      "inputs": [],
      "name": "symbol",
      "outputs": [
        {
          "internalType": "string",
          "name": "",
          "type": "string"
        }
      ],
      "stateMutability": "view",
      "type": "function"
    },
    {
      "inputs": [],
      "name": "totalSupply",
      "outputs": [
        {
          "internalType": "uint256",
          "name": "",
          "type": "uint256"
        }
      ],
      "stateMutability": "view",
      "type": "function"
    },
    {
      "inputs": [
        {
          "internalType": "address",
          "name": "recipient",
          "type": "address"
        },
        {
          "internalType": "uint256",
          "name": "amount",
          "type": "uint256"
        }
      ],
      "name": "transfer",
      "outputs": [
        {
          "internalType": "bool",
          "name": "",
          "type": "bool"
        }
      ],
      "stateMutability": "nonpayable",
      "type": "function"
    },
    {
      "inputs": [
        {
          "internalType": "address",
          "name": "from",
          "type": "address"
        },
        {
          "internalType": "address",
          "name": "to",
          "type": "address"
        },
        {
          "internalType": "uint256",
          "name": "amount",
          "type": "uint256"
        }
      ],
      "name": "transferFrom",
      "outputs": [
        {
          "internalType": "bool",
          "name": "",
          "type": "bool"
        }
      ],
      "stateMutability": "nonpayable",
      "type": "function"
    }
  ],
  "bytecode": "0x608060405234620000265762000014620001a3565b60405161110a62000615823961110a90f35b600080fd5b634e487b7160e01b600052604160045260246000fd5b90601f01601f191681019081106001600160401b038211176200006357604052565b6200002b565b90620000806200007860405190565b928362000041565b565b6001600160401b0381116200006357602090601f01601f19160190565b90620000b5620000af8362000082565b62000069565b918252565b620000c660076200009f565b6620a12ca0aa25a760c91b602082015290565b620000e3620000ba565b90565b620000f260066200009f565b6520a12caa25a760d11b602082015290565b620000e3620000e6565b620000e3620000e3620000e39290565b620000e36b033b2e3c9fd0803ce80000006200010e565b620000e36b204fce5e3e250261100000006200010e565b156200015457565b60405162461bcd60e51b815260206004820152602160248201527f496e697469616c20737570706c792065786365656473206d617820737570706c6044820152607960f81b6064820152608490fd5b620001c2620001b1620000d9565b620001bb62000104565b90620003f5565b620001ee620001d06200011e565b620001e6620001e2620000e362000135565b9190565b11156200014c565b6200008033620001fd6200011e565b906200052e565b634e487b7160e01b600052602260045260246000fd5b90600160028304921680156200023d575b60208310146200023757565b62000204565b91607f16916200022b565b9160001960089290920291821b911b5b9181191691161790565b919062000277620000e362000280936200010e565b90835462000248565b9055565b620000809160009162000262565b8181106200029e575050565b80620002ae600060019362000284565b0162000292565b9190601f8111620002c557505050565b620002d96200008093600052602060002090565b906020601f840181900483019310620002fd575b6020601f90910104019062000292565b9091508190620002ed565b9062000312815190565b906001600160401b03821162000063576200033a826200033385546200021a565b85620002b5565b602090601f83116001146200037957620002809291600091836200036d575b5050600019600883021c1916906002021790565b01519050388062000359565b601f198316916200038f85600052602060002090565b9260005b818110620003d057509160029391856001969410620003b6575b50505002019055565b01516000196008601f8516021c19169055388080620003ad565b9193602060018192878701518155019501920162000393565b90620000809162000308565b906200040762000080926003620003e9565b6004620003e9565b6200041f620000e3620000e39290565b6001600160a01b031690565b620000e3906200040f565b156200043e57565b60405162461bcd60e51b815260206004820152601f60248201527f45524332303a206d696e7420746f20746865207a65726f2061646472657373006044820152606490fd5b620000e39081565b620000e3905462000483565b634e487b7160e01b600052601160045260246000fd5b91908201809211620004bb57565b62000497565b906000199062000258565b90620004e0620000e362000280926200010e565b8254620004c1565b620000e3906200041f906001600160a01b031682565b620000e390620004e8565b620000e390620004fe565b90620005209062000509565b600052602052604060002090565b906200055d82620005556200054e6200054860006200042b565b6200041f565b916200041f565b141562000436565b6200058062000578826200057260026200048b565b620004ad565b6002620004cc565b620005ad81620005a66200059685600062000514565b91620005a2836200048b565b0190565b90620004cc565b620005b960006200042b565b9190916200060f620005f7620005f07fddf252ad1be2c89b69c2b068fc378daa952ba7f163c4a11628f55a4df523b3ef9362000509565b9362000509565b936200060260405190565b9182918290815260200190565b0390a356fe6080604052600436101561001257600080fd5b60003560e01c806306fdde0314610102578063095ea7b3146100fd57806318160ddd146100f857806323b872dd146100f35780632ff2e9dc146100ee578063313ce567146100e957806332cb6b0c146100e457806339509351146100df57806340c10f19146100da57806342966c68146100d557806370a08231146100d057806395d89b41146100cb578063a457c2d7146100c6578063a9059cbb146100c15763dd62ed3e03610112576104a9565b61046a565b61044e565b610433565b610418565b6103ec565b6103ba565b61039e565b610383565b610337565b61031c565b6102d6565b61027a565b61024c565b6101a4565b600091031261011257565b600080fd5b60005b83811061012a5750506000910152565b818101518382015260200161011a565b61015b61016460209361018c9361014f815190565b80835293849260200190565b95869101610117565b601f017fffffffffffffffffffffffffffffffffffffffffffffffffffffffffffffffe01690565b0190565b60208082526101a19291019061013a565b90565b34610112576101b4366004610107565b6101cb6101bf61064a565b60405191829182610190565b0390f35b73ffffffffffffffffffffffffffffffffffffffff1690565b73ffffffffffffffffffffffffffffffffffffffff81165b0361011257565b90503590610214826101e8565b565b80610200565b9050359061021482610216565b9190604083820312610112576101a1906102438185610207565b9360200161021c565b34610112576101cb610268610262366004610229565b90610654565b60405191829182901515815260200190565b346101125761028a366004610107565b6101cb610295610675565b6040515b9182918290815260200190565b9091606082840312610112576101a16102bf8484610207565b936102cd8160208601610207565b9360400161021c565b34610112576101cb6102686102ec3660046102a6565b9161067f565b6101a16101a16101a19290565b6101a16b033b2e3c9fd0803ce80000006102f2565b6101a16102ff565b346101125761032c366004610107565b6101cb610295610314565b3461011257610347366004610107565b6101cb6103526106aa565b6040519182918260ff909116815260200190565b6101a16b204fce5e3e250261100000006102f2565b6101a1610366565b3461011257610393366004610107565b6101cb61029561037b565b34610112576101cb6102686103b4366004610229565b906106f5565b34610112576103d36103cd366004610229565b90610714565b604051005b90602082820312610112576101a19161021c565b34610112576103d36103ff3660046103d8565b610790565b90602082820312610112576101a191610207565b34610112576101cb61029561042e366004610404565b610802565b3461011257610443366004610107565b6101cb6101bf61081e565b34610112576101cb610268610464366004610229565b9061089a565b34610112576101cb610268610480366004610229565b906109e0565b9190604083820312610112576101a1906104a08185610207565b93602001610207565b34610112576101cb6102956104bf366004610486565b90610a50565b7f4e487b7100000000000000000000000000000000000000000000000000000000600052602260045260246000fd5b9060016002830492168015610514575b602083101461050f57565b6104c5565b91607f1691610504565b8054600093929161053b610531836104f4565b8085529360200190565b916001811690811561058d575060011461055457505050565b6105679192939450600052602060002090565b916000925b8184106105795750500190565b80548484015260209093019260010161056c565b92949550505060ff1916825215156020020190565b906101a19161051e565b7f4e487b7100000000000000000000000000000000000000000000000000000000600052604160045260246000fd5b90601f017fffffffffffffffffffffffffffffffffffffffffffffffffffffffffffffffe016810190811067ffffffffffffffff82111761061b57604052565b6105ac565b9061021461063a9261063160405190565b938480926105a2565b03836105db565b6101a190610620565b6101a16003610641565b61065f919033610b67565b600190565b6101a19081565b6101a19054610664565b6101a1600261066b565b61065f929061068f823383610c52565b919091610dfe565b6106a46101a16101a19290565b60ff1690565b6101a16012610697565b7f4e487b7100000000000000000000000000000000000000000000000000000000600052601160045260246000fd5b919082018092116106f057565b6106b4565b61065f9161070e3392916107098385610a50565b6106e3565b91610b67565b9061021491610f09565b1561072557565b60405162461bcd60e51b815260206004820152602560248201527f4275726e20616d6f756e74206d7573742062652067726561746572207468616e60448201527f207a65726f0000000000000000000000000000000000000000000000000000006064820152608490fd5b610214906107af816107a96107a560006102f2565b9190565b1161071e565b3361103d565b6101cf6101a16101a19273ffffffffffffffffffffffffffffffffffffffff1690565b6101a1906107b5565b6101a1906107d8565b906107f4906107e1565b600052602052604060002090565b6108196101a191610811600090565b5060006107ea565b61066b565b6101a16004610641565b1561082f57565b60405162461bcd60e51b815260206004820152602560248201527f45524332303a2064656372656173656420616c6c6f77616e63652062656c6f7760448201527f207a65726f0000000000000000000000000000000000000000000000000000006064820152608490fd5b61065f9161070e33916108ad8484610a50565b926108ba82851015610828565b93920390565b6101cf6101a16101a19290565b6101a1906108c0565b156108dd57565b60405162461bcd60e51b815260206004820152601c60248201527f5472616e7366657220746f20746865207a65726f2061646472657373000000006044820152606490fd5b1561092957565b60405162461bcd60e51b815260206004820152602960248201527f5472616e7366657220616d6f756e74206d75737420626520677265617465722060448201527f7468616e207a65726f00000000000000000000000000000000000000000000006064820152608490fd5b1561099b57565b60405162461bcd60e51b815260206004820152601460248201527f496e73756666696369656e742062616c616e63650000000000000000000000006044820152606490fd5b6101a19190610a1a81610a136109f96101cf60006108cd565b9173ffffffffffffffffffffffffffffffffffffffff1690565b14156108d6565b610a3182610a2b6107a560006102f2565b11610922565b610a4b82610a446107a56101a133610802565b1115610994565b6110ca565b6101a191610a6b61081992610a63600090565b5060016107ea565b6107ea565b15610a7757565b60405162461bcd60e51b8152602060048201526024808201527f45524332303a20617070726f76652066726f6d20746865207a65726f2061646460448201527f72657373000000000000000000000000000000000000000000000000000000006064820152608490fd5b15610ae857565b60405162461bcd60e51b815260206004820152602260248201527f45524332303a20617070726f766520746f20746865207a65726f20616464726560448201527f73730000000000000000000000000000000000000000000000000000000000006064820152608490fd5b906101a16101a1610b63926102f2565b9055565b919091610b8581610b7e6109f96101cf60006108cd565b1415610a70565b610ba083610b996109f96101cf60006108cd565b1415610ae1565b610bbe82610bb9610bb28460016107ea565b86906107ea565b610b53565b919091610c01610bf7610bf17f8c5be1e5ebec7d5bd14f71427d1e84f3dd0314c0f7b2291e5b200ac8c7c3b925936107e1565b936107e1565b9361029960405190565b0390a3565b15610c0d57565b60405162461bcd60e51b815260206004820152601d60248201527f45524332303a20696e73756666696369656e7420616c6c6f77616e63650000006044820152606490fd5b610c5c8282610a50565b907fffffffffffffffffffffffffffffffffffffffffffffffffffffffffffffffff8203610c8b575b50505050565b610c9f9361070e916108ba82851015610c06565b38808080610c85565b15610caf57565b60405162461bcd60e51b815260206004820152602560248201527f45524332303a207472616e736665722066726f6d20746865207a65726f20616460448201527f64726573730000000000000000000000000000000000000000000000000000006064820152608490fd5b15610d2157565b60405162461bcd60e51b815260206004820152602360248201527f45524332303a207472616e7366657220746f20746865207a65726f206164647260448201527f65737300000000000000000000000000000000000000000000000000000000006064820152608490fd5b15610d9357565b60405162461bcd60e51b815260206004820152602660248201527f45524332303a207472616e7366657220616d6f756e742065786365656473206260448201527f616c616e636500000000000000000000000000000000000000000000000000006064820152608490fd5b919091610e1c81610e156109f96101cf60006108cd565b1415610ca8565b610e3783610e306109f96101cf60006108cd565b1415610d1a565b610e68610e5d610e4b6108198460006107ea565b610e5785821015610d8c565b84900390565b610bb98360006107ea565b610e8a82610e84610e7a8660006107ea565b9161018c8361066b565b90610b53565b919091610c01610bf7610bf17fddf252ad1be2c89b69c2b068fc378daa952ba7f163c4a11628f55a4df523b3ef936107e1565b15610ec457565b60405162461bcd60e51b815260206004820152601f60248201527f45524332303a206d696e7420746f20746865207a65726f2061646472657373006044820152606490fd5b90610f2582610f1e6109f96101cf60006108cd565b1415610ebd565b610f3d610f3682610709600261066b565b6002610b53565b610f4f81610e84610e7a8560006107ea565b610e8a60006108cd565b15610f6057565b60405162461bcd60e51b815260206004820152602160248201527f45524332303a206275726e2066726f6d20746865207a65726f2061646472657360448201527f73000000000000000000000000000000000000000000000000000000000000006064820152608490fd5b15610fd257565b60405162461bcd60e51b815260206004820152602260248201527f45524332303a206275726e20616d6f756e7420657863656564732062616c616e60448201527f63650000000000000000000000000000000000000000000000000000000000006064820152608490fd5b611058816110516109f96101cf60006108cd565b1415610f59565b611078610e5d61106c6108198460006107ea565b610e5785821015610fcb565b61108d610f3683611089600261066b565b0390565b9061109860006108cd565b9091610c01610bf7610bf17fddf252ad1be2c89b69c2b068fc378daa952ba7f163c4a11628f55a4df523b3ef936107e1565b61065f913361068f56fea26469706673582212200659a27879d543b4805c8a6f154404fe9be7ff4f83c57263f23844e7cdc9729364736f6c63430008180033",
  "linkReferences": {},
  "deployedLinkReferences": {}
}